{
  "address": "0x072808a7a01bD8b7Aeb1eBf1b1aaC334Ca647c78",
  "abi": [
    {
      "anonymous": false,
      "inputs": [
        {
          "indexed": false,
          "internalType": "address",
          "name": "_newActivePoolAddress",
          "type": "address"
        }
      ],
      "name": "ActivePoolAddressChanged",
      "type": "event"
    },
    {
      "anonymous": false,
      "inputs": [
        {
          "indexed": false,
          "internalType": "uint256",
          "name": "_ETH",
          "type": "uint256"
        }
      ],
      "name": "ActivePoolETHBalanceUpdated",
      "type": "event"
    },
    {
      "anonymous": false,
      "inputs": [
        {
          "indexed": false,
          "internalType": "uint256",
          "name": "_ZKUSDDebt",
          "type": "uint256"
        }
      ],
      "name": "ActivePoolZKUSDDebtUpdated",
      "type": "event"
    },
    {
      "anonymous": false,
      "inputs": [
        {
          "indexed": false,
          "internalType": "address",
          "name": "_newBorrowerOperationsAddress",
          "type": "address"
        }
      ],
      "name": "BorrowerOperationsAddressChanged",
      "type": "event"
    },
    {
      "anonymous": false,
      "inputs": [
        {
          "indexed": false,
          "internalType": "address",
          "name": "_newDefaultPoolAddress",
          "type": "address"
        }
      ],
      "name": "DefaultPoolAddressChanged",
      "type": "event"
    },
    {
      "anonymous": false,
      "inputs": [
        {
          "indexed": false,
          "internalType": "uint256",
          "name": "_newBalance",
          "type": "uint256"
        }
      ],
      "name": "ETHBalanceUpdated",
      "type": "event"
    },
    {
      "anonymous": false,
      "inputs": [
        {
          "indexed": false,
          "internalType": "address",
          "name": "_to",
          "type": "address"
        },
        {
          "indexed": false,
          "internalType": "uint256",
          "name": "_amount",
          "type": "uint256"
        }
      ],
      "name": "EtherSent",
      "type": "event"
    },
    {
      "anonymous": false,
      "inputs": [
        {
          "indexed": true,
          "internalType": "address",
          "name": "previousOwner",
          "type": "address"
        },
        {
          "indexed": true,
          "internalType": "address",
          "name": "newOwner",
          "type": "address"
        }
      ],
      "name": "OwnershipTransferred",
      "type": "event"
    },
    {
      "anonymous": false,
      "inputs": [
        {
          "indexed": false,
          "internalType": "address",
          "name": "_newStabilityPoolAddress",
          "type": "address"
        }
      ],
      "name": "StabilityPoolAddressChanged",
      "type": "event"
    },
    {
      "anonymous": false,
      "inputs": [
        {
          "indexed": false,
          "internalType": "address",
          "name": "_newTroveManagerAddress",
          "type": "address"
        }
      ],
      "name": "TroveManagerAddressChanged",
      "type": "event"
    },
    {
      "anonymous": false,
      "inputs": [
        {
          "indexed": false,
          "internalType": "uint256",
          "name": "_newBalance",
          "type": "uint256"
        }
      ],
      "name": "ZKUSDBalanceUpdated",
      "type": "event"
    },
    {
      "inputs": [],
      "name": "NAME",
      "outputs": [
        {
          "internalType": "string",
          "name": "",
          "type": "string"
        }
      ],
      "stateMutability": "view",
      "type": "function"
    },
    {
      "inputs": [],
      "name": "borrowerOperationsAddress",
      "outputs": [
        {
          "internalType": "address",
          "name": "",
          "type": "address"
        }
      ],
      "stateMutability": "view",
      "type": "function"
    },
    {
      "inputs": [
        {
          "internalType": "uint256",
          "name": "_amount",
          "type": "uint256"
        }
      ],
      "name": "decreaseZKUSDDebt",
      "outputs": [],
      "stateMutability": "nonpayable",
      "type": "function"
    },
    {
      "inputs": [],
      "name": "defaultPoolAddress",
      "outputs": [
        {
          "internalType": "address",
          "name": "",
          "type": "address"
        }
      ],
      "stateMutability": "view",
      "type": "function"
    },
    {
      "inputs": [],
      "name": "getETH",
      "outputs": [
        {
          "internalType": "uint256",
          "name": "",
          "type": "uint256"
        }
      ],
      "stateMutability": "view",
      "type": "function"
    },
    {
      "inputs": [],
      "name": "getZKUSDDebt",
      "outputs": [
        {
          "internalType": "uint256",
          "name": "",
          "type": "uint256"
        }
      ],
      "stateMutability": "view",
      "type": "function"
    },
    {
      "inputs": [
        {
          "internalType": "uint256",
          "name": "_amount",
          "type": "uint256"
        }
      ],
      "name": "increaseZKUSDDebt",
      "outputs": [],
      "stateMutability": "nonpayable",
      "type": "function"
    },
    {
      "inputs": [],
      "name": "isOwner",
      "outputs": [
        {
          "internalType": "bool",
          "name": "",
          "type": "bool"
        }
      ],
      "stateMutability": "view",
      "type": "function"
    },
    {
      "inputs": [],
      "name": "owner",
      "outputs": [
        {
          "internalType": "address",
          "name": "",
          "type": "address"
        }
      ],
      "stateMutability": "view",
      "type": "function"
    },
    {
      "inputs": [
        {
          "internalType": "address",
          "name": "_account",
          "type": "address"
        },
        {
          "internalType": "uint256",
          "name": "_amount",
          "type": "uint256"
        }
      ],
      "name": "sendETH",
      "outputs": [],
      "stateMutability": "nonpayable",
      "type": "function"
    },
    {
      "inputs": [
        {
          "internalType": "address",
          "name": "_borrowerOperationsAddress",
          "type": "address"
        },
        {
          "internalType": "address",
          "name": "_troveManagerAddress",
          "type": "address"
        },
        {
          "internalType": "address",
          "name": "_stabilityPoolAddress",
          "type": "address"
        },
        {
          "internalType": "address",
          "name": "_defaultPoolAddress",
          "type": "address"
        }
      ],
      "name": "setAddresses",
      "outputs": [],
      "stateMutability": "nonpayable",
      "type": "function"
    },
    {
      "inputs": [],
      "name": "stabilityPoolAddress",
      "outputs": [
        {
          "internalType": "address",
          "name": "",
          "type": "address"
        }
      ],
      "stateMutability": "view",
      "type": "function"
    },
    {
      "inputs": [],
      "name": "troveManagerAddress",
      "outputs": [
        {
          "internalType": "address",
          "name": "",
          "type": "address"
        }
      ],
      "stateMutability": "view",
      "type": "function"
    },
    {
      "stateMutability": "payable",
      "type": "receive"
    }
  ],
  "transactionHash": "0xb02c7e46008ddef8ff05cc5a88564e695af71f7492e1a591e5417c9bd0207e3d",
  "args": [],
  "numDeployments": 1,
  "solcInputHash": "ffe83ff5afde0d06d4b6b8e37e72100d",
  "bytecode": "0x608060405234801561001057600080fd5b50600080546001600160a01b0319163390811782556040519091907f8be0079c531659141344cd1fd0a4f28419497f9722a3daafe3b4186f6b6457e0908290a3610b308061005f6000396000f3fe6080604052600436106100a65760003560e01c80630b622ab21461010457806314f6c3be146101355780632d7c81081461015c5780634a945f8d14610188578063512a9ebb146101d35780635a4d28bb146101e857806364a197f3146101fd5780636b05e977146102365780638da5cb5b146102605780638f32d59b14610275578063a3f4df7e1461029e578063aac1846f14610328578063b7f8cf9b1461033d576100ff565b366100ff576100b3610352565b6005546100c6903463ffffffff6103b216565b600581905560408051918252517fca232b5abb988c540b959ff6c3bfae3e97fff964fd098c508f9613c0a6bf1a809181900360200190a1005b600080fd5b34801561011057600080fd5b50610119610411565b604080516001600160a01b039092168252519081900360200190f35b34801561014157600080fd5b5061014a610420565b60408051918252519081900360200190f35b34801561016857600080fd5b506101866004803603602081101561017f57600080fd5b5035610426565b005b34801561019457600080fd5b50610186600480360360808110156101ab57600080fd5b506001600160a01b03813581169160208101358216916040820135811691606001351661047b565b3480156101df57600080fd5b5061014a61062c565b3480156101f457600080fd5b50610119610632565b34801561020957600080fd5b506101866004803603604081101561022057600080fd5b506001600160a01b038135169060200135610641565b34801561024257600080fd5b506101866004803603602081101561025957600080fd5b5035610782565b34801561026c57600080fd5b5061011961079d565b34801561028157600080fd5b5061028a6107ac565b604080519115158252519081900360200190f35b3480156102aa57600080fd5b506102b36107bd565b6040805160208082528351818301528351919283929083019185019080838360005b838110156102ed5781810151838201526020016102d5565b50505050905090810190601f16801561031a5780820380516001836020036101000a031916815260200191505b509250505060405180910390f35b34801561033457600080fd5b506101196107e3565b34801561034957600080fd5b506101196107f2565b6001546001600160a01b031633148061037557506004546001600160a01b031633145b6103b05760405162461bcd60e51b8152600401808060200182810382526031815260200180610af36031913960400191505060405180910390fd5b565b60008282018381101561040a576040805162461bcd60e51b815260206004820152601b60248201527a536166654d6174683a206164646974696f6e206f766572666c6f7760281b604482015290519081900360640190fd5b9392505050565b6003546001600160a01b031681565b60055490565b61042e610801565b600654610441908263ffffffff61087416565b600681905560408051918252517fc1cbcea63f02b851620382ea5d17f629c3eb5925538657d24e9aefee4ae2b5c89181900360200190a150565b6104836107ac565b6104d4576040805162461bcd60e51b815260206004820181905260248201527f4f776e61626c653a2063616c6c6572206973206e6f7420746865206f776e6572604482015290519081900360640190fd5b6104dd846108b6565b6104e6836108b6565b6104ef826108b6565b6104f8816108b6565b600180546001600160a01b038087166001600160a01b031992831681179093556002805487831690841617905560038054868316908416179055600480549185169190921617905560408051918252517f3ca631ffcd2a9b5d9ae18543fc82f58eb4ca33af9e6ab01b7a8e95331e6ed9859181900360200190a1604080516001600160a01b038516815290517f143219c9e69b09e07e095fcc889b43d8f46ca892bba65f08dc3a0050869a56789181900360200190a1604080516001600160a01b038416815290517f82966d27eea39b038ee0fa30cd16532bb24f6e65d31cb58fb227aa5766cdcc7f9181900360200190a1604080516001600160a01b038316815290517f5ee0cae2f063ed938bb55046f6a932fb6ae792bf43624806bb90abe68a50be9b9181900360200190a150505050565b60065490565b6002546001600160a01b031681565b610649610801565b60055461065c908263ffffffff61087416565b600581905560408051918252517fca232b5abb988c540b959ff6c3bfae3e97fff964fd098c508f9613c0a6bf1a809181900360200190a1604080516001600160a01b03841681526020810183905281517f6109e2559dfa766aaec7118351d48a523f0a4157f49c8d68749c8ac41318ad12929181900390910190a16040516000906001600160a01b0384169083908381818185875af1925050503d8060008114610722576040519150601f19603f3d011682016040523d82523d6000602084013e610727565b606091505b505090508061077d576040805162461bcd60e51b815260206004820152601e60248201527f416374697665506f6f6c3a2073656e64696e6720455448206661696c65640000604482015290519081900360640190fd5b505050565b61078a610969565b600654610441908263ffffffff6103b216565b6000546001600160a01b031690565b6000546001600160a01b0316331490565b6040518060400160405280600a8152602001691058dd1a5d99541bdbdb60b21b81525081565b6004546001600160a01b031681565b6001546001600160a01b031681565b6001546001600160a01b031633148061082457506002546001600160a01b031633145b8061083957506003546001600160a01b031633145b6103b05760405162461bcd60e51b8152600401808060200182810382526053815260200180610aa06053913960600191505060405180910390fd5b600061040a83836040518060400160405280601e81526020017f536166654d6174683a207375627472616374696f6e206f766572666c6f7700008152506109c7565b6001600160a01b038116610911576040805162461bcd60e51b815260206004820152601e60248201527f4163636f756e742063616e6e6f74206265207a65726f20616464726573730000604482015290519081900360640190fd5b803b80610965576040805162461bcd60e51b815260206004820181905260248201527f4163636f756e7420636f64652073697a652063616e6e6f74206265207a65726f604482015290519081900360640190fd5b5050565b6001546001600160a01b031633148061098c57506002546001600160a01b031633145b6103b05760405162461bcd60e51b8152600401808060200182810382526041815260200180610a5f6041913960600191505060405180910390fd5b60008184841115610a565760405162461bcd60e51b81526004018080602001828103825283818151815260200191508051906020019080838360005b83811015610a1b578181015183820152602001610a03565b50505050905090810190601f168015610a485780820380516001836020036101000a031916815260200191505b509250505060405180910390fd5b50505090039056fe416374697665506f6f6c3a2043616c6c6572206973206e65697468657220426f72726f7765724f7065726174696f6e73206e6f722054726f76654d616e61676572416374697665506f6f6c3a2043616c6c6572206973206e65697468657220426f72726f7765724f7065726174696f6e73206e6f722054726f76654d616e61676572206e6f722053746162696c697479506f6f6c416374697665506f6f6c3a2043616c6c6572206973206e65697468657220424f206e6f722044656661756c7420506f6f6ca164736f6c634300060b000a",
  "devdoc": {
    "kind": "dev",
    "methods": {
      "isOwner()": {
        "details": "Returns true if the caller is the current owner."
      },
      "owner()": {
        "details": "Returns the address of the current owner."
      }
    },
    "version": 1
  },
  "userdoc": {
    "kind": "user",
    "methods": {},
    "version": 1
  },
  "storageLayout": {
    "storage": [
      {
        "astId": 4382,
        "contract": "contracts/ActivePool.sol:ActivePool",
        "label": "_owner",
        "offset": 0,
        "slot": "0",
        "type": "t_address"
      },
      {
        "astId": 20,
        "contract": "contracts/ActivePool.sol:ActivePool",
        "label": "borrowerOperationsAddress",
        "offset": 0,
        "slot": "1",
        "type": "t_address"
      },
      {
        "astId": 22,
        "contract": "contracts/ActivePool.sol:ActivePool",
        "label": "troveManagerAddress",
        "offset": 0,
        "slot": "2",
        "type": "t_address"
      },
      {
        "astId": 24,
        "contract": "contracts/ActivePool.sol:ActivePool",
        "label": "stabilityPoolAddress",
        "offset": 0,
        "slot": "3",
        "type": "t_address"
      },
      {
        "astId": 26,
        "contract": "contracts/ActivePool.sol:ActivePool",
        "label": "defaultPoolAddress",
        "offset": 0,
        "slot": "4",
        "type": "t_address"
      },
      {
        "astId": 28,
        "contract": "contracts/ActivePool.sol:ActivePool",
        "label": "ETH",
        "offset": 0,
        "slot": "5",
        "type": "t_uint256"
      },
      {
        "astId": 30,
        "contract": "contracts/ActivePool.sol:ActivePool",
        "label": "ZKUSDDebt",
        "offset": 0,
        "slot": "6",
        "type": "t_uint256"
      }
    ],
    "types": {
      "t_address": {
        "encoding": "inplace",
        "label": "address",
        "numberOfBytes": "20"
      },
      "t_uint256": {
        "encoding": "inplace",
        "label": "uint256",
        "numberOfBytes": "32"
      }
    }
  }
}