{
  "address": "0xA2569C5660F878968307fe677886a533599c0DF3",
  "abi": [
    {
      "anonymous": false,
      "inputs": [
        {
          "indexed": false,
          "internalType": "address",
          "name": "_activePoolAddress",
          "type": "address"
        }
      ],
      "name": "ActivePoolAddressChanged",
      "type": "event"
    },
    {
      "anonymous": false,
      "inputs": [
        {
          "indexed": false,
          "internalType": "address",
          "name": "_collSurplusPoolAddress",
          "type": "address"
        }
      ],
      "name": "CollSurplusPoolAddressChanged",
      "type": "event"
    },
    {
      "anonymous": false,
      "inputs": [
        {
          "indexed": true,
          "internalType": "address",
          "name": "controller",
          "type": "address"
        },
        {
          "indexed": false,
          "internalType": "bool",
          "name": "enabled",
          "type": "bool"
        }
      ],
      "name": "ControllerChanged",
      "type": "event"
    },
    {
      "anonymous": false,
      "inputs": [
        {
          "indexed": false,
          "internalType": "address",
          "name": "_defaultPoolAddress",
          "type": "address"
        }
      ],
      "name": "DefaultPoolAddressChanged",
      "type": "event"
    },
    {
      "anonymous": false,
      "inputs": [
        {
          "indexed": false,
          "internalType": "address",
          "name": "_gasPoolAddress",
          "type": "address"
        }
      ],
      "name": "GasPoolAddressChanged",
      "type": "event"
    },
    {
      "anonymous": false,
      "inputs": [
        {
          "indexed": true,
          "internalType": "address",
          "name": "previousOwner",
          "type": "address"
        },
        {
          "indexed": true,
          "internalType": "address",
          "name": "newOwner",
          "type": "address"
        }
      ],
      "name": "OwnershipTransferred",
      "type": "event"
    },
    {
      "anonymous": false,
      "inputs": [
        {
          "indexed": false,
          "internalType": "address",
          "name": "_newPriceFeedAddress",
          "type": "address"
        }
      ],
      "name": "PriceFeedAddressChanged",
      "type": "event"
    },
    {
      "anonymous": false,
      "inputs": [
        {
          "indexed": false,
          "internalType": "address",
          "name": "_sortedTrovesAddress",
          "type": "address"
        }
      ],
      "name": "SortedTrovesAddressChanged",
      "type": "event"
    },
    {
      "anonymous": false,
      "inputs": [
        {
          "indexed": false,
          "internalType": "address",
          "name": "_stabilityPoolAddress",
          "type": "address"
        }
      ],
      "name": "StabilityPoolAddressChanged",
      "type": "event"
    },
    {
      "anonymous": false,
      "inputs": [
        {
          "indexed": true,
          "internalType": "address",
          "name": "_borrower",
          "type": "address"
        },
        {
          "indexed": false,
          "internalType": "uint256",
          "name": "arrayIndex",
          "type": "uint256"
        }
      ],
      "name": "TroveCreated",
      "type": "event"
    },
    {
      "anonymous": false,
      "inputs": [
        {
          "indexed": false,
          "internalType": "address",
          "name": "_newTroveManagerAddress",
          "type": "address"
        }
      ],
      "name": "TroveManagerAddressChanged",
      "type": "event"
    },
    {
      "anonymous": false,
      "inputs": [
        {
          "indexed": true,
          "internalType": "address",
          "name": "_borrower",
          "type": "address"
        },
        {
          "indexed": false,
          "internalType": "uint256",
          "name": "_debt",
          "type": "uint256"
        },
        {
          "indexed": false,
          "internalType": "uint256",
          "name": "_coll",
          "type": "uint256"
        },
        {
          "indexed": false,
          "internalType": "uint256",
          "name": "stake",
          "type": "uint256"
        },
        {
          "indexed": false,
          "internalType": "enum BorrowerOperations.BorrowerOperation",
          "name": "operation",
          "type": "uint8"
        }
      ],
      "name": "TroveUpdated",
      "type": "event"
    },
    {
      "anonymous": false,
      "inputs": [
        {
          "indexed": false,
          "internalType": "address",
          "name": "_zktStakingAddress",
          "type": "address"
        }
      ],
      "name": "ZKTStakingAddressChanged",
      "type": "event"
    },
    {
      "anonymous": false,
      "inputs": [
        {
          "indexed": true,
          "internalType": "address",
          "name": "_borrower",
          "type": "address"
        },
        {
          "indexed": false,
          "internalType": "uint256",
          "name": "_ZKUSDFee",
          "type": "uint256"
        }
      ],
      "name": "ZKUSDBorrowingFeePaid",
      "type": "event"
    },
    {
      "anonymous": false,
      "inputs": [
        {
          "indexed": false,
          "internalType": "address",
          "name": "_zkusdTokenAddress",
          "type": "address"
        }
      ],
      "name": "ZKUSDTokenAddressChanged",
      "type": "event"
    },
    {
      "inputs": [],
      "name": "BORROWING_FEE_FLOOR",
      "outputs": [
        {
          "internalType": "uint256",
          "name": "",
          "type": "uint256"
        }
      ],
      "stateMutability": "view",
      "type": "function"
    },
    {
      "inputs": [],
      "name": "CCR",
      "outputs": [
        {
          "internalType": "uint256",
          "name": "",
          "type": "uint256"
        }
      ],
      "stateMutability": "view",
      "type": "function"
    },
    {
      "inputs": [],
      "name": "DECIMAL_PRECISION",
      "outputs": [
        {
          "internalType": "uint256",
          "name": "",
          "type": "uint256"
        }
      ],
      "stateMutability": "view",
      "type": "function"
    },
    {
      "inputs": [],
      "name": "MCR",
      "outputs": [
        {
          "internalType": "uint256",
          "name": "",
          "type": "uint256"
        }
      ],
      "stateMutability": "view",
      "type": "function"
    },
    {
      "inputs": [],
      "name": "MIN_NET_DEBT",
      "outputs": [
        {
          "internalType": "uint256",
          "name": "",
          "type": "uint256"
        }
      ],
      "stateMutability": "view",
      "type": "function"
    },
    {
      "inputs": [],
      "name": "NAME",
      "outputs": [
        {
          "internalType": "string",
          "name": "",
          "type": "string"
        }
      ],
      "stateMutability": "view",
      "type": "function"
    },
    {
      "inputs": [],
      "name": "PERCENT_DIVISOR",
      "outputs": [
        {
          "internalType": "uint256",
          "name": "",
          "type": "uint256"
        }
      ],
      "stateMutability": "view",
      "type": "function"
    },
    {
      "inputs": [],
      "name": "ZKUSD_GAS_COMPENSATION",
      "outputs": [
        {
          "internalType": "uint256",
          "name": "",
          "type": "uint256"
        }
      ],
      "stateMutability": "view",
      "type": "function"
    },
    {
      "inputs": [],
      "name": "_100pct",
      "outputs": [
        {
          "internalType": "uint256",
          "name": "",
          "type": "uint256"
        }
      ],
      "stateMutability": "view",
      "type": "function"
    },
    {
      "inputs": [],
      "name": "activePool",
      "outputs": [
        {
          "internalType": "contract IActivePool",
          "name": "",
          "type": "address"
        }
      ],
      "stateMutability": "view",
      "type": "function"
    },
    {
      "inputs": [
        {
          "internalType": "address",
          "name": "_upperHint",
          "type": "address"
        },
        {
          "internalType": "address",
          "name": "_lowerHint",
          "type": "address"
        },
        {
          "internalType": "bytes[]",
          "name": "_updateData",
          "type": "bytes[]"
        }
      ],
      "name": "addColl",
      "outputs": [],
      "stateMutability": "payable",
      "type": "function"
    },
    {
      "inputs": [
        {
          "internalType": "uint256",
          "name": "_maxFeePercentage",
          "type": "uint256"
        },
        {
          "internalType": "uint256",
          "name": "_collWithdrawal",
          "type": "uint256"
        },
        {
          "internalType": "uint256",
          "name": "_ZKUSDChange",
          "type": "uint256"
        },
        {
          "internalType": "bool",
          "name": "_isDebtIncrease",
          "type": "bool"
        },
        {
          "internalType": "address",
          "name": "_upperHint",
          "type": "address"
        },
        {
          "internalType": "address",
          "name": "_lowerHint",
          "type": "address"
        },
        {
          "internalType": "bytes[]",
          "name": "_updateData",
          "type": "bytes[]"
        }
      ],
      "name": "adjustTrove",
      "outputs": [],
      "stateMutability": "payable",
      "type": "function"
    },
    {
      "inputs": [],
      "name": "claimCollateral",
      "outputs": [],
      "stateMutability": "nonpayable",
      "type": "function"
    },
    {
      "inputs": [
        {
          "internalType": "bytes[]",
          "name": "_updateData",
          "type": "bytes[]"
        }
      ],
      "name": "closeTrove",
      "outputs": [],
      "stateMutability": "payable",
      "type": "function"
    },
    {
      "inputs": [
        {
          "internalType": "address",
          "name": "",
          "type": "address"
        }
      ],
      "name": "controllers",
      "outputs": [
        {
          "internalType": "bool",
          "name": "",
          "type": "bool"
        }
      ],
      "stateMutability": "view",
      "type": "function"
    },
    {
      "inputs": [],
      "name": "defaultPool",
      "outputs": [
        {
          "internalType": "contract IDefaultPool",
          "name": "",
          "type": "address"
        }
      ],
      "stateMutability": "view",
      "type": "function"
    },
    {
      "inputs": [
        {
          "internalType": "uint256",
          "name": "_debt",
          "type": "uint256"
        }
      ],
      "name": "getCompositeDebt",
      "outputs": [
        {
          "internalType": "uint256",
          "name": "",
          "type": "uint256"
        }
      ],
      "stateMutability": "view",
      "type": "function"
    },
    {
      "inputs": [],
      "name": "getEntireSystemColl",
      "outputs": [
        {
          "internalType": "uint256",
          "name": "entireSystemColl",
          "type": "uint256"
        }
      ],
      "stateMutability": "view",
      "type": "function"
    },
    {
      "inputs": [],
      "name": "getEntireSystemDebt",
      "outputs": [
        {
          "internalType": "uint256",
          "name": "entireSystemDebt",
          "type": "uint256"
        }
      ],
      "stateMutability": "view",
      "type": "function"
    },
    {
      "inputs": [],
      "name": "isOwner",
      "outputs": [
        {
          "internalType": "bool",
          "name": "",
          "type": "bool"
        }
      ],
      "stateMutability": "view",
      "type": "function"
    },
    {
      "inputs": [
        {
          "internalType": "address",
          "name": "_borrower",
          "type": "address"
        },
        {
          "internalType": "address",
          "name": "_upperHint",
          "type": "address"
        },
        {
          "internalType": "address",
          "name": "_lowerHint",
          "type": "address"
        },
        {
          "internalType": "bytes[]",
          "name": "_updateData",
          "type": "bytes[]"
        }
      ],
      "name": "moveETHGainToTrove",
      "outputs": [],
      "stateMutability": "payable",
      "type": "function"
    },
    {
      "inputs": [
        {
          "internalType": "uint256",
          "name": "_maxFeePercentage",
          "type": "uint256"
        },
        {
          "internalType": "uint256",
          "name": "_ZKUSDAmount",
          "type": "uint256"
        },
        {
          "internalType": "address",
          "name": "_upperHint",
          "type": "address"
        },
        {
          "internalType": "address",
          "name": "_lowerHint",
          "type": "address"
        },
        {
          "internalType": "bytes[]",
          "name": "_updateData",
          "type": "bytes[]"
        }
      ],
      "name": "openTrove",
      "outputs": [],
      "stateMutability": "payable",
      "type": "function"
    },
    {
      "inputs": [],
      "name": "owner",
      "outputs": [
        {
          "internalType": "address",
          "name": "",
          "type": "address"
        }
      ],
      "stateMutability": "view",
      "type": "function"
    },
    {
      "inputs": [],
      "name": "priceFeed",
      "outputs": [
        {
          "internalType": "contract IPriceFeed",
          "name": "",
          "type": "address"
        }
      ],
      "stateMutability": "view",
      "type": "function"
    },
    {
      "inputs": [
        {
          "internalType": "uint256",
          "name": "_ZKUSDAmount",
          "type": "uint256"
        },
        {
          "internalType": "address",
          "name": "_upperHint",
          "type": "address"
        },
        {
          "internalType": "address",
          "name": "_lowerHint",
          "type": "address"
        },
        {
          "internalType": "bytes[]",
          "name": "_updateData",
          "type": "bytes[]"
        }
      ],
      "name": "repayZKUSD",
      "outputs": [],
      "stateMutability": "payable",
      "type": "function"
    },
    {
      "inputs": [
        {
          "internalType": "address",
          "name": "_troveManagerAddress",
          "type": "address"
        },
        {
          "internalType": "address",
          "name": "_activePoolAddress",
          "type": "address"
        },
        {
          "internalType": "address",
          "name": "_defaultPoolAddress",
          "type": "address"
        },
        {
          "internalType": "address",
          "name": "_stabilityPoolAddress",
          "type": "address"
        },
        {
          "internalType": "address",
          "name": "_gasPoolAddress",
          "type": "address"
        },
        {
          "internalType": "address",
          "name": "_collSurplusPoolAddress",
          "type": "address"
        },
        {
          "internalType": "address",
          "name": "_priceFeedAddress",
          "type": "address"
        },
        {
          "internalType": "address",
          "name": "_sortedTrovesAddress",
          "type": "address"
        },
        {
          "internalType": "address",
          "name": "_zkusdTokenAddress",
          "type": "address"
        },
        {
          "internalType": "address",
          "name": "_zktStakingAddress",
          "type": "address"
        }
      ],
      "name": "setAddresses",
      "outputs": [],
      "stateMutability": "nonpayable",
      "type": "function"
    },
    {
      "inputs": [
        {
          "internalType": "address",
          "name": "controller",
          "type": "address"
        },
        {
          "internalType": "bool",
          "name": "enabled",
          "type": "bool"
        }
      ],
      "name": "setController",
      "outputs": [],
      "stateMutability": "nonpayable",
      "type": "function"
    },
    {
      "inputs": [
        {
          "internalType": "uint256",
          "name": "_gasCompensation",
          "type": "uint256"
        }
      ],
      "name": "setGasCompensation",
      "outputs": [],
      "stateMutability": "nonpayable",
      "type": "function"
    },
    {
      "inputs": [
        {
          "internalType": "uint256",
          "name": "_minNetDebt",
          "type": "uint256"
        }
      ],
      "name": "setMinNetDebt",
      "outputs": [],
      "stateMutability": "nonpayable",
      "type": "function"
    },
    {
      "inputs": [],
      "name": "sortedTroves",
      "outputs": [
        {
          "internalType": "contract ISortedTroves",
          "name": "",
          "type": "address"
        }
      ],
      "stateMutability": "view",
      "type": "function"
    },
    {
      "inputs": [],
      "name": "troveManager",
      "outputs": [
        {
          "internalType": "contract ITroveManager",
          "name": "",
          "type": "address"
        }
      ],
      "stateMutability": "view",
      "type": "function"
    },
    {
      "inputs": [
        {
          "internalType": "uint256",
          "name": "_collWithdrawal",
          "type": "uint256"
        },
        {
          "internalType": "address",
          "name": "_upperHint",
          "type": "address"
        },
        {
          "internalType": "address",
          "name": "_lowerHint",
          "type": "address"
        },
        {
          "internalType": "bytes[]",
          "name": "_updateData",
          "type": "bytes[]"
        }
      ],
      "name": "withdrawColl",
      "outputs": [],
      "stateMutability": "payable",
      "type": "function"
    },
    {
      "inputs": [
        {
          "internalType": "uint256",
          "name": "_maxFeePercentage",
          "type": "uint256"
        },
        {
          "internalType": "uint256",
          "name": "_ZKUSDAmount",
          "type": "uint256"
        },
        {
          "internalType": "address",
          "name": "_upperHint",
          "type": "address"
        },
        {
          "internalType": "address",
          "name": "_lowerHint",
          "type": "address"
        },
        {
          "internalType": "bytes[]",
          "name": "_updateData",
          "type": "bytes[]"
        }
      ],
      "name": "withdrawZKUSD",
      "outputs": [],
      "stateMutability": "payable",
      "type": "function"
    },
    {
      "inputs": [],
      "name": "zktStaking",
      "outputs": [
        {
          "internalType": "contract IZKTStaking",
          "name": "",
          "type": "address"
        }
      ],
      "stateMutability": "view",
      "type": "function"
    },
    {
      "inputs": [],
      "name": "zktStakingAddress",
      "outputs": [
        {
          "internalType": "address",
          "name": "",
          "type": "address"
        }
      ],
      "stateMutability": "view",
      "type": "function"
    },
    {
      "inputs": [],
      "name": "zkusdToken",
      "outputs": [
        {
          "internalType": "contract IZKUSDToken",
          "name": "",
          "type": "address"
        }
      ],
      "stateMutability": "view",
      "type": "function"
    }
  ],
  "transactionHash": "0x60b24e03dcfbfcd12b948ea7a864b280192dd05752b7e86db35f4a0d457439a0",
  "args": [],
  "numDeployments": 1,
  "solcInputHash": "ffe83ff5afde0d06d4b6b8e37e72100d",
  "bytecode": "0x60806040526802b5e3af16b18800006002556818650127cc3dc8000060035534801561002a57600080fd5b50600080546001600160a01b0319163390811782556040519091907f8be0079c531659141344cd1fd0a4f28419497f9722a3daafe3b4186f6b6457e0908290a3613c0b806100796000396000f3fe6080604052600436106101cf5760003560e01c8063887105d3116100f8578063d0029b5111610090578063d0029b511461044e578063da8c229e1461046e578063df9bf27a1461048e578063e0dba60f146104a1578063e129d8e0146104c1578063e34341ab146104d4578063f1f30974146104e9578063f61032d9146104fc578063f92d34331461050f576101cf565b8063887105d31461038e5780638da5cb5b146103a35780638f32d59b146103b8578063a20baee614610325578063a3f4df7e146103da578063ae918754146103fc578063b4bb222d14610411578063c192645b14610426578063c606c68e1461043b576101cf565b80634ff814431161016b5780634ff81443146102bb5780635733d58f146102db5780636c37a4af146102f05780636f0b0c1c1461031057806372fe25aa14610325578063741bef1a1461033a578063794e57241461034f578063795d26c3146103645780637f7dde4a14610379576101cf565b80631bf43555146101d45780631e503ead146101ff57806328b8552e1461021457806335a3f70714610227578063384ded6c146102495780633cc742251461025c5780633d83908a14610271578063438d641a146102865780634870dd9a146102a6575b600080fd5b3480156101e057600080fd5b506101e9610524565b6040516101f69190613b92565b60405180910390f35b61021261020d366004612fdd565b61052a565b005b610212610222366004612f67565b610544565b34801561023357600080fd5b5061023c610567565b6040516101f691906132ce565b610212610257366004613120565b610576565b34801561026857600080fd5b5061023c610591565b34801561027d57600080fd5b5061023c6105a0565b34801561029257600080fd5b506102126102a13660046130b7565b6105af565b3480156102b257600080fd5b506101e96105ec565b3480156102c757600080fd5b506101e96102d63660046130b7565b6105f1565b3480156102e757600080fd5b506101e9610604565b3480156102fc57600080fd5b5061021261030b366004612ea4565b610610565b34801561031c57600080fd5b50610212610969565b34801561033157600080fd5b506101e96109c7565b34801561034657600080fd5b5061023c6109d3565b34801561035b57600080fd5b506101e96109e2565b34801561037057600080fd5b506101e96109ee565b34801561038557600080fd5b5061023c610b0d565b34801561039a57600080fd5b506101e9610b1c565b3480156103af57600080fd5b5061023c610bea565b3480156103c457600080fd5b506103cd610bf9565b6040516101f6919061333a565b3480156103e657600080fd5b506103ef610c0a565b6040516101f69190613371565b34801561040857600080fd5b5061023c610c38565b34801561041d57600080fd5b5061023c610c47565b34801561043257600080fd5b506101e9610c56565b6102126104493660046130e7565b610c5c565b34801561045a57600080fd5b506102126104693660046130b7565b610c70565b34801561047a57600080fd5b506103cd610489366004612e89565b610ca4565b61021261049c366004613078565b610cb9565b3480156104ad57600080fd5b506102126104bc36600461303d565b61102a565b6102126104cf366004613120565b6110ae565b3480156104e057600080fd5b5061023c6116e0565b6102126104f73660046130e7565b6116ef565b61021261050a366004613197565b611702565b34801561051b57600080fd5b506101e961171d565b60035481565b61053e336000806000888860008989611728565b50505050565b61054c611aac565b610560856000806000888860008989611728565b5050505050565b600d546001600160a01b031681565b61058933600087600188888c8989611728565b505050505050565b6005546001600160a01b031681565b6007546001600160a01b031681565b3360009081526001602052604090205460ff166105e75760405162461bcd60e51b81526004016105de90613446565b60405180910390fd5b600355565b60c881565b60006105fc82611ad8565b90505b919050565b6714d1120d7b16000081565b610618610bf9565b6106345760405162461bcd60e51b81526004016105de90613790565b60006003541161064057fe5b6106498a611aef565b61065289611aef565b61065b88611aef565b61066487611aef565b61066d86611aef565b61067685611aef565b61067f84611aef565b61068883611aef565b61069182611aef565b61069a81611aef565b600780546001600160a01b03199081166001600160a01b038d8116919091179092556004805482168c84161790556005805482168b84161790556008805482168a8416179055600980548216898416179055600a80548216888416179055600680548216878416179055600e80548216868416179055600d80548216858416179055600c805482169284169283179055600b805490911690911790556040517f143219c9e69b09e07e095fcc889b43d8f46ca892bba65f08dc3a0050869a567890610766908c906132ce565b60405180910390a17f78f058b189175430c48dc02699e3a0031ea4ff781536dc2fab847de4babdd8828960405161079d91906132ce565b60405180910390a17f5ee0cae2f063ed938bb55046f6a932fb6ae792bf43624806bb90abe68a50be9b886040516107d491906132ce565b60405180910390a17f82966d27eea39b038ee0fa30cd16532bb24f6e65d31cb58fb227aa5766cdcc7f8760405161080b91906132ce565b60405180910390a17fcfb07d791fcafc032b35837b50eb84b74df518cf4cc287e8084f47630fa70fa08660405161084291906132ce565b60405180910390a17fe67f36a6e961157d6eff83b91f3af5a62131ceb6f04954ef74f51c1c05e7f88d8560405161087991906132ce565b60405180910390a17f8c537274438aa850a330284665d81a85dd38267d09e4050d416bfc94142db264846040516108b091906132ce565b60405180910390a17f65f4cf077bc01e4742eb5ad98326f6e95b63548ea24b17f8d5e823111fe78800836040516108e791906132ce565b60405180910390a17fbce04ccd812fbb02ec2145498f813470d7b7587b19477428388fe8201a1521318260405161091e91906132ce565b60405180910390a17f468634f5d5d4ec87457506a98d964db31fea0d63fc80a14ba75267970253ac148160405161095591906132ce565b60405180910390a150505050505050505050565b600a5460405163b32beb5b60e01b81526001600160a01b039091169063b32beb5b906109999033906004016132ce565b600060405180830381600087803b1580156109b357600080fd5b505af115801561053e573d6000803e3d6000fd5b670de0b6b3a764000081565b6006546001600160a01b031681565b670f43fc2c04ee000081565b600480546040805163512a9ebb60e01b8152905160009384936001600160a01b03169263512a9ebb9281830192602092829003018186803b158015610a3257600080fd5b505afa158015610a46573d6000803e3d6000fd5b505050506040513d601f19601f82011682018060405250810190610a6a91906130cf565b90506000600560009054906101000a90046001600160a01b03166001600160a01b031663512a9ebb6040518163ffffffff1660e01b815260040160206040518083038186803b158015610abc57600080fd5b505afa158015610ad0573d6000803e3d6000fd5b505050506040513d601f19601f82011682018060405250810190610af491906130cf565b9050610b06828263ffffffff611b3816565b9250505090565b6004546001600160a01b031681565b6004805460408051630a7b61df60e11b8152905160009384936001600160a01b0316926314f6c3be9281830192602092829003018186803b158015610b6057600080fd5b505afa158015610b74573d6000803e3d6000fd5b505050506040513d601f19601f82011682018060405250810190610b9891906130cf565b90506000600560009054906101000a90046001600160a01b03166001600160a01b03166314f6c3be6040518163ffffffff1660e01b815260040160206040518083038186803b158015610abc57600080fd5b6000546001600160a01b031690565b6000546001600160a01b0316331490565b60405180604001604052806012815260200171426f72726f7765724f7065726174696f6e7360701b81525081565b600e546001600160a01b031681565b600c546001600160a01b031681565b60025481565b610560336000876000888860008989611728565b3360009081526001602052604090205460ff16610c9f5760405162461bcd60e51b81526004016105de90613446565b600255565b60016020526000908152604090205460ff1681565b600754600454600d546001600160a01b03928316929182169116610cdd8333611b66565b6000610ce98686611c0c565b9050610cf481611d24565b604051630b07655760e01b81526001600160a01b03851690630b07655790610d209033906004016132ce565b600060405180830381600087803b158015610d3a57600080fd5b505af1158015610d4e573d6000803e3d6000fd5b50506040516309019aaf60e31b8152600092506001600160a01b038716915063480cd57890610d819033906004016132ce565b60206040518083038186803b158015610d9957600080fd5b505afa158015610dad573d6000803e3d6000fd5b505050506040513d601f19601f82011682018060405250810190610dd191906130cf565b90506000856001600160a01b031663d66a2553336040518263ffffffff1660e01b8152600401610e0191906132ce565b60206040518083038186803b158015610e1957600080fd5b505afa158015610e2d573d6000803e3d6000fd5b505050506040513d601f19601f82011682018060405250810190610e5191906130cf565b9050610e728433610e6d60025485611d4d90919063ffffffff16565b611d8f565b6000610e8383600084600088611e2b565b9050610e8e81611eb6565b604051631fc5750960e31b81526001600160a01b0388169063fe2ba84890610eba9033906004016132ce565b600060405180830381600087803b158015610ed457600080fd5b505af1158015610ee8573d6000803e3d6000fd5b50506040516365e89c5760e11b81526001600160a01b038a16925063cbd138ae9150610f189033906004016132ce565b600060405180830381600087803b158015610f3257600080fd5b505af1158015610f46573d6000803e3d6000fd5b50505050336001600160a01b0316600080516020613bdf83398151915260008060006001604051610f7a9493929190613345565b60405180910390a2610fa2868633610f9d60025487611d4d90919063ffffffff16565b611ede565b600954600254610fbf91889188916001600160a01b031690611ede565b6040516364a197f360e01b81526001600160a01b038716906364a197f390610fed90339087906004016132e2565b600060405180830381600087803b15801561100757600080fd5b505af115801561101b573d6000803e3d6000fd5b50505050505050505050505050565b611032610bf9565b61104e5760405162461bcd60e51b81526004016105de90613790565b6001600160a01b03821660008181526001602052604090819020805460ff1916841515179055517f4c97694570a07277810af7e5669ffd5f6a2d6b74b6e9a274b8b870fd5114cf87906110a290849061333a565b60405180910390a25050565b6110b6612d62565b50604080516060810182526007546001600160a01b03908116825260045481166020830152600d5416918101919091526110ee612d82565b6110f88484611c0c565b81526006546040516341e7dc0b60e01b81526000916001600160a01b0316906341e7dc0b9061112d9088908890600401613326565b60206040518083038186803b15801561114557600080fd5b505afa158015611159573d6000803e3d6000fd5b505050506040513d601f19601f8201168201806040525081019061117d91906130cf565b3403905060006111908360000151611f98565b905061119c8a82611fb5565b83516111a89033612023565b60408301899052806111e9576111c8846000015185604001518b8d6120c5565b6020840181905260408401516111e39163ffffffff611b3816565b60408401525b6111f68360400151612276565b6112038360400151611ad8565b6060840181905261121057fe5b6112238284606001518560000151612298565b608084015260608301516112389083906122d7565b60a0840152801561125557611250836080015161230c565b611288565b6112628360800151612334565b600061127b836001866060015160018860000151611e2b565b905061128681611eb6565b505b8351604051635d6b480f60e01b81526001600160a01b0390911690635d6b480f906112ba9033906001906004016132e2565b600060405180830381600087803b1580156112d457600080fd5b505af11580156112e8573d6000803e3d6000fd5b505085516040516372423c1760e01b81526001600160a01b0390911692506372423c17915061131d90339086906004016132e2565b602060405180830381600087803b15801561133757600080fd5b505af115801561134b573d6000803e3d6000fd5b505050506040513d601f19601f8201168201806040525081019061136f91906130cf565b5083516060840151604051639976cf4560e01b81526001600160a01b0390921691639976cf45916113a5913391906004016132e2565b602060405180830381600087803b1580156113bf57600080fd5b505af11580156113d3573d6000803e3d6000fd5b505050506040513d601f19601f820116820180604052508101906113f791906130cf565b5083516040516382fe3eb960e01b81526001600160a01b03909116906382fe3eb9906114279033906004016132ce565b600060405180830381600087803b15801561144157600080fd5b505af1158015611455573d6000803e3d6000fd5b50508551604051630c7940bd60e11b81526001600160a01b0390911692506318f2817a91506114889033906004016132ce565b602060405180830381600087803b1580156114a257600080fd5b505af11580156114b6573d6000803e3d6000fd5b505050506040513d601f19601f820116820180604052508101906114da91906130cf565b60c0840152600e5460a08401516040516346f7cf8760e01b81526001600160a01b03909216916346f7cf8791611519913391908d908d906004016132fb565b600060405180830381600087803b15801561153357600080fd5b505af1158015611547573d6000803e3d6000fd5b505085516040516315d549f160e01b81526001600160a01b0390911692506315d549f1915061157a9033906004016132ce565b602060405180830381600087803b15801561159457600080fd5b505af11580156115a8573d6000803e3d6000fd5b505050506040513d601f19601f820116820180604052508101906115cc91906130cf565b60e0840181905260405133917f59cfd0cd754bc5748b6770e94a4ffa5f678d885cb899dcfadc5734edb97c67ab916116049190613b92565b60405180910390a261161a84602001518361235c565b61163384602001518560400151338c87604001516123d8565b602084015160408501516009546002546116599392916001600160a01b031690806123d8565b606083015160c08401516040513392600080516020613bdf8339815191529261168792879190600090613345565b60405180910390a2336001600160a01b03167f26990916a37e0f8569b3c9f7472730814e6e924fda9de44752b4fb9972ef333f84602001516040516116cc9190613b92565b60405180910390a250505050505050505050565b600b546001600160a01b031681565b6105603386600080888860008989611728565b6117133388888888888e8989611728565b5050505050505050565b6611c37937e0800081565b611730612d62565b50604080516060810182526007546001600160a01b03908116825260045481166020830152600d541691810191909152611768612dc7565b6006546040516341e7dc0b60e01b81526000916001600160a01b0316906341e7dc0b9061179b9088908890600401613326565b60206040518083038186803b1580156117b357600080fd5b505afa1580156117c7573d6000803e3d6000fd5b505050506040513d601f19601f820116820180604052508101906117eb91906130cf565b340390506117f98585611c0c565b80835260009061180890611f98565b905061181a8d8d8d8d8b868a8961249d565b611824828d61257e565b151560608501526020840152604083018b9052898015611842575080155b1561187d5761185b846000015185604001518d8a6120c5565b610120840181905260408401516118779163ffffffff611b3816565b60408401525b83600001516001600160a01b031663d66a25538e6040518263ffffffff1660e01b81526004016118ad91906132ce565b60206040518083038186803b1580156118c557600080fd5b505afa1580156118d9573d6000803e3d6000fd5b505050506040513d601f19601f820116820180604052508101906118fd91906130cf565b83608001818152505083600001516001600160a01b031663480cd5788e6040518263ffffffff1660e01b815260040161193691906132ce565b60206040518083038186803b15801561194e57600080fd5b505afa158015611962573d6000803e3d6000fd5b505050506040513d601f19601f8201168201806040525081019061198691906130cf565b60a084018190526080840151845161199f929190612298565b8360c00181815250506119cf8360a0015184608001518560200151866060015187604001518f896000015161259d565b60e08401526119e38d8d8d8d85888a6125d0565b611a0184600001518e8560200151866060015187604001518f612654565b846101600185610140018281525082815250505083600001516001600160a01b03166318f2817a8e6040518263ffffffff1660e01b8152600401611a4591906132ce565b602060405180830381600087803b158015611a5f57600080fd5b505af1158015611a73573d6000803e3d6000fd5b505050506040513d601f19601f82011682018060405250810190611a9791906130cf565b61018084015261101b8d8a8a8e8e888a612882565b6008546001600160a01b03163314611ad65760405162461bcd60e51b81526004016105de906139d7565b565b60006105fc60025483611b3890919063ffffffff16565b6001600160a01b038116611b155760405162461bcd60e51b81526004016105de906135eb565b803b80611b345760405162461bcd60e51b81526004016105de90613939565b5050565b600082820183811015611b5d5760405162461bcd60e51b81526004016105de90613411565b90505b92915050565b6040516321e3780160e01b81526000906001600160a01b038416906321e3780190611b959085906004016132ce565b60206040518083038186803b158015611bad57600080fd5b505afa158015611bc1573d6000803e3d6000fd5b505050506040513d601f19601f82011682018060405250810190611be591906130cf565b905080600114611c075760405162461bcd60e51b81526004016105de906137c5565b505050565b6006546040516341e7dc0b60e01b815260009182916001600160a01b03909116906341e7dc0b90611c439087908790600401613326565b60206040518083038186803b158015611c5b57600080fd5b505afa158015611c6f573d6000803e3d6000fd5b505050506040513d601f19601f82011682018060405250810190611c9391906130cf565b600654604051630ab04c1d60e11b81529192506001600160a01b031690631560983a908390611cca90829089908990600401613b9b565b6020604051808303818588803b158015611ce357600080fd5b505af1158015611cf7573d6000803e3d6000fd5b50505050506040513d601f19601f82011682018060405250810190611d1c91906130cf565b949350505050565b611d2d81611f98565b15611d4a5760405162461bcd60e51b81526004016105de906134de565b50565b6000611b5d83836040518060400160405280601e81526020017f536166654d6174683a207375627472616374696f6e206f766572666c6f7700008152506129be565b6040516370a0823160e01b815281906001600160a01b038516906370a0823190611dbd9086906004016132ce565b60206040518083038186803b158015611dd557600080fd5b505afa158015611de9573d6000803e3d6000fd5b505050506040513d601f19601f82011682018060405250810190611e0d91906130cf565b1015611c075760405162461bcd60e51b81526004016105de9061358e565b600080611e36610b1c565b90506000611e426109ee565b905086611e5e57611e59828963ffffffff611d4d16565b611e6e565b611e6e828963ffffffff611b3816565b915084611e8a57611e85818763ffffffff611d4d16565b611e9a565b611e9a818763ffffffff611b3816565b90506000611ea9838387612298565b9998505050505050505050565b6714d1120d7b160000811015611d4a5760405162461bcd60e51b81526004016105de90613721565b6040516305af902160e31b81526001600160a01b03851690632d7c810890611f0a908490600401613b92565b600060405180830381600087803b158015611f2457600080fd5b505af1158015611f38573d6000803e3d6000fd5b5050604051632770a7eb60e21b81526001600160a01b0386169250639dc29fac9150611f6a90859085906004016132e2565b600060405180830381600087803b158015611f8457600080fd5b505af1158015611713573d6000803e3d6000fd5b600080611fa4836129ea565b6714d1120d7b160000119392505050565b8015611fe857670de0b6b3a7640000821115611fe35760405162461bcd60e51b81526004016105de90613622565b611b34565b6611c37937e0800082108015906120075750670de0b6b3a76400008211155b611b345760405162461bcd60e51b81526004016105de90613a20565b6040516321e3780160e01b81526000906001600160a01b038416906321e37801906120529085906004016132ce565b60206040518083038186803b15801561206a57600080fd5b505afa15801561207e573d6000803e3d6000fd5b505050506040513d601f19601f820116820180604052508101906120a291906130cf565b90508060011415611c075760405162461bcd60e51b81526004016105de90613a70565b6000846001600160a01b0316635dba4c4a6040518163ffffffff1660e01b8152600401600060405180830381600087803b15801561210257600080fd5b505af1158015612116573d6000803e3d6000fd5b5050604051630631203b60e41b8152600092506001600160a01b038816915063631203b090612149908790600401613b92565b60206040518083038186803b15801561216157600080fd5b505afa158015612175573d6000803e3d6000fd5b505050506040513d601f19601f8201168201806040525081019061219991906130cf565b90506121a6818585612a0e565b600b546040516318f40bcf60e11b81526001600160a01b03909116906331e8179e906121d6908490600401613b92565b600060405180830381600087803b1580156121f057600080fd5b505af1158015612204573d6000803e3d6000fd5b5050600c546040516340c10f1960e01b81526001600160a01b03808a1694506340c10f19935061223a92169085906004016132e2565b600060405180830381600087803b15801561225457600080fd5b505af1158015612268573d6000803e3d6000fd5b509298975050505050505050565b600354811015611d4a5760405162461bcd60e51b81526004016105de906138df565b600082156122cb5760006122c2846122b6878663ffffffff612a4e16565b9063ffffffff612a8816565b91506122d09050565b506000195b9392505050565b60008115612303576122fc826122b68568056bc75e2d6310000063ffffffff612a4e16565b9050611b60565b50600019611b60565b6714d1120d7b160000811015611d4a5760405162461bcd60e51b81526004016105de90613537565b670f43fc2c04ee0000811015611d4a5760405162461bcd60e51b81526004016105de90613870565b6000826001600160a01b031682604051612375906132cb565b60006040518083038185875af1925050503d80600081146123b2576040519150601f19603f3d011682016040523d82523d6000602084013e6123b7565b606091505b5050905080611c075760405162461bcd60e51b81526004016105de906133c4565b604051636b05e97760e01b81526001600160a01b03861690636b05e97790612404908490600401613b92565b600060405180830381600087803b15801561241e57600080fd5b505af1158015612432573d6000803e3d6000fd5b50506040516340c10f1960e01b81526001600160a01b03871692506340c10f19915061246490869086906004016132e2565b600060405180830381600087803b15801561247e57600080fd5b505af1158015612492573d6000803e3d6000fd5b505050505050505050565b84156124b6576124ad8484611fb5565b6124b686612ac7565b6124c08188612ae7565b6124cb818888612b0e565b81516124d79089611b66565b336001600160a01b038916148061250d57506008546001600160a01b0316331480156125035750600081115b801561250d575085155b61251357fe5b8151604051630b07655760e01b81526001600160a01b0390911690630b07655790612542908b906004016132ce565b600060405180830381600087803b15801561255c57600080fd5b505af1158015612570573d6000803e3d6000fd5b505050505050505050505050565b600080831561259257508290506001612596565b8291505b9250929050565b60008060006125b08a8a8a8a8a8a612b41565b9150915060006125c1838387612298565b9b9a5050505050505050505050565b8160a001518611156125de57fe5b6125ea83878685612b97565b831580156125f85750600085115b1561264b5761262661262183604001516126158560800151612c0b565b9063ffffffff611d4d16565b612276565b61263882608001518360400151612c22565b61264b8160400151888460400151611d8f565b50505050505050565b6000806000856126e35760405163d3d6f84360e01b81526001600160a01b038a169063d3d6f8439061268c908b908b906004016132e2565b602060405180830381600087803b1580156126a657600080fd5b505af11580156126ba573d6000803e3d6000fd5b505050506040513d601f19601f820116820180604052508101906126de91906130cf565b612763565b6040516372423c1760e01b81526001600160a01b038a16906372423c1790612711908b908b906004016132e2565b602060405180830381600087803b15801561272b57600080fd5b505af115801561273f573d6000803e3d6000fd5b505050506040513d601f19601f8201168201806040525081019061276391906130cf565b90506000846127f157604051630930874960e11b81526001600160a01b038b16906312610e929061279a908c908a906004016132e2565b602060405180830381600087803b1580156127b457600080fd5b505af11580156127c8573d6000803e3d6000fd5b505050506040513d601f19601f820116820180604052508101906127ec91906130cf565b612871565b604051639976cf4560e01b81526001600160a01b038b1690639976cf459061281f908c908a906004016132e2565b602060405180830381600087803b15801561283957600080fd5b505af115801561284d573d6000803e3d6000fd5b505050506040513d601f19601f8201168201806040525081019061287191906130cf565b919a91995090975050505050505050565b60006128a68360a00151846080015185602001518660600151876040015189612c55565b600e5460405163015f109360e51b81529192506001600160a01b031690632be21260906128dd908b9085908c908c906004016132fb565b600060405180830381600087803b1580156128f757600080fd5b505af115801561290b573d6000803e3d6000fd5b50505050876001600160a01b0316600080516020613bdf833981519152846101400151856101600151866101800151600260405161294c9493929190613345565b60405180910390a2336001600160a01b03167f26990916a37e0f8569b3c9f7472730814e6e924fda9de44752b4fb9972ef333f8461012001516040516129929190613b92565b60405180910390a26117138260200151836040015133866020015187606001518a8a8a60400151612c86565b600081848411156129e25760405162461bcd60e51b81526004016105de9190613371565b505050900390565b6000806129f5610b1c565b90506000612a016109ee565b9050611d1c828286612298565b6000612a2c836122b686670de0b6b3a764000063ffffffff612a4e16565b90508181111561053e5760405162461bcd60e51b81526004016105de90613b5b565b600082612a5d57506000611b60565b82820282848281612a6a57fe5b0414611b5d5760405162461bcd60e51b81526004016105de906136e0565b6000611b5d83836040518060400160405280601a815260200179536166654d6174683a206469766973696f6e206279207a65726f60301b815250612ced565b60008111611d4a5760405162461bcd60e51b81526004016105de90613aa7565b811580612af2575080155b611b345760405162461bcd60e51b81526004016105de9061348e565b82151580612b1b57508115155b80612b2557508015155b611c075760405162461bcd60e51b81526004016105de90613674565b600080878786612b6057612b5b8a8963ffffffff611d4d16565b612b70565b612b708a8963ffffffff611b3816565b915084612b87576127ec898763ffffffff611d4d16565b612871898763ffffffff611b3816565b8315612bd057612ba683612d24565b8115612bcb57612bb98160e0015161230c565b612bcb8160e001518260c00151612d42565b61053e565b612bdd8160e00151612334565b612bfa816020015182606001518360400151858560000151611e2b565b610100820181905261053e90611eb6565b60006105fc60025483611d4d90919063ffffffff16565b600254612c3690839063ffffffff611d4d16565b811115611b345760405162461bcd60e51b81526004016105de9061396e565b6000806000612c68898989898989612b41565b915091506000612c7883836122d7565b9a9950505050505050505050565b8115612c9e57612c9988888886856123d8565b612caa565b612caa88888886611ede565b8315612cbf57612cba888661235c565b611713565b6040516364a197f360e01b81526001600160a01b038916906364a197f39061254290899089906004016132e2565b60008183612d0e5760405162461bcd60e51b81526004016105de9190613371565b506000838581612d1a57fe5b0495945050505050565b8015611d4a5760405162461bcd60e51b81526004016105de90613813565b80821015611b345760405162461bcd60e51b81526004016105de90613afe565b604080516060810182526000808252602082018190529181019190915290565b60405180610100016040528060008152602001600081526020016000815260200160008152602001600081526020016000815260200160008152602001600081525090565b604051806101a001604052806000815260200160008152602001600081526020016000151581526020016000815260200160008152602001600081526020016000815260200160008152602001600081526020016000815260200160008152602001600081525090565b80356001600160a01b0381168114611b6057600080fd5b60008083601f840112612e59578182fd5b5081356001600160401b03811115612e6f578182fd5b602083019150836020808302850101111561259657600080fd5b600060208284031215612e9a578081fd5b611b5d8383612e31565b6000806000806000806000806000806101408b8d031215612ec3578586fd5b612ecd8c8c612e31565b9950612edc8c60208d01612e31565b9850612eeb8c60408d01612e31565b9750612efa8c60608d01612e31565b9650612f098c60808d01612e31565b9550612f188c60a08d01612e31565b9450612f278c60c08d01612e31565b9350612f368c60e08d01612e31565b9250612f468c6101008d01612e31565b9150612f568c6101208d01612e31565b90509295989b9194979a5092959850565b600080600080600060808688031215612f7e578081fd5b612f888787612e31565b9450612f978760208801612e31565b9350612fa68760408801612e31565b925060608601356001600160401b03811115612fc0578182fd5b612fcc88828901612e48565b969995985093965092949392505050565b60008060008060608587031215612ff2578384fd5b612ffc8686612e31565b935061300b8660208701612e31565b925060408501356001600160401b03811115613025578283fd5b61303187828801612e48565b95989497509550505050565b6000806040838503121561304f578182fd5b6130598484612e31565b91506020830135801515811461306d578182fd5b809150509250929050565b6000806020838503121561308a578182fd5b82356001600160401b0381111561309f578283fd5b6130ab85828601612e48565b90969095509350505050565b6000602082840312156130c8578081fd5b5035919050565b6000602082840312156130e0578081fd5b5051919050565b6000806000806000608086880312156130fe578081fd5b85359450602086013561311081613bc9565b93506040860135612fa681613bc9565b60008060008060008060a08789031215613138578182fd5b86359550602087013594506131508860408901612e31565b935061315f8860608901612e31565b925060808701356001600160401b03811115613179578283fd5b61318589828a01612e48565b979a9699509497509295939492505050565b60008060008060008060008060e0898b0312156131b2578384fd5b883597506020890135965060408901359550606089013580151581146131d6578485fd5b945060808901356131e681613bc9565b935060a08901356131f681613bc9565b925060c08901356001600160401b03811115613210578283fd5b61321c8b828c01612e48565b999c989b5096995094979396929594505050565b818352602080840193600091908185020181018584845b878110156132be5782840389528135601e19883603018112613267578687fd5b87018035906001600160401b0382111561327f578788fd5b81360389131561328d578788fd5b818652818782018888013750848101860187905298850198601f01601f191690930184019290840190600101613247565b5091979650505050505050565b90565b6001600160a01b0391909116815260200190565b6001600160a01b03929092168252602082015260400190565b6001600160a01b03948516815260208101939093529083166040830152909116606082015260800190565b600060208252611d1c602083018486613230565b901515815260200190565b84815260208101849052604081018390526080810161336383613bbe565b606083015295945050505050565b6000602080835283518082850152825b8181101561339d57858101830151858201604001528201613381565b818111156133ae5783604083870101525b50601f01601f1916929092016040019392505050565b6020808252602d908201527f426f72726f7765724f70733a2053656e64696e672045544820746f204163746960408201526c1d99541bdbdb0819985a5b1959609a1b606082015260800190565b6020808252601b908201527a536166654d6174683a206164646974696f6e206f766572666c6f7760281b604082015260600190565b60208082526028908201527f436f6e74726f6c6c61626c653a2043616c6c6572206973206e6f74206120636f604082015267373a3937b63632b960c11b606082015260800190565b60208082526030908201527f426f72726f7765724f7065726174696f6e733a2043616e6e6f7420776974686460408201526f1c985dc8185b99081859190818dbdb1b60821b606082015260800190565b60208082526039908201527f426f72726f7765724f70733a204f7065726174696f6e206e6f74207065726d696040820152787474656420647572696e67205265636f76657279204d6f646560381b606082015260800190565b60208082526037908201527f426f72726f7765724f70733a204f7065726174696f6e206d757374206c65617660408201527632903a3937bb32903bb4ba341024a1a9101f1e9021a1a960491b606082015260800190565b6020808252603e908201527f426f72726f7765724f70733a2043616c6c657220646f65736e7420686176652060408201527f656e6f756768205a4b55534420746f206d616b652072657061796d656e740000606082015260800190565b6020808252601e908201527f4163636f756e742063616e6e6f74206265207a65726f20616464726573730000604082015260600190565b60208082526032908201527f4d6178206665652070657263656e74616765206d757374206c657373207468616040820152716e206f7220657175616c20746f203130302560701b606082015260800190565b60208082526046908201527f426f72726f7765724f70733a205468657265206d75737420626520656974686560408201527f72206120636f6c6c61746572616c206368616e6765206f7220612064656274206060820152656368616e676560d01b608082015260a00190565b60208082526021908201527f536166654d6174683a206d756c7469706c69636174696f6e206f766572666c6f6040820152607760f81b606082015260800190565b60208082526049908201527f426f72726f7765724f70733a20416e206f7065726174696f6e2074686174207760408201527f6f756c6420726573756c7420696e20544352203c20434352206973206e6f74206060820152681c195c9b5a5d1d195960ba1b608082015260a00190565b6020808252818101527f4f776e61626c653a2063616c6c6572206973206e6f7420746865206f776e6572604082015260600190565b6020808252602e908201527f426f72726f7765724f70733a2054726f766520646f6573206e6f74206578697360408201526d1d081bdc881a5cc818db1bdcd95960921b606082015260800190565b6020808252603e908201527f426f72726f7765724f70733a20436f6c6c61746572616c20776974686472617760408201527f616c206e6f74207065726d6974746564205265636f76657279204d6f64650000606082015260800190565b60208082526049908201527f426f72726f7765724f70733a20416e206f7065726174696f6e2074686174207760408201527f6f756c6420726573756c7420696e20494352203c204d4352206973206e6f74206060820152681c195c9b5a5d1d195960ba1b608082015260a00190565b6020808252603a908201527f426f72726f7765724f70733a2054726f76652773206e65742064656274206d7560408201527973742062652067726561746572207468616e206d696e696d756d60301b606082015260800190565b6020808252818101527f4163636f756e7420636f64652073697a652063616e6e6f74206265207a65726f604082015260600190565b60208082526043908201527f426f72726f7765724f70733a20416d6f756e7420726570616964206d7573742060408201527f6e6f74206265206c6172676572207468616e207468652054726f76652773206460608201526219589d60ea1b608082015260a00190565b60208082526029908201527f426f72726f7765724f70733a2043616c6c6572206973206e6f742053746162696040820152681b1a5d1e48141bdbdb60ba1b606082015260800190565b60208082526030908201527f4d6178206665652070657263656e74616765206d75737420626520626574776560408201526f656e20302e352520616e64203130302560801b606082015260800190565b6020808252601c908201527f426f72726f7765724f70733a2054726f76652069732061637469766500000000604082015260600190565b60208082526037908201527f426f72726f7765724f70733a204465627420696e637265617365207265717569604082015276726573206e6f6e2d7a65726f20646562744368616e676560481b606082015260800190565b6020808252603e908201527f426f72726f7765724f70733a2043616e6e6f7420646563726561736520796f7560408201527f722054726f766527732049435220696e205265636f76657279204d6f64650000606082015260800190565b6020808252601d908201527f4665652065786365656465642070726f7669646564206d6178696d756d000000604082015260600190565b90815260200190565b600084825260406020830152613bb5604083018486613230565b95945050505050565b80600381106105ff57fe5b6001600160a01b0381168114611d4a57600080fdfec3770d654ed33aeea6bf11ac8ef05d02a6a04ed4686dd2f624d853bbec43cc8ba164736f6c634300060b000a",
  "devdoc": {
    "kind": "dev",
    "methods": {
      "isOwner()": {
        "details": "Returns true if the caller is the current owner."
      },
      "owner()": {
        "details": "Returns the address of the current owner."
      }
    },
    "version": 1
  },
  "userdoc": {
    "kind": "user",
    "methods": {
      "claimCollateral()": {
        "notice": "Claim remaining collateral from a redemption or from a liquidation with ICR > MCR in Recovery Mode"
      }
    },
    "version": 1
  },
  "storageLayout": {
    "storage": [
      {
        "astId": 4382,
        "contract": "contracts/BorrowerOperations.sol:BorrowerOperations",
        "label": "_owner",
        "offset": 0,
        "slot": "0",
        "type": "t_address"
      },
      {
        "astId": 3137,
        "contract": "contracts/BorrowerOperations.sol:BorrowerOperations",
        "label": "controllers",
        "offset": 0,
        "slot": "1",
        "type": "t_mapping(t_address,t_bool)"
      },
      {
        "astId": 3856,
        "contract": "contracts/BorrowerOperations.sol:BorrowerOperations",
        "label": "ZKUSD_GAS_COMPENSATION",
        "offset": 0,
        "slot": "2",
        "type": "t_uint256"
      },
      {
        "astId": 3859,
        "contract": "contracts/BorrowerOperations.sol:BorrowerOperations",
        "label": "MIN_NET_DEBT",
        "offset": 0,
        "slot": "3",
        "type": "t_uint256"
      },
      {
        "astId": 3872,
        "contract": "contracts/BorrowerOperations.sol:BorrowerOperations",
        "label": "activePool",
        "offset": 0,
        "slot": "4",
        "type": "t_contract(IActivePool)15165"
      },
      {
        "astId": 3874,
        "contract": "contracts/BorrowerOperations.sol:BorrowerOperations",
        "label": "defaultPool",
        "offset": 0,
        "slot": "5",
        "type": "t_contract(IDefaultPool)15481"
      },
      {
        "astId": 3877,
        "contract": "contracts/BorrowerOperations.sol:BorrowerOperations",
        "label": "priceFeed",
        "offset": 0,
        "slot": "6",
        "type": "t_contract(IPriceFeed)15606"
      },
      {
        "astId": 310,
        "contract": "contracts/BorrowerOperations.sol:BorrowerOperations",
        "label": "troveManager",
        "offset": 0,
        "slot": "7",
        "type": "t_contract(ITroveManager)16585"
      },
      {
        "astId": 312,
        "contract": "contracts/BorrowerOperations.sol:BorrowerOperations",
        "label": "stabilityPoolAddress",
        "offset": 0,
        "slot": "8",
        "type": "t_address"
      },
      {
        "astId": 314,
        "contract": "contracts/BorrowerOperations.sol:BorrowerOperations",
        "label": "gasPoolAddress",
        "offset": 0,
        "slot": "9",
        "type": "t_address"
      },
      {
        "astId": 316,
        "contract": "contracts/BorrowerOperations.sol:BorrowerOperations",
        "label": "collSurplusPool",
        "offset": 0,
        "slot": "10",
        "type": "t_contract(ICollSurplusPool)15424"
      },
      {
        "astId": 318,
        "contract": "contracts/BorrowerOperations.sol:BorrowerOperations",
        "label": "zktStaking",
        "offset": 0,
        "slot": "11",
        "type": "t_contract(IZKTStaking)16695"
      },
      {
        "astId": 320,
        "contract": "contracts/BorrowerOperations.sol:BorrowerOperations",
        "label": "zktStakingAddress",
        "offset": 0,
        "slot": "12",
        "type": "t_address"
      },
      {
        "astId": 322,
        "contract": "contracts/BorrowerOperations.sol:BorrowerOperations",
        "label": "zkusdToken",
        "offset": 0,
        "slot": "13",
        "type": "t_contract(IZKUSDToken)16792"
      },
      {
        "astId": 324,
        "contract": "contracts/BorrowerOperations.sol:BorrowerOperations",
        "label": "sortedTroves",
        "offset": 0,
        "slot": "14",
        "type": "t_contract(ISortedTroves)15885"
      }
    ],
    "types": {
      "t_address": {
        "encoding": "inplace",
        "label": "address",
        "numberOfBytes": "20"
      },
      "t_bool": {
        "encoding": "inplace",
        "label": "bool",
        "numberOfBytes": "1"
      },
      "t_contract(IActivePool)15165": {
        "encoding": "inplace",
        "label": "contract IActivePool",
        "numberOfBytes": "20"
      },
      "t_contract(ICollSurplusPool)15424": {
        "encoding": "inplace",
        "label": "contract ICollSurplusPool",
        "numberOfBytes": "20"
      },
      "t_contract(IDefaultPool)15481": {
        "encoding": "inplace",
        "label": "contract IDefaultPool",
        "numberOfBytes": "20"
      },
      "t_contract(IPriceFeed)15606": {
        "encoding": "inplace",
        "label": "contract IPriceFeed",
        "numberOfBytes": "20"
      },
      "t_contract(ISortedTroves)15885": {
        "encoding": "inplace",
        "label": "contract ISortedTroves",
        "numberOfBytes": "20"
      },
      "t_contract(ITroveManager)16585": {
        "encoding": "inplace",
        "label": "contract ITroveManager",
        "numberOfBytes": "20"
      },
      "t_contract(IZKTStaking)16695": {
        "encoding": "inplace",
        "label": "contract IZKTStaking",
        "numberOfBytes": "20"
      },
      "t_contract(IZKUSDToken)16792": {
        "encoding": "inplace",
        "label": "contract IZKUSDToken",
        "numberOfBytes": "20"
      },
      "t_mapping(t_address,t_bool)": {
        "encoding": "mapping",
        "key": "t_address",
        "label": "mapping(address => bool)",
        "numberOfBytes": "32",
        "value": "t_bool"
      },
      "t_uint256": {
        "encoding": "inplace",
        "label": "uint256",
        "numberOfBytes": "32"
      }
    }
  }
}