{
  "address": "0x70a9e42039B24062d0f31095a33a21d8c6414037",
  "abi": [
    {
      "inputs": [],
      "stateMutability": "nonpayable",
      "type": "constructor"
    },
    {
      "anonymous": false,
      "inputs": [
        {
          "indexed": true,
          "internalType": "address",
          "name": "previousOwner",
          "type": "address"
        },
        {
          "indexed": true,
          "internalType": "address",
          "name": "newOwner",
          "type": "address"
        }
      ],
      "name": "OwnershipTransferred",
      "type": "event"
    },
    {
      "anonymous": false,
      "inputs": [
        {
          "indexed": false,
          "internalType": "address",
          "name": "_stabilityPoolAddress",
          "type": "address"
        }
      ],
      "name": "StabilityPoolAddressSet",
      "type": "event"
    },
    {
      "anonymous": false,
      "inputs": [
        {
          "indexed": false,
          "internalType": "uint256",
          "name": "_totalZKTIssued",
          "type": "uint256"
        }
      ],
      "name": "TotalZKTIssuedUpdated",
      "type": "event"
    },
    {
      "anonymous": false,
      "inputs": [
        {
          "indexed": false,
          "internalType": "address",
          "name": "_zkTokenAddress",
          "type": "address"
        }
      ],
      "name": "ZKTokenAddressSet",
      "type": "event"
    },
    {
      "inputs": [],
      "name": "DECIMAL_PRECISION",
      "outputs": [
        {
          "internalType": "uint256",
          "name": "",
          "type": "uint256"
        }
      ],
      "stateMutability": "view",
      "type": "function"
    },
    {
      "inputs": [],
      "name": "ISSUANCE_FACTOR",
      "outputs": [
        {
          "internalType": "uint256",
          "name": "",
          "type": "uint256"
        }
      ],
      "stateMutability": "view",
      "type": "function"
    },
    {
      "inputs": [],
      "name": "NAME",
      "outputs": [
        {
          "internalType": "string",
          "name": "",
          "type": "string"
        }
      ],
      "stateMutability": "view",
      "type": "function"
    },
    {
      "inputs": [],
      "name": "SECONDS_IN_ONE_MINUTE",
      "outputs": [
        {
          "internalType": "uint256",
          "name": "",
          "type": "uint256"
        }
      ],
      "stateMutability": "view",
      "type": "function"
    },
    {
      "inputs": [],
      "name": "ZKTSupplyCap",
      "outputs": [
        {
          "internalType": "uint256",
          "name": "",
          "type": "uint256"
        }
      ],
      "stateMutability": "view",
      "type": "function"
    },
    {
      "inputs": [
        {
          "internalType": "address",
          "name": "",
          "type": "address"
        }
      ],
      "name": "balances",
      "outputs": [
        {
          "internalType": "uint256",
          "name": "",
          "type": "uint256"
        }
      ],
      "stateMutability": "view",
      "type": "function"
    },
    {
      "inputs": [],
      "name": "deploymentTime",
      "outputs": [
        {
          "internalType": "uint256",
          "name": "",
          "type": "uint256"
        }
      ],
      "stateMutability": "view",
      "type": "function"
    },
    {
      "inputs": [],
      "name": "isOwner",
      "outputs": [
        {
          "internalType": "bool",
          "name": "",
          "type": "bool"
        }
      ],
      "stateMutability": "view",
      "type": "function"
    },
    {
      "inputs": [],
      "name": "issueZKT",
      "outputs": [
        {
          "internalType": "uint256",
          "name": "",
          "type": "uint256"
        }
      ],
      "stateMutability": "nonpayable",
      "type": "function"
    },
    {
      "inputs": [],
      "name": "owner",
      "outputs": [
        {
          "internalType": "address",
          "name": "",
          "type": "address"
        }
      ],
      "stateMutability": "view",
      "type": "function"
    },
    {
      "inputs": [
        {
          "internalType": "uint256",
          "name": "_ZKTamount",
          "type": "uint256"
        }
      ],
      "name": "removeZKT",
      "outputs": [],
      "stateMutability": "nonpayable",
      "type": "function"
    },
    {
      "inputs": [
        {
          "internalType": "address",
          "name": "_account",
          "type": "address"
        },
        {
          "internalType": "uint256",
          "name": "_ZKTamount",
          "type": "uint256"
        }
      ],
      "name": "sendZKT",
      "outputs": [],
      "stateMutability": "nonpayable",
      "type": "function"
    },
    {
      "inputs": [
        {
          "internalType": "address",
          "name": "_zkTokenAddress",
          "type": "address"
        },
        {
          "internalType": "address",
          "name": "_stabilityPoolAddress",
          "type": "address"
        }
      ],
      "name": "setAddresses",
      "outputs": [],
      "stateMutability": "nonpayable",
      "type": "function"
    },
    {
      "inputs": [],
      "name": "stabilityPoolAddress",
      "outputs": [
        {
          "internalType": "address",
          "name": "",
          "type": "address"
        }
      ],
      "stateMutability": "view",
      "type": "function"
    },
    {
      "inputs": [],
      "name": "totalZKTIssued",
      "outputs": [
        {
          "internalType": "uint256",
          "name": "",
          "type": "uint256"
        }
      ],
      "stateMutability": "view",
      "type": "function"
    },
    {
      "inputs": [],
      "name": "zkToken",
      "outputs": [
        {
          "internalType": "contract IZKToken",
          "name": "",
          "type": "address"
        }
      ],
      "stateMutability": "view",
      "type": "function"
    }
  ],
  "transactionHash": "0x203f645ec9acdf5f2996dd29a5c5f195f0ddd4063e9de1098f9c7827a812ffc7",
  "args": [],
  "numDeployments": 1,
  "solcInputHash": "ffe83ff5afde0d06d4b6b8e37e72100d",
  "bytecode": "0x60a060405234801561001057600080fd5b50600080546001600160a01b0319163390811782556040519091907f8be0079c531659141344cd1fd0a4f28419497f9722a3daafe3b4186f6b6457e0908290a342608052608051610cb36100736000398061076f52806108fe5250610cb36000f3fe608060405234801561001057600080fd5b50600436106100e05760003560e01c80638f32d59b116100875780638f32d59b146101ac57806390107afe146101c85780639afddf5f146101f6578063a20baee6146101fe578063a3f4df7e14610206578063a9d3948014610283578063b5f67fa51461028b578063ecda10f514610293576100e0565b80630b622ab2146100e55780630fc83da3146101095780631c09591e1461012357806327e235e3146101515780634d249ec31461017757806361ec893d146101945780637d8c87aa1461019c5780638da5cb5b146101a4575b600080fd5b6100ed61029b565b604080516001600160a01b039092168252519081900360200190f35b6101116102aa565b60408051918252519081900360200190f35b61014f6004803603604081101561013957600080fd5b506001600160a01b0381351690602001356102b6565b005b6101116004803603602081101561016757600080fd5b50356001600160a01b0316610307565b61014f6004803603602081101561018d57600080fd5b5035610319565b6101116104ae565b6100ed6104b3565b6100ed6104c2565b6101b46104d1565b604080519115158252519081900360200190f35b61014f600480360360408110156101de57600080fd5b506001600160a01b03813581169160200135166104e2565b61011161067f565b61011161068d565b61020e610699565b6040805160208082528351818301528351919283929083019185019080838360005b83811015610248578181015183820152602001610230565b50505050905090810190601f1680156102755780820380516001836020036101000a031916815260200191505b509250505060405180910390f35b6101116106c6565b610111610767565b61011161076d565b6002546001600160a01b031681565b670de0b5809a6f939881565b6102be610791565b6001600160a01b0382166000908152600460205260409020546102e7908263ffffffff6107dc16565b6001600160a01b0390921660009081526004602052604090209190915550565b60046020526000908152604090205481565b6103216104d1565b610372576040805162461bcd60e51b815260206004820181905260248201527f4f776e61626c653a2063616c6c6572206973206e6f7420746865206f776e6572604482015290519081900360640190fd5b600154604080516370a0823160e01b815230600482015290516000926001600160a01b0316916370a08231916024808301926020929190829003018186803b1580156103bd57600080fd5b505afa1580156103d1573d6000803e3d6000fd5b505050506040513d60208110156103e757600080fd5b505190508082111561042a5760405162461bcd60e51b8152600401808060200182810382526027815260200180610c3c6027913960400191505060405180910390fd5b6001546040805163a9059cbb60e01b81523360048201526024810185905290516001600160a01b039092169163a9059cbb916044808201926020929091908290030181600087803b15801561047e57600080fd5b505af1158015610492573d6000803e3d6000fd5b505050506040513d60208110156104a857600080fd5b50505050565b603c81565b6001546001600160a01b031681565b6000546001600160a01b031690565b6000546001600160a01b0316331490565b6104ea6104d1565b61053b576040805162461bcd60e51b815260206004820181905260248201527f4f776e61626c653a2063616c6c6572206973206e6f7420746865206f776e6572604482015290519081900360640190fd5b6105448261083d565b61054d8161083d565b600180546001600160a01b038085166001600160a01b0319928316179283905560028054858316931692909217909155604080516370a0823160e01b81523060048201529051600093909216916370a0823191602480820192602092909190829003018186803b1580156105c057600080fd5b505afa1580156105d4573d6000803e3d6000fd5b505050506040513d60208110156105ea57600080fd5b5051905066d3c21bcecceda1601d1b81101561060257fe5b604080516001600160a01b038516815290517f4738bd2fa051c658ff5fb2e55ea0ec02521ca2c563327a88ebe9f2a8ab15c3169181900360200190a1604080516001600160a01b038416815290517f45c53611bc8ba9e11f4f8173bda9e3faf89c395ddb83f9a55230b156828db3159181900360200190a1505050565b66d3c21bcecceda1601d1b81565b670de0b6b3a764000081565b60405180604001604052806011815260200170436f6d6d756e69747949737375616e636560781b81525081565b60006106d0610791565b600061070c670de0b6b3a76400006107006106e96108f0565b66d3c21bcecceda1601d1b9063ffffffff61097516565b9063ffffffff6109ce16565b9050600061072560035483610a0d90919063ffffffff16565b60038390556040805184815290519192507f1709352b7e06ac5218a4285599e225866cf16695c6fa5b9e368bbd24c17a27ef919081900360200190a191505090565b60035481565b7f000000000000000000000000000000000000000000000000000000000000000081565b6002546001600160a01b031633146107da5760405162461bcd60e51b8152600401808060200182810382526023815260200180610c846023913960400191505060405180910390fd5b565b600082820183811015610834576040805162461bcd60e51b815260206004820152601b60248201527a536166654d6174683a206164646974696f6e206f766572666c6f7760281b604482015290519081900360640190fd5b90505b92915050565b6001600160a01b038116610898576040805162461bcd60e51b815260206004820152601e60248201527f4163636f756e742063616e6e6f74206265207a65726f20616464726573730000604482015290519081900360640190fd5b803b806108ec576040805162461bcd60e51b815260206004820181905260248201527f4163636f756e7420636f64652073697a652063616e6e6f74206265207a65726f604482015290519081900360640190fd5b5050565b600080610928603c610700427f000000000000000000000000000000000000000000000000000000000000000063ffffffff610a0d16565b9050600061093e670de0b5809a6f939883610a4f565b9050600061095a670de0b6b3a76400008363ffffffff610a0d16565b9050670de0b6b3a764000081111561096e57fe5b9250505090565b60008261098457506000610837565b8282028284828161099157fe5b04146108345760405162461bcd60e51b8152600401808060200182810382526021815260200180610c636021913960400191505060405180910390fd5b600061083483836040518060400160405280601a815260200179536166654d6174683a206469766973696f6e206279207a65726f60301b815250610b04565b600061083483836040518060400160405280601e81526020017f536166654d6174683a207375627472616374696f6e206f766572666c6f770000815250610ba6565b6000631f540500821115610a6557631f54050091505b81610a795750670de0b6b3a7640000610837565b670de0b6b3a764000083835b6001811115610af05760028106610aba57610aa08283610c00565b9150610ab381600263ffffffff6109ce16565b9050610aeb565b610ac48284610c00565b9250610ad08283610c00565b9150610ae8600261070083600163ffffffff610a0d16565b90505b610a85565b610afa8284610c00565b9695505050505050565b60008183610b905760405162461bcd60e51b81526004018080602001828103825283818151815260200191508051906020019080838360005b83811015610b55578181015183820152602001610b3d565b50505050905090810190601f168015610b825780820380516001836020036101000a031916815260200191505b509250505060405180910390fd5b506000838581610b9c57fe5b0495945050505050565b60008184841115610bf85760405162461bcd60e51b8152602060048201818152835160248401528351909283926044909101919085019080838360008315610b55578181015183820152602001610b3d565b505050900390565b600080610c13848463ffffffff61097516565b9050610c33670de0b6b3a7640000610700836706f05b59d3b200006107dc565b94935050505056fe436f6d6d756e69747949737375616e63653a20496e73756666696369656e74207a6b546f6b656e536166654d6174683a206d756c7469706c69636174696f6e206f766572666c6f77436f6d6d756e69747949737375616e63653a2063616c6c6572206973206e6f74205350a164736f6c634300060b000a",
  "devdoc": {
    "kind": "dev",
    "methods": {
      "isOwner()": {
        "details": "Returns true if the caller is the current owner."
      },
      "owner()": {
        "details": "Returns the address of the current owner."
      }
    },
    "version": 1
  },
  "userdoc": {
    "kind": "user",
    "methods": {},
    "version": 1
  },
  "storageLayout": {
    "storage": [
      {
        "astId": 4382,
        "contract": "contracts/ZKT/CommunityIssuance.sol:CommunityIssuance",
        "label": "_owner",
        "offset": 0,
        "slot": "0",
        "type": "t_address"
      },
      {
        "astId": 30611,
        "contract": "contracts/ZKT/CommunityIssuance.sol:CommunityIssuance",
        "label": "zkToken",
        "offset": 0,
        "slot": "1",
        "type": "t_contract(IZKToken)16733"
      },
      {
        "astId": 30613,
        "contract": "contracts/ZKT/CommunityIssuance.sol:CommunityIssuance",
        "label": "stabilityPoolAddress",
        "offset": 0,
        "slot": "2",
        "type": "t_address"
      },
      {
        "astId": 30615,
        "contract": "contracts/ZKT/CommunityIssuance.sol:CommunityIssuance",
        "label": "totalZKTIssued",
        "offset": 0,
        "slot": "3",
        "type": "t_uint256"
      },
      {
        "astId": 30621,
        "contract": "contracts/ZKT/CommunityIssuance.sol:CommunityIssuance",
        "label": "balances",
        "offset": 0,
        "slot": "4",
        "type": "t_mapping(t_address,t_uint256)"
      }
    ],
    "types": {
      "t_address": {
        "encoding": "inplace",
        "label": "address",
        "numberOfBytes": "20"
      },
      "t_contract(IZKToken)16733": {
        "encoding": "inplace",
        "label": "contract IZKToken",
        "numberOfBytes": "20"
      },
      "t_mapping(t_address,t_uint256)": {
        "encoding": "mapping",
        "key": "t_address",
        "label": "mapping(address => uint256)",
        "numberOfBytes": "32",
        "value": "t_uint256"
      },
      "t_uint256": {
        "encoding": "inplace",
        "label": "uint256",
        "numberOfBytes": "32"
      }
    }
  }
}