{
  "address": "0x44603B9a8A1d3A8BcdB78D178c90Ff5AA15D26E9",
  "abi": [
    {
      "anonymous": false,
      "inputs": [
        {
          "indexed": true,
          "internalType": "address",
          "name": "controller",
          "type": "address"
        },
        {
          "indexed": false,
          "internalType": "bool",
          "name": "enabled",
          "type": "bool"
        }
      ],
      "name": "ControllerChanged",
      "type": "event"
    },
    {
      "anonymous": false,
      "inputs": [
        {
          "indexed": true,
          "internalType": "address",
          "name": "previousOwner",
          "type": "address"
        },
        {
          "indexed": true,
          "internalType": "address",
          "name": "newOwner",
          "type": "address"
        }
      ],
      "name": "OwnershipTransferred",
      "type": "event"
    },
    {
      "anonymous": false,
      "inputs": [
        {
          "indexed": false,
          "internalType": "address",
          "name": "_sortedTrovesAddress",
          "type": "address"
        }
      ],
      "name": "SortedTrovesAddressChanged",
      "type": "event"
    },
    {
      "anonymous": false,
      "inputs": [
        {
          "indexed": false,
          "internalType": "address",
          "name": "_troveManagerAddress",
          "type": "address"
        }
      ],
      "name": "TroveManagerAddressChanged",
      "type": "event"
    },
    {
      "inputs": [],
      "name": "BORROWING_FEE_FLOOR",
      "outputs": [
        {
          "internalType": "uint256",
          "name": "",
          "type": "uint256"
        }
      ],
      "stateMutability": "view",
      "type": "function"
    },
    {
      "inputs": [],
      "name": "CCR",
      "outputs": [
        {
          "internalType": "uint256",
          "name": "",
          "type": "uint256"
        }
      ],
      "stateMutability": "view",
      "type": "function"
    },
    {
      "inputs": [],
      "name": "DECIMAL_PRECISION",
      "outputs": [
        {
          "internalType": "uint256",
          "name": "",
          "type": "uint256"
        }
      ],
      "stateMutability": "view",
      "type": "function"
    },
    {
      "inputs": [],
      "name": "MCR",
      "outputs": [
        {
          "internalType": "uint256",
          "name": "",
          "type": "uint256"
        }
      ],
      "stateMutability": "view",
      "type": "function"
    },
    {
      "inputs": [],
      "name": "MIN_NET_DEBT",
      "outputs": [
        {
          "internalType": "uint256",
          "name": "",
          "type": "uint256"
        }
      ],
      "stateMutability": "view",
      "type": "function"
    },
    {
      "inputs": [],
      "name": "NAME",
      "outputs": [
        {
          "internalType": "string",
          "name": "",
          "type": "string"
        }
      ],
      "stateMutability": "view",
      "type": "function"
    },
    {
      "inputs": [],
      "name": "PERCENT_DIVISOR",
      "outputs": [
        {
          "internalType": "uint256",
          "name": "",
          "type": "uint256"
        }
      ],
      "stateMutability": "view",
      "type": "function"
    },
    {
      "inputs": [],
      "name": "ZKUSD_GAS_COMPENSATION",
      "outputs": [
        {
          "internalType": "uint256",
          "name": "",
          "type": "uint256"
        }
      ],
      "stateMutability": "view",
      "type": "function"
    },
    {
      "inputs": [],
      "name": "_100pct",
      "outputs": [
        {
          "internalType": "uint256",
          "name": "",
          "type": "uint256"
        }
      ],
      "stateMutability": "view",
      "type": "function"
    },
    {
      "inputs": [],
      "name": "activePool",
      "outputs": [
        {
          "internalType": "contract IActivePool",
          "name": "",
          "type": "address"
        }
      ],
      "stateMutability": "view",
      "type": "function"
    },
    {
      "inputs": [
        {
          "internalType": "uint256",
          "name": "_coll",
          "type": "uint256"
        },
        {
          "internalType": "uint256",
          "name": "_debt",
          "type": "uint256"
        },
        {
          "internalType": "uint256",
          "name": "_price",
          "type": "uint256"
        }
      ],
      "name": "computeCR",
      "outputs": [
        {
          "internalType": "uint256",
          "name": "",
          "type": "uint256"
        }
      ],
      "stateMutability": "pure",
      "type": "function"
    },
    {
      "inputs": [
        {
          "internalType": "uint256",
          "name": "_coll",
          "type": "uint256"
        },
        {
          "internalType": "uint256",
          "name": "_debt",
          "type": "uint256"
        }
      ],
      "name": "computeNominalCR",
      "outputs": [
        {
          "internalType": "uint256",
          "name": "",
          "type": "uint256"
        }
      ],
      "stateMutability": "pure",
      "type": "function"
    },
    {
      "inputs": [
        {
          "internalType": "address",
          "name": "",
          "type": "address"
        }
      ],
      "name": "controllers",
      "outputs": [
        {
          "internalType": "bool",
          "name": "",
          "type": "bool"
        }
      ],
      "stateMutability": "view",
      "type": "function"
    },
    {
      "inputs": [],
      "name": "defaultPool",
      "outputs": [
        {
          "internalType": "contract IDefaultPool",
          "name": "",
          "type": "address"
        }
      ],
      "stateMutability": "view",
      "type": "function"
    },
    {
      "inputs": [
        {
          "internalType": "uint256",
          "name": "_CR",
          "type": "uint256"
        },
        {
          "internalType": "uint256",
          "name": "_numTrials",
          "type": "uint256"
        },
        {
          "internalType": "uint256",
          "name": "_inputRandomSeed",
          "type": "uint256"
        }
      ],
      "name": "getApproxHint",
      "outputs": [
        {
          "internalType": "address",
          "name": "hintAddress",
          "type": "address"
        },
        {
          "internalType": "uint256",
          "name": "diff",
          "type": "uint256"
        },
        {
          "internalType": "uint256",
          "name": "latestRandomSeed",
          "type": "uint256"
        }
      ],
      "stateMutability": "view",
      "type": "function"
    },
    {
      "inputs": [],
      "name": "getEntireSystemColl",
      "outputs": [
        {
          "internalType": "uint256",
          "name": "entireSystemColl",
          "type": "uint256"
        }
      ],
      "stateMutability": "view",
      "type": "function"
    },
    {
      "inputs": [],
      "name": "getEntireSystemDebt",
      "outputs": [
        {
          "internalType": "uint256",
          "name": "entireSystemDebt",
          "type": "uint256"
        }
      ],
      "stateMutability": "view",
      "type": "function"
    },
    {
      "inputs": [
        {
          "internalType": "uint256",
          "name": "_ZKUSDamount",
          "type": "uint256"
        },
        {
          "internalType": "uint256",
          "name": "_price",
          "type": "uint256"
        },
        {
          "internalType": "uint256",
          "name": "_maxIterations",
          "type": "uint256"
        }
      ],
      "name": "getRedemptionHints",
      "outputs": [
        {
          "internalType": "address",
          "name": "firstRedemptionHint",
          "type": "address"
        },
        {
          "internalType": "uint256",
          "name": "partialRedemptionHintNICR",
          "type": "uint256"
        },
        {
          "internalType": "uint256",
          "name": "truncatedZKUSDamount",
          "type": "uint256"
        }
      ],
      "stateMutability": "view",
      "type": "function"
    },
    {
      "inputs": [],
      "name": "isOwner",
      "outputs": [
        {
          "internalType": "bool",
          "name": "",
          "type": "bool"
        }
      ],
      "stateMutability": "view",
      "type": "function"
    },
    {
      "inputs": [],
      "name": "owner",
      "outputs": [
        {
          "internalType": "address",
          "name": "",
          "type": "address"
        }
      ],
      "stateMutability": "view",
      "type": "function"
    },
    {
      "inputs": [],
      "name": "priceFeed",
      "outputs": [
        {
          "internalType": "contract IPriceFeed",
          "name": "",
          "type": "address"
        }
      ],
      "stateMutability": "view",
      "type": "function"
    },
    {
      "inputs": [
        {
          "internalType": "address",
          "name": "_sortedTrovesAddress",
          "type": "address"
        },
        {
          "internalType": "address",
          "name": "_troveManagerAddress",
          "type": "address"
        }
      ],
      "name": "setAddresses",
      "outputs": [],
      "stateMutability": "nonpayable",
      "type": "function"
    },
    {
      "inputs": [
        {
          "internalType": "address",
          "name": "controller",
          "type": "address"
        },
        {
          "internalType": "bool",
          "name": "enabled",
          "type": "bool"
        }
      ],
      "name": "setController",
      "outputs": [],
      "stateMutability": "nonpayable",
      "type": "function"
    },
    {
      "inputs": [
        {
          "internalType": "uint256",
          "name": "_gasCompensation",
          "type": "uint256"
        }
      ],
      "name": "setGasCompensation",
      "outputs": [],
      "stateMutability": "nonpayable",
      "type": "function"
    },
    {
      "inputs": [
        {
          "internalType": "uint256",
          "name": "_minNetDebt",
          "type": "uint256"
        }
      ],
      "name": "setMinNetDebt",
      "outputs": [],
      "stateMutability": "nonpayable",
      "type": "function"
    },
    {
      "inputs": [],
      "name": "sortedTroves",
      "outputs": [
        {
          "internalType": "contract ISortedTroves",
          "name": "",
          "type": "address"
        }
      ],
      "stateMutability": "view",
      "type": "function"
    },
    {
      "inputs": [],
      "name": "troveManager",
      "outputs": [
        {
          "internalType": "contract ITroveManager",
          "name": "",
          "type": "address"
        }
      ],
      "stateMutability": "view",
      "type": "function"
    }
  ],
  "transactionHash": "0xdb21dba63ae3c6d69dfcb47e3957ede73c83a9a9648339b135233c25893e7a36",
  "args": [],
  "numDeployments": 1,
  "solcInputHash": "ffe83ff5afde0d06d4b6b8e37e72100d",
  "bytecode": "0x60806040526802b5e3af16b18800006002556818650127cc3dc8000060035534801561002a57600080fd5b50600080546001600160a01b0319163390811782556040519091907f8be0079c531659141344cd1fd0a4f28419497f9722a3daafe3b4186f6b6457e0908290a36115fb806100796000396000f3fe608060405234801561001057600080fd5b50600436106101595760003560e01c80637f7dde4a116100c95780637f7dde4a14610296578063887105d31461029e5780638da5cb5b146102a65780638f32d59b146102ae57806390107afe146102ca578063a20baee61461024d578063a3f4df7e146102f8578063ae91875414610375578063c192645b1461037d578063c394a7fa14610385578063d0029b51146103a8578063da8c229e146103c5578063e0dba60f146103eb578063f92d34331461041957610159565b806313144dba1461015e5780631bf43555146101af5780633cc74225146101c95780633d83908a146101ed578063438d641a146101f55780634870dd9a14610214578063525acdbb1461021c5780635733d58f1461024557806372fe25aa1461024d578063741bef1a14610255578063794e57241461025d578063795d26c3146102655780637b41bdbe1461026d575b600080fd5b6101876004803603606081101561017457600080fd5b5080359060208101359060400135610421565b604080516001600160a01b039094168452602084019290925282820152519081900360600190f35b6101b7610997565b60408051918252519081900360200190f35b6101d161099d565b604080516001600160a01b039092168252519081900360200190f35b6101d16109ac565b6102126004803603602081101561020b57600080fd5b50356109bb565b005b6101b7610a0e565b6101b76004803603606081101561023257600080fd5b5080359060208101359060400135610a13565b6101b7610a2a565b6101b7610a36565b6101d1610a42565b6101b7610a51565b6101b7610a5d565b6101876004803603606081101561028357600080fd5b5080359060208101359060400135610b5d565b6101d1610e7a565b6101b7610e89565b6101d1610f44565b6102b6610f53565b604080519115158252519081900360200190f35b610212600480360360408110156102e057600080fd5b506001600160a01b0381358116916020013516610f64565b61030061106f565b6040805160208082528351818301528351919283929083019185019080838360005b8381101561033a578181015183820152602001610322565b50505050905090810190601f1680156103675780820380516001836020036101000a031916815260200191505b509250505060405180910390f35b6101d1611096565b6101b76110a5565b6101b76004803603604081101561039b57600080fd5b50803590602001356110ab565b610212600480360360208110156103be57600080fd5b50356110c0565b6102b6600480360360208110156103db57600080fd5b50356001600160a01b0316611113565b6102126004803603604081101561040157600080fd5b506001600160a01b0381351690602001351515611128565b6101b76111e1565b60075460408051634d62283160e01b81529051600092839283926001600160a01b0390921691889184918491634d622831916004808301926020929190829003018186803b15801561047257600080fd5b505afa158015610486573d6000803e3d6000fd5b505050506040513d602081101561049c57600080fd5b505190505b6001600160a01b03811615801590610541575060085460408051630d293c7160e41b81526001600160a01b038481166004830152602482018c90529151670f43fc2c04ee000093929092169163d293c71091604480820192602092909190829003018186803b15801561051357600080fd5b505afa158015610527573d6000803e3d6000fd5b505050506040513d602081101561053d57600080fd5b5051105b156105cf57826001600160a01b031663b72703ac826040518263ffffffff1660e01b815260040180826001600160a01b03166001600160a01b0316815260200191505060206040518083038186803b15801561059c57600080fd5b505afa1580156105b0573d6000803e3d6000fd5b505050506040513d60208110156105c657600080fd5b505190506104a1565b945084866105dd5760001996505b6001600160a01b038116158015906105f55750600082115b8015610605575060001987019615155b1561097957600854604080516343833a7f60e01b81526001600160a01b03848116600483015291516000936107169316916343833a7f916024808301926020929190829003018186803b15801561065b57600080fd5b505afa15801561066f573d6000803e3d6000fd5b505050506040513d602081101561068557600080fd5b50516008546040805163d66a255360e01b81526001600160a01b038781166004830152915161070a93929092169163d66a255391602480820192602092909190829003018186803b1580156106d957600080fd5b505afa1580156106ed573d6000803e3d6000fd5b505050506040513d602081101561070357600080fd5b50516111ec565b9063ffffffff61120316565b9050828111156108dc576003548111156108d657600061074a846107456003548561125b90919063ffffffff16565b61129d565b60085460408051635d8c960960e01b81526001600160a01b0387811660048301529151939450600093610853939290921691635d8c960991602480820192602092909190829003018186803b1580156107a257600080fd5b505afa1580156107b6573d6000803e3d6000fd5b505050506040513d60208110156107cc57600080fd5b5051600854604080516309019aaf60e31b81526001600160a01b0389811660048301529151919092169163480cd578916024808301926020929190829003018186803b15801561081b57600080fd5b505afa15801561082f573d6000803e3d6000fd5b505050506040513d602081101561084557600080fd5b50519063ffffffff61120316565b9050600061088f6108828d61087686670de0b6b3a764000063ffffffff6112b316565b9063ffffffff61130c16565b839063ffffffff61125b16565b905060006108a3858563ffffffff61125b16565b905060006108b08261134b565b90506108bc8382611362565b9a506108ce888663ffffffff61125b16565b975050505050505b50610979565b6108ec838263ffffffff61125b16565b9250836001600160a01b031663b72703ac836040518263ffffffff1660e01b815260040180826001600160a01b03166001600160a01b0316815260200191505060206040518083038186803b15801561094457600080fd5b505afa158015610958573d6000803e3d6000fd5b505050506040513d602081101561096e57600080fd5b505191506105dd9050565b610989898363ffffffff61125b16565b935050505093509350939050565b60035481565b6005546001600160a01b031681565b6008546001600160a01b031681565b3360009081526001602052604090205460ff16610a095760405162461bcd60e51b81526004018080602001828103825260288152602001806115a66028913960400191505060405180910390fd5b600355565b60c881565b6000610a20848484611397565b90505b9392505050565b6714d1120d7b16000081565b670de0b6b3a764000081565b6006546001600160a01b031681565b670f43fc2c04ee000081565b600480546040805163512a9ebb60e01b8152905160009384936001600160a01b03169263512a9ebb9281830192602092829003018186803b158015610aa157600080fd5b505afa158015610ab5573d6000803e3d6000fd5b505050506040513d6020811015610acb57600080fd5b50516005546040805163512a9ebb60e01b815290519293506000926001600160a01b039092169163512a9ebb91600480820192602092909190829003018186803b158015610b1857600080fd5b505afa158015610b2c573d6000803e3d6000fd5b505050506040513d6020811015610b4257600080fd5b50519050610b56828263ffffffff61120316565b9250505090565b600080600080600860009054906101000a90046001600160a01b03166001600160a01b03166349eefeee6040518163ffffffff1660e01b815260040160206040518083038186803b158015610bb157600080fd5b505afa158015610bc5573d6000803e3d6000fd5b505050506040513d6020811015610bdb57600080fd5b5051905080610bf4575060009250829150839050610e71565b600760009054906101000a90046001600160a01b03166001600160a01b0316634d6228316040518163ffffffff1660e01b815260040160206040518083038186803b158015610c4257600080fd5b505afa158015610c56573d6000803e3d6000fd5b505050506040513d6020811015610c6c57600080fd5b50516008546040805163b0d8e18160e01b81526001600160a01b0380851660048301529151939750610cf6938b93929092169163b0d8e18191602480820192602092909190829003018186803b158015610cc557600080fd5b505afa158015610cd9573d6000803e3d6000fd5b505050506040513d6020811015610cef57600080fd5b50516113c7565b925084915060015b86811015610e6e57604080516020808201959095528151808203860181529082019091528051930192909220916000828481610d3657fe5b0690506000600860009054906101000a90046001600160a01b03166001600160a01b031663d9a72444836040518263ffffffff1660e01b81526004018082815260200191505060206040518083038186803b158015610d9457600080fd5b505afa158015610da8573d6000803e3d6000fd5b505050506040513d6020811015610dbe57600080fd5b50516008546040805163b0d8e18160e01b81526001600160a01b0380851660048301529151939450600093919092169163b0d8e181916024808301926020929190829003018186803b158015610e1357600080fd5b505afa158015610e27573d6000803e3d6000fd5b505050506040513d6020811015610e3d57600080fd5b505190506000610e4d828d6113c7565b905087811015610e5e578097508298505b505060019092019150610cfe9050565b50505b93509350939050565b6004546001600160a01b031681565b6004805460408051630a7b61df60e11b8152905160009384936001600160a01b0316926314f6c3be9281830192602092829003018186803b158015610ecd57600080fd5b505afa158015610ee1573d6000803e3d6000fd5b505050506040513d6020811015610ef757600080fd5b505160055460408051630a7b61df60e11b815290519293506000926001600160a01b03909216916314f6c3be91600480820192602092909190829003018186803b158015610b1857600080fd5b6000546001600160a01b031690565b6000546001600160a01b0316331490565b610f6c610f53565b610fbd576040805162461bcd60e51b815260206004820181905260248201527f4f776e61626c653a2063616c6c6572206973206e6f7420746865206f776e6572604482015290519081900360640190fd5b610fc6826113f6565b610fcf816113f6565b600780546001600160a01b038085166001600160a01b03199283168117909355600880549185169190921617905560408051918252517f65f4cf077bc01e4742eb5ad98326f6e95b63548ea24b17f8d5e823111fe788009181900360200190a1604080516001600160a01b038316815290517f143219c9e69b09e07e095fcc889b43d8f46ca892bba65f08dc3a0050869a56789181900360200190a15050565b6040518060400160405280600b81526020016a48696e7448656c7065727360a81b81525081565b6007546001600160a01b031681565b60025481565b60006110b78383611362565b90505b92915050565b3360009081526001602052604090205460ff1661110e5760405162461bcd60e51b81526004018080602001828103825260288152602001806115a66028913960400191505060405180910390fd5b600255565b60016020526000908152604090205460ff1681565b611130610f53565b611181576040805162461bcd60e51b815260206004820181905260248201527f4f776e61626c653a2063616c6c6572206973206e6f7420746865206f776e6572604482015290519081900360640190fd5b6001600160a01b038216600081815260016020908152604091829020805460ff1916851515908117909155825190815291517f4c97694570a07277810af7e5669ffd5f6a2d6b74b6e9a274b8b870fd5114cf879281900390910190a25050565b6611c37937e0800081565b60006110ba6002548361125b90919063ffffffff16565b6000828201838110156110b7576040805162461bcd60e51b815260206004820152601b60248201527a536166654d6174683a206164646974696f6e206f766572666c6f7760281b604482015290519081900360640190fd5b60006110b783836040518060400160405280601e81526020017f536166654d6174683a207375627472616374696f6e206f766572666c6f7700008152506114a9565b60008183106112ac57816110b7565b5090919050565b6000826112c2575060006110ba565b828202828482816112cf57fe5b04146110b75760405162461bcd60e51b81526004018080602001828103825260218152602001806115ce6021913960400191505060405180910390fd5b60006110b783836040518060400160405280601a815260200179536166654d6174683a206469766973696f6e206279207a65726f60301b815250611540565b60006110ba6002548361120390919063ffffffff16565b6000811561138e57611387826108768568056bc75e2d6310000063ffffffff6112b316565b90506110ba565b506000196110ba565b600082156113be5760006113b584610876878663ffffffff6112b316565b9150610a239050565b50600019610a23565b6000818310156113e6576113e1828463ffffffff61125b16565b6110b7565b6110b7838363ffffffff61125b16565b6001600160a01b038116611451576040805162461bcd60e51b815260206004820152601e60248201527f4163636f756e742063616e6e6f74206265207a65726f20616464726573730000604482015290519081900360640190fd5b803b806114a5576040805162461bcd60e51b815260206004820181905260248201527f4163636f756e7420636f64652073697a652063616e6e6f74206265207a65726f604482015290519081900360640190fd5b5050565b600081848411156115385760405162461bcd60e51b81526004018080602001828103825283818151815260200191508051906020019080838360005b838110156114fd5781810151838201526020016114e5565b50505050905090810190601f16801561152a5780820380516001836020036101000a031916815260200191505b509250505060405180910390fd5b505050900390565b6000818361158f5760405162461bcd60e51b81526020600482018181528351602484015283519092839260449091019190850190808383600083156114fd5781810151838201526020016114e5565b50600083858161159b57fe5b049594505050505056fe436f6e74726f6c6c61626c653a2043616c6c6572206973206e6f74206120636f6e74726f6c6c6572536166654d6174683a206d756c7469706c69636174696f6e206f766572666c6f77a164736f6c634300060b000a",
  "devdoc": {
    "kind": "dev",
    "methods": {
      "isOwner()": {
        "details": "Returns true if the caller is the current owner."
      },
      "owner()": {
        "details": "Returns the address of the current owner."
      }
    },
    "version": 1
  },
  "userdoc": {
    "kind": "user",
    "methods": {},
    "version": 1
  },
  "storageLayout": {
    "storage": [
      {
        "astId": 4382,
        "contract": "contracts/HintHelpers.sol:HintHelpers",
        "label": "_owner",
        "offset": 0,
        "slot": "0",
        "type": "t_address"
      },
      {
        "astId": 3137,
        "contract": "contracts/HintHelpers.sol:HintHelpers",
        "label": "controllers",
        "offset": 0,
        "slot": "1",
        "type": "t_mapping(t_address,t_bool)"
      },
      {
        "astId": 3856,
        "contract": "contracts/HintHelpers.sol:HintHelpers",
        "label": "ZKUSD_GAS_COMPENSATION",
        "offset": 0,
        "slot": "2",
        "type": "t_uint256"
      },
      {
        "astId": 3859,
        "contract": "contracts/HintHelpers.sol:HintHelpers",
        "label": "MIN_NET_DEBT",
        "offset": 0,
        "slot": "3",
        "type": "t_uint256"
      },
      {
        "astId": 3872,
        "contract": "contracts/HintHelpers.sol:HintHelpers",
        "label": "activePool",
        "offset": 0,
        "slot": "4",
        "type": "t_contract(IActivePool)15165"
      },
      {
        "astId": 3874,
        "contract": "contracts/HintHelpers.sol:HintHelpers",
        "label": "defaultPool",
        "offset": 0,
        "slot": "5",
        "type": "t_contract(IDefaultPool)15481"
      },
      {
        "astId": 3877,
        "contract": "contracts/HintHelpers.sol:HintHelpers",
        "label": "priceFeed",
        "offset": 0,
        "slot": "6",
        "type": "t_contract(IPriceFeed)15606"
      },
      {
        "astId": 14731,
        "contract": "contracts/HintHelpers.sol:HintHelpers",
        "label": "sortedTroves",
        "offset": 0,
        "slot": "7",
        "type": "t_contract(ISortedTroves)15885"
      },
      {
        "astId": 14733,
        "contract": "contracts/HintHelpers.sol:HintHelpers",
        "label": "troveManager",
        "offset": 0,
        "slot": "8",
        "type": "t_contract(ITroveManager)16585"
      }
    ],
    "types": {
      "t_address": {
        "encoding": "inplace",
        "label": "address",
        "numberOfBytes": "20"
      },
      "t_bool": {
        "encoding": "inplace",
        "label": "bool",
        "numberOfBytes": "1"
      },
      "t_contract(IActivePool)15165": {
        "encoding": "inplace",
        "label": "contract IActivePool",
        "numberOfBytes": "20"
      },
      "t_contract(IDefaultPool)15481": {
        "encoding": "inplace",
        "label": "contract IDefaultPool",
        "numberOfBytes": "20"
      },
      "t_contract(IPriceFeed)15606": {
        "encoding": "inplace",
        "label": "contract IPriceFeed",
        "numberOfBytes": "20"
      },
      "t_contract(ISortedTroves)15885": {
        "encoding": "inplace",
        "label": "contract ISortedTroves",
        "numberOfBytes": "20"
      },
      "t_contract(ITroveManager)16585": {
        "encoding": "inplace",
        "label": "contract ITroveManager",
        "numberOfBytes": "20"
      },
      "t_mapping(t_address,t_bool)": {
        "encoding": "mapping",
        "key": "t_address",
        "label": "mapping(address => bool)",
        "numberOfBytes": "32",
        "value": "t_bool"
      },
      "t_uint256": {
        "encoding": "inplace",
        "label": "uint256",
        "numberOfBytes": "32"
      }
    }
  }
}