{
  "address": "0x88892E1f52aEBbb2DE0f692F5d128Cf5B98aFFf6",
  "abi": [
    {
      "inputs": [
        {
          "internalType": "contract TroveManager",
          "name": "_troveManager",
          "type": "address"
        },
        {
          "internalType": "contract ISortedTroves",
          "name": "_sortedTroves",
          "type": "address"
        }
      ],
      "stateMutability": "nonpayable",
      "type": "constructor"
    },
    {
      "inputs": [
        {
          "internalType": "int256",
          "name": "_startIdx",
          "type": "int256"
        },
        {
          "internalType": "uint256",
          "name": "_count",
          "type": "uint256"
        }
      ],
      "name": "getMultipleSortedTroves",
      "outputs": [
        {
          "components": [
            {
              "internalType": "address",
              "name": "owner",
              "type": "address"
            },
            {
              "internalType": "uint256",
              "name": "debt",
              "type": "uint256"
            },
            {
              "internalType": "uint256",
              "name": "coll",
              "type": "uint256"
            },
            {
              "internalType": "uint256",
              "name": "stake",
              "type": "uint256"
            },
            {
              "internalType": "uint256",
              "name": "snapshotETH",
              "type": "uint256"
            },
            {
              "internalType": "uint256",
              "name": "snapshotZKUSDDebt",
              "type": "uint256"
            }
          ],
          "internalType": "struct MultiTroveGetter.CombinedTroveData[]",
          "name": "_troves",
          "type": "tuple[]"
        }
      ],
      "stateMutability": "view",
      "type": "function"
    },
    {
      "inputs": [],
      "name": "sortedTroves",
      "outputs": [
        {
          "internalType": "contract ISortedTroves",
          "name": "",
          "type": "address"
        }
      ],
      "stateMutability": "view",
      "type": "function"
    },
    {
      "inputs": [],
      "name": "troveManager",
      "outputs": [
        {
          "internalType": "contract TroveManager",
          "name": "",
          "type": "address"
        }
      ],
      "stateMutability": "view",
      "type": "function"
    }
  ],
  "transactionHash": "0x0cfc423dbaa3538959ba77659908d743dd79e36f02639752be8d33edf7d5ec6d",
  "args": [
    "0xE06F4754e94E2b6A462E616Ca3Ec78c6f4674A61",
    "0xa42d52149Fbf58F10a1456CED86039494FB048A9"
  ],
  "numDeployments": 1,
  "solcInputHash": "ffe83ff5afde0d06d4b6b8e37e72100d",
  "bytecode": "0x608060405234801561001057600080fd5b50604051610bc2380380610bc283398101604081905261002f91610060565b600080546001600160a01b039384166001600160a01b031991821617909155600180549290931691161790556100b1565b60008060408385031215610072578182fd5b825161007d81610099565b602084015190925061008e81610099565b809150509250929050565b6001600160a01b03811681146100ae57600080fd5b50565b610b02806100c06000396000f3fe608060405234801561001057600080fd5b50600436106100415760003560e01c80633d83908a14610046578063ae91875414610064578063b90bce451461006c575b600080fd5b61004e61008c565b60405161005b9190610a60565b60405180910390f35b61004e61009b565b61007f61007a3660046109a0565b6100aa565b60405161005b9190610a74565b6000546001600160a01b031681565b6001546001600160a01b031681565b6060600080600085126100c2575083905060016100d0565b846001016000039150600090505b6001546040805163de8fa43160e01b815290516000926001600160a01b03169163de8fa431916004808301926020929190829003018186803b15801561011557600080fd5b505afa158015610129573d6000803e3d6000fd5b505050506040513d601f19601f8201168201806040525081019061014d91906109c1565b905080831061018f576040805160008082526020820190925290610187565b610174610933565b81526020019060019003908161016c5790505b5093506101c4565b8281038086111561019e578095505b82156101b5576101ae84876101cd565b94506101c2565b6101bf8487610584565b94505b505b50505092915050565b60606000600160009054906101000a90046001600160a01b03166001600160a01b0316631e2231436040518163ffffffff1660e01b815260040160206040518083038186803b15801561021f57600080fd5b505afa158015610233573d6000803e3d6000fd5b505050506040513d601f19601f820116820180604052508101906102579190610972565b905060005b848110156102ee5760015460405163765e015960e01b81526001600160a01b039091169063765e015990610294908590600401610a60565b60206040518083038186803b1580156102ac57600080fd5b505afa1580156102c0573d6000803e3d6000fd5b505050506040513d601f19601f820116820180604052508101906102e49190610972565b915060010161025c565b508267ffffffffffffffff8111801561030657600080fd5b5060405190808252806020026020018201604052801561034057816020015b61032d610933565b8152602001906001900390816103255790505b50915060005b8381101561057c578183828151811061035b57fe5b60209081029190910101516001600160a01b039182169052600054604051630ddec86760e31b8152911690636ef643389061039a908590600401610a60565b60a06040518083038186803b1580156103b257600080fd5b505afa1580156103c6573d6000803e3d6000fd5b505050506040513d601f19601f820116820180604052508101906103ea91906109fc565b9050508584815181106103f957fe5b602002602001015160200186858151811061041057fe5b602002602001015160400187868151811061042757fe5b60209081029190910101516060019290925291905252600054604051630b39e3cd60e11b81526001600160a01b0390911690631673c79a9061046d908590600401610a60565b604080518083038186803b15801561048457600080fd5b505afa158015610498573d6000803e3d6000fd5b505050506040513d601f19601f820116820180604052508101906104bc91906109d9565b8483815181106104c857fe5b60200260200101516080018584815181106104df57fe5b602090810291909101015160a001919091525260015460405163765e015960e01b81526001600160a01b039091169063765e015990610522908590600401610a60565b60206040518083038186803b15801561053a57600080fd5b505afa15801561054e573d6000803e3d6000fd5b505050506040513d601f19601f820116820180604052508101906105729190610972565b9150600101610346565b505092915050565b60606000600160009054906101000a90046001600160a01b03166001600160a01b0316634d6228316040518163ffffffff1660e01b815260040160206040518083038186803b1580156105d657600080fd5b505afa1580156105ea573d6000803e3d6000fd5b505050506040513d601f19601f8201168201806040525081019061060e9190610972565b905060005b848110156106a557600154604051632dc9c0eb60e21b81526001600160a01b039091169063b72703ac9061064b908590600401610a60565b60206040518083038186803b15801561066357600080fd5b505afa158015610677573d6000803e3d6000fd5b505050506040513d601f19601f8201168201806040525081019061069b9190610972565b9150600101610613565b508267ffffffffffffffff811180156106bd57600080fd5b506040519080825280602002602001820160405280156106f757816020015b6106e4610933565b8152602001906001900390816106dc5790505b50915060005b8381101561057c578183828151811061071257fe5b60209081029190910101516001600160a01b039182169052600054604051630ddec86760e31b8152911690636ef6433890610751908590600401610a60565b60a06040518083038186803b15801561076957600080fd5b505afa15801561077d573d6000803e3d6000fd5b505050506040513d601f19601f820116820180604052508101906107a191906109fc565b9050508584815181106107b057fe5b60200260200101516020018685815181106107c757fe5b60200260200101516040018786815181106107de57fe5b60209081029190910101516060019290925291905252600054604051630b39e3cd60e11b81526001600160a01b0390911690631673c79a90610824908590600401610a60565b604080518083038186803b15801561083b57600080fd5b505afa15801561084f573d6000803e3d6000fd5b505050506040513d601f19601f8201168201806040525081019061087391906109d9565b84838151811061087f57fe5b602002602001015160800185848151811061089657fe5b602090810291909101015160a0019190915252600154604051632dc9c0eb60e21b81526001600160a01b039091169063b72703ac906108d9908590600401610a60565b60206040518083038186803b1580156108f157600080fd5b505afa158015610905573d6000803e3d6000fd5b505050506040513d601f19601f820116820180604052508101906109299190610972565b91506001016106fd565b6040518060c0016040528060006001600160a01b0316815260200160008152602001600081526020016000815260200160008152602001600081525090565b600060208284031215610983578081fd5b81516001600160a01b0381168114610999578182fd5b9392505050565b600080604083850312156109b2578081fd5b50508035926020909101359150565b6000602082840312156109d2578081fd5b5051919050565b600080604083850312156109eb578182fd5b505080516020909101519092909150565b600080600080600060a08688031215610a13578081fd5b855194506020860151935060408601519250606086015160058110610a36578182fd5b60808701519092506001600160801b0381168114610a52578182fd5b809150509295509295909350565b6001600160a01b0391909116815260200190565b602080825282518282018190526000919060409081850190868401855b82811015610ae857815180516001600160a01b0316855286810151878601528581015186860152606080820151908601526080808201519086015260a0908101519085015260c09093019290850190600101610a91565b509197965050505050505056fea164736f6c634300060b000a",
  "devdoc": {
    "kind": "dev",
    "methods": {},
    "version": 1
  },
  "userdoc": {
    "kind": "user",
    "methods": {},
    "version": 1
  },
  "storageLayout": {
    "storage": [
      {
        "astId": 17946,
        "contract": "contracts/MultiTroveGetter.sol:MultiTroveGetter",
        "label": "troveManager",
        "offset": 0,
        "slot": "0",
        "type": "t_contract(TroveManager)30577"
      },
      {
        "astId": 17948,
        "contract": "contracts/MultiTroveGetter.sol:MultiTroveGetter",
        "label": "sortedTroves",
        "offset": 0,
        "slot": "1",
        "type": "t_contract(ISortedTroves)15885"
      }
    ],
    "types": {
      "t_contract(ISortedTroves)15885": {
        "encoding": "inplace",
        "label": "contract ISortedTroves",
        "numberOfBytes": "20"
      },
      "t_contract(TroveManager)30577": {
        "encoding": "inplace",
        "label": "contract TroveManager",
        "numberOfBytes": "20"
      }
    }
  }
}