{
  "address": "0xF015B0c17d5BE09A7D2D9d0615249602ecFbf786",
  "abi": [
    {
      "anonymous": false,
      "inputs": [
        {
          "indexed": false,
          "internalType": "uint256",
          "name": "_lastGoodPrice",
          "type": "uint256"
        }
      ],
      "name": "LastGoodPriceUpdated",
      "type": "event"
    },
    {
      "anonymous": false,
      "inputs": [
        {
          "indexed": true,
          "internalType": "address",
          "name": "previousOwner",
          "type": "address"
        },
        {
          "indexed": true,
          "internalType": "address",
          "name": "newOwner",
          "type": "address"
        }
      ],
      "name": "OwnershipTransferred",
      "type": "event"
    },
    {
      "anonymous": false,
      "inputs": [
        {
          "indexed": false,
          "internalType": "enum PriceFeedV2.OracleStatus",
          "name": "newStatus",
          "type": "uint8"
        }
      ],
      "name": "PriceFeedStatusChanged",
      "type": "event"
    },
    {
      "inputs": [],
      "name": "NAME",
      "outputs": [
        {
          "internalType": "string",
          "name": "",
          "type": "string"
        }
      ],
      "stateMutability": "view",
      "type": "function"
    },
    {
      "inputs": [],
      "name": "TARGET_DIGITS",
      "outputs": [
        {
          "internalType": "uint256",
          "name": "",
          "type": "uint256"
        }
      ],
      "stateMutability": "view",
      "type": "function"
    },
    {
      "inputs": [],
      "name": "TIMEOUT",
      "outputs": [
        {
          "internalType": "uint256",
          "name": "",
          "type": "uint256"
        }
      ],
      "stateMutability": "view",
      "type": "function"
    },
    {
      "inputs": [],
      "name": "chainlinkAggregator",
      "outputs": [
        {
          "internalType": "contract AggregatorV3Interface",
          "name": "",
          "type": "address"
        }
      ],
      "stateMutability": "view",
      "type": "function"
    },
    {
      "inputs": [],
      "name": "fetchPrice",
      "outputs": [
        {
          "internalType": "uint256",
          "name": "",
          "type": "uint256"
        }
      ],
      "stateMutability": "nonpayable",
      "type": "function"
    },
    {
      "inputs": [
        {
          "internalType": "uint256",
          "name": "fee",
          "type": "uint256"
        },
        {
          "internalType": "bytes[]",
          "name": "priceUpdateData",
          "type": "bytes[]"
        }
      ],
      "name": "fetchPullPrice",
      "outputs": [
        {
          "internalType": "uint256",
          "name": "",
          "type": "uint256"
        }
      ],
      "stateMutability": "payable",
      "type": "function"
    },
    {
      "inputs": [
        {
          "internalType": "bytes[]",
          "name": "_updateData",
          "type": "bytes[]"
        }
      ],
      "name": "fetchUpdateFee",
      "outputs": [
        {
          "internalType": "uint256",
          "name": "",
          "type": "uint256"
        }
      ],
      "stateMutability": "view",
      "type": "function"
    },
    {
      "inputs": [],
      "name": "isOwner",
      "outputs": [
        {
          "internalType": "bool",
          "name": "",
          "type": "bool"
        }
      ],
      "stateMutability": "view",
      "type": "function"
    },
    {
      "inputs": [],
      "name": "lastGoodPrice",
      "outputs": [
        {
          "internalType": "uint256",
          "name": "",
          "type": "uint256"
        }
      ],
      "stateMutability": "view",
      "type": "function"
    },
    {
      "inputs": [],
      "name": "owner",
      "outputs": [
        {
          "internalType": "address",
          "name": "",
          "type": "address"
        }
      ],
      "stateMutability": "view",
      "type": "function"
    },
    {
      "inputs": [],
      "name": "priceFeedId",
      "outputs": [
        {
          "internalType": "bytes32",
          "name": "",
          "type": "bytes32"
        }
      ],
      "stateMutability": "view",
      "type": "function"
    },
    {
      "inputs": [],
      "name": "pythRouter",
      "outputs": [
        {
          "internalType": "contract IPyth",
          "name": "",
          "type": "address"
        }
      ],
      "stateMutability": "view",
      "type": "function"
    },
    {
      "inputs": [
        {
          "internalType": "bytes32",
          "name": "_priceFeedId",
          "type": "bytes32"
        },
        {
          "internalType": "address",
          "name": "_pythRouterAddress",
          "type": "address"
        },
        {
          "internalType": "address",
          "name": "_chainlinkAggregatorAddress",
          "type": "address"
        }
      ],
      "name": "setAddresses",
      "outputs": [],
      "stateMutability": "nonpayable",
      "type": "function"
    },
    {
      "inputs": [
        {
          "internalType": "enum PriceFeedV2.OracleStatus",
          "name": "_status",
          "type": "uint8"
        }
      ],
      "name": "setOracleStatus",
      "outputs": [],
      "stateMutability": "nonpayable",
      "type": "function"
    },
    {
      "inputs": [],
      "name": "status",
      "outputs": [
        {
          "internalType": "enum PriceFeedV2.OracleStatus",
          "name": "",
          "type": "uint8"
        }
      ],
      "stateMutability": "view",
      "type": "function"
    }
  ],
  "transactionHash": "0x6b74a9265afc90322da9784bf48b7c04ce9d45085bfd7216c80be448827469ee",
  "args": [],
  "numDeployments": 3,
  "solcInputHash": "c5fcabf987cad7b58064dcad5ba763b9",
  "bytecode": "0x608060405234801561001057600080fd5b50600080546001600160a01b0319163390811782556040519091907f8be0079c531659141344cd1fd0a4f28419497f9722a3daafe3b4186f6b6457e0908290a36110138061005f6000396000f3fe6080604052600436106100b85760003560e01c80630490be83146100bd5780630fdb11cf146100e85780631560983a146100fd5780631999bb9e146101105780631be5c92f14610125578063200d2ed21461013a57806334b5db481461015c57806341e7dc0b1461017e5780635004d36c1461019e5780638da5cb5b146101c05780638f32d59b146101d5578063980d7b0a146101f7578063a3f4df7e14610217578063ee49648a14610239578063f56f48f21461024e575b600080fd5b3480156100c957600080fd5b506100d2610263565b6040516100df9190610e8a565b60405180910390f35b3480156100f457600080fd5b506100d2610269565b6100d261010b366004610cf0565b61027c565b34801561011c57600080fd5b506100d26102c4565b34801561013157600080fd5b506100d26102ca565b34801561014657600080fd5b5061014f6102cf565b6040516100df9190610e93565b34801561016857600080fd5b5061017c610177366004610bf4565b6102df565b005b34801561018a57600080fd5b506100d2610199366004610bb5565b610352565b3480156101aa57600080fd5b506101b3610408565b6040516100df9190610dd5565b3480156101cc57600080fd5b506101b3610417565b3480156101e157600080fd5b506101ea610426565b6040516100df9190610e7f565b34801561020357600080fd5b5061017c610212366004610c31565b610437565b34801561022357600080fd5b5061022c6104b9565b6040516100df9190610ea7565b34801561024557600080fd5b506101b36104e0565b34801561025a57600080fd5b506100d26104ef565b60045481565b60006102736104f5565b50506004545b90565b600080600354600160a01b900460ff16600181111561029757fe5b14156102ab576102a56104f5565b506102b8565b6102b684848461051b565b505b506004545b9392505050565b60025481565b601281565b600354600160a01b900460ff1681565b6102e7610426565b61030c5760405162461bcd60e51b815260040161030390610f9c565b60405180910390fd5b6103158261078d565b61031e8161078d565b600292909255600180546001600160a01b039283166001600160a01b03199182161790915560038054929093169116179055565b600080600354600160a01b900460ff16600181111561036d57fe5b141561037b57506000610402565b60015460405163d47eed4560e01b81526000916001600160a01b03169063d47eed45906103ae9087908790600401610de9565b60206040518083038186803b1580156103c657600080fd5b505afa1580156103da573d6000803e3d6000fd5b505050506040513d601f19601f820116820180604052508101906103fe9190610cd8565b9150505b92915050565b6003546001600160a01b031681565b6000546001600160a01b031690565b6000546001600160a01b0316331490565b61043f610426565b61045b5760405162461bcd60e51b815260040161030390610f9c565b6003805482919060ff60a01b1916600160a01b83600181111561047a57fe5b02179055507f5c57579a8214fe4f710c1c56fa829f045b9fa6d225a744225a30c32188064d4e816040516104ae9190610e93565b60405180910390a150565b6040518060400160405280600b81526020016a283934b1b2a332b2b22b1960a91b81525081565b6001546001600160a01b031681565b61384081565b60006104ff610ad8565b6105076107d6565b905061051281610919565b50600191505090565b600083341461053c5760405162461bcd60e51b815260040161030390610f31565b600154604051631df3cbc560e31b81526001600160a01b039091169063ef9e5e289086906105709087908790600401610de9565b6000604051808303818588803b15801561058957600080fd5b505af115801561059d573d6000803e3d6000fd5b50505050506105aa610b06565b60015460025460405163b5dcc91160e01b81526001600160a01b039092169163b5dcc911916105db91600401610e8a565b60806040518083038186803b1580156105f357600080fd5b505afa925050508015610623575060408051601f3d908101601f1916820190925261062091810190610c50565b60015b6106af57600154600254604051639474f45b60e01b81526001600160a01b0390921691639474f45b9161065891600401610e8a565b60806040518083038186803b15801561067057600080fd5b505afa158015610684573d6000803e3d6000fd5b505050506040513d601f19601f820116820180604052508101906106a89190610c50565b9050610734565b60015460025460405163b5dcc91160e01b81526001600160a01b039092169163b5dcc911916106e091600401610e8a565b60806040518083038186803b1580156106f857600080fd5b505afa15801561070c573d6000803e3d6000fd5b505050506040513d601f19601f820116820180604052508101906107309190610c50565b9150505b61384061074e82606001514261093c90919063ffffffff16565b111561075e5760009150506102bd565b6040810151815160039190910b601201600a0a9060070b81026107808161097e565b5060019695505050505050565b6001600160a01b0381166107b35760405162461bcd60e51b815260040161030390610efa565b803b806107d25760405162461bcd60e51b815260040161030390610fd1565b5050565b6107de610ad8565b600360009054906101000a90046001600160a01b03166001600160a01b031663313ce5676040518163ffffffff1660e01b815260040160206040518083038186803b15801561082c57600080fd5b505afa92505050801561085c575060408051601f3d908101601f1916820190925261085991810190610d8a565b60015b61086557610279565b60ff166080820152600360009054906101000a90046001600160a01b03166001600160a01b031663feaf968c6040518163ffffffff1660e01b815260040160a06040518083038186803b1580156108bb57600080fd5b505afa9250505080156108eb575060408051601f3d908101601f191682019092526108e891810190610d39565b60015b6108f457610279565b506001600160501b039093168452506020830152604082015260016060820152610279565b6000806109318360200151846080015160ff166109b3565b90506104028161097e565b60006102bd83836040518060400160405280601e81526020017f536166654d6174683a207375627472616374696f6e206f766572666c6f7700008152506109fc565b60048190556040517f4d29de21de555af78a62fc82dd4bc05e9ae5b0660a37f04729527e0f22780cd3906104ae908390610e8a565b600080601283106109dc576109d5846011198501600a0a63ffffffff610a2816565b90506102bd565b60128310156102bd576103fe846012859003600a0a63ffffffff610a6716565b60008184841115610a205760405162461bcd60e51b81526004016103039190610ea7565b505050900390565b60006102bd83836040518060400160405280601a815260200179536166654d6174683a206469766973696f6e206279207a65726f60301b815250610aa1565b600082610a7657506000610402565b82820282848281610a8357fe5b04146102bd5760405162461bcd60e51b815260040161030390610f5b565b60008183610ac25760405162461bcd60e51b81526004016103039190610ea7565b506000838581610ace57fe5b0495945050505050565b6040805160a08101825260008082526020820181905291810182905260608101829052608081019190915290565b60408051608081018252600080825260208201819052918101829052606081019190915290565b80356001600160a01b038116811461040257600080fd5b60008083601f840112610b55578182fd5b5081356001600160401b03811115610b6b578182fd5b6020830191508360208083028501011115610b8557600080fd5b9250929050565b8051600381900b811461040257600080fd5b80516001600160501b038116811461040257600080fd5b60008060208385031215610bc7578182fd5b82356001600160401b03811115610bdc578283fd5b610be885828601610b44565b90969095509350505050565b600080600060608486031215610c08578081fd5b83359250610c198560208601610b2d565b9150610c288560408601610b2d565b90509250925092565b600060208284031215610c42578081fd5b8135600281106102bd578182fd5b600060808284031215610c61578081fd5b604051608081016001600160401b038282108183111715610c80578384fd5b81604052845191508160070b8214610c96578384fd5b9082526020840151908082168214610cac578384fd5b506020820152610cbf8460408501610b8c565b6040820152606083015160608201528091505092915050565b600060208284031215610ce9578081fd5b5051919050565b600080600060408486031215610d04578283fd5b8335925060208401356001600160401b03811115610d20578283fd5b610d2c86828701610b44565b9497909650939450505050565b600080600080600060a08688031215610d50578081fd5b610d5a8787610b9e565b9450602086015193506040860151925060608601519150610d7e8760808801610b9e565b90509295509295909350565b600060208284031215610d9b578081fd5b815160ff811681146102bd578182fd5b60008284528282602086013780602084860101526020601f19601f85011685010190509392505050565b6001600160a01b0391909116815260200190565b602080825281810183905260009060408482028401810190840186845b87811015610e7257868403603f190183528135368a9003601e19018112610e2b578687fd5b89018035906001600160401b03821115610e43578788fd5b8136038b1315610e51578788fd5b610e5e8683898401610dab565b955050509184019190840190600101610e06565b5091979650505050505050565b901515815260200190565b90815260200190565b6020810160028310610ea157fe5b91905290565b6000602080835283518082850152825b81811015610ed357858101830151858201604001528201610eb7565b81811115610ee45783604083870101525b50601f01601f1916929092016040019392505050565b6020808252601e908201527f4163636f756e742063616e6e6f74206265207a65726f20616464726573730000604082015260600190565b60208082526010908201526f496e73756666696369656e742066656560801b604082015260600190565b60208082526021908201527f536166654d6174683a206d756c7469706c69636174696f6e206f766572666c6f6040820152607760f81b606082015260800190565b6020808252818101527f4f776e61626c653a2063616c6c6572206973206e6f7420746865206f776e6572604082015260600190565b6020808252818101527f4163636f756e7420636f64652073697a652063616e6e6f74206265207a65726f60408201526060019056fea164736f6c634300060b000a",
  "devdoc": {
    "kind": "dev",
    "methods": {
      "isOwner()": {
        "details": "Returns true if the caller is the current owner."
      },
      "owner()": {
        "details": "Returns the address of the current owner."
      }
    },
    "version": 1
  },
  "userdoc": {
    "kind": "user",
    "methods": {},
    "version": 1
  },
  "storageLayout": {
    "storage": [
      {
        "astId": 4382,
        "contract": "contracts/PriceFeedV2.sol:PriceFeedV2",
        "label": "_owner",
        "offset": 0,
        "slot": "0",
        "type": "t_address"
      },
      {
        "astId": 19557,
        "contract": "contracts/PriceFeedV2.sol:PriceFeedV2",
        "label": "pythRouter",
        "offset": 0,
        "slot": "1",
        "type": "t_contract(IPyth)15719"
      },
      {
        "astId": 19559,
        "contract": "contracts/PriceFeedV2.sol:PriceFeedV2",
        "label": "priceFeedId",
        "offset": 0,
        "slot": "2",
        "type": "t_bytes32"
      },
      {
        "astId": 19561,
        "contract": "contracts/PriceFeedV2.sol:PriceFeedV2",
        "label": "chainlinkAggregator",
        "offset": 0,
        "slot": "3",
        "type": "t_contract(AggregatorV3Interface)3091"
      },
      {
        "astId": 19563,
        "contract": "contracts/PriceFeedV2.sol:PriceFeedV2",
        "label": "status",
        "offset": 20,
        "slot": "3",
        "type": "t_enum(OracleStatus)19547"
      },
      {
        "astId": 19565,
        "contract": "contracts/PriceFeedV2.sol:PriceFeedV2",
        "label": "lastGoodPrice",
        "offset": 0,
        "slot": "4",
        "type": "t_uint256"
      }
    ],
    "types": {
      "t_address": {
        "encoding": "inplace",
        "label": "address",
        "numberOfBytes": "20"
      },
      "t_bytes32": {
        "encoding": "inplace",
        "label": "bytes32",
        "numberOfBytes": "32"
      },
      "t_contract(AggregatorV3Interface)3091": {
        "encoding": "inplace",
        "label": "contract AggregatorV3Interface",
        "numberOfBytes": "20"
      },
      "t_contract(IPyth)15719": {
        "encoding": "inplace",
        "label": "contract IPyth",
        "numberOfBytes": "20"
      },
      "t_enum(OracleStatus)19547": {
        "encoding": "inplace",
        "label": "enum PriceFeedV2.OracleStatus",
        "numberOfBytes": "1"
      },
      "t_uint256": {
        "encoding": "inplace",
        "label": "uint256",
        "numberOfBytes": "32"
      }
    }
  }
}