{
  "address": "0xa42d52149Fbf58F10a1456CED86039494FB048A9",
  "abi": [
    {
      "anonymous": false,
      "inputs": [
        {
          "indexed": false,
          "internalType": "address",
          "name": "_borrowerOperationsAddress",
          "type": "address"
        }
      ],
      "name": "BorrowerOperationsAddressChanged",
      "type": "event"
    },
    {
      "anonymous": false,
      "inputs": [
        {
          "indexed": false,
          "internalType": "address",
          "name": "_id",
          "type": "address"
        },
        {
          "indexed": false,
          "internalType": "address",
          "name": "_prevId",
          "type": "address"
        },
        {
          "indexed": false,
          "internalType": "address",
          "name": "_nextId",
          "type": "address"
        },
        {
          "indexed": false,
          "internalType": "uint256",
          "name": "_NICR",
          "type": "uint256"
        }
      ],
      "name": "NodeAdded",
      "type": "event"
    },
    {
      "anonymous": false,
      "inputs": [
        {
          "indexed": false,
          "internalType": "address",
          "name": "_id",
          "type": "address"
        }
      ],
      "name": "NodeRemoved",
      "type": "event"
    },
    {
      "anonymous": false,
      "inputs": [
        {
          "indexed": true,
          "internalType": "address",
          "name": "previousOwner",
          "type": "address"
        },
        {
          "indexed": true,
          "internalType": "address",
          "name": "newOwner",
          "type": "address"
        }
      ],
      "name": "OwnershipTransferred",
      "type": "event"
    },
    {
      "anonymous": false,
      "inputs": [
        {
          "indexed": false,
          "internalType": "address",
          "name": "_sortedDoublyLLAddress",
          "type": "address"
        }
      ],
      "name": "SortedTrovesAddressChanged",
      "type": "event"
    },
    {
      "anonymous": false,
      "inputs": [
        {
          "indexed": false,
          "internalType": "address",
          "name": "_troveManagerAddress",
          "type": "address"
        }
      ],
      "name": "TroveManagerAddressChanged",
      "type": "event"
    },
    {
      "anonymous": false,
      "inputs": [
        {
          "indexed": false,
          "internalType": "address",
          "name": "_head",
          "type": "address"
        },
        {
          "indexed": false,
          "internalType": "address",
          "name": "_tail",
          "type": "address"
        },
        {
          "indexed": false,
          "internalType": "uint256",
          "name": "_currentSize",
          "type": "uint256"
        }
      ],
      "name": "UpdateLink",
      "type": "event"
    },
    {
      "inputs": [],
      "name": "NAME",
      "outputs": [
        {
          "internalType": "string",
          "name": "",
          "type": "string"
        }
      ],
      "stateMutability": "view",
      "type": "function"
    },
    {
      "inputs": [],
      "name": "borrowerOperationsAddress",
      "outputs": [
        {
          "internalType": "address",
          "name": "",
          "type": "address"
        }
      ],
      "stateMutability": "view",
      "type": "function"
    },
    {
      "inputs": [
        {
          "internalType": "address",
          "name": "_id",
          "type": "address"
        }
      ],
      "name": "contains",
      "outputs": [
        {
          "internalType": "bool",
          "name": "",
          "type": "bool"
        }
      ],
      "stateMutability": "view",
      "type": "function"
    },
    {
      "inputs": [],
      "name": "data",
      "outputs": [
        {
          "internalType": "address",
          "name": "head",
          "type": "address"
        },
        {
          "internalType": "address",
          "name": "tail",
          "type": "address"
        },
        {
          "internalType": "uint256",
          "name": "maxSize",
          "type": "uint256"
        },
        {
          "internalType": "uint256",
          "name": "size",
          "type": "uint256"
        }
      ],
      "stateMutability": "view",
      "type": "function"
    },
    {
      "inputs": [
        {
          "internalType": "uint256",
          "name": "_NICR",
          "type": "uint256"
        },
        {
          "internalType": "address",
          "name": "_prevId",
          "type": "address"
        },
        {
          "internalType": "address",
          "name": "_nextId",
          "type": "address"
        }
      ],
      "name": "findInsertPosition",
      "outputs": [
        {
          "internalType": "address",
          "name": "",
          "type": "address"
        },
        {
          "internalType": "address",
          "name": "",
          "type": "address"
        }
      ],
      "stateMutability": "view",
      "type": "function"
    },
    {
      "inputs": [],
      "name": "getFirst",
      "outputs": [
        {
          "internalType": "address",
          "name": "",
          "type": "address"
        }
      ],
      "stateMutability": "view",
      "type": "function"
    },
    {
      "inputs": [],
      "name": "getLast",
      "outputs": [
        {
          "internalType": "address",
          "name": "",
          "type": "address"
        }
      ],
      "stateMutability": "view",
      "type": "function"
    },
    {
      "inputs": [],
      "name": "getMaxSize",
      "outputs": [
        {
          "internalType": "uint256",
          "name": "",
          "type": "uint256"
        }
      ],
      "stateMutability": "view",
      "type": "function"
    },
    {
      "inputs": [
        {
          "internalType": "address",
          "name": "_id",
          "type": "address"
        }
      ],
      "name": "getNext",
      "outputs": [
        {
          "internalType": "address",
          "name": "",
          "type": "address"
        }
      ],
      "stateMutability": "view",
      "type": "function"
    },
    {
      "inputs": [
        {
          "internalType": "address",
          "name": "_id",
          "type": "address"
        }
      ],
      "name": "getPrev",
      "outputs": [
        {
          "internalType": "address",
          "name": "",
          "type": "address"
        }
      ],
      "stateMutability": "view",
      "type": "function"
    },
    {
      "inputs": [],
      "name": "getSize",
      "outputs": [
        {
          "internalType": "uint256",
          "name": "",
          "type": "uint256"
        }
      ],
      "stateMutability": "view",
      "type": "function"
    },
    {
      "inputs": [
        {
          "internalType": "address",
          "name": "_id",
          "type": "address"
        },
        {
          "internalType": "uint256",
          "name": "_NICR",
          "type": "uint256"
        },
        {
          "internalType": "address",
          "name": "_prevId",
          "type": "address"
        },
        {
          "internalType": "address",
          "name": "_nextId",
          "type": "address"
        }
      ],
      "name": "insert",
      "outputs": [],
      "stateMutability": "nonpayable",
      "type": "function"
    },
    {
      "inputs": [],
      "name": "isEmpty",
      "outputs": [
        {
          "internalType": "bool",
          "name": "",
          "type": "bool"
        }
      ],
      "stateMutability": "view",
      "type": "function"
    },
    {
      "inputs": [],
      "name": "isFull",
      "outputs": [
        {
          "internalType": "bool",
          "name": "",
          "type": "bool"
        }
      ],
      "stateMutability": "view",
      "type": "function"
    },
    {
      "inputs": [],
      "name": "isOwner",
      "outputs": [
        {
          "internalType": "bool",
          "name": "",
          "type": "bool"
        }
      ],
      "stateMutability": "view",
      "type": "function"
    },
    {
      "inputs": [],
      "name": "owner",
      "outputs": [
        {
          "internalType": "address",
          "name": "",
          "type": "address"
        }
      ],
      "stateMutability": "view",
      "type": "function"
    },
    {
      "inputs": [
        {
          "internalType": "address",
          "name": "_id",
          "type": "address"
        },
        {
          "internalType": "uint256",
          "name": "_newNICR",
          "type": "uint256"
        },
        {
          "internalType": "address",
          "name": "_prevId",
          "type": "address"
        },
        {
          "internalType": "address",
          "name": "_nextId",
          "type": "address"
        }
      ],
      "name": "reInsert",
      "outputs": [],
      "stateMutability": "nonpayable",
      "type": "function"
    },
    {
      "inputs": [
        {
          "internalType": "address",
          "name": "_id",
          "type": "address"
        }
      ],
      "name": "remove",
      "outputs": [],
      "stateMutability": "nonpayable",
      "type": "function"
    },
    {
      "inputs": [
        {
          "internalType": "uint256",
          "name": "_size",
          "type": "uint256"
        },
        {
          "internalType": "address",
          "name": "_troveManagerAddress",
          "type": "address"
        },
        {
          "internalType": "address",
          "name": "_borrowerOperationsAddress",
          "type": "address"
        }
      ],
      "name": "setParams",
      "outputs": [],
      "stateMutability": "nonpayable",
      "type": "function"
    },
    {
      "inputs": [],
      "name": "troveManager",
      "outputs": [
        {
          "internalType": "contract ITroveManager",
          "name": "",
          "type": "address"
        }
      ],
      "stateMutability": "view",
      "type": "function"
    },
    {
      "inputs": [
        {
          "internalType": "uint256",
          "name": "_NICR",
          "type": "uint256"
        },
        {
          "internalType": "address",
          "name": "_prevId",
          "type": "address"
        },
        {
          "internalType": "address",
          "name": "_nextId",
          "type": "address"
        }
      ],
      "name": "validInsertPosition",
      "outputs": [
        {
          "internalType": "bool",
          "name": "",
          "type": "bool"
        }
      ],
      "stateMutability": "view",
      "type": "function"
    }
  ],
  "transactionHash": "0x5bd26fe2dee2e417b12a1f0758e1a3f5b4ea540d12da83b304e183e19b086860",
  "args": [],
  "numDeployments": 1,
  "solcInputHash": "ffe83ff5afde0d06d4b6b8e37e72100d",
  "bytecode": "0x608060405234801561001057600080fd5b50600080546001600160a01b0319163390811782556040519091907f8be0079c531659141344cd1fd0a4f28419497f9722a3daafe3b4186f6b6457e0908290a36118e48061005f6000396000f3fe608060405234801561001057600080fd5b50600436106101175760003560e01c8063681fe70c116100a8578063681fe70c146102d257806373d4a13a146102da578063765e0159146103145780638da5cb5b1461033a5780638f32d59b14610342578063a3f4df7e1461034a578063b72703ac146103c7578063b7f8cf9b146103ed578063babd3d9a146103f5578063de8fa431146103fd578063f376d7981461040557610117565b80631e2231431461011c57806329092d0e146101405780632be21260146101685780633d83908a146101a45780633fce12d5146101ac578063416980dc146101f457806346f7cf871461024e5780634d6228311461028a5780635dbe47e81461029257806363e1d57c146102b8575b600080fd5b610124610439565b604080516001600160a01b039092168252519081900360200190f35b6101666004803603602081101561015657600080fd5b50356001600160a01b0316610448565b005b6101666004803603608081101561017e57600080fd5b506001600160a01b0381358116916020810135916040820135811691606001351661045c565b610124610511565b6101e0600480360360608110156101c257600080fd5b508035906001600160a01b0360208201358116916040013516610520565b604080519115158252519081900360200190f35b6102286004803603606081101561020a57600080fd5b508035906001600160a01b0360208201358116916040013516610543565b604080516001600160a01b03938416815291909216602082015281519081900390910190f35b6101666004803603608081101561026457600080fd5b506001600160a01b0381358116916020810135916040820135811691606001351661056d565b610124610582565b6101e0600480360360208110156102a857600080fd5b50356001600160a01b0316610591565b6102c06105af565b60408051918252519081900360200190f35b6101e06105b5565b6102e26105bc565b604080516001600160a01b03958616815293909416602084015282840191909152606082015290519081900360800190f35b6101246004803603602081101561032a57600080fd5b50356001600160a01b03166105db565b6101246105fe565b6101e061060d565b61035261061e565b6040805160208082528351818301528351919283929083019185019080838360005b8381101561038c578181015183820152602001610374565b50505050905090810190601f1680156103b95780820380516001836020036101000a031916815260200191505b509250505060405180910390f35b610124600480360360208110156103dd57600080fd5b50356001600160a01b0316610646565b610124610667565b6101e0610676565b6102c0610680565b6101666004803603606081101561041b57600080fd5b508035906001600160a01b0360208201358116916040013516610686565b6003546001600160a01b031690565b6104506107d6565b61045981610821565b50565b6002546001600160a01b031661047181610aa9565b61047a85610591565b6104b55760405162461bcd60e51b815260040180806020018281038252602a815260200180611810602a913960400191505060405180910390fd5b600084116104f45760405162461bcd60e51b81526004018080602001828103825260238152602001806118b56023913960400191505060405180910390fd5b6104fd85610821565b61050a8186868686610b05565b5050505050565b6002546001600160a01b031681565b60025460009061053b906001600160a01b0316858585610ee8565b949350505050565b6002546000908190610560906001600160a01b031686868661118f565b915091505b935093915050565b6002546001600160a01b03166104fd81610aa9565b6004546001600160a01b031690565b6001600160a01b031660009081526007602052604090205460ff1690565b60055490565b6006541590565b6003546004546005546006546001600160a01b03938416939092169184565b6001600160a01b0390811660009081526007602052604090205461010090041690565b6000546001600160a01b031690565b6000546001600160a01b0316331490565b6040518060400160405280600c81526020016b536f7274656454726f76657360a01b81525081565b6001600160a01b039081166000908152600760205260409020600101541690565b6001546001600160a01b031681565b6005546006541490565b60065490565b61068e61060d565b6106df576040805162461bcd60e51b815260206004820181905260248201527f4f776e61626c653a2063616c6c6572206973206e6f7420746865206f776e6572604482015290519081900360640190fd5b6000831161071e5760405162461bcd60e51b815260040180806020018281038252602281526020018061183a6022913960400191505060405180910390fd5b6107278261137c565b6107308161137c565b6005839055600280546001600160a01b038085166001600160a01b03199283168117909355600180549185169190921617905560408051918252517f143219c9e69b09e07e095fcc889b43d8f46ca892bba65f08dc3a0050869a56789181900360200190a1604080516001600160a01b038316815290517f3ca631ffcd2a9b5d9ae18543fc82f58eb4ca33af9e6ab01b7a8e95331e6ed9859181900360200190a1505050565b6002546001600160a01b0316331461081f5760405162461bcd60e51b815260040180806020018281038252602c81526020018061185c602c913960400191505060405180910390fd5b565b61082a81610591565b6108655760405162461bcd60e51b815260040180806020018281038252602a815260200180611810602a913960400191505060405180910390fd5b600654600110156109ab576003546001600160a01b03828116911614156108d4576001600160a01b03818116600090815260076020526040808220546003805461010090920485166001600160a01b0319928316179081905590931682529020600101805490911690556109a6565b6004546001600160a01b038281169116141561093b576001600160a01b0380821660009081526007602052604080822060010154600480546001600160a01b03191691851691909117908190559092168152208054610100600160a81b03191690556109a6565b6001600160a01b038082166000908152600760205260408082208054600180830180548716865284862080546101009485900489168502610100600160a81b03199091161790555492549190910485168452919092200180546001600160a01b031916919092161790555b6109c8565b600380546001600160a01b03199081169091556004805490911690555b6001600160a01b038116600090815260076020526040902080546001600160a81b0319168155600190810180546001600160a01b0319169055600654610a139163ffffffff61142f16565b6006819055600354600454604080516001600160a01b03938416815291909216602082015280820192909252517f0c8e03ef85af57c0379589c8cc9cb05bf122d3e8d09aa3014fad437384c586519181900360600190a1604080516001600160a01b038316815290517fcfc24166db4bb677e857cacabd1541fb2b30645021b27c5130419589b84db52b9181900360200190a150565b6001546001600160a01b0316331480610aca5750336001600160a01b038216145b6104595760405162461bcd60e51b815260040180806020018281038252602d815260200180611888602d913960400191505060405180910390fd5b610b0d610676565b15610b5c576040805162461bcd60e51b815260206004820152601a60248201527914dbdc9d1959151c9bdd995cce88131a5cdd081a5cc8199d5b1b60321b604482015290519081900360640190fd5b610b6584610591565b15610ba15760405162461bcd60e51b815260040180806020018281038252602c8152602001806117e4602c913960400191505060405180910390fd5b6001600160a01b038416610bfc576040805162461bcd60e51b815260206004820152601f60248201527f536f7274656454726f7665733a2049642063616e6e6f74206265207a65726f00604482015290519081900360640190fd5b60008311610c3b5760405162461bcd60e51b81526004018080602001828103825260238152602001806118b56023913960400191505060405180910390fd5b8181610c4987868484610ee8565b610c5f57610c598786848461118f565b90925090505b6001600160a01b038087166000908152600760205260409020805460ff191660011790558216158015610c9957506001600160a01b038116155b15610cce57600380546001600160a01b0388166001600160a01b03199182168117909255600480549091169091179055610e22565b6001600160a01b038216610d4257600380546001600160a01b03888116600081815260076020526040808220805495851661010002610100600160a81b0319909616959095179094558454909216825291902060010180546001600160a01b03199081168317909155825416179055610e22565b6001600160a01b038116610db257600480546001600160a01b0388811660008181526007602052604080822060010180549585166001600160a01b031996871617905585549093168152919091208054610100600160a81b03191661010083021790558254909116179055610e22565b6001600160a01b038087166000818152600760205260408082208054858716610100818102610100600160a81b031993841617845560019384018054988b166001600160a01b0319998a168117909155865284862080549188029190931617909155835291200180549092161790555b600654610e3690600163ffffffff61147816565b6006819055600354600454604080516001600160a01b03938416815291909216602082015280820192909252517f0c8e03ef85af57c0379589c8cc9cb05bf122d3e8d09aa3014fad437384c586519181900360600190a1604080516001600160a01b03808916825280871660208301528516818301526060810187905290517f340b8b7673cd30ef44e87aa0e6ba8f1d4b53ea6be7c346e19743181720e76be69181900360800190a150505050505050565b60006001600160a01b038316158015610f0857506001600160a01b038216155b15610f1c57610f156105b5565b905061053b565b6001600160a01b038316610fce576003546001600160a01b038381169116148015610f155750846001600160a01b031663b0d8e181836040518263ffffffff1660e01b815260040180826001600160a01b03166001600160a01b0316815260200191505060206040518083038186803b158015610f9857600080fd5b505afa158015610fac573d6000803e3d6000fd5b505050506040513d6020811015610fc257600080fd5b5051841015905061053b565b6001600160a01b038216611080576004546001600160a01b038481169116148015610f155750846001600160a01b031663b0d8e181846040518263ffffffff1660e01b815260040180826001600160a01b03166001600160a01b0316815260200191505060206040518083038186803b15801561104a57600080fd5b505afa15801561105e573d6000803e3d6000fd5b505050506040513d602081101561107457600080fd5b5051841115905061053b565b6001600160a01b0383811660009081526007602052604090205461010090048116908316148015611132575083856001600160a01b031663b0d8e181856040518263ffffffff1660e01b815260040180826001600160a01b03166001600160a01b0316815260200191505060206040518083038186803b15801561110357600080fd5b505afa158015611117573d6000803e3d6000fd5b505050506040513d602081101561112d57600080fd5b505110155b8015610f155750846001600160a01b031663b0d8e181836040518263ffffffff1660e01b815260040180826001600160a01b03166001600160a01b0316815260200191505060206040518083038186803b158015610f9857600080fd5b60008083836001600160a01b03821615611242576111ac82610591565b15806112385750876001600160a01b031663b0d8e181836040518263ffffffff1660e01b815260040180826001600160a01b03166001600160a01b0316815260200191505060206040518083038186803b15801561120957600080fd5b505afa15801561121d573d6000803e3d6000fd5b505050506040513d602081101561123357600080fd5b505187115b1561124257600091505b6001600160a01b038116156112ef5761125a81610591565b15806112e65750876001600160a01b031663b0d8e181826040518263ffffffff1660e01b815260040180826001600160a01b03166001600160a01b0316815260200191505060206040518083038186803b1580156112b757600080fd5b505afa1580156112cb573d6000803e3d6000fd5b505050506040513d60208110156112e157600080fd5b505187105b156112ef575060005b6001600160a01b03821615801561130d57506001600160a01b038116155b156113365760035461132b90899089906001600160a01b03166114d0565b935093505050611373565b6001600160a01b03821661134f5761132b888883611611565b6001600160a01b0381166113685761132b8888846114d0565b61132b8888846114d0565b94509492505050565b6001600160a01b0381166113d7576040805162461bcd60e51b815260206004820152601e60248201527f4163636f756e742063616e6e6f74206265207a65726f20616464726573730000604482015290519081900360640190fd5b803b8061142b576040805162461bcd60e51b815260206004820181905260248201527f4163636f756e7420636f64652073697a652063616e6e6f74206265207a65726f604482015290519081900360640190fd5b5050565b600061147183836040518060400160405280601e81526020017f536166654d6174683a207375627472616374696f6e206f766572666c6f77000081525061174c565b9392505050565b600082820183811015611471576040805162461bcd60e51b815260206004820152601b60248201527a536166654d6174683a206164646974696f6e206f766572666c6f7760281b604482015290519081900360640190fd5b60035460009081906001600160a01b0384811691161480156115735750846001600160a01b031663b0d8e181846040518263ffffffff1660e01b815260040180826001600160a01b03166001600160a01b0316815260200191505060206040518083038186803b15801561154357600080fd5b505afa158015611557573d6000803e3d6000fd5b505050506040513d602081101561156d57600080fd5b50518410155b1561158357506000905081610565565b6001600160a01b038084166000908152600760205260409020548491610100909104165b6001600160a01b038216158015906115c857506115c687878484610ee8565b155b1561160557506001600160a01b039081166000908152600760205260408082205461010090819004841680845291909220549092919004166115a7565b90969095509350505050565b60045460009081906001600160a01b0384811691161480156116b45750846001600160a01b031663b0d8e181846040518263ffffffff1660e01b815260040180826001600160a01b03166001600160a01b0316815260200191505060206040518083038186803b15801561168457600080fd5b505afa158015611698573d6000803e3d6000fd5b505050506040513d60208110156116ae57600080fd5b50518411155b156116c457508190506000610565565b6001600160a01b038084166000908152600760205260409020600101548491165b6001600160a01b03821615801590611706575061170487878385610ee8565b155b1561174157506001600160a01b03908116600090815260076020526040808220600190810154841680845291909220909101549091166116e5565b969095509350505050565b600081848411156117db5760405162461bcd60e51b81526004018080602001828103825283818151815260200191508051906020019080838360005b838110156117a0578181015183820152602001611788565b50505050905090810190601f1680156117cd5780820380516001836020036101000a031916815260200191505b509250505060405180910390fd5b50505090039056fe536f7274656454726f7665733a204c69737420616c726561647920636f6e7461696e7320746865206e6f6465536f7274656454726f7665733a204c69737420646f6573206e6f7420636f6e7461696e20746865206964536f7274656454726f7665733a2053697a652063616ee2809974206265207a65726f536f7274656454726f7665733a2043616c6c6572206973206e6f74207468652054726f76654d616e61676572536f7274656454726f7665733a2043616c6c6572206973206e65697468657220424f206e6f722054726f76654d536f7274656454726f7665733a204e494352206d75737420626520706f736974697665a164736f6c634300060b000a",
  "devdoc": {
    "kind": "dev",
    "methods": {
      "isOwner()": {
        "details": "Returns true if the caller is the current owner."
      },
      "owner()": {
        "details": "Returns the address of the current owner."
      }
    },
    "version": 1
  },
  "userdoc": {
    "kind": "user",
    "methods": {},
    "version": 1
  },
  "storageLayout": {
    "storage": [
      {
        "astId": 4382,
        "contract": "contracts/SortedTroves.sol:SortedTroves",
        "label": "_owner",
        "offset": 0,
        "slot": "0",
        "type": "t_address"
      },
      {
        "astId": 20946,
        "contract": "contracts/SortedTroves.sol:SortedTroves",
        "label": "borrowerOperationsAddress",
        "offset": 0,
        "slot": "1",
        "type": "t_address"
      },
      {
        "astId": 20948,
        "contract": "contracts/SortedTroves.sol:SortedTroves",
        "label": "troveManager",
        "offset": 0,
        "slot": "2",
        "type": "t_contract(ITroveManager)16585"
      },
      {
        "astId": 20970,
        "contract": "contracts/SortedTroves.sol:SortedTroves",
        "label": "data",
        "offset": 0,
        "slot": "3",
        "type": "t_struct(Data)20968_storage"
      }
    ],
    "types": {
      "t_address": {
        "encoding": "inplace",
        "label": "address",
        "numberOfBytes": "20"
      },
      "t_bool": {
        "encoding": "inplace",
        "label": "bool",
        "numberOfBytes": "1"
      },
      "t_contract(ITroveManager)16585": {
        "encoding": "inplace",
        "label": "contract ITroveManager",
        "numberOfBytes": "20"
      },
      "t_mapping(t_address,t_struct(Node)20955_storage)": {
        "encoding": "mapping",
        "key": "t_address",
        "label": "mapping(address => struct SortedTroves.Node)",
        "numberOfBytes": "32",
        "value": "t_struct(Node)20955_storage"
      },
      "t_struct(Data)20968_storage": {
        "encoding": "inplace",
        "label": "struct SortedTroves.Data",
        "members": [
          {
            "astId": 20957,
            "contract": "contracts/SortedTroves.sol:SortedTroves",
            "label": "head",
            "offset": 0,
            "slot": "0",
            "type": "t_address"
          },
          {
            "astId": 20959,
            "contract": "contracts/SortedTroves.sol:SortedTroves",
            "label": "tail",
            "offset": 0,
            "slot": "1",
            "type": "t_address"
          },
          {
            "astId": 20961,
            "contract": "contracts/SortedTroves.sol:SortedTroves",
            "label": "maxSize",
            "offset": 0,
            "slot": "2",
            "type": "t_uint256"
          },
          {
            "astId": 20963,
            "contract": "contracts/SortedTroves.sol:SortedTroves",
            "label": "size",
            "offset": 0,
            "slot": "3",
            "type": "t_uint256"
          },
          {
            "astId": 20967,
            "contract": "contracts/SortedTroves.sol:SortedTroves",
            "label": "nodes",
            "offset": 0,
            "slot": "4",
            "type": "t_mapping(t_address,t_struct(Node)20955_storage)"
          }
        ],
        "numberOfBytes": "160"
      },
      "t_struct(Node)20955_storage": {
        "encoding": "inplace",
        "label": "struct SortedTroves.Node",
        "members": [
          {
            "astId": 20950,
            "contract": "contracts/SortedTroves.sol:SortedTroves",
            "label": "exists",
            "offset": 0,
            "slot": "0",
            "type": "t_bool"
          },
          {
            "astId": 20952,
            "contract": "contracts/SortedTroves.sol:SortedTroves",
            "label": "nextId",
            "offset": 1,
            "slot": "0",
            "type": "t_address"
          },
          {
            "astId": 20954,
            "contract": "contracts/SortedTroves.sol:SortedTroves",
            "label": "prevId",
            "offset": 0,
            "slot": "1",
            "type": "t_address"
          }
        ],
        "numberOfBytes": "64"
      },
      "t_uint256": {
        "encoding": "inplace",
        "label": "uint256",
        "numberOfBytes": "32"
      }
    }
  }
}