{
  "address": "0xC2543Bf7E50769753220172f7a1Ed75F9A8618Ca",
  "abi": [
    {
      "anonymous": false,
      "inputs": [
        {
          "indexed": false,
          "internalType": "address",
          "name": "_newActivePoolAddress",
          "type": "address"
        }
      ],
      "name": "ActivePoolAddressChanged",
      "type": "event"
    },
    {
      "anonymous": false,
      "inputs": [
        {
          "indexed": false,
          "internalType": "address",
          "name": "_newBorrowerOperationsAddress",
          "type": "address"
        }
      ],
      "name": "BorrowerOperationsAddressChanged",
      "type": "event"
    },
    {
      "anonymous": false,
      "inputs": [
        {
          "indexed": false,
          "internalType": "address",
          "name": "_newCommunityIssuanceAddress",
          "type": "address"
        }
      ],
      "name": "CommunityIssuanceAddressChanged",
      "type": "event"
    },
    {
      "anonymous": false,
      "inputs": [
        {
          "indexed": true,
          "internalType": "address",
          "name": "controller",
          "type": "address"
        },
        {
          "indexed": false,
          "internalType": "bool",
          "name": "enabled",
          "type": "bool"
        }
      ],
      "name": "ControllerChanged",
      "type": "event"
    },
    {
      "anonymous": false,
      "inputs": [
        {
          "indexed": false,
          "internalType": "address",
          "name": "_newDefaultPoolAddress",
          "type": "address"
        }
      ],
      "name": "DefaultPoolAddressChanged",
      "type": "event"
    },
    {
      "anonymous": false,
      "inputs": [
        {
          "indexed": true,
          "internalType": "address",
          "name": "_depositor",
          "type": "address"
        },
        {
          "indexed": false,
          "internalType": "uint256",
          "name": "_P",
          "type": "uint256"
        },
        {
          "indexed": false,
          "internalType": "uint256",
          "name": "_S",
          "type": "uint256"
        },
        {
          "indexed": false,
          "internalType": "uint256",
          "name": "_G",
          "type": "uint256"
        }
      ],
      "name": "DepositSnapshotUpdated",
      "type": "event"
    },
    {
      "anonymous": false,
      "inputs": [
        {
          "indexed": true,
          "internalType": "address",
          "name": "_depositor",
          "type": "address"
        },
        {
          "indexed": false,
          "internalType": "uint256",
          "name": "_ETH",
          "type": "uint256"
        },
        {
          "indexed": false,
          "internalType": "uint256",
          "name": "_ZKUSDLoss",
          "type": "uint256"
        }
      ],
      "name": "ETHGainWithdrawn",
      "type": "event"
    },
    {
      "anonymous": false,
      "inputs": [
        {
          "indexed": false,
          "internalType": "uint128",
          "name": "_currentEpoch",
          "type": "uint128"
        }
      ],
      "name": "EpochUpdated",
      "type": "event"
    },
    {
      "anonymous": false,
      "inputs": [
        {
          "indexed": false,
          "internalType": "address",
          "name": "_to",
          "type": "address"
        },
        {
          "indexed": false,
          "internalType": "uint256",
          "name": "_amount",
          "type": "uint256"
        }
      ],
      "name": "EtherSent",
      "type": "event"
    },
    {
      "anonymous": false,
      "inputs": [
        {
          "indexed": true,
          "internalType": "address",
          "name": "_frontEnd",
          "type": "address"
        },
        {
          "indexed": false,
          "internalType": "uint256",
          "name": "_kickbackRate",
          "type": "uint256"
        }
      ],
      "name": "FrontEndRegistered",
      "type": "event"
    },
    {
      "anonymous": false,
      "inputs": [
        {
          "indexed": true,
          "internalType": "address",
          "name": "_frontEnd",
          "type": "address"
        },
        {
          "indexed": false,
          "internalType": "uint256",
          "name": "_P",
          "type": "uint256"
        },
        {
          "indexed": false,
          "internalType": "uint256",
          "name": "_G",
          "type": "uint256"
        }
      ],
      "name": "FrontEndSnapshotUpdated",
      "type": "event"
    },
    {
      "anonymous": false,
      "inputs": [
        {
          "indexed": true,
          "internalType": "address",
          "name": "_frontEnd",
          "type": "address"
        },
        {
          "indexed": false,
          "internalType": "uint256",
          "name": "_newFrontEndStake",
          "type": "uint256"
        },
        {
          "indexed": false,
          "internalType": "address",
          "name": "_depositor",
          "type": "address"
        }
      ],
      "name": "FrontEndStakeChanged",
      "type": "event"
    },
    {
      "anonymous": false,
      "inputs": [
        {
          "indexed": true,
          "internalType": "address",
          "name": "_depositor",
          "type": "address"
        },
        {
          "indexed": true,
          "internalType": "address",
          "name": "_frontEnd",
          "type": "address"
        }
      ],
      "name": "FrontEndTagSet",
      "type": "event"
    },
    {
      "anonymous": false,
      "inputs": [
        {
          "indexed": false,
          "internalType": "uint256",
          "name": "_G",
          "type": "uint256"
        },
        {
          "indexed": false,
          "internalType": "uint128",
          "name": "_epoch",
          "type": "uint128"
        },
        {
          "indexed": false,
          "internalType": "uint128",
          "name": "_scale",
          "type": "uint128"
        }
      ],
      "name": "G_Updated",
      "type": "event"
    },
    {
      "anonymous": false,
      "inputs": [
        {
          "indexed": true,
          "internalType": "address",
          "name": "previousOwner",
          "type": "address"
        },
        {
          "indexed": true,
          "internalType": "address",
          "name": "newOwner",
          "type": "address"
        }
      ],
      "name": "OwnershipTransferred",
      "type": "event"
    },
    {
      "anonymous": false,
      "inputs": [
        {
          "indexed": false,
          "internalType": "uint256",
          "name": "_P",
          "type": "uint256"
        }
      ],
      "name": "P_Updated",
      "type": "event"
    },
    {
      "anonymous": false,
      "inputs": [
        {
          "indexed": false,
          "internalType": "address",
          "name": "_newPriceFeedAddress",
          "type": "address"
        }
      ],
      "name": "PriceFeedAddressChanged",
      "type": "event"
    },
    {
      "anonymous": false,
      "inputs": [
        {
          "indexed": false,
          "internalType": "uint256",
          "name": "_S",
          "type": "uint256"
        },
        {
          "indexed": false,
          "internalType": "uint128",
          "name": "_epoch",
          "type": "uint128"
        },
        {
          "indexed": false,
          "internalType": "uint128",
          "name": "_scale",
          "type": "uint128"
        }
      ],
      "name": "S_Updated",
      "type": "event"
    },
    {
      "anonymous": false,
      "inputs": [
        {
          "indexed": false,
          "internalType": "uint128",
          "name": "_currentScale",
          "type": "uint128"
        }
      ],
      "name": "ScaleUpdated",
      "type": "event"
    },
    {
      "anonymous": false,
      "inputs": [
        {
          "indexed": false,
          "internalType": "address",
          "name": "_newSortedTrovesAddress",
          "type": "address"
        }
      ],
      "name": "SortedTrovesAddressChanged",
      "type": "event"
    },
    {
      "anonymous": false,
      "inputs": [
        {
          "indexed": false,
          "internalType": "uint256",
          "name": "_newBalance",
          "type": "uint256"
        }
      ],
      "name": "StabilityPoolETHBalanceUpdated",
      "type": "event"
    },
    {
      "anonymous": false,
      "inputs": [
        {
          "indexed": false,
          "internalType": "uint256",
          "name": "_newBalance",
          "type": "uint256"
        }
      ],
      "name": "StabilityPoolZKUSDBalanceUpdated",
      "type": "event"
    },
    {
      "anonymous": false,
      "inputs": [
        {
          "indexed": false,
          "internalType": "address",
          "name": "_newTroveManagerAddress",
          "type": "address"
        }
      ],
      "name": "TroveManagerAddressChanged",
      "type": "event"
    },
    {
      "anonymous": false,
      "inputs": [
        {
          "indexed": true,
          "internalType": "address",
          "name": "_depositor",
          "type": "address"
        },
        {
          "indexed": false,
          "internalType": "uint256",
          "name": "_newDeposit",
          "type": "uint256"
        }
      ],
      "name": "UserDepositChanged",
      "type": "event"
    },
    {
      "anonymous": false,
      "inputs": [
        {
          "indexed": true,
          "internalType": "address",
          "name": "_depositor",
          "type": "address"
        },
        {
          "indexed": false,
          "internalType": "uint256",
          "name": "_ZKT",
          "type": "uint256"
        }
      ],
      "name": "ZKTPaidToDepositor",
      "type": "event"
    },
    {
      "anonymous": false,
      "inputs": [
        {
          "indexed": true,
          "internalType": "address",
          "name": "_frontEnd",
          "type": "address"
        },
        {
          "indexed": false,
          "internalType": "uint256",
          "name": "_ZKT",
          "type": "uint256"
        }
      ],
      "name": "ZKTPaidToFrontEnd",
      "type": "event"
    },
    {
      "anonymous": false,
      "inputs": [
        {
          "indexed": false,
          "internalType": "address",
          "name": "_newZKUSDTokenAddress",
          "type": "address"
        }
      ],
      "name": "ZKUSDTokenAddressChanged",
      "type": "event"
    },
    {
      "inputs": [],
      "name": "BORROWING_FEE_FLOOR",
      "outputs": [
        {
          "internalType": "uint256",
          "name": "",
          "type": "uint256"
        }
      ],
      "stateMutability": "view",
      "type": "function"
    },
    {
      "inputs": [],
      "name": "CCR",
      "outputs": [
        {
          "internalType": "uint256",
          "name": "",
          "type": "uint256"
        }
      ],
      "stateMutability": "view",
      "type": "function"
    },
    {
      "inputs": [],
      "name": "DECIMAL_PRECISION",
      "outputs": [
        {
          "internalType": "uint256",
          "name": "",
          "type": "uint256"
        }
      ],
      "stateMutability": "view",
      "type": "function"
    },
    {
      "inputs": [],
      "name": "DefaultKickbackRate",
      "outputs": [
        {
          "internalType": "uint256",
          "name": "",
          "type": "uint256"
        }
      ],
      "stateMutability": "view",
      "type": "function"
    },
    {
      "inputs": [],
      "name": "MCR",
      "outputs": [
        {
          "internalType": "uint256",
          "name": "",
          "type": "uint256"
        }
      ],
      "stateMutability": "view",
      "type": "function"
    },
    {
      "inputs": [],
      "name": "MIN_NET_DEBT",
      "outputs": [
        {
          "internalType": "uint256",
          "name": "",
          "type": "uint256"
        }
      ],
      "stateMutability": "view",
      "type": "function"
    },
    {
      "inputs": [],
      "name": "NAME",
      "outputs": [
        {
          "internalType": "string",
          "name": "",
          "type": "string"
        }
      ],
      "stateMutability": "view",
      "type": "function"
    },
    {
      "inputs": [],
      "name": "P",
      "outputs": [
        {
          "internalType": "uint256",
          "name": "",
          "type": "uint256"
        }
      ],
      "stateMutability": "view",
      "type": "function"
    },
    {
      "inputs": [],
      "name": "PERCENT_DIVISOR",
      "outputs": [
        {
          "internalType": "uint256",
          "name": "",
          "type": "uint256"
        }
      ],
      "stateMutability": "view",
      "type": "function"
    },
    {
      "inputs": [],
      "name": "SCALE_FACTOR",
      "outputs": [
        {
          "internalType": "uint256",
          "name": "",
          "type": "uint256"
        }
      ],
      "stateMutability": "view",
      "type": "function"
    },
    {
      "inputs": [],
      "name": "ZKUSD_GAS_COMPENSATION",
      "outputs": [
        {
          "internalType": "uint256",
          "name": "",
          "type": "uint256"
        }
      ],
      "stateMutability": "view",
      "type": "function"
    },
    {
      "inputs": [],
      "name": "_100pct",
      "outputs": [
        {
          "internalType": "uint256",
          "name": "",
          "type": "uint256"
        }
      ],
      "stateMutability": "view",
      "type": "function"
    },
    {
      "inputs": [],
      "name": "activePool",
      "outputs": [
        {
          "internalType": "contract IActivePool",
          "name": "",
          "type": "address"
        }
      ],
      "stateMutability": "view",
      "type": "function"
    },
    {
      "inputs": [],
      "name": "borrowerOperations",
      "outputs": [
        {
          "internalType": "contract IBorrowerOperations",
          "name": "",
          "type": "address"
        }
      ],
      "stateMutability": "view",
      "type": "function"
    },
    {
      "inputs": [],
      "name": "communityIssuance",
      "outputs": [
        {
          "internalType": "contract ICommunityIssuance",
          "name": "",
          "type": "address"
        }
      ],
      "stateMutability": "view",
      "type": "function"
    },
    {
      "inputs": [
        {
          "internalType": "address",
          "name": "",
          "type": "address"
        }
      ],
      "name": "controllers",
      "outputs": [
        {
          "internalType": "bool",
          "name": "",
          "type": "bool"
        }
      ],
      "stateMutability": "view",
      "type": "function"
    },
    {
      "inputs": [],
      "name": "currentEpoch",
      "outputs": [
        {
          "internalType": "uint128",
          "name": "",
          "type": "uint128"
        }
      ],
      "stateMutability": "view",
      "type": "function"
    },
    {
      "inputs": [],
      "name": "currentScale",
      "outputs": [
        {
          "internalType": "uint128",
          "name": "",
          "type": "uint128"
        }
      ],
      "stateMutability": "view",
      "type": "function"
    },
    {
      "inputs": [],
      "name": "defaultPool",
      "outputs": [
        {
          "internalType": "contract IDefaultPool",
          "name": "",
          "type": "address"
        }
      ],
      "stateMutability": "view",
      "type": "function"
    },
    {
      "inputs": [
        {
          "internalType": "address",
          "name": "",
          "type": "address"
        }
      ],
      "name": "depositSnapshots",
      "outputs": [
        {
          "internalType": "uint256",
          "name": "S",
          "type": "uint256"
        },
        {
          "internalType": "uint256",
          "name": "P",
          "type": "uint256"
        },
        {
          "internalType": "uint256",
          "name": "G",
          "type": "uint256"
        },
        {
          "internalType": "uint128",
          "name": "scale",
          "type": "uint128"
        },
        {
          "internalType": "uint128",
          "name": "epoch",
          "type": "uint128"
        }
      ],
      "stateMutability": "view",
      "type": "function"
    },
    {
      "inputs": [
        {
          "internalType": "address",
          "name": "",
          "type": "address"
        }
      ],
      "name": "deposits",
      "outputs": [
        {
          "internalType": "uint256",
          "name": "",
          "type": "uint256"
        }
      ],
      "stateMutability": "view",
      "type": "function"
    },
    {
      "inputs": [
        {
          "internalType": "uint128",
          "name": "",
          "type": "uint128"
        },
        {
          "internalType": "uint128",
          "name": "",
          "type": "uint128"
        }
      ],
      "name": "epochToScaleToG",
      "outputs": [
        {
          "internalType": "uint256",
          "name": "",
          "type": "uint256"
        }
      ],
      "stateMutability": "view",
      "type": "function"
    },
    {
      "inputs": [
        {
          "internalType": "uint128",
          "name": "",
          "type": "uint128"
        },
        {
          "internalType": "uint128",
          "name": "",
          "type": "uint128"
        }
      ],
      "name": "epochToScaleToSum",
      "outputs": [
        {
          "internalType": "uint256",
          "name": "",
          "type": "uint256"
        }
      ],
      "stateMutability": "view",
      "type": "function"
    },
    {
      "inputs": [
        {
          "internalType": "address",
          "name": "",
          "type": "address"
        }
      ],
      "name": "frontEndSnapshots",
      "outputs": [
        {
          "internalType": "uint256",
          "name": "S",
          "type": "uint256"
        },
        {
          "internalType": "uint256",
          "name": "P",
          "type": "uint256"
        },
        {
          "internalType": "uint256",
          "name": "G",
          "type": "uint256"
        },
        {
          "internalType": "uint128",
          "name": "scale",
          "type": "uint128"
        },
        {
          "internalType": "uint128",
          "name": "epoch",
          "type": "uint128"
        }
      ],
      "stateMutability": "view",
      "type": "function"
    },
    {
      "inputs": [
        {
          "internalType": "address",
          "name": "",
          "type": "address"
        }
      ],
      "name": "frontEndStakes",
      "outputs": [
        {
          "internalType": "uint256",
          "name": "",
          "type": "uint256"
        }
      ],
      "stateMutability": "view",
      "type": "function"
    },
    {
      "inputs": [
        {
          "internalType": "address",
          "name": "_frontEnd",
          "type": "address"
        }
      ],
      "name": "getCompoundedFrontEndStake",
      "outputs": [
        {
          "internalType": "uint256",
          "name": "",
          "type": "uint256"
        }
      ],
      "stateMutability": "view",
      "type": "function"
    },
    {
      "inputs": [
        {
          "internalType": "address",
          "name": "_depositor",
          "type": "address"
        }
      ],
      "name": "getCompoundedZKUSDDeposit",
      "outputs": [
        {
          "internalType": "uint256",
          "name": "",
          "type": "uint256"
        }
      ],
      "stateMutability": "view",
      "type": "function"
    },
    {
      "inputs": [
        {
          "internalType": "address",
          "name": "_depositor",
          "type": "address"
        }
      ],
      "name": "getDepositorETHGain",
      "outputs": [
        {
          "internalType": "uint256",
          "name": "",
          "type": "uint256"
        }
      ],
      "stateMutability": "view",
      "type": "function"
    },
    {
      "inputs": [
        {
          "internalType": "address",
          "name": "_depositor",
          "type": "address"
        }
      ],
      "name": "getDepositorZKTGain",
      "outputs": [
        {
          "internalType": "uint256",
          "name": "",
          "type": "uint256"
        }
      ],
      "stateMutability": "view",
      "type": "function"
    },
    {
      "inputs": [],
      "name": "getETH",
      "outputs": [
        {
          "internalType": "uint256",
          "name": "",
          "type": "uint256"
        }
      ],
      "stateMutability": "view",
      "type": "function"
    },
    {
      "inputs": [],
      "name": "getEntireSystemColl",
      "outputs": [
        {
          "internalType": "uint256",
          "name": "entireSystemColl",
          "type": "uint256"
        }
      ],
      "stateMutability": "view",
      "type": "function"
    },
    {
      "inputs": [],
      "name": "getEntireSystemDebt",
      "outputs": [
        {
          "internalType": "uint256",
          "name": "entireSystemDebt",
          "type": "uint256"
        }
      ],
      "stateMutability": "view",
      "type": "function"
    },
    {
      "inputs": [
        {
          "internalType": "address",
          "name": "_frontEnd",
          "type": "address"
        }
      ],
      "name": "getFrontEndZKTGain",
      "outputs": [
        {
          "internalType": "uint256",
          "name": "",
          "type": "uint256"
        }
      ],
      "stateMutability": "view",
      "type": "function"
    },
    {
      "inputs": [],
      "name": "getTotalZKUSDDeposits",
      "outputs": [
        {
          "internalType": "uint256",
          "name": "",
          "type": "uint256"
        }
      ],
      "stateMutability": "view",
      "type": "function"
    },
    {
      "inputs": [],
      "name": "isOwner",
      "outputs": [
        {
          "internalType": "bool",
          "name": "",
          "type": "bool"
        }
      ],
      "stateMutability": "view",
      "type": "function"
    },
    {
      "inputs": [],
      "name": "lastETHError_Offset",
      "outputs": [
        {
          "internalType": "uint256",
          "name": "",
          "type": "uint256"
        }
      ],
      "stateMutability": "view",
      "type": "function"
    },
    {
      "inputs": [],
      "name": "lastZKTError",
      "outputs": [
        {
          "internalType": "uint256",
          "name": "",
          "type": "uint256"
        }
      ],
      "stateMutability": "view",
      "type": "function"
    },
    {
      "inputs": [],
      "name": "lastZKUSDLossError_Offset",
      "outputs": [
        {
          "internalType": "uint256",
          "name": "",
          "type": "uint256"
        }
      ],
      "stateMutability": "view",
      "type": "function"
    },
    {
      "inputs": [
        {
          "internalType": "uint256",
          "name": "_debtToOffset",
          "type": "uint256"
        },
        {
          "internalType": "uint256",
          "name": "_collToAdd",
          "type": "uint256"
        }
      ],
      "name": "offset",
      "outputs": [],
      "stateMutability": "nonpayable",
      "type": "function"
    },
    {
      "inputs": [],
      "name": "owner",
      "outputs": [
        {
          "internalType": "address",
          "name": "",
          "type": "address"
        }
      ],
      "stateMutability": "view",
      "type": "function"
    },
    {
      "inputs": [],
      "name": "priceFeed",
      "outputs": [
        {
          "internalType": "contract IPriceFeed",
          "name": "",
          "type": "address"
        }
      ],
      "stateMutability": "view",
      "type": "function"
    },
    {
      "inputs": [
        {
          "internalType": "uint256",
          "name": "_amount",
          "type": "uint256"
        }
      ],
      "name": "provideToSP",
      "outputs": [],
      "stateMutability": "nonpayable",
      "type": "function"
    },
    {
      "inputs": [
        {
          "internalType": "address",
          "name": "_borrowerOperationsAddress",
          "type": "address"
        },
        {
          "internalType": "address",
          "name": "_troveManagerAddress",
          "type": "address"
        },
        {
          "internalType": "address",
          "name": "_activePoolAddress",
          "type": "address"
        },
        {
          "internalType": "address",
          "name": "_zkusdTokenAddress",
          "type": "address"
        },
        {
          "internalType": "address",
          "name": "_sortedTrovesAddress",
          "type": "address"
        },
        {
          "internalType": "address",
          "name": "_priceFeedAddress",
          "type": "address"
        },
        {
          "internalType": "address",
          "name": "_communityIssuanceAddress",
          "type": "address"
        },
        {
          "internalType": "address",
          "name": "_treasuryAddress",
          "type": "address"
        }
      ],
      "name": "setAddresses",
      "outputs": [],
      "stateMutability": "nonpayable",
      "type": "function"
    },
    {
      "inputs": [
        {
          "internalType": "address",
          "name": "controller",
          "type": "address"
        },
        {
          "internalType": "bool",
          "name": "enabled",
          "type": "bool"
        }
      ],
      "name": "setController",
      "outputs": [],
      "stateMutability": "nonpayable",
      "type": "function"
    },
    {
      "inputs": [
        {
          "internalType": "uint256",
          "name": "_defaultKickBackRate",
          "type": "uint256"
        }
      ],
      "name": "setDefaultKickbackRate",
      "outputs": [],
      "stateMutability": "nonpayable",
      "type": "function"
    },
    {
      "inputs": [
        {
          "internalType": "uint256",
          "name": "_gasCompensation",
          "type": "uint256"
        }
      ],
      "name": "setGasCompensation",
      "outputs": [],
      "stateMutability": "nonpayable",
      "type": "function"
    },
    {
      "inputs": [
        {
          "internalType": "uint256",
          "name": "_minNetDebt",
          "type": "uint256"
        }
      ],
      "name": "setMinNetDebt",
      "outputs": [],
      "stateMutability": "nonpayable",
      "type": "function"
    },
    {
      "inputs": [],
      "name": "sortedTroves",
      "outputs": [
        {
          "internalType": "contract ISortedTroves",
          "name": "",
          "type": "address"
        }
      ],
      "stateMutability": "view",
      "type": "function"
    },
    {
      "inputs": [],
      "name": "treasuryAddress",
      "outputs": [
        {
          "internalType": "address",
          "name": "",
          "type": "address"
        }
      ],
      "stateMutability": "view",
      "type": "function"
    },
    {
      "inputs": [],
      "name": "troveManager",
      "outputs": [
        {
          "internalType": "contract ITroveManager",
          "name": "",
          "type": "address"
        }
      ],
      "stateMutability": "view",
      "type": "function"
    },
    {
      "inputs": [
        {
          "internalType": "address",
          "name": "_upperHint",
          "type": "address"
        },
        {
          "internalType": "address",
          "name": "_lowerHint",
          "type": "address"
        },
        {
          "internalType": "bytes[]",
          "name": "_updateData",
          "type": "bytes[]"
        }
      ],
      "name": "withdrawETHGainToTrove",
      "outputs": [],
      "stateMutability": "payable",
      "type": "function"
    },
    {
      "inputs": [
        {
          "internalType": "uint256",
          "name": "_amount",
          "type": "uint256"
        },
        {
          "internalType": "bytes[]",
          "name": "_updateData",
          "type": "bytes[]"
        }
      ],
      "name": "withdrawFromSP",
      "outputs": [],
      "stateMutability": "payable",
      "type": "function"
    },
    {
      "inputs": [],
      "name": "zkusdToken",
      "outputs": [
        {
          "internalType": "contract IZKUSDToken",
          "name": "",
          "type": "address"
        }
      ],
      "stateMutability": "view",
      "type": "function"
    },
    {
      "stateMutability": "payable",
      "type": "receive"
    }
  ],
  "transactionHash": "0x3e61e523507eb7ce9e6785ae2e3cbe6e76a6034235116936f1f7b3de18fd1c41",
  "args": [],
  "numDeployments": 1,
  "solcInputHash": "ffe83ff5afde0d06d4b6b8e37e72100d",
  "bytecode": "0x60806040526802b5e3af16b18800006002556818650127cc3dc80000600355670c7d713b49da0000601155670de0b6b3a764000060145534801561004257600080fd5b50600080546001600160a01b0319163390811782556040519091907f8be0079c531659141344cd1fd0a4f28419497f9722a3daafe3b4186f6b6457e0908290a3613b2a806100916000396000f3fe60806040526004361061028e5760003560e01c806386da08241161015b578063c192645b116100c7578063c192645b146106d9578063c5f956af146106ee578063ce4b5bbe14610703578063d0029b5114610718578063d733cfd014610738578063d7fb044314610758578063da8c229e1461076d578063dbd1e2661461078d578063df9cd84f146107a2578063e0dba60f146107c2578063e6815263146107e2578063f92d343314610802578063fbf92d9114610817578063fc7e286d1461082c576102d9565b806386da0824146105a4578063887105d3146105c45780638b8fbd92146105d95780638da5cb5b146105ee5780638f32d59b1461060357806395fb16bb14610625578063a20baee6146104a4578063a3f4df7e1461063a578063a4e59ac81461065c578063a7d7434f14610671578063ae91875414610691578063aeafa414146106a6578063b8225e4f146106c6576102d9565b80634870dd9a116101fa5780634870dd9a1461045a5780635733d58f1461046f5780635d2de6421461048457806372fe25aa146104a4578063741bef1a146104b957806376671808146104ce57806377553ad4146104f057806378c77a2414610505578063794e572414610525578063795d26c31461053a5780637f7dde4a1461054f57806382e0a5741461056457806385554c4214610584576102d9565b806314f6c3be146102de57806316b9d3c5146103095780631bf435551461033a578063250ffbec1461034f57806328a0a04d146103645780632ee435bb14610384578063335525ad1461039957806334178d36146103b957806335a3f707146103ce578063389e92a5146103f05780633cc74225146104105780633d83908a14610425578063438d641a1461043a576102d9565b366102d95761029b61084c565b600c546102ae903463ffffffff61088116565b600c819055604051600080516020613a9e833981519152916102cf916139f7565b60405180910390a1005b600080fd5b3480156102ea57600080fd5b506102f36108af565b60405161030091906139f7565b60405180910390f35b34801561031557600080fd5b506103296103243660046130bd565b6108b5565b604051610300959493929190613a59565b34801561034657600080fd5b506102f36108f0565b61036261035d36600461329f565b6108f6565b005b34801561037057600080fd5b506102f361037f36600461323b565b610a76565b34801561039057600080fd5b506102f3610a93565b3480156103a557600080fd5b506103626103b43660046132e8565b610a99565b3480156103c557600080fd5b506102f3610afd565b3480156103da57600080fd5b506103e3610b03565b60405161030091906133c5565b3480156103fc57600080fd5b506102f361040b3660046130bd565b610b12565b34801561041c57600080fd5b506103e3610bba565b34801561043157600080fd5b506103e3610bc9565b34801561044657600080fd5b5061036261045536600461326f565b610bd8565b34801561046657600080fd5b506102f3610c0c565b34801561047b57600080fd5b506102f3610c11565b34801561049057600080fd5b506102f361049f3660046130bd565b610c1d565b3480156104b057600080fd5b506102f3610c2f565b3480156104c557600080fd5b506103e3610c3b565b3480156104da57600080fd5b506104e3610c4a565b60405161030091906139e3565b3480156104fc57600080fd5b506103e3610c60565b34801561051157600080fd5b5061036261052036600461326f565b610c6f565b34801561053157600080fd5b506102f3610dce565b34801561054657600080fd5b506102f3610dda565b34801561055b57600080fd5b506103e3610ef9565b34801561057057600080fd5b506102f361057f36600461323b565b610f08565b34801561059057600080fd5b5061036261059f36600461326f565b610f25565b3480156105b057600080fd5b506103296105bf3660046130bd565b610f76565b3480156105d057600080fd5b506102f3610fb1565b3480156105e557600080fd5b506102f361107f565b3480156105fa57600080fd5b506103e3611085565b34801561060f57600080fd5b50610618611094565b6040516103009190613472565b34801561063157600080fd5b506103e36110a5565b34801561064657600080fd5b5061064f6110b4565b60405161030091906134a1565b34801561066857600080fd5b506104e36110dd565b34801561067d57600080fd5b506102f361068c3660046130bd565b6110ec565b34801561069d57600080fd5b506103e3611189565b3480156106b257600080fd5b506102f36106c13660046130bd565b611198565b6103626106d436600461319d565b61125f565b3480156106e557600080fd5b506102f361149b565b3480156106fa57600080fd5b506103e36114a1565b34801561070f57600080fd5b506102f36114b0565b34801561072457600080fd5b5061036261073336600461326f565b6114b8565b34801561074457600080fd5b506103626107533660046130f5565b6114ec565b34801561076457600080fd5b506102f3611755565b34801561077957600080fd5b506106186107883660046130bd565b61175b565b34801561079957600080fd5b506102f3611770565b3480156107ae57600080fd5b506102f36107bd3660046130bd565b611776565b3480156107ce57600080fd5b506103626107dd3660046131ff565b611813565b3480156107ee57600080fd5b506102f36107fd3660046130bd565b611897565b34801561080e57600080fd5b506102f361197b565b34801561082357600080fd5b506102f3611986565b34801561083857600080fd5b506102f36108473660046130bd565b61198c565b6004546001600160a01b0316331461087f5760405162461bcd60e51b8152600401610876906135dd565b60405180910390fd5b565b6000828201838110156108a65760405162461bcd60e51b815260040161087690613560565b90505b92915050565b600c5490565b6013602052600090815260409020805460018201546002830154600390930154919290916001600160801b0380821691600160801b90041685565b60035481565b821561090657610906828261199e565b336000908152600e602052604090205461091f81611bf3565b600b546001600160a01b031661093481611c16565b600061093f33610b12565b9050600061094c336110ec565b9050600061095a8883611c96565b9050600061096e868463ffffffff611cac16565b905061097b853333611cee565b600061098633611776565b9050600061099a828563ffffffff611cac16565b90506109a63382611e6d565b336001600160a01b0316600080516020613afe83398151915282336040516109cf929190613a00565b60405180910390a26109e13385611fb5565b60006109f3868663ffffffff611cac16565b90506109ff338261202e565b336001600160a01b0316600080516020613abe83398151915282604051610a2691906139f7565b60405180910390a2336001600160a01b0316600080516020613ade8339815191528886604051610a5792919061347d565b60405180910390a2610a6887612192565b505050505050505050505050565b601660209081526000928352604080842090915290825290205481565b601a5481565b610aa161229a565b600d54801580610aaf575082155b15610aba5750610af9565b600b54610acf906001600160a01b0316611c16565b600080610add8486856122c4565b91509150610aeb82826123bd565b610af584866126be565b5050505b5050565b60115481565b6009546001600160a01b031681565b6001600160a01b0381166000908152600e602052604081205480610b3a576000915050610bb5565b610b4261301d565b506001600160a01b0383166000908152600f60209081526040808320815160a08101835281548152600182015493810193909352600281015491830191909152600301546001600160801b038082166060840152600160801b90910416608082015290610baf83836127f3565b93505050505b919050565b6005546001600160a01b031681565b6008546001600160a01b031681565b3360009081526001602052604090205460ff16610c075760405162461bcd60e51b815260040161087690613595565b600355565b60c881565b6714d1120d7b16000081565b60126020526000908152604090205481565b670de0b6b3a764000081565b6006546001600160a01b031681565b601554600160801b90046001600160801b031681565b6007546001600160a01b031681565b610c78816128e4565b336000908152600e6020526040902054600b546001600160a01b0316610c9d81611c16565b6000610ca833610b12565b90506000610cb5336110ec565b90506000610cc9858363ffffffff611cac16565b9050610cd6843333611cee565b6000610ce133611776565b90506000610cf5828963ffffffff61088116565b9050610d013382611e6d565b336001600160a01b0316600080516020613afe8339815191528233604051610d2a929190613a00565b60405180910390a2610d3c3389612904565b6000610d4e858a63ffffffff61088116565b9050610d5a338261202e565b336001600160a01b0316600080516020613abe83398151915282604051610d8191906139f7565b60405180910390a2336001600160a01b0316600080516020613ade8339815191528786604051610db292919061347d565b60405180910390a2610dc386612192565b505050505050505050565b670f43fc2c04ee000081565b600480546040805163512a9ebb60e01b8152905160009384936001600160a01b03169263512a9ebb9281830192602092829003018186803b158015610e1e57600080fd5b505afa158015610e32573d6000803e3d6000fd5b505050506040513d601f19601f82011682018060405250810190610e569190613287565b90506000600560009054906101000a90046001600160a01b03166001600160a01b031663512a9ebb6040518163ffffffff1660e01b815260040160206040518083038186803b158015610ea857600080fd5b505afa158015610ebc573d6000803e3d6000fd5b505050506040513d601f19601f82011682018060405250810190610ee09190613287565b9050610ef2828263ffffffff61088116565b9250505090565b6004546001600160a01b031681565b601760209081526000928352604080842090915290825290205481565b610f2d611094565b610f495760405162461bcd60e51b8152600401610876906137a2565b670de0b6b3a7640000811115610f715760405162461bcd60e51b8152600401610876906136ac565b601155565b600f602052600090815260409020805460018201546002830154600390930154919290916001600160801b0380821691600160801b90041685565b6004805460408051630a7b61df60e11b8152905160009384936001600160a01b0316926314f6c3be9281830192602092829003018186803b158015610ff557600080fd5b505afa158015611009573d6000803e3d6000fd5b505050506040513d601f19601f8201168201806040525081019061102d9190613287565b90506000600560009054906101000a90046001600160a01b03166001600160a01b03166314f6c3be6040518163ffffffff1660e01b815260040160206040518083038186803b158015610ea857600080fd5b60145481565b6000546001600160a01b031690565b6000546001600160a01b0316331490565b600b546001600160a01b031681565b6040518060400160405280600d81526020016c14dd18589a5b1a5d1e541bdbdb609a1b81525081565b6015546001600160801b031681565b6001600160a01b0381166000908152600e602052604081205480611114576000915050610bb5565b61111c61301d565b506001600160a01b0383166000908152600f60209081526040808320815160a08101835281548152600182015493810193909352600281015491830191909152600301546001600160801b038082166060840152600160801b90910416608082015290610baf83836129c5565b600a546001600160a01b031681565b6001600160a01b0381166000908152600e6020526040812054806111c0576000915050610bb5565b6111c861301d565b506001600160a01b0383166000908152600f60209081526040808320815160a08101835281548152600182015493810193909352600281015491830191909152600301546001600160801b038082166060840152600160801b90910416608082015290610baf670de0b6b3a76400006112536112448686612ac1565b6011549063ffffffff612b4d16565b9063ffffffff612b8716565b336000908152600e602052604090205461127881611bf3565b61128133612bc6565b61128a33612c65565b60006112968484612c92565b600b549091506001600160a01b03166112ae81611c16565b60006112b933610b12565b905060006112c6336110ec565b905060006112da868363ffffffff611cac16565b90506112e7843333611cee565b60006112f233611776565b9050806112ff3382611e6d565b336001600160a01b0316600080516020613afe8339815191528233604051611328929190613a00565b60405180910390a261133a338561202e565b336001600160a01b0316600080516020613ade833981519152868560405161136392919061347d565b60405180910390a2336001600160a01b0316600080516020613abe8339815191528560405161139291906139f7565b60405180910390a2600c546113ad908663ffffffff611cac16565b600c819055604051600080516020613a9e833981519152916113ce916139f7565b60405180910390a17f6109e2559dfa766aaec7118351d48a523f0a4157f49c8d68749c8ac41318ad12338660405161140792919061343d565b60405180910390a1600760009054906101000a90046001600160a01b03166001600160a01b03166328b8552e888701338f8f8f8f6040518763ffffffff1660e01b815260040161145b9594939291906133d9565b6000604051808303818588803b15801561147457600080fd5b505af1158015611488573d6000803e3d6000fd5b5050505050505050505050505050505050565b60025481565b6010546001600160a01b031681565b633b9aca0081565b3360009081526001602052604090205460ff166114e75760405162461bcd60e51b815260040161087690613595565b600255565b6114f4611094565b6115105760405162461bcd60e51b8152600401610876906137a2565b61151988612d3a565b61152287612d3a565b61152b86612d3a565b61153485612d3a565b61153d84612d3a565b61154683612d3a565b61154f82612d3a565b600780546001600160a01b03199081166001600160a01b038b8116919091179092556008805482168a8416179055600480548216898416179055600980548216888416179055600a80548216878416179055600680548216868416179055600b80548216858416179055601080549091169183169190911790556040517f3ca631ffcd2a9b5d9ae18543fc82f58eb4ca33af9e6ab01b7a8e95331e6ed985906115f9908a906133c5565b60405180910390a17f143219c9e69b09e07e095fcc889b43d8f46ca892bba65f08dc3a0050869a56788760405161163091906133c5565b60405180910390a17f78f058b189175430c48dc02699e3a0031ea4ff781536dc2fab847de4babdd8828660405161166791906133c5565b60405180910390a17fbce04ccd812fbb02ec2145498f813470d7b7587b19477428388fe8201a1521318560405161169e91906133c5565b60405180910390a17f65f4cf077bc01e4742eb5ad98326f6e95b63548ea24b17f8d5e823111fe78800846040516116d591906133c5565b60405180910390a17f8c537274438aa850a330284665d81a85dd38267d09e4050d416bfc94142db2648360405161170c91906133c5565b60405180910390a17f3055265812fb8447b9ada4a5d804ec43bd528ec40e89c952bbc7b85dc5ac68118260405161174391906133c5565b60405180910390a15050505050505050565b60195481565b60016020526000908152604090205460ff1681565b600d5490565b6001600160a01b0381166000908152601260205260408120548061179e576000915050610bb5565b6117a661301d565b506001600160a01b0383166000908152601360209081526040808320815160a08101835281548152600182015493810193909352600281015491830191909152600301546001600160801b038082166060840152600160801b90910416608082015290610baf83836129c5565b61181b611094565b6118375760405162461bcd60e51b8152600401610876906137a2565b6001600160a01b03821660008181526001602052604090819020805460ff1916841515179055517f4c97694570a07277810af7e5669ffd5f6a2d6b74b6e9a274b8b870fd5114cf879061188b908490613472565b60405180910390a25050565b6001600160a01b038116600090815260126020526040812054806118bf576000915050610bb5565b60006118de601154670de0b6b3a7640000611cac90919063ffffffff16565b90506118e861301d565b506001600160a01b0384166000908152601360209081526040808320815160a08101835281548152600182015493810193909352600281015491830191909152600301546001600160801b038082166060840152600160801b90910416608082015290611971670de0b6b3a76400006112536119648786612ac1565b869063ffffffff612b4d16565b9695505050505050565b6611c37937e0800081565b60185481565b600e6020526000908152604090205481565b6006546040516341e7dc0b60e01b81526000916001600160a01b0316906341e7dc0b906119d19086908690600401613456565b60206040518083038186803b1580156119e957600080fd5b505afa1580156119fd573d6000803e3d6000fd5b505050506040513d601f19601f82011682018060405250810190611a219190613287565b600654604051630ab04c1d60e11b81529192506000916001600160a01b0390911690631560983a908490611a5d90829089908990600401613a17565b6020604051808303818588803b158015611a7657600080fd5b505af1158015611a8a573d6000803e3d6000fd5b50505050506040513d601f19601f82011682018060405250810190611aaf9190613287565b90506000600a60009054906101000a90046001600160a01b03166001600160a01b0316634d6228316040518163ffffffff1660e01b815260040160206040518083038186803b158015611b0157600080fd5b505afa158015611b15573d6000803e3d6000fd5b505050506040513d601f19601f82011682018060405250810190611b3991906130d9565b600854604051630d293c7160e41b81529192506000916001600160a01b039091169063d293c71090611b71908590879060040161343d565b60206040518083038186803b158015611b8957600080fd5b505afa158015611b9d573d6000803e3d6000fd5b505050506040513d601f19601f82011682018060405250810190611bc19190613287565b9050670f43fc2c04ee0000811015611beb5760405162461bcd60e51b815260040161087690613979565b505050505050565b60008111611c135760405162461bcd60e51b81526004016108769061389c565b50565b6000816001600160a01b031663a9d394806040518163ffffffff1660e01b8152600401602060405180830381600087803b158015611c5357600080fd5b505af1158015611c67573d6000803e3d6000fd5b505050506040513d601f19601f82011682018060405250810190611c8b9190613287565b9050610af981612d7f565b6000818310611ca557816108a6565b5090919050565b60006108a683836040518060400160405280601e81526020017f536166654d6174683a207375627472616374696f6e206f766572666c6f770000815250612e90565b6001600160a01b03811615611db8576000611d0882611897565b601054604051630e04ac8f60e11b81529192506001600160a01b0380871692631c09591e92611d3d921690859060040161343d565b600060405180830381600087803b158015611d5757600080fd5b505af1158015611d6b573d6000803e3d6000fd5b50506010546040516001600160a01b0390911692507f1b5a24a60494bc3156f87c622d15f9e3fe9afe48f3bad341f0202034807218449150611dae9084906139f7565b60405180910390a2505b6000611dc383611198565b604051630e04ac8f60e11b81529091506001600160a01b03851690631c09591e90611df4908690859060040161343d565b600060405180830381600087803b158015611e0e57600080fd5b505af1158015611e22573d6000803e3d6000fd5b50505050826001600160a01b03167f2100cd07c3a49fa04dd1d90e15284b0b70b3b84a05d9486b474a2a51e631bf0682604051611e5f91906139f7565b60405180910390a250505050565b6001600160a01b038216600090815260126020526040902081905580611ef8576001600160a01b0382166000818152601360205260408082208281556001810183905560028101839055600301829055517fbb1322f85cc7cc8bac4e172a5bc5dcc0c1959007f9a030032abf9258205f0e4591611eeb91819061347d565b60405180910390a2610af9565b6015546014546001600160801b03600160801b80840482166000818152601760209081526040808320978616808452978252808320546001600160a01b038b16808552601390935292819020600181018890556002810184905560030180546001600160801b0319168917909616948402949094179094559151909392907fbb1322f85cc7cc8bac4e172a5bc5dcc0c1959007f9a030032abf9258205f0e4590611fa5908590859061347d565b60405180910390a2505050505050565b80611fbf57610af9565b600954604051631062c15f60e11b81526001600160a01b03909116906320c582be90611ff390309086908690600401613419565b600060405180830381600087803b15801561200d57600080fd5b505af1158015612021573d6000803e3d6000fd5b50505050610af981612ebc565b6001600160a01b0382166000908152600e60205260409020819055806120bb576001600160a01b0382166000818152600e60209081526040808320839055600f9091528082208281556001810183905560028101839055600301829055517f2d6cc0bcdf72c9486f6451bde6b80f44066f4558f77f44dbfedbe7d8b295225a91611eeb918190819061348b565b6015546014546001600160801b03600160801b8084048216600081815260166020908152604080832097861680845297825280832054848452601783528184208985528352818420546001600160a01b038c16808652600f90945293829020600181018990558181556002810185905560030180546001600160801b0319168a1790971695850295909517909555935191949390917f2d6cc0bcdf72c9486f6451bde6b80f44066f4558f77f44dbfedbe7d8b295225a906121819086908690869061348b565b60405180910390a250505050505050565b8061219c57611c13565b600c546000906121b2908363ffffffff611cac16565b905080600c81905550600080516020613a9e833981519152816040516121d891906139f7565b60405180910390a17f6109e2559dfa766aaec7118351d48a523f0a4157f49c8d68749c8ac41318ad12338360405161221192919061343d565b60405180910390a16000336001600160a01b031683604051612232906133c2565b60006040518083038185875af1925050503d806000811461226f576040519150601f19603f3d011682016040523d82523d6000602084013e612274565b606091505b50509050806122955760405162461bcd60e51b815260040161087690613720565b505050565b6008546001600160a01b0316331461087f5760405162461bcd60e51b8152600401610876906136d7565b60008060006122f66019546122ea670de0b6b3a764000089612b4d90919063ffffffff16565b9063ffffffff61088116565b90508385111561230257fe5b8385141561231f576000601a55670de0b6b3a7640000915061237f565b601a5460009061234d9061234188670de0b6b3a764000063ffffffff612b4d16565b9063ffffffff611cac16565b905061236460016122ea838863ffffffff612b8716565b925061237a81612341858863ffffffff612b4d16565b601a55505b61238f818563ffffffff612b8716565b92506123b16123a4848663ffffffff612b4d16565b829063ffffffff611cac16565b60195550935093915050565b6014546000670de0b6b3a76400008311156123d457fe5b60006123ee670de0b6b3a76400008563ffffffff611cac16565b6015546001600160801b03600160801b8204811660008181526016602090815260408083209490951680835293905292832054939450909290916124328988612b4d565b90506000612446838363ffffffff61088116565b6001600160801b038086166000908152601660209081526040808320938a168352929052819020829055519091507fe12e2cd2c9afa8069203ca07e7eff1edce4a075686d0736a8e7e0d593597b207906124a590839087908990613a3a565b60405180910390a18561257e576124cc6001600160801b038516600163ffffffff612f1616565b601580546001600160801b03908116600160801b938216840217918290556040517fb50f0f59e7cb5b421dc77581c3a9919e3806e076e5fa78a874c3f120cb7d874d9361251d9304909116906139e3565b60405180910390a1601580546001600160801b03191690556040517f1f9dfc70cd666adb18a39d60a797518f7b4febf4b6e24ef37d44f6e1e7219fbe90612566906000906139e3565b60405180910390a1670de0b6b3a7640000965061266b565b633b9aca0061259f670de0b6b3a76400006112538b8a63ffffffff612b4d16565b101561264c576125d5670de0b6b3a7640000611253633b9aca006125c98c8b63ffffffff612b4d16565b9063ffffffff612b4d16565b96506125f16001600160801b038616600163ffffffff612f1616565b601580546001600160801b0319166001600160801b0392831617908190556040517f1f9dfc70cd666adb18a39d60a797518f7b4febf4b6e24ef37d44f6e1e7219fbe9261263f9216906139e3565b60405180910390a161266b565b612668670de0b6b3a76400006112538a8963ffffffff612b4d16565b96505b6000871161267557fe5b60148790556040517fc1a9618cb59ebca77cbdbc2949f126823c407ff13edb285fd0262519a9c18e8c906126aa9089906139f7565b60405180910390a150505050505050505050565b600480546040516305af902160e31b81526001600160a01b03909116918291632d7c8108916126ef918691016139f7565b600060405180830381600087803b15801561270957600080fd5b505af115801561271d573d6000803e3d6000fd5b5050505061272a82612ebc565b600954604051632770a7eb60e21b81526001600160a01b0390911690639dc29fac9061275c903090869060040161343d565b600060405180830381600087803b15801561277657600080fd5b505af115801561278a573d6000803e3d6000fd5b50506040516364a197f360e01b81526001600160a01b03841692506364a197f391506127bc903090879060040161343d565b600060405180830381600087803b1580156127d657600080fd5b505af11580156127ea573d6000803e3d6000fd5b50505050505050565b6080810151606082015182516020808501516001600160801b03808616600090815260168452604080822092871682529190935282205491949392918590612841908463ffffffff611cac16565b6001600160801b038087166000908152601660205260408120929350916128a491633b9aca009190849061287e908a16600163ffffffff612f1616565b6001600160801b031681526020810191909152604001600020549063ffffffff612b8716565b905060006128d6670de0b6b3a764000061125386816128c9888863ffffffff61088116565b8f9063ffffffff612b4d16565b9a9950505050505050505050565b60008111611c135760405162461bcd60e51b8152600401610876906137d7565b600954604051632ee65eeb60e21b81526001600160a01b039091169063bb997bac9061293890859030908690600401613419565b600060405180830381600087803b15801561295257600080fd5b505af1158015612966573d6000803e3d6000fd5b5050600d546000925061298091508363ffffffff61088116565b905080600d819055507fc5ee6fb858a22859c568a103df828f481b378a432ae4e0a5cbc076430130bdb2816040516129b891906139f7565b60405180910390a1505050565b6020810151606082015160808301516015546000939291906001600160801b03600160801b90910481169082161015612a0457600093505050506108a9565b6015546000908190612a25906001600160801b03168563ffffffff612f4716565b90506001600160801b038116612a5557612a4e856112536014548b612b4d90919063ffffffff16565b9150612a8d565b806001600160801b031660011415612a8857612a4e633b9aca00611253876112536014548d612b4d90919063ffffffff16565b600091505b612aa188633b9aca0063ffffffff612b8716565b821015612ab6576000955050505050506108a9565b509695505050505050565b608081015160608201516040808401516020808601516001600160801b03808716600090815260178452858120918716815292529281205490949392908590612b10908463ffffffff611cac16565b6001600160801b038087166000908152601760205260408120929350916128a491633b9aca009190849061287e908a16600163ffffffff612f1616565b600082612b5c575060006108a9565b82820282848281612b6957fe5b04146108a65760405162461bcd60e51b815260040161087690613761565b60006108a683836040518060400160405280601a815260200179536166654d6174683a206469766973696f6e206279207a65726f60301b815250612f81565b6008546040516321e3780160e01b81526001600160a01b03909116906321e3780190612bf69084906004016133c5565b60206040518083038186803b158015612c0e57600080fd5b505afa158015612c22573d6000803e3d6000fd5b505050506040513d601f19601f82011682018060405250810190612c469190613287565b600114611c135760405162461bcd60e51b8152600401610876906134f4565b6000612c7082610b12565b905060008111610af95760405162461bcd60e51b81526004016108769061365b565b6006546040516341e7dc0b60e01b815260009182916001600160a01b03909116906341e7dc0b90612cc99087908790600401613456565b60206040518083038186803b158015612ce157600080fd5b505afa158015612cf5573d6000803e3d6000fd5b505050506040513d601f19601f82011682018060405250810190612d199190613287565b90508034146108a65760405162461bcd60e51b815260040161087690613852565b6001600160a01b038116612d605760405162461bcd60e51b815260040161087690613624565b803b80610af95760405162461bcd60e51b81526004016108769061381d565b600d54801580612d8d575081155b15612d985750611c13565b6000612da48383612fb8565b90506000612dbd60145483612b4d90919063ffffffff16565b6015546001600160801b03600160801b820481166000908152601760209081526040808320939094168252919091522054909150612e01908263ffffffff61088116565b601580546001600160801b03600160801b80830482166000908152601760208181526040808420968616845295815285832097909755945491820483168082529486528381209190921680835294528190205490517f2d6127771b164a9cc8827d24b5955db2a77e7a81dac389107ebb8bce9fb6496893612e829391613a3a565b60405180910390a150505050565b60008184841115612eb45760405162461bcd60e51b815260040161087691906134a1565b505050900390565b600d54600090612ed2908363ffffffff611cac16565b905080600d819055507fc5ee6fb858a22859c568a103df828f481b378a432ae4e0a5cbc076430130bdb281604051612f0a91906139f7565b60405180910390a15050565b60008282016001600160801b0380851690821610156108a65760405162461bcd60e51b815260040161087690613934565b6000826001600160801b0316826001600160801b03161115612f7b5760405162461bcd60e51b8152600401610876906138ec565b50900390565b60008183612fa25760405162461bcd60e51b815260040161087691906134a1565b506000838581612fae57fe5b0495945050505050565b600080612fdc6018546122ea670de0b6b3a764000087612b4d90919063ffffffff16565b90506000612ff0828563ffffffff612b8716565b9050613012613005828663ffffffff612b4d16565b839063ffffffff611cac16565b601855949350505050565b6040518060a0016040528060008152602001600081526020016000815260200160006001600160801b0316815260200160006001600160801b031681525090565b60008083601f84011261306f578182fd5b5081356001600160401b03811115613085578182fd5b602083019150836020808302850101111561309f57600080fd5b9250929050565b80356001600160801b03811681146108a957600080fd5b6000602082840312156130ce578081fd5b81356108a681613a88565b6000602082840312156130ea578081fd5b81516108a681613a88565b600080600080600080600080610100898b031215613111578384fd5b883561311c81613a88565b9750602089013561312c81613a88565b9650604089013561313c81613a88565b9550606089013561314c81613a88565b9450608089013561315c81613a88565b935060a089013561316c81613a88565b925060c089013561317c81613a88565b915060e089013561318c81613a88565b809150509295985092959890939650565b600080600080606085870312156131b2578384fd5b84356131bd81613a88565b935060208501356131cd81613a88565b925060408501356001600160401b038111156131e7578283fd5b6131f38782880161305e565b95989497509550505050565b60008060408385031215613211578182fd5b823561321c81613a88565b915060208301358015158114613230578182fd5b809150509250929050565b6000806040838503121561324d578182fd5b61325784846130a6565b915061326684602085016130a6565b90509250929050565b600060208284031215613280578081fd5b5035919050565b600060208284031215613298578081fd5b5051919050565b6000806000604084860312156132b3578283fd5b8335925060208401356001600160401b038111156132cf578283fd5b6132db8682870161305e565b9497909650939450505050565b600080604083850312156132fa578182fd5b50508035926020909101359150565b8183526020808401936000918085028201810184845b8781101561338b57848303601f19018952813536889003601e19018112613344578687fd5b87018035906001600160401b0382111561335c578788fd5b81360389131561336a578788fd5b6133778583888401613398565b9a86019a945050509083019060010161331f565b5090979650505050505050565b60008284528282602086013780602084860101526020601f19601f85011685010190509392505050565b90565b6001600160a01b0391909116815260200190565b6001600160a01b03868116825285811660208301528416604082015260806060820181905260009061340e9083018486613309565b979650505050505050565b6001600160a01b039384168152919092166020820152604081019190915260600190565b6001600160a01b03929092168252602082015260400190565b60006020825261346a602083018486613309565b949350505050565b901515815260200190565b918252602082015260400190565b9283526020830191909152604082015260600190565b6000602080835283518082850152825b818110156134cd578581018301518582016040015282016134b1565b818111156134de5783604083870101525b50601f01601f1916929092016040019392505050565b60208082526046908201527f53746162696c697479506f6f6c3a2063616c6c6572206d75737420686176652060408201527f616e206163746976652074726f766520746f207769746864726177204554484760608201526561696e20746f60d01b608082015260a00190565b6020808252601b908201527a536166654d6174683a206164646974696f6e206f766572666c6f7760281b604082015260600190565b60208082526028908201527f436f6e74726f6c6c61626c653a2043616c6c6572206973206e6f74206120636f604082015267373a3937b63632b960c11b606082015260800190565b60208082526027908201527f53746162696c697479506f6f6c3a2043616c6c6572206973206e6f74204163746040820152661a5d99541bdbdb60ca1b606082015260800190565b6020808252601e908201527f4163636f756e742063616e6e6f74206265207a65726f20616464726573730000604082015260600190565b60208082526031908201527f53746162696c697479506f6f6c3a2063616c6c6572206d7573742068617665206040820152703737b716bd32b9379022aa241023b0b4b760791b606082015260800190565b6020808252601190820152702222a1a4a6a0a62fa82922a1a4a9a4a7a760791b604082015260600190565b60208082526029908201527f53746162696c697479506f6f6c3a2043616c6c6572206973206e6f742054726f6040820152683b32a6b0b730b3b2b960b91b606082015260800190565b60208082526021908201527f53746162696c697479506f6f6c3a2073656e64696e6720455448206661696c656040820152601960fa1b606082015260800190565b60208082526021908201527f536166654d6174683a206d756c7469706c69636174696f6e206f766572666c6f6040820152607760f81b606082015260800190565b6020808252818101527f4f776e61626c653a2063616c6c6572206973206e6f7420746865206f776e6572604082015260600190565b60208082526026908201527f53746162696c697479506f6f6c3a20416d6f756e74206d757374206265206e6f6040820152656e2d7a65726f60d01b606082015260800190565b6020808252818101527f4163636f756e7420636f64652073697a652063616e6e6f74206265207a65726f604082015260600190565b6020808252602a908201527f53746162696c697479506f6f6c3a205265717569726520666f722070726963656040820152694665656420757361676560b01b606082015260800190565b60208082526030908201527f53746162696c697479506f6f6c3a2055736572206d757374206861766520612060408201526f1b9bdb8b5e995c9bc819195c1bdcda5d60821b606082015260800190565b60208082526028908201527f4c697175697479536166654d6174683132383a207375627472616374696f6e206040820152676f766572666c6f7760c01b606082015260800190565b60208082526025908201527f4c697175697479536166654d6174683132383a206164646974696f6e206f766560408201526472666c6f7760d81b606082015260800190565b60208082526044908201527f53746162696c697479506f6f6c3a2043616e6e6f74207769746864726177207760408201527f68696c65207468657265206172652074726f766573207769746820494352203c6060820152631026a1a960e11b608082015260a00190565b6001600160801b0391909116815260200190565b90815260200190565b9182526001600160a01b0316602082015260400190565b600084825260406020830152613a31604083018486613309565b95945050505050565b9283526001600160801b03918216602084015216604082015260600190565b948552602085019390935260408401919091526001600160801b03908116606084015216608082015260a00190565b6001600160a01b0381168114611c1357600080fdfeceb6d671277d4354fd29977ada70695fbd93a16612abf765d6b0e25c28dc6db3bce78369dccab09eec1986f4d409ab09ffbb47d65423e5148fcf98411c5111c951457222ebca92c335c9c86e2baa1cc0e40ffaa9084a51452980d5ba8dec2f6399920012339b5a3368d3a04b8606ce412c46ed92b7dcd8602d41fc8862cb8f25a164736f6c634300060b000a",
  "devdoc": {
    "kind": "dev",
    "methods": {
      "isOwner()": {
        "details": "Returns true if the caller is the current owner."
      },
      "owner()": {
        "details": "Returns the address of the current owner."
      }
    },
    "version": 1
  },
  "userdoc": {
    "kind": "user",
    "methods": {},
    "version": 1
  },
  "storageLayout": {
    "storage": [
      {
        "astId": 4382,
        "contract": "contracts/StabilityPool.sol:StabilityPool",
        "label": "_owner",
        "offset": 0,
        "slot": "0",
        "type": "t_address"
      },
      {
        "astId": 3137,
        "contract": "contracts/StabilityPool.sol:StabilityPool",
        "label": "controllers",
        "offset": 0,
        "slot": "1",
        "type": "t_mapping(t_address,t_bool)"
      },
      {
        "astId": 3856,
        "contract": "contracts/StabilityPool.sol:StabilityPool",
        "label": "ZKUSD_GAS_COMPENSATION",
        "offset": 0,
        "slot": "2",
        "type": "t_uint256"
      },
      {
        "astId": 3859,
        "contract": "contracts/StabilityPool.sol:StabilityPool",
        "label": "MIN_NET_DEBT",
        "offset": 0,
        "slot": "3",
        "type": "t_uint256"
      },
      {
        "astId": 3872,
        "contract": "contracts/StabilityPool.sol:StabilityPool",
        "label": "activePool",
        "offset": 0,
        "slot": "4",
        "type": "t_contract(IActivePool)15165"
      },
      {
        "astId": 3874,
        "contract": "contracts/StabilityPool.sol:StabilityPool",
        "label": "defaultPool",
        "offset": 0,
        "slot": "5",
        "type": "t_contract(IDefaultPool)15481"
      },
      {
        "astId": 3877,
        "contract": "contracts/StabilityPool.sol:StabilityPool",
        "label": "priceFeed",
        "offset": 0,
        "slot": "6",
        "type": "t_contract(IPriceFeed)15606"
      },
      {
        "astId": 22129,
        "contract": "contracts/StabilityPool.sol:StabilityPool",
        "label": "borrowerOperations",
        "offset": 0,
        "slot": "7",
        "type": "t_contract(IBorrowerOperations)15364"
      },
      {
        "astId": 22131,
        "contract": "contracts/StabilityPool.sol:StabilityPool",
        "label": "troveManager",
        "offset": 0,
        "slot": "8",
        "type": "t_contract(ITroveManager)16585"
      },
      {
        "astId": 22133,
        "contract": "contracts/StabilityPool.sol:StabilityPool",
        "label": "zkusdToken",
        "offset": 0,
        "slot": "9",
        "type": "t_contract(IZKUSDToken)16792"
      },
      {
        "astId": 22135,
        "contract": "contracts/StabilityPool.sol:StabilityPool",
        "label": "sortedTroves",
        "offset": 0,
        "slot": "10",
        "type": "t_contract(ISortedTroves)15885"
      },
      {
        "astId": 22137,
        "contract": "contracts/StabilityPool.sol:StabilityPool",
        "label": "communityIssuance",
        "offset": 0,
        "slot": "11",
        "type": "t_contract(ICommunityIssuance)15458"
      },
      {
        "astId": 22139,
        "contract": "contracts/StabilityPool.sol:StabilityPool",
        "label": "ETH",
        "offset": 0,
        "slot": "12",
        "type": "t_uint256"
      },
      {
        "astId": 22141,
        "contract": "contracts/StabilityPool.sol:StabilityPool",
        "label": "totalZKUSDDeposits",
        "offset": 0,
        "slot": "13",
        "type": "t_uint256"
      },
      {
        "astId": 22156,
        "contract": "contracts/StabilityPool.sol:StabilityPool",
        "label": "deposits",
        "offset": 0,
        "slot": "14",
        "type": "t_mapping(t_address,t_uint256)"
      },
      {
        "astId": 22160,
        "contract": "contracts/StabilityPool.sol:StabilityPool",
        "label": "depositSnapshots",
        "offset": 0,
        "slot": "15",
        "type": "t_mapping(t_address,t_struct(Snapshots)22152_storage)"
      },
      {
        "astId": 22162,
        "contract": "contracts/StabilityPool.sol:StabilityPool",
        "label": "treasuryAddress",
        "offset": 0,
        "slot": "16",
        "type": "t_address"
      },
      {
        "astId": 22165,
        "contract": "contracts/StabilityPool.sol:StabilityPool",
        "label": "DefaultKickbackRate",
        "offset": 0,
        "slot": "17",
        "type": "t_uint256"
      },
      {
        "astId": 22169,
        "contract": "contracts/StabilityPool.sol:StabilityPool",
        "label": "frontEndStakes",
        "offset": 0,
        "slot": "18",
        "type": "t_mapping(t_address,t_uint256)"
      },
      {
        "astId": 22173,
        "contract": "contracts/StabilityPool.sol:StabilityPool",
        "label": "frontEndSnapshots",
        "offset": 0,
        "slot": "19",
        "type": "t_mapping(t_address,t_struct(Snapshots)22152_storage)"
      },
      {
        "astId": 22176,
        "contract": "contracts/StabilityPool.sol:StabilityPool",
        "label": "P",
        "offset": 0,
        "slot": "20",
        "type": "t_uint256"
      },
      {
        "astId": 22181,
        "contract": "contracts/StabilityPool.sol:StabilityPool",
        "label": "currentScale",
        "offset": 0,
        "slot": "21",
        "type": "t_uint128"
      },
      {
        "astId": 22183,
        "contract": "contracts/StabilityPool.sol:StabilityPool",
        "label": "currentEpoch",
        "offset": 16,
        "slot": "21",
        "type": "t_uint128"
      },
      {
        "astId": 22189,
        "contract": "contracts/StabilityPool.sol:StabilityPool",
        "label": "epochToScaleToSum",
        "offset": 0,
        "slot": "22",
        "type": "t_mapping(t_uint128,t_mapping(t_uint128,t_uint256))"
      },
      {
        "astId": 22195,
        "contract": "contracts/StabilityPool.sol:StabilityPool",
        "label": "epochToScaleToG",
        "offset": 0,
        "slot": "23",
        "type": "t_mapping(t_uint128,t_mapping(t_uint128,t_uint256))"
      },
      {
        "astId": 22197,
        "contract": "contracts/StabilityPool.sol:StabilityPool",
        "label": "lastZKTError",
        "offset": 0,
        "slot": "24",
        "type": "t_uint256"
      },
      {
        "astId": 22199,
        "contract": "contracts/StabilityPool.sol:StabilityPool",
        "label": "lastETHError_Offset",
        "offset": 0,
        "slot": "25",
        "type": "t_uint256"
      },
      {
        "astId": 22201,
        "contract": "contracts/StabilityPool.sol:StabilityPool",
        "label": "lastZKUSDLossError_Offset",
        "offset": 0,
        "slot": "26",
        "type": "t_uint256"
      }
    ],
    "types": {
      "t_address": {
        "encoding": "inplace",
        "label": "address",
        "numberOfBytes": "20"
      },
      "t_bool": {
        "encoding": "inplace",
        "label": "bool",
        "numberOfBytes": "1"
      },
      "t_contract(IActivePool)15165": {
        "encoding": "inplace",
        "label": "contract IActivePool",
        "numberOfBytes": "20"
      },
      "t_contract(IBorrowerOperations)15364": {
        "encoding": "inplace",
        "label": "contract IBorrowerOperations",
        "numberOfBytes": "20"
      },
      "t_contract(ICommunityIssuance)15458": {
        "encoding": "inplace",
        "label": "contract ICommunityIssuance",
        "numberOfBytes": "20"
      },
      "t_contract(IDefaultPool)15481": {
        "encoding": "inplace",
        "label": "contract IDefaultPool",
        "numberOfBytes": "20"
      },
      "t_contract(IPriceFeed)15606": {
        "encoding": "inplace",
        "label": "contract IPriceFeed",
        "numberOfBytes": "20"
      },
      "t_contract(ISortedTroves)15885": {
        "encoding": "inplace",
        "label": "contract ISortedTroves",
        "numberOfBytes": "20"
      },
      "t_contract(ITroveManager)16585": {
        "encoding": "inplace",
        "label": "contract ITroveManager",
        "numberOfBytes": "20"
      },
      "t_contract(IZKUSDToken)16792": {
        "encoding": "inplace",
        "label": "contract IZKUSDToken",
        "numberOfBytes": "20"
      },
      "t_mapping(t_address,t_bool)": {
        "encoding": "mapping",
        "key": "t_address",
        "label": "mapping(address => bool)",
        "numberOfBytes": "32",
        "value": "t_bool"
      },
      "t_mapping(t_address,t_struct(Snapshots)22152_storage)": {
        "encoding": "mapping",
        "key": "t_address",
        "label": "mapping(address => struct StabilityPool.Snapshots)",
        "numberOfBytes": "32",
        "value": "t_struct(Snapshots)22152_storage"
      },
      "t_mapping(t_address,t_uint256)": {
        "encoding": "mapping",
        "key": "t_address",
        "label": "mapping(address => uint256)",
        "numberOfBytes": "32",
        "value": "t_uint256"
      },
      "t_mapping(t_uint128,t_mapping(t_uint128,t_uint256))": {
        "encoding": "mapping",
        "key": "t_uint128",
        "label": "mapping(uint128 => mapping(uint128 => uint256))",
        "numberOfBytes": "32",
        "value": "t_mapping(t_uint128,t_uint256)"
      },
      "t_mapping(t_uint128,t_uint256)": {
        "encoding": "mapping",
        "key": "t_uint128",
        "label": "mapping(uint128 => uint256)",
        "numberOfBytes": "32",
        "value": "t_uint256"
      },
      "t_struct(Snapshots)22152_storage": {
        "encoding": "inplace",
        "label": "struct StabilityPool.Snapshots",
        "members": [
          {
            "astId": 22143,
            "contract": "contracts/StabilityPool.sol:StabilityPool",
            "label": "S",
            "offset": 0,
            "slot": "0",
            "type": "t_uint256"
          },
          {
            "astId": 22145,
            "contract": "contracts/StabilityPool.sol:StabilityPool",
            "label": "P",
            "offset": 0,
            "slot": "1",
            "type": "t_uint256"
          },
          {
            "astId": 22147,
            "contract": "contracts/StabilityPool.sol:StabilityPool",
            "label": "G",
            "offset": 0,
            "slot": "2",
            "type": "t_uint256"
          },
          {
            "astId": 22149,
            "contract": "contracts/StabilityPool.sol:StabilityPool",
            "label": "scale",
            "offset": 0,
            "slot": "3",
            "type": "t_uint128"
          },
          {
            "astId": 22151,
            "contract": "contracts/StabilityPool.sol:StabilityPool",
            "label": "epoch",
            "offset": 16,
            "slot": "3",
            "type": "t_uint128"
          }
        ],
        "numberOfBytes": "128"
      },
      "t_uint128": {
        "encoding": "inplace",
        "label": "uint128",
        "numberOfBytes": "16"
      },
      "t_uint256": {
        "encoding": "inplace",
        "label": "uint256",
        "numberOfBytes": "32"
      }
    }
  }
}