{
  "address": "0xE06F4754e94E2b6A462E616Ca3Ec78c6f4674A61",
  "abi": [
    {
      "anonymous": false,
      "inputs": [
        {
          "indexed": false,
          "internalType": "address",
          "name": "_activePoolAddress",
          "type": "address"
        }
      ],
      "name": "ActivePoolAddressChanged",
      "type": "event"
    },
    {
      "anonymous": false,
      "inputs": [
        {
          "indexed": false,
          "internalType": "uint256",
          "name": "_baseRate",
          "type": "uint256"
        }
      ],
      "name": "BaseRateUpdated",
      "type": "event"
    },
    {
      "anonymous": false,
      "inputs": [
        {
          "indexed": false,
          "internalType": "address",
          "name": "_newBorrowerOperationsAddress",
          "type": "address"
        }
      ],
      "name": "BorrowerOperationsAddressChanged",
      "type": "event"
    },
    {
      "anonymous": false,
      "inputs": [
        {
          "indexed": false,
          "internalType": "address",
          "name": "_collSurplusPoolAddress",
          "type": "address"
        }
      ],
      "name": "CollSurplusPoolAddressChanged",
      "type": "event"
    },
    {
      "anonymous": false,
      "inputs": [
        {
          "indexed": true,
          "internalType": "address",
          "name": "controller",
          "type": "address"
        },
        {
          "indexed": false,
          "internalType": "bool",
          "name": "enabled",
          "type": "bool"
        }
      ],
      "name": "ControllerChanged",
      "type": "event"
    },
    {
      "anonymous": false,
      "inputs": [
        {
          "indexed": false,
          "internalType": "address",
          "name": "_defaultPoolAddress",
          "type": "address"
        }
      ],
      "name": "DefaultPoolAddressChanged",
      "type": "event"
    },
    {
      "anonymous": false,
      "inputs": [
        {
          "indexed": false,
          "internalType": "address",
          "name": "_gasPoolAddress",
          "type": "address"
        }
      ],
      "name": "GasPoolAddressChanged",
      "type": "event"
    },
    {
      "anonymous": false,
      "inputs": [
        {
          "indexed": false,
          "internalType": "uint256",
          "name": "_L_Native",
          "type": "uint256"
        },
        {
          "indexed": false,
          "internalType": "uint256",
          "name": "_L_Debt",
          "type": "uint256"
        }
      ],
      "name": "LTermsUpdated",
      "type": "event"
    },
    {
      "anonymous": false,
      "inputs": [
        {
          "indexed": false,
          "internalType": "uint256",
          "name": "_lastFeeOpTime",
          "type": "uint256"
        }
      ],
      "name": "LastFeeOpTimeUpdated",
      "type": "event"
    },
    {
      "anonymous": false,
      "inputs": [
        {
          "indexed": false,
          "internalType": "uint256",
          "name": "_liquidatedDebt",
          "type": "uint256"
        },
        {
          "indexed": false,
          "internalType": "uint256",
          "name": "_liquidatedColl",
          "type": "uint256"
        },
        {
          "indexed": false,
          "internalType": "uint256",
          "name": "_collGasCompensation",
          "type": "uint256"
        },
        {
          "indexed": false,
          "internalType": "uint256",
          "name": "_ZKUSDGasCompensation",
          "type": "uint256"
        }
      ],
      "name": "Liquidation",
      "type": "event"
    },
    {
      "anonymous": false,
      "inputs": [
        {
          "indexed": true,
          "internalType": "address",
          "name": "previousOwner",
          "type": "address"
        },
        {
          "indexed": true,
          "internalType": "address",
          "name": "newOwner",
          "type": "address"
        }
      ],
      "name": "OwnershipTransferred",
      "type": "event"
    },
    {
      "anonymous": false,
      "inputs": [
        {
          "indexed": false,
          "internalType": "address",
          "name": "_newPriceFeedAddress",
          "type": "address"
        }
      ],
      "name": "PriceFeedAddressChanged",
      "type": "event"
    },
    {
      "anonymous": false,
      "inputs": [
        {
          "indexed": false,
          "internalType": "uint256",
          "name": "_attemptedZKUSDAmount",
          "type": "uint256"
        },
        {
          "indexed": false,
          "internalType": "uint256",
          "name": "_actualZKUSDAmount",
          "type": "uint256"
        },
        {
          "indexed": false,
          "internalType": "uint256",
          "name": "_ETHSent",
          "type": "uint256"
        },
        {
          "indexed": false,
          "internalType": "uint256",
          "name": "_ETHFee",
          "type": "uint256"
        }
      ],
      "name": "Redemption",
      "type": "event"
    },
    {
      "anonymous": false,
      "inputs": [
        {
          "indexed": false,
          "internalType": "address",
          "name": "_sortedTrovesAddress",
          "type": "address"
        }
      ],
      "name": "SortedTrovesAddressChanged",
      "type": "event"
    },
    {
      "anonymous": false,
      "inputs": [
        {
          "indexed": false,
          "internalType": "address",
          "name": "_stabilityPoolAddress",
          "type": "address"
        }
      ],
      "name": "StabilityPoolAddressChanged",
      "type": "event"
    },
    {
      "anonymous": false,
      "inputs": [
        {
          "indexed": false,
          "internalType": "uint256",
          "name": "_totalStakesSnapshot",
          "type": "uint256"
        },
        {
          "indexed": false,
          "internalType": "uint256",
          "name": "_totalCollateralSnapshot",
          "type": "uint256"
        }
      ],
      "name": "SystemSnapshotsUpdated",
      "type": "event"
    },
    {
      "anonymous": false,
      "inputs": [
        {
          "indexed": false,
          "internalType": "uint256",
          "name": "_newTotalStakes",
          "type": "uint256"
        }
      ],
      "name": "TotalStakesUpdated",
      "type": "event"
    },
    {
      "anonymous": false,
      "inputs": [
        {
          "indexed": false,
          "internalType": "address",
          "name": "_borrower",
          "type": "address"
        },
        {
          "indexed": false,
          "internalType": "uint256",
          "name": "_newIndex",
          "type": "uint256"
        }
      ],
      "name": "TroveIndexUpdated",
      "type": "event"
    },
    {
      "anonymous": false,
      "inputs": [
        {
          "indexed": true,
          "internalType": "address",
          "name": "_borrower",
          "type": "address"
        },
        {
          "indexed": false,
          "internalType": "uint256",
          "name": "_debt",
          "type": "uint256"
        },
        {
          "indexed": false,
          "internalType": "uint256",
          "name": "_coll",
          "type": "uint256"
        },
        {
          "indexed": false,
          "internalType": "enum TroveManager.TroveManagerOperation",
          "name": "_operation",
          "type": "uint8"
        }
      ],
      "name": "TroveLiquidated",
      "type": "event"
    },
    {
      "anonymous": false,
      "inputs": [
        {
          "indexed": false,
          "internalType": "address",
          "name": "_borrower",
          "type": "address"
        },
        {
          "indexed": false,
          "internalType": "uint256",
          "name": "_L_Native",
          "type": "uint256"
        },
        {
          "indexed": false,
          "internalType": "uint256",
          "name": "_L_Debt",
          "type": "uint256"
        }
      ],
      "name": "TroveSnapshotsUpdated",
      "type": "event"
    },
    {
      "anonymous": false,
      "inputs": [
        {
          "indexed": true,
          "internalType": "address",
          "name": "_borrower",
          "type": "address"
        },
        {
          "indexed": false,
          "internalType": "uint256",
          "name": "_debt",
          "type": "uint256"
        },
        {
          "indexed": false,
          "internalType": "uint256",
          "name": "_coll",
          "type": "uint256"
        },
        {
          "indexed": false,
          "internalType": "uint256",
          "name": "_stake",
          "type": "uint256"
        },
        {
          "indexed": false,
          "internalType": "enum TroveManager.TroveManagerOperation",
          "name": "_operation",
          "type": "uint8"
        }
      ],
      "name": "TroveUpdated",
      "type": "event"
    },
    {
      "anonymous": false,
      "inputs": [
        {
          "indexed": false,
          "internalType": "address",
          "name": "_zktStakingAddress",
          "type": "address"
        }
      ],
      "name": "ZKTStakingAddressChanged",
      "type": "event"
    },
    {
      "anonymous": false,
      "inputs": [
        {
          "indexed": false,
          "internalType": "address",
          "name": "_zkTokenAddress",
          "type": "address"
        }
      ],
      "name": "ZKTokenAddressChanged",
      "type": "event"
    },
    {
      "anonymous": false,
      "inputs": [
        {
          "indexed": false,
          "internalType": "address",
          "name": "_newZKUSDTokenAddress",
          "type": "address"
        }
      ],
      "name": "ZKUSDTokenAddressChanged",
      "type": "event"
    },
    {
      "inputs": [],
      "name": "BETA",
      "outputs": [
        {
          "internalType": "uint256",
          "name": "",
          "type": "uint256"
        }
      ],
      "stateMutability": "view",
      "type": "function"
    },
    {
      "inputs": [],
      "name": "BOOTSTRAP_PERIOD",
      "outputs": [
        {
          "internalType": "uint256",
          "name": "",
          "type": "uint256"
        }
      ],
      "stateMutability": "view",
      "type": "function"
    },
    {
      "inputs": [],
      "name": "BORROWING_FEE_FLOOR",
      "outputs": [
        {
          "internalType": "uint256",
          "name": "",
          "type": "uint256"
        }
      ],
      "stateMutability": "view",
      "type": "function"
    },
    {
      "inputs": [],
      "name": "CCR",
      "outputs": [
        {
          "internalType": "uint256",
          "name": "",
          "type": "uint256"
        }
      ],
      "stateMutability": "view",
      "type": "function"
    },
    {
      "inputs": [],
      "name": "DECIMAL_PRECISION",
      "outputs": [
        {
          "internalType": "uint256",
          "name": "",
          "type": "uint256"
        }
      ],
      "stateMutability": "view",
      "type": "function"
    },
    {
      "inputs": [],
      "name": "L_ETH",
      "outputs": [
        {
          "internalType": "uint256",
          "name": "",
          "type": "uint256"
        }
      ],
      "stateMutability": "view",
      "type": "function"
    },
    {
      "inputs": [],
      "name": "L_ZKUSDDebt",
      "outputs": [
        {
          "internalType": "uint256",
          "name": "",
          "type": "uint256"
        }
      ],
      "stateMutability": "view",
      "type": "function"
    },
    {
      "inputs": [],
      "name": "MAX_BORROWING_FEE",
      "outputs": [
        {
          "internalType": "uint256",
          "name": "",
          "type": "uint256"
        }
      ],
      "stateMutability": "view",
      "type": "function"
    },
    {
      "inputs": [],
      "name": "MCR",
      "outputs": [
        {
          "internalType": "uint256",
          "name": "",
          "type": "uint256"
        }
      ],
      "stateMutability": "view",
      "type": "function"
    },
    {
      "inputs": [],
      "name": "MINUTE_DECAY_FACTOR",
      "outputs": [
        {
          "internalType": "uint256",
          "name": "",
          "type": "uint256"
        }
      ],
      "stateMutability": "view",
      "type": "function"
    },
    {
      "inputs": [],
      "name": "MIN_NET_DEBT",
      "outputs": [
        {
          "internalType": "uint256",
          "name": "",
          "type": "uint256"
        }
      ],
      "stateMutability": "view",
      "type": "function"
    },
    {
      "inputs": [],
      "name": "NAME",
      "outputs": [
        {
          "internalType": "string",
          "name": "",
          "type": "string"
        }
      ],
      "stateMutability": "view",
      "type": "function"
    },
    {
      "inputs": [],
      "name": "PERCENT_DIVISOR",
      "outputs": [
        {
          "internalType": "uint256",
          "name": "",
          "type": "uint256"
        }
      ],
      "stateMutability": "view",
      "type": "function"
    },
    {
      "inputs": [],
      "name": "REDEMPTION_FEE_FLOOR",
      "outputs": [
        {
          "internalType": "uint256",
          "name": "",
          "type": "uint256"
        }
      ],
      "stateMutability": "view",
      "type": "function"
    },
    {
      "inputs": [],
      "name": "SECONDS_IN_ONE_MINUTE",
      "outputs": [
        {
          "internalType": "uint256",
          "name": "",
          "type": "uint256"
        }
      ],
      "stateMutability": "view",
      "type": "function"
    },
    {
      "inputs": [
        {
          "internalType": "uint256",
          "name": "",
          "type": "uint256"
        }
      ],
      "name": "TroveOwners",
      "outputs": [
        {
          "internalType": "address",
          "name": "",
          "type": "address"
        }
      ],
      "stateMutability": "view",
      "type": "function"
    },
    {
      "inputs": [
        {
          "internalType": "address",
          "name": "",
          "type": "address"
        }
      ],
      "name": "Troves",
      "outputs": [
        {
          "internalType": "uint256",
          "name": "debt",
          "type": "uint256"
        },
        {
          "internalType": "uint256",
          "name": "coll",
          "type": "uint256"
        },
        {
          "internalType": "uint256",
          "name": "stake",
          "type": "uint256"
        },
        {
          "internalType": "enum TroveManager.Status",
          "name": "status",
          "type": "uint8"
        },
        {
          "internalType": "uint128",
          "name": "arrayIndex",
          "type": "uint128"
        }
      ],
      "stateMutability": "view",
      "type": "function"
    },
    {
      "inputs": [],
      "name": "ZKUSD_GAS_COMPENSATION",
      "outputs": [
        {
          "internalType": "uint256",
          "name": "",
          "type": "uint256"
        }
      ],
      "stateMutability": "view",
      "type": "function"
    },
    {
      "inputs": [],
      "name": "_100pct",
      "outputs": [
        {
          "internalType": "uint256",
          "name": "",
          "type": "uint256"
        }
      ],
      "stateMutability": "view",
      "type": "function"
    },
    {
      "inputs": [],
      "name": "activePool",
      "outputs": [
        {
          "internalType": "contract IActivePool",
          "name": "",
          "type": "address"
        }
      ],
      "stateMutability": "view",
      "type": "function"
    },
    {
      "inputs": [
        {
          "internalType": "address",
          "name": "_borrower",
          "type": "address"
        }
      ],
      "name": "addTroveOwnerToArray",
      "outputs": [
        {
          "internalType": "uint256",
          "name": "index",
          "type": "uint256"
        }
      ],
      "stateMutability": "nonpayable",
      "type": "function"
    },
    {
      "inputs": [
        {
          "internalType": "address",
          "name": "_borrower",
          "type": "address"
        }
      ],
      "name": "applyPendingRewards",
      "outputs": [],
      "stateMutability": "nonpayable",
      "type": "function"
    },
    {
      "inputs": [],
      "name": "baseRate",
      "outputs": [
        {
          "internalType": "uint256",
          "name": "",
          "type": "uint256"
        }
      ],
      "stateMutability": "view",
      "type": "function"
    },
    {
      "inputs": [
        {
          "internalType": "address[]",
          "name": "_troveArray",
          "type": "address[]"
        },
        {
          "internalType": "bytes[]",
          "name": "_updateData",
          "type": "bytes[]"
        }
      ],
      "name": "batchLiquidateTroves",
      "outputs": [],
      "stateMutability": "payable",
      "type": "function"
    },
    {
      "inputs": [],
      "name": "borrowerOperationsAddress",
      "outputs": [
        {
          "internalType": "address",
          "name": "",
          "type": "address"
        }
      ],
      "stateMutability": "view",
      "type": "function"
    },
    {
      "inputs": [
        {
          "internalType": "uint256",
          "name": "_price",
          "type": "uint256"
        }
      ],
      "name": "checkRecoveryMode",
      "outputs": [
        {
          "internalType": "bool",
          "name": "",
          "type": "bool"
        }
      ],
      "stateMutability": "view",
      "type": "function"
    },
    {
      "inputs": [
        {
          "internalType": "address",
          "name": "_borrower",
          "type": "address"
        }
      ],
      "name": "closeTrove",
      "outputs": [],
      "stateMutability": "nonpayable",
      "type": "function"
    },
    {
      "inputs": [
        {
          "internalType": "address",
          "name": "",
          "type": "address"
        }
      ],
      "name": "controllers",
      "outputs": [
        {
          "internalType": "bool",
          "name": "",
          "type": "bool"
        }
      ],
      "stateMutability": "view",
      "type": "function"
    },
    {
      "inputs": [],
      "name": "decayBaseRateFromBorrowing",
      "outputs": [],
      "stateMutability": "nonpayable",
      "type": "function"
    },
    {
      "inputs": [
        {
          "internalType": "address",
          "name": "_borrower",
          "type": "address"
        },
        {
          "internalType": "uint256",
          "name": "_collDecrease",
          "type": "uint256"
        }
      ],
      "name": "decreaseTroveColl",
      "outputs": [
        {
          "internalType": "uint256",
          "name": "",
          "type": "uint256"
        }
      ],
      "stateMutability": "nonpayable",
      "type": "function"
    },
    {
      "inputs": [
        {
          "internalType": "address",
          "name": "_borrower",
          "type": "address"
        },
        {
          "internalType": "uint256",
          "name": "_debtDecrease",
          "type": "uint256"
        }
      ],
      "name": "decreaseTroveDebt",
      "outputs": [
        {
          "internalType": "uint256",
          "name": "",
          "type": "uint256"
        }
      ],
      "stateMutability": "nonpayable",
      "type": "function"
    },
    {
      "inputs": [],
      "name": "defaultPool",
      "outputs": [
        {
          "internalType": "contract IDefaultPool",
          "name": "",
          "type": "address"
        }
      ],
      "stateMutability": "view",
      "type": "function"
    },
    {
      "inputs": [
        {
          "internalType": "uint256",
          "name": "_ZKUSDDebt",
          "type": "uint256"
        }
      ],
      "name": "getBorrowingFee",
      "outputs": [
        {
          "internalType": "uint256",
          "name": "",
          "type": "uint256"
        }
      ],
      "stateMutability": "view",
      "type": "function"
    },
    {
      "inputs": [
        {
          "internalType": "uint256",
          "name": "_ZKUSDDebt",
          "type": "uint256"
        }
      ],
      "name": "getBorrowingFeeWithDecay",
      "outputs": [
        {
          "internalType": "uint256",
          "name": "",
          "type": "uint256"
        }
      ],
      "stateMutability": "view",
      "type": "function"
    },
    {
      "inputs": [],
      "name": "getBorrowingRate",
      "outputs": [
        {
          "internalType": "uint256",
          "name": "",
          "type": "uint256"
        }
      ],
      "stateMutability": "view",
      "type": "function"
    },
    {
      "inputs": [],
      "name": "getBorrowingRateWithDecay",
      "outputs": [
        {
          "internalType": "uint256",
          "name": "",
          "type": "uint256"
        }
      ],
      "stateMutability": "view",
      "type": "function"
    },
    {
      "inputs": [
        {
          "internalType": "address",
          "name": "_borrower",
          "type": "address"
        },
        {
          "internalType": "uint256",
          "name": "_price",
          "type": "uint256"
        }
      ],
      "name": "getCurrentICR",
      "outputs": [
        {
          "internalType": "uint256",
          "name": "",
          "type": "uint256"
        }
      ],
      "stateMutability": "view",
      "type": "function"
    },
    {
      "inputs": [
        {
          "internalType": "address",
          "name": "_borrower",
          "type": "address"
        }
      ],
      "name": "getEntireDebtAndColl",
      "outputs": [
        {
          "internalType": "uint256",
          "name": "debt",
          "type": "uint256"
        },
        {
          "internalType": "uint256",
          "name": "coll",
          "type": "uint256"
        },
        {
          "internalType": "uint256",
          "name": "pendingZKUSDDebtReward",
          "type": "uint256"
        },
        {
          "internalType": "uint256",
          "name": "pendingETHReward",
          "type": "uint256"
        }
      ],
      "stateMutability": "view",
      "type": "function"
    },
    {
      "inputs": [],
      "name": "getEntireSystemColl",
      "outputs": [
        {
          "internalType": "uint256",
          "name": "entireSystemColl",
          "type": "uint256"
        }
      ],
      "stateMutability": "view",
      "type": "function"
    },
    {
      "inputs": [],
      "name": "getEntireSystemDebt",
      "outputs": [
        {
          "internalType": "uint256",
          "name": "entireSystemDebt",
          "type": "uint256"
        }
      ],
      "stateMutability": "view",
      "type": "function"
    },
    {
      "inputs": [
        {
          "internalType": "address",
          "name": "_borrower",
          "type": "address"
        }
      ],
      "name": "getNominalICR",
      "outputs": [
        {
          "internalType": "uint256",
          "name": "",
          "type": "uint256"
        }
      ],
      "stateMutability": "view",
      "type": "function"
    },
    {
      "inputs": [
        {
          "internalType": "address",
          "name": "_borrower",
          "type": "address"
        }
      ],
      "name": "getPendingETHReward",
      "outputs": [
        {
          "internalType": "uint256",
          "name": "",
          "type": "uint256"
        }
      ],
      "stateMutability": "view",
      "type": "function"
    },
    {
      "inputs": [
        {
          "internalType": "address",
          "name": "_borrower",
          "type": "address"
        }
      ],
      "name": "getPendingZKUSDDebtReward",
      "outputs": [
        {
          "internalType": "uint256",
          "name": "",
          "type": "uint256"
        }
      ],
      "stateMutability": "view",
      "type": "function"
    },
    {
      "inputs": [
        {
          "internalType": "uint256",
          "name": "_ETHDrawn",
          "type": "uint256"
        }
      ],
      "name": "getRedemptionFeeWithDecay",
      "outputs": [
        {
          "internalType": "uint256",
          "name": "",
          "type": "uint256"
        }
      ],
      "stateMutability": "view",
      "type": "function"
    },
    {
      "inputs": [],
      "name": "getRedemptionRate",
      "outputs": [
        {
          "internalType": "uint256",
          "name": "",
          "type": "uint256"
        }
      ],
      "stateMutability": "view",
      "type": "function"
    },
    {
      "inputs": [],
      "name": "getRedemptionRateWithDecay",
      "outputs": [
        {
          "internalType": "uint256",
          "name": "",
          "type": "uint256"
        }
      ],
      "stateMutability": "view",
      "type": "function"
    },
    {
      "inputs": [
        {
          "internalType": "uint256",
          "name": "_price",
          "type": "uint256"
        }
      ],
      "name": "getTCR",
      "outputs": [
        {
          "internalType": "uint256",
          "name": "",
          "type": "uint256"
        }
      ],
      "stateMutability": "view",
      "type": "function"
    },
    {
      "inputs": [
        {
          "internalType": "address",
          "name": "_borrower",
          "type": "address"
        }
      ],
      "name": "getTroveColl",
      "outputs": [
        {
          "internalType": "uint256",
          "name": "",
          "type": "uint256"
        }
      ],
      "stateMutability": "view",
      "type": "function"
    },
    {
      "inputs": [
        {
          "internalType": "address",
          "name": "_borrower",
          "type": "address"
        }
      ],
      "name": "getTroveDebt",
      "outputs": [
        {
          "internalType": "uint256",
          "name": "",
          "type": "uint256"
        }
      ],
      "stateMutability": "view",
      "type": "function"
    },
    {
      "inputs": [
        {
          "internalType": "uint256",
          "name": "_index",
          "type": "uint256"
        }
      ],
      "name": "getTroveFromTroveOwnersArray",
      "outputs": [
        {
          "internalType": "address",
          "name": "",
          "type": "address"
        }
      ],
      "stateMutability": "view",
      "type": "function"
    },
    {
      "inputs": [],
      "name": "getTroveOwnersCount",
      "outputs": [
        {
          "internalType": "uint256",
          "name": "",
          "type": "uint256"
        }
      ],
      "stateMutability": "view",
      "type": "function"
    },
    {
      "inputs": [
        {
          "internalType": "address",
          "name": "_borrower",
          "type": "address"
        }
      ],
      "name": "getTroveStake",
      "outputs": [
        {
          "internalType": "uint256",
          "name": "",
          "type": "uint256"
        }
      ],
      "stateMutability": "view",
      "type": "function"
    },
    {
      "inputs": [
        {
          "internalType": "address",
          "name": "_borrower",
          "type": "address"
        }
      ],
      "name": "getTroveStatus",
      "outputs": [
        {
          "internalType": "uint256",
          "name": "",
          "type": "uint256"
        }
      ],
      "stateMutability": "view",
      "type": "function"
    },
    {
      "inputs": [
        {
          "internalType": "address",
          "name": "_borrower",
          "type": "address"
        }
      ],
      "name": "hasPendingRewards",
      "outputs": [
        {
          "internalType": "bool",
          "name": "",
          "type": "bool"
        }
      ],
      "stateMutability": "view",
      "type": "function"
    },
    {
      "inputs": [
        {
          "internalType": "address",
          "name": "_borrower",
          "type": "address"
        },
        {
          "internalType": "uint256",
          "name": "_collIncrease",
          "type": "uint256"
        }
      ],
      "name": "increaseTroveColl",
      "outputs": [
        {
          "internalType": "uint256",
          "name": "",
          "type": "uint256"
        }
      ],
      "stateMutability": "nonpayable",
      "type": "function"
    },
    {
      "inputs": [
        {
          "internalType": "address",
          "name": "_borrower",
          "type": "address"
        },
        {
          "internalType": "uint256",
          "name": "_debtIncrease",
          "type": "uint256"
        }
      ],
      "name": "increaseTroveDebt",
      "outputs": [
        {
          "internalType": "uint256",
          "name": "",
          "type": "uint256"
        }
      ],
      "stateMutability": "nonpayable",
      "type": "function"
    },
    {
      "inputs": [],
      "name": "isOwner",
      "outputs": [
        {
          "internalType": "bool",
          "name": "",
          "type": "bool"
        }
      ],
      "stateMutability": "view",
      "type": "function"
    },
    {
      "inputs": [],
      "name": "lastETHError_Redistribution",
      "outputs": [
        {
          "internalType": "uint256",
          "name": "",
          "type": "uint256"
        }
      ],
      "stateMutability": "view",
      "type": "function"
    },
    {
      "inputs": [],
      "name": "lastFeeOperationTime",
      "outputs": [
        {
          "internalType": "uint256",
          "name": "",
          "type": "uint256"
        }
      ],
      "stateMutability": "view",
      "type": "function"
    },
    {
      "inputs": [],
      "name": "lastZKUSDDebtError_Redistribution",
      "outputs": [
        {
          "internalType": "uint256",
          "name": "",
          "type": "uint256"
        }
      ],
      "stateMutability": "view",
      "type": "function"
    },
    {
      "inputs": [
        {
          "internalType": "address",
          "name": "_borrower",
          "type": "address"
        },
        {
          "internalType": "bytes[]",
          "name": "_updateData",
          "type": "bytes[]"
        }
      ],
      "name": "liquidate",
      "outputs": [],
      "stateMutability": "payable",
      "type": "function"
    },
    {
      "inputs": [
        {
          "internalType": "uint256",
          "name": "_n",
          "type": "uint256"
        },
        {
          "internalType": "bytes[]",
          "name": "_updateData",
          "type": "bytes[]"
        }
      ],
      "name": "liquidateTroves",
      "outputs": [],
      "stateMutability": "payable",
      "type": "function"
    },
    {
      "inputs": [],
      "name": "owner",
      "outputs": [
        {
          "internalType": "address",
          "name": "",
          "type": "address"
        }
      ],
      "stateMutability": "view",
      "type": "function"
    },
    {
      "inputs": [],
      "name": "priceFeed",
      "outputs": [
        {
          "internalType": "contract IPriceFeed",
          "name": "",
          "type": "address"
        }
      ],
      "stateMutability": "view",
      "type": "function"
    },
    {
      "inputs": [
        {
          "internalType": "uint256",
          "name": "_ZKUSDamount",
          "type": "uint256"
        },
        {
          "internalType": "address",
          "name": "_firstRedemptionHint",
          "type": "address"
        },
        {
          "internalType": "address",
          "name": "_upperPartialRedemptionHint",
          "type": "address"
        },
        {
          "internalType": "address",
          "name": "_lowerPartialRedemptionHint",
          "type": "address"
        },
        {
          "internalType": "uint256",
          "name": "_partialRedemptionHintNICR",
          "type": "uint256"
        },
        {
          "internalType": "uint256",
          "name": "_maxIterations",
          "type": "uint256"
        },
        {
          "internalType": "uint256",
          "name": "_maxFeePercentage",
          "type": "uint256"
        },
        {
          "internalType": "bytes[]",
          "name": "_updateData",
          "type": "bytes[]"
        }
      ],
      "name": "redeemCollateral",
      "outputs": [],
      "stateMutability": "payable",
      "type": "function"
    },
    {
      "inputs": [
        {
          "internalType": "address",
          "name": "_borrower",
          "type": "address"
        }
      ],
      "name": "removeStake",
      "outputs": [],
      "stateMutability": "nonpayable",
      "type": "function"
    },
    {
      "inputs": [
        {
          "internalType": "address",
          "name": "",
          "type": "address"
        }
      ],
      "name": "rewardSnapshots",
      "outputs": [
        {
          "internalType": "uint256",
          "name": "ETH",
          "type": "uint256"
        },
        {
          "internalType": "uint256",
          "name": "ZKUSDDebt",
          "type": "uint256"
        }
      ],
      "stateMutability": "view",
      "type": "function"
    },
    {
      "inputs": [
        {
          "internalType": "address",
          "name": "_borrowerOperationsAddress",
          "type": "address"
        },
        {
          "internalType": "address",
          "name": "_activePoolAddress",
          "type": "address"
        },
        {
          "internalType": "address",
          "name": "_defaultPoolAddress",
          "type": "address"
        },
        {
          "internalType": "address",
          "name": "_stabilityPoolAddress",
          "type": "address"
        },
        {
          "internalType": "address",
          "name": "_gasPoolAddress",
          "type": "address"
        },
        {
          "internalType": "address",
          "name": "_collSurplusPoolAddress",
          "type": "address"
        },
        {
          "internalType": "address",
          "name": "_priceFeedAddress",
          "type": "address"
        },
        {
          "internalType": "address",
          "name": "_zkusdTokenAddress",
          "type": "address"
        },
        {
          "internalType": "address",
          "name": "_sortedTrovesAddress",
          "type": "address"
        },
        {
          "internalType": "address",
          "name": "_zkTokenAddress",
          "type": "address"
        },
        {
          "internalType": "address",
          "name": "_zktStakingAddress",
          "type": "address"
        }
      ],
      "name": "setAddresses",
      "outputs": [],
      "stateMutability": "nonpayable",
      "type": "function"
    },
    {
      "inputs": [
        {
          "internalType": "address",
          "name": "controller",
          "type": "address"
        },
        {
          "internalType": "bool",
          "name": "enabled",
          "type": "bool"
        }
      ],
      "name": "setController",
      "outputs": [],
      "stateMutability": "nonpayable",
      "type": "function"
    },
    {
      "inputs": [
        {
          "internalType": "uint256",
          "name": "_gasCompensation",
          "type": "uint256"
        }
      ],
      "name": "setGasCompensation",
      "outputs": [],
      "stateMutability": "nonpayable",
      "type": "function"
    },
    {
      "inputs": [
        {
          "internalType": "uint256",
          "name": "_minNetDebt",
          "type": "uint256"
        }
      ],
      "name": "setMinNetDebt",
      "outputs": [],
      "stateMutability": "nonpayable",
      "type": "function"
    },
    {
      "inputs": [
        {
          "internalType": "address",
          "name": "_borrower",
          "type": "address"
        },
        {
          "internalType": "uint256",
          "name": "_num",
          "type": "uint256"
        }
      ],
      "name": "setTroveStatus",
      "outputs": [],
      "stateMutability": "nonpayable",
      "type": "function"
    },
    {
      "inputs": [],
      "name": "sortedTroves",
      "outputs": [
        {
          "internalType": "contract ISortedTroves",
          "name": "",
          "type": "address"
        }
      ],
      "stateMutability": "view",
      "type": "function"
    },
    {
      "inputs": [],
      "name": "stabilityPool",
      "outputs": [
        {
          "internalType": "contract IStabilityPool",
          "name": "",
          "type": "address"
        }
      ],
      "stateMutability": "view",
      "type": "function"
    },
    {
      "inputs": [],
      "name": "totalCollateralSnapshot",
      "outputs": [
        {
          "internalType": "uint256",
          "name": "",
          "type": "uint256"
        }
      ],
      "stateMutability": "view",
      "type": "function"
    },
    {
      "inputs": [],
      "name": "totalStakes",
      "outputs": [
        {
          "internalType": "uint256",
          "name": "",
          "type": "uint256"
        }
      ],
      "stateMutability": "view",
      "type": "function"
    },
    {
      "inputs": [],
      "name": "totalStakesSnapshot",
      "outputs": [
        {
          "internalType": "uint256",
          "name": "",
          "type": "uint256"
        }
      ],
      "stateMutability": "view",
      "type": "function"
    },
    {
      "inputs": [
        {
          "internalType": "address",
          "name": "_borrower",
          "type": "address"
        }
      ],
      "name": "updateStakeAndTotalStakes",
      "outputs": [
        {
          "internalType": "uint256",
          "name": "",
          "type": "uint256"
        }
      ],
      "stateMutability": "nonpayable",
      "type": "function"
    },
    {
      "inputs": [
        {
          "internalType": "address",
          "name": "_borrower",
          "type": "address"
        }
      ],
      "name": "updateTroveRewardSnapshots",
      "outputs": [],
      "stateMutability": "nonpayable",
      "type": "function"
    },
    {
      "inputs": [],
      "name": "zkToken",
      "outputs": [
        {
          "internalType": "contract IZKToken",
          "name": "",
          "type": "address"
        }
      ],
      "stateMutability": "view",
      "type": "function"
    },
    {
      "inputs": [],
      "name": "zktStaking",
      "outputs": [
        {
          "internalType": "contract IZKTStaking",
          "name": "",
          "type": "address"
        }
      ],
      "stateMutability": "view",
      "type": "function"
    },
    {
      "inputs": [],
      "name": "zkusdToken",
      "outputs": [
        {
          "internalType": "contract IZKUSDToken",
          "name": "",
          "type": "address"
        }
      ],
      "stateMutability": "view",
      "type": "function"
    }
  ],
  "transactionHash": "0x0dd064b11a819d902eddf3a5e2e689914151db5a372f2ea2686d3dbd4ddd65d6",
  "args": [],
  "numDeployments": 1,
  "solcInputHash": "ffe83ff5afde0d06d4b6b8e37e72100d",
  "bytecode": "0x60806040526802b5e3af16b18800006002556818650127cc3dc8000060035534801561002a57600080fd5b50600080546001600160a01b0319163390811782556040519091907f8be0079c531659141344cd1fd0a4f28419497f9722a3daafe3b4186f6b6457e0908290a3615f69806200007a6000396000f3fe6080604052600436106104095760003560e01c8063795d26c311610215578063b91af97c11610124578063d3d6f843116100b1578063d3d6f84314610b5b578063d5b3563514610b7b578063d66a255314610b9b578063d9a7244414610bbb578063da8c229e14610bdb578063e0dba60f14610bfb578063e2ac77b014610c1b578063e34341ab14610c3b578063f36b242514610c50578063f92d34331461056a578063fe2ba84814610c6557610409565b8063b91af97c14610a4d578063bf9befb114610a7d578063c192645b14610a92578063c35bc55014610aa7578063c52861f214610abc578063c7b5548114610ad1578063cbd138ae14610ae6578063d0029b5114610b06578063d293c71014610b26578063d380a37c14610b4657610409565b806396d711ff116101a257806396d711ff146109645780639976cf45146109795780639dd233d214610999578063a20baee61461081d578063a3f4df7e146109ae578063ad1c3e62146109d0578063ae918754146109e3578063b0d8e181146109f8578063b7f8cf9b14610a18578063b82f263d14610a2d57610409565b8063795d26c31461087c578063797250e3146108915780637985c5e4146108a65780637d8c87aa146108c65780637f7dde4a146108db578063807d138d146108f057806382fe3eb914610905578063887105d3146109255780638da5cb5b1461093a5780638f32d59b1461094f57610409565b8063480cd5781161031c57806361ec893d116102a957806361ec893d1461074f578063631203b01461076457806364cee2601461078457806366ca4a21146107a45780636bf96eda146107b95780636ef64338146107cc57806372423c17146107fd57806372fe25aa1461081d578063741bef1a14610832578063756b253e14610847578063794e57241461086757610409565b8063480cd578146106465780634870dd9a1461066657806349eefeee1461067b5780634e443d9e146106905780635733d58f146106bd5780635d6b480f146106d25780635d8c9609146106f25780635dba4c4a146107125780635e2084d01461072757806360ac128f1461073c57610409565b8063240926691161039a578063240926691461055557806328d28b5b1461056a5780632b11551a1461057f57806335a3f707146105945780633cc74225146105a957806343712f5a146105be57806343833a7f146105d3578063438d641a146105f3578063472b286f14610613578063477d66cf1461062657610409565b8063048c661d1461040e578063071a7541146104395780630b0765571461045b57806312610e921461047d57806315d549f11461049d5780631673c79a146104bd57806318f2817a146104eb5780631bf435551461050b5780631f68f20a1461052057806321e3780114610535575b600080fd5b34801561041a57600080fd5b50610423610c85565b604051610430919061575d565b60405180910390f35b34801561044557600080fd5b5061044e610c94565b6040516104309190615e2c565b34801561046757600080fd5b5061047b610476366004615308565b610c99565b005b34801561048957600080fd5b5061044e6104983660046154a9565b610cc1565b3480156104a957600080fd5b5061044e6104b8366004615308565b610d19565b3480156104c957600080fd5b506104dd6104d8366004615308565b610d3d565b604051610430929190615e4f565b3480156104f757600080fd5b5061044e610506366004615308565b610d56565b34801561051757600080fd5b5061044e610d69565b34801561052c57600080fd5b5061044e610d6f565b34801561054157600080fd5b5061044e610550366004615308565b610d75565b34801561056157600080fd5b5061044e610d9f565b34801561057657600080fd5b5061044e610db2565b34801561058b57600080fd5b5061044e610dc3565b3480156105a057600080fd5b50610423610dd5565b3480156105b557600080fd5b50610423610de4565b3480156105ca57600080fd5b5061044e610df3565b3480156105df57600080fd5b5061044e6105ee366004615308565b610df9565b3480156105ff57600080fd5b5061047b61060e3660046155b3565b610ec2565b61047b6106213660046155e3565b610eff565b34801561063257600080fd5b5061044e6106413660046155b3565b611328565b34801561065257600080fd5b5061044e610661366004615308565b61133b565b34801561067257600080fd5b5061044e611359565b34801561068757600080fd5b5061044e61135e565b34801561069c57600080fd5b506106b06106ab3660046155b3565b611364565b6040516104309190615830565b3480156106c957600080fd5b5061044e61136f565b3480156106de57600080fd5b5061047b6106ed3660046154a9565b61137b565b3480156106fe57600080fd5b5061044e61070d366004615308565b6113c7565b34801561071e57600080fd5b5061047b6113f5565b34801561073357600080fd5b5061044e611460565b61047b61074a366004615684565b611466565b34801561075b57600080fd5b5061044e611784565b34801561077057600080fd5b5061044e61077f3660046155b3565b611789565b34801561079057600080fd5b5061044e61079f366004615308565b611796565b3480156107b057600080fd5b5061044e6117b4565b61047b6107c73660046154d4565b6117c6565b3480156107d857600080fd5b506107ec6107e7366004615308565b611a9f565b604051610430959493929190615e78565b34801561080957600080fd5b5061044e6108183660046154a9565b611ad9565b34801561082957600080fd5b5061044e611b36565b34801561083e57600080fd5b50610423611b42565b34801561085357600080fd5b506104236108623660046155b3565b611b51565b34801561087357600080fd5b5061044e611b78565b34801561088857600080fd5b5061044e611b84565b34801561089d57600080fd5b5061044e611ca3565b3480156108b257600080fd5b5061047b6108c1366004615340565b611ca9565b3480156108d257600080fd5b50610423612039565b3480156108e757600080fd5b50610423612048565b3480156108fc57600080fd5b5061044e612057565b34801561091157600080fd5b5061047b610920366004615308565b61205d565b34801561093157600080fd5b5061044e61206e565b34801561094657600080fd5b5061042361213c565b34801561095b57600080fd5b506106b061214b565b34801561097057600080fd5b5061044e61215c565b34801561098557600080fd5b5061044e6109943660046154a9565b612162565b3480156109a557600080fd5b5061044e612195565b3480156109ba57600080fd5b506109c361219b565b604051610430919061585d565b61047b6109de36600461541f565b6121c3565b3480156109ef57600080fd5b5061042361222d565b348015610a0457600080fd5b5061044e610a13366004615308565b61223c565b348015610a2457600080fd5b50610423612263565b348015610a3957600080fd5b5061044e610a483660046155b3565b612272565b348015610a5957600080fd5b50610a6d610a68366004615308565b61227d565b6040516104309493929190615eb8565b348015610a8957600080fd5b5061044e6122e1565b348015610a9e57600080fd5b5061044e6122e7565b348015610ab357600080fd5b5061044e6122ed565b348015610ac857600080fd5b5061044e6122f4565b348015610add57600080fd5b5061044e612306565b348015610af257600080fd5b5061047b610b01366004615308565b612312565b348015610b1257600080fd5b5061047b610b213660046155b3565b612325565b348015610b3257600080fd5b5061044e610b413660046154a9565b612359565b348015610b5257600080fd5b5061044e612378565b348015610b6757600080fd5b5061044e610b763660046154a9565b61237e565b348015610b8757600080fd5b5061044e610b963660046155b3565b6123b4565b348015610ba757600080fd5b5061044e610bb6366004615308565b6123c7565b348015610bc757600080fd5b50610423610bd63660046155b3565b6123e2565b348015610be757600080fd5b506106b0610bf6366004615308565b61240c565b348015610c0757600080fd5b5061047b610c16366004615471565b612421565b348015610c2757600080fd5b506106b0610c36366004615308565b6124a5565b348015610c4757600080fd5b50610423612503565b348015610c5c57600080fd5b5061044e612512565b348015610c7157600080fd5b5061047b610c80366004615308565b61251f565b6008546001600160a01b031681565b600281565b610ca1612530565b600454600554610cbe916001600160a01b0390811691168361255c565b50565b6000610ccb612530565b6001600160a01b038316600090815260116020526040812054610cf4908463ffffffff61266e16565b6001600160a01b03851660009081526011602052604090208190559150505b92915050565b6000610d23612530565b610d2c826126b7565b6001600160801b031690505b919050565b6017602052600090815260409020805460019091015482565b6000610d60612530565b610d1382612751565b60035481565b600f5481565b6001600160a01b03811660009081526011602052604081206003015460ff166004811115610d1357fe5b6064670de0b6b3a76400005b0460050281565b6103e8670de0b6b3a7640000610dab565b6000610dd0600f54612804565b905090565b600b546001600160a01b031681565b6005546001600160a01b031681565b60165481565b6001600160a01b0381166000908152601760205260408120600101546016548290610e2a908363ffffffff61266e16565b9050801580610e63575060016001600160a01b03851660009081526011602052604090206003015460ff166004811115610e6057fe5b14155b15610e7357600092505050610d38565b6001600160a01b03841660009081526011602052604081206002015490610eb8670de0b6b3a7640000610eac848663ffffffff61283a16565b9063ffffffff61287416565b9695505050505050565b3360009081526001602052604090205460ff16610efa5760405162461bcd60e51b8152600401610ef19061592e565b60405180910390fd5b600355565b610f0761512b565b506040805160e0810182526004546001600160a01b03908116825260055481166020830152600b54811692820192909252600d5482166060820152600e5482166080820152600a54821660a082015260095490911660c0820152610f69615167565b610f72856128b3565b610f7a6128ee565b610f84848461299f565b60c08201819052610f9490612ab7565b610f9d8b612ae7565b610fac8260400151338d612b07565b610fb4611b84565b60e0820181905260408084015190516370a0823160e01b81526001600160a01b03909116906370a0823190610fed90339060040161575d565b60206040518083038186803b15801561100557600080fd5b505afa158015611019573d6000803e3d6000fd5b505050506040513d601f19601f8201168201806040525081019061103d91906155cb565b111561104557fe5b8a815260006110558b8385612ba3565b9050611066878b8b8b858789612cf4565b845260408401819052602084019190915260c083015160e084015161108c929190612e95565b5061109a8260400151612f42565b6060830181905260408301516110b1919088612f4f565b8251606080850151908401516040516364a197f360e01b81526001600160a01b03909316926364a197f3926110ea929091600401615771565b600060405180830381600087803b15801561110457600080fd5b505af1158015611118573d6000803e3d6000fd5b5050505082606001516001600160a01b0316631e3e2a1a83606001516040518263ffffffff1660e01b81526004016111509190615e2c565b600060405180830381600087803b15801561116a57600080fd5b505af115801561117e573d6000803e3d6000fd5b50505050606082015160408301516111959161266e565b8260800181815250507f43a3f4082a4dbc33d78e317d2497d3a730bc7fc3574159dcea1056e62e5d9ad88c8360200151846040015185606001516040516111df9493929190615eb8565b60405180910390a182604001516001600160a01b0316639dc29fac3384602001516040518363ffffffff1660e01b815260040161121d929190615771565b600060405180830381600087803b15801561123757600080fd5b505af115801561124b573d6000803e3d6000fd5b5050845160208501516040516305af902160e31b81526001600160a01b039092169350632d7c8108925061128191600401615e2c565b600060405180830381600087803b15801561129b57600080fd5b505af11580156112af573d6000803e3d6000fd5b5050845160808501516040516364a197f360e01b81526001600160a01b0390921693506364a197f392506112e891339190600401615771565b600060405180830381600087803b15801561130257600080fd5b505af1158015611316573d6000803e3d6000fd5b50505050505050505050505050505050565b6000610d136113356117b4565b83612f8f565b6001600160a01b031660009081526011602052604090206001015490565b60c881565b60185490565b6000610d1382612fad565b6714d1120d7b16000081565b611383612530565b80600481111561138f57fe5b6001600160a01b0383166000908152601160205260409020600301805460ff191660018360048111156113be57fe5b02179055505050565b6001600160a01b0381166000908152601760205260408120546015548290610e2a908363ffffffff61266e16565b6113fd612530565b6000611407612fca565b9050670de0b6b3a764000081111561141b57fe5b600f8190556040517fc454ee9b76c52f782a256af821b857ca6e125d1e3333bcede402fec2bed9600c90611450908390615e2c565b60405180910390a1610cbe61300e565b601a5481565b61146e61512b565b506040805160e0810182526004546001600160a01b03908116825260055481166020830152600092820183905260608201839052600e548116608083015260a0820183905260c08201929092526008549091166114c96151ac565b6114d16151dd565b6114db868661299f565b826000018181525050826001600160a01b031663dbd1e2666040518163ffffffff1660e01b815260040160206040518083038186803b15801561151d57600080fd5b505afa158015611531573d6000803e3d6000fd5b505050506040513d601f19601f8201168201806040525081019061155591906155cb565b6020830152815161156590612fad565b158015604084015261158c5761158584836000015184602001518a61306e565b90506115ac565b6115a984600001518560200151846000015185602001518b613423565b90505b60008160200151116115d05760405162461bcd60e51b8152600401610ef190615d9b565b608081015160a082015160405163335525ad60e01b81526001600160a01b0386169263335525ad9261160492600401615e4f565b600060405180830381600087803b15801561161e57600080fd5b505af1158015611632573d6000803e3d6000fd5b50505050611652846000015185602001518360c001518460e00151613561565b610100810151156116c9578351600a546101008301516040516364a197f360e01b81526001600160a01b03938416936364a197f39361169693911691600401615771565b600060405180830381600087803b1580156116b057600080fd5b505af11580156116c4573d6000803e3d6000fd5b505050505b6116db846000015182604001516137c4565b60208101516060830152610100810151604082015182516117139291611707919063ffffffff61266e16565b9063ffffffff61266e16565b608083018190526060808401516040808501519285015190517f4152c73dd2614c4f9fc35e8c9cf16013cd588c75b49a4c1673ecffdcbcda94039461175b9490929091615eb8565b60405180910390a161177b84600001513383606001518460400151613925565b50505050505050565b603c81565b6000610d13611335612512565b6001600160a01b031660009081526011602052604090206002015490565b6000610dd06117c1612fca565b6139f8565b82516117e45760405162461bcd60e51b8152600401610ef190615b9b565b6004546005546008546001600160a01b039283169291821691166118066151ac565b61180e6151dd565b611818878761299f565b826000018181525050826001600160a01b031663dbd1e2666040518163ffffffff1660e01b815260040160206040518083038186803b15801561185a57600080fd5b505afa15801561186e573d6000803e3d6000fd5b505050506040513d601f19601f8201168201806040525081019061189291906155cb565b602083015281516118a290612fad565b15801560408401526118ca576118c38585846000015185602001518c613a1f565b90506118e2565b6118df8585846000015185602001518c613c4f565b90505b60008160200151116119065760405162461bcd60e51b8152600401610ef190615d9b565b608081015160a082015160405163335525ad60e01b81526001600160a01b0386169263335525ad9261193a92600401615e4f565b600060405180830381600087803b15801561195457600080fd5b505af1158015611968573d6000803e3d6000fd5b5050505061198085858360c001518460e00151613561565b610100810151156119f757600a546101008201516040516364a197f360e01b81526001600160a01b03888116936364a197f3936119c4939290911691600401615771565b600060405180830381600087803b1580156119de57600080fd5b505af11580156119f2573d6000803e3d6000fd5b505050505b611a058582604001516137c4565b6020810151606083015261010081015160408201518251611a319291611707919063ffffffff61266e16565b608083018190526060808401516040808501519285015190517f4152c73dd2614c4f9fc35e8c9cf16013cd588c75b49a4c1673ecffdcbcda940394611a799490929091615eb8565b60405180910390a1611a95853383606001518460400151613925565b5050505050505050565b60116020526000908152604090208054600182015460028301546003909301549192909160ff81169061010090046001600160801b031685565b6000611ae3612530565b6001600160a01b038316600090815260116020526040812060010154611b0f908463ffffffff613d1716565b6001600160a01b038516600090815260116020526040902060010181905591505092915050565b670de0b6b3a764000081565b6006546001600160a01b031681565b60188181548110611b5e57fe5b6000918252602090912001546001600160a01b0316905081565b670f43fc2c04ee000081565b600480546040805163512a9ebb60e01b8152905160009384936001600160a01b03169263512a9ebb9281830192602092829003018186803b158015611bc857600080fd5b505afa158015611bdc573d6000803e3d6000fd5b505050506040513d601f19601f82011682018060405250810190611c0091906155cb565b90506000600560009054906101000a90046001600160a01b03166001600160a01b031663512a9ebb6040518163ffffffff1660e01b815260040160206040518083038186803b158015611c5257600080fd5b505afa158015611c66573d6000803e3d6000fd5b505050506040513d601f19601f82011682018060405250810190611c8a91906155cb565b9050611c9c828263ffffffff613d1716565b9250505090565b60195481565b611cb161214b565b611ccd5760405162461bcd60e51b8152600401610ef190615a96565b611cd68b613d3c565b611cdf8a613d3c565b611ce889613d3c565b611cf188613d3c565b611cfa87613d3c565b611d0386613d3c565b611d0c85613d3c565b611d1584613d3c565b611d1e83613d3c565b611d2782613d3c565b611d3081613d3c565b600780546001600160a01b03199081166001600160a01b038e8116919091179092556004805482168d84161790556005805482168c84161790556008805482168b84161790556009805482168a8416179055600a80548216898416179055600680548216888416179055600b80548216878416179055600e80548216868416179055600c80548216858416179055600d80549091169183169190911790556040517f3ca631ffcd2a9b5d9ae18543fc82f58eb4ca33af9e6ab01b7a8e95331e6ed98590611dfe908d9061575d565b60405180910390a17f78f058b189175430c48dc02699e3a0031ea4ff781536dc2fab847de4babdd8828a604051611e35919061575d565b60405180910390a17f5ee0cae2f063ed938bb55046f6a932fb6ae792bf43624806bb90abe68a50be9b89604051611e6c919061575d565b60405180910390a17f82966d27eea39b038ee0fa30cd16532bb24f6e65d31cb58fb227aa5766cdcc7f88604051611ea3919061575d565b60405180910390a17fcfb07d791fcafc032b35837b50eb84b74df518cf4cc287e8084f47630fa70fa087604051611eda919061575d565b60405180910390a17fe67f36a6e961157d6eff83b91f3af5a62131ceb6f04954ef74f51c1c05e7f88d86604051611f11919061575d565b60405180910390a17f8c537274438aa850a330284665d81a85dd38267d09e4050d416bfc94142db26485604051611f48919061575d565b60405180910390a17fbce04ccd812fbb02ec2145498f813470d7b7587b19477428388fe8201a15213184604051611f7f919061575d565b60405180910390a17f65f4cf077bc01e4742eb5ad98326f6e95b63548ea24b17f8d5e823111fe7880083604051611fb6919061575d565b60405180910390a17ff55325269d355f8306353e57757c17459a2218cc11a6e53d0f6ee0c8c16a5e2482604051611fed919061575d565b60405180910390a17f468634f5d5d4ec87457506a98d964db31fea0d63fc80a14ba75267970253ac1481604051612024919061575d565b60405180910390a15050505050505050505050565b600c546001600160a01b031681565b6004546001600160a01b031681565b60135481565b612065612530565b610cbe81613d85565b6004805460408051630a7b61df60e11b8152905160009384936001600160a01b0316926314f6c3be9281830192602092829003018186803b1580156120b257600080fd5b505afa1580156120c6573d6000803e3d6000fd5b505050506040513d601f19601f820116820180604052508101906120ea91906155cb565b90506000600560009054906101000a90046001600160a01b03166001600160a01b03166314f6c3be6040518163ffffffff1660e01b815260040160206040518083038186803b158015611c5257600080fd5b6000546001600160a01b031690565b6000546001600160a01b0316331490565b60145481565b600061216c612530565b6001600160a01b038316600090815260116020526040812054610cf4908463ffffffff613d1716565b60155481565b6040518060400160405280600c81526020016b2a3937bb32a6b0b730b3b2b960a11b81525081565b6121cc83613de2565b6040805160018082528183019092526060916020808301908036833701905050905083816000815181106121fc57fe5b60200260200101906001600160a01b031690816001600160a01b0316815250506122278184846117c6565b50505050565b600e546001600160a01b031681565b600080600061224a84613e2b565b91509150600061225a8383613eb1565b95945050505050565b6007546001600160a01b031681565b6000610d1382613ee6565b6001600160a01b038116600090815260116020526040812080546001909101549091806122a985610df9565b91506122b4856113c7565b90506122c6848363ffffffff613d1716565b93506122d8838263ffffffff613d1716565b92509193509193565b60125481565b60025481565b6212750081565b6000610dd0612301612fca565b612804565b670ddd4b8c6c7d70d881565b61231a612530565b610cbe816002613f0a565b3360009081526001602052604090205460ff166123545760405162461bcd60e51b8152600401610ef19061592e565b600255565b600080600061236785613e2b565b915091506000610eb8838387614016565b60105481565b6000612388612530565b6001600160a01b038316600090815260116020526040812060010154611b0f908463ffffffff61266e16565b6000610d136123c16122f4565b83614046565b6001600160a01b031660009081526011602052604090205490565b6000601882815481106123f157fe5b6000918252602090912001546001600160a01b031692915050565b60016020526000908152604090205460ff1681565b61242961214b565b6124455760405162461bcd60e51b8152600401610ef190615a96565b6001600160a01b03821660008181526001602052604090819020805460ff1916841515179055517f4c97694570a07277810af7e5669ffd5f6a2d6b74b6e9a274b8b870fd5114cf8790612499908490615830565b60405180910390a25050565b600060016001600160a01b03831660009081526011602052604090206003015460ff1660048111156124d357fe5b146124e057506000610d38565b506015546001600160a01b03821660009081526017602052604090205410919050565b600d546001600160a01b031681565b6000610dd0600f546139f8565b612527612530565b610cbe81614086565b6007546001600160a01b0316331461255a5760405162461bcd60e51b8152600401610ef190615b40565b565b612565816124a5565b156126695761257381613de2565b600061257e826113c7565b9050600061258b83610df9565b6001600160a01b0384166000908152601160205260409020600101549091506125ba908363ffffffff613d1716565b6001600160a01b03841660009081526011602052604090206001810191909155546125eb908263ffffffff613d1716565b6001600160a01b03841660009081526011602052604090205561260d83613d85565b612619858583856140d6565b6001600160a01b038316600081815260116020526040808220805460018201546002909201549251600080516020615f3d8339815191529461265e949293929161583b565b60405180910390a250505b505050565b60006126b083836040518060400160405280601e81526020017f536166654d6174683a207375627472616374696f6e206f766572666c6f7700008152506141be565b9392505050565b601880546001808201835560008381527fb13d2d76d1f4b7be834882e410b3e3a8afaf69f83600ae24db354391d2378d2e90920180546001600160a01b0319166001600160a01b03861617905591549091612712919061266e565b6001600160a01b039290921660009081526011602052604090206003018054610100600160881b0319166101006001600160801b038516021790555090565b6001600160a01b0381166000908152601160205260408120600101548190612778906141ea565b6001600160a01b0384166000908152601160205260409020600201805490829055601254919250906127c29083906127b6908463ffffffff61266e16565b9063ffffffff613d1716565b60128190556040517f6bac5e0eb3c44eb03a60ab11ec3a2c051771616aecadbcfff2630aabae520382916127f591615e2c565b60405180910390a15092915050565b6000610d1361282c836103e8670de0b6b3a76400005b04600502613d1790919063ffffffff16565b670de0b6b3a7640000614226565b60008261284957506000610d13565b8282028284828161285657fe5b04146126b05760405162461bcd60e51b8152600401610ef190615a55565b60006126b083836040518060400160405280601a815260200179536166654d6174683a206469766973696f6e206279207a65726f60301b81525061423c565b6611c37937e0800081108015906128d25750670de0b6b3a76400008111155b610cbe5760405162461bcd60e51b8152600401610ef190615cca565b600c5460408051631e425be160e11b815290516000926001600160a01b031691633c84b7c2916004808301926020929190829003018186803b15801561293357600080fd5b505afa158015612947573d6000803e3d6000fd5b505050506040513d601f19601f8201168201806040525081019061296b91906155cb565b9050612980816212750063ffffffff613d1716565b421015610cbe5760405162461bcd60e51b8152600401610ef1906159f7565b6006546040516341e7dc0b60e01b815260009182916001600160a01b03909116906341e7dc0b906129d6908790879060040161581c565b60206040518083038186803b1580156129ee57600080fd5b505afa158015612a02573d6000803e3d6000fd5b505050506040513d601f19601f82011682018060405250810190612a2691906155cb565b600654604051630ab04c1d60e11b81529192506001600160a01b031690631560983a908390612a5d90829089908990600401615e35565b6020604051808303818588803b158015612a7657600080fd5b505af1158015612a8a573d6000803e3d6000fd5b50505050506040513d601f19601f82011682018060405250810190612aaf91906155cb565b949350505050565b670f43fc2c04ee0000612ac982613ee6565b1015610cbe5760405162461bcd60e51b8152600401610ef190615d1a565b60008111610cbe5760405162461bcd60e51b8152600401610ef190615bf1565b6040516370a0823160e01b815281906001600160a01b038516906370a0823190612b3590869060040161575d565b60206040518083038186803b158015612b4d57600080fd5b505afa158015612b61573d6000803e3d6000fd5b505050506040513d601f19601f82011682018060405250810190612b8591906155cb565b10156126695760405162461bcd60e51b8152600401610ef190615acb565b6000612bb88260800151858560c00151614273565b15612bc45750826126b0565b81608001516001600160a01b0316634d6228316040518163ffffffff1660e01b815260040160206040518083038186803b158015612c0157600080fd5b505afa158015612c15573d6000803e3d6000fd5b505050506040513d601f19601f82011682018060405250810190612c399190615324565b90505b6001600160a01b03811615801590612c685750670f43fc2c04ee0000612c66828560c00151612359565b105b156126b05781608001516001600160a01b031663b72703ac826040518263ffffffff1660e01b8152600401612c9d919061575d565b60206040518083038186803b158015612cb557600080fd5b505afa158015612cc9573d6000803e3d6000fd5b505050506040513d601f19601f82011682018060405250810190612ced9190615324565b9050612c3c565b6000808089612d035760001999505b6001600160a01b03861615801590612d1b5750845115155b8015612d27575060008a115b15612e55576080840151604051632dc9c0eb60e21b8152600019909b019a6000916001600160a01b03169063b72703ac90612d66908a9060040161575d565b60206040518083038186803b158015612d7e57600080fd5b505afa158015612d92573d6000803e3d6000fd5b505050506040513d601f19601f82011682018060405250810190612db69190615324565b9050612dcb856000015186602001518961255c565b612dd3615229565b612dea868989600001518a60c001518f8f8f6143db565b9050806040015115612dfd575050612e55565b80516020880151612e139163ffffffff613d1716565b6020808901919091528101516040880151612e339163ffffffff613d1716565b604088015280518751612e4b9163ffffffff61266e16565b8752509550612d03565b6000856040015111612e795760405162461bcd60e51b8152600401610ef1906158b0565b5050506020820151604083015183519750975097945050505050565b600080612ea0612fca565b90506000612eb884610eac888863ffffffff61283a16565b90506000612edd612ed083600263ffffffff61287416565b849063ffffffff613d1716565b9050612ef181670de0b6b3a7640000614226565b905060008111612efd57fe5b600f8190556040517fc454ee9b76c52f782a256af821b857ca6e125d1e3333bcede402fec2bed9600c90612f32908390615e2c565b60405180910390a1610eb861300e565b6000610d136123c1610dc3565b6000612f6d83610eac86670de0b6b3a764000063ffffffff61283a16565b9050818111156122275760405162461bcd60e51b8152600401610ef190615d64565b60006126b0670de0b6b3a7640000610eac858563ffffffff61283a16565b600080612fb983613ee6565b6714d1120d7b160000119392505050565b600080612fd5614633565b90506000612feb670ddd4b8c6c7d70d88361464f565b9050611c9c670de0b6b3a7640000610eac83600f5461283a90919063ffffffff16565b60006130256010544261266e90919063ffffffff16565b9050603c8110610cbe574260108190556040517f860f8d2f0c74dd487e89e2883e3b25b8159ce1e1b3433a291cba7b82c508f3bc9161306391615e2c565b60405180910390a150565b6130766151dd565b61307e61524c565b6130866151dd565b84825260006080830152613098611b84565b60a08301526130a561206e565b8260c001818152505086608001516001600160a01b0316634d6228316040518163ffffffff1660e01b815260040160206040518083038186803b1580156130eb57600080fd5b505afa1580156130ff573d6000803e3d6000fd5b505050506040513d601f19601f820116820180604052508101906131239190615324565b82606001906001600160a01b031690816001600160a01b031681525050600087608001516001600160a01b0316631e2231436040518163ffffffff1660e01b815260040160206040518083038186803b15801561317f57600080fd5b505afa158015613193573d6000803e3d6000fd5b505050506040513d601f19601f820116820180604052508101906131b79190615324565b6000602085015290505b8483602001511080156131ea5750806001600160a01b031683606001516001600160a01b031614155b156134185760808801516060840151604051632dc9c0eb60e21b81526000926001600160a01b03169163b72703ac91613226919060040161575d565b60206040518083038186803b15801561323e57600080fd5b505afa158015613252573d6000803e3d6000fd5b505050506040513d601f19601f820116820180604052508101906132769190615324565b9050613286846060015189612359565b6040850152608084015161338a57670f43fc2c04ee00008460400151101580156132af57508351155b156132ba5750613418565b60006132cf8560c001518660a001518b614016565b8a5160208c01516060880151604089015189519495506132f094868f6146fa565b6080810151865191955061330a919063ffffffff61266e16565b8552608084015160a08601516133259163ffffffff61266e16565b8560a001818152505061335a84610100015161170786604001516117078860a001518a60c0015161266e90919063ffffffff16565b60c086015261336986856149ce565b955061337e8560c001518660a001518b614ae5565b156080860152506133fa565b836080015180156133a65750670f43fc2c04ee00008460400151105b156133f4576133c789600001518a6020015186606001518760000151614b06565b608081015185519194506133e1919063ffffffff61266e16565b84526133ed85846149ce565b94506133fa565b50613418565b6001600160a01b0316606084015260208301805160010190526131c1565b505050949350505050565b61342b6151dd565b61343361524c565b61343b6151dd565b600e54858352600060208401526001600160a01b03165b848360200151101561355557806001600160a01b0316634d6228316040518163ffffffff1660e01b815260040160206040518083038186803b15801561349757600080fd5b505afa1580156134ab573d6000803e3d6000fd5b505050506040513d601f19601f820116820180604052508101906134cf9190615324565b6001600160a01b0316606084018190526134e99088612359565b60408401819052670f43fc2c04ee0000111561354057613513898985606001518660000151614b06565b6080810151845191935061352d919063ffffffff61266e16565b835261353984836149ce565b9350613545565b613555565b6020830180516001019052613452565b50505095945050505050565b8161356b57612227565b60195460009061358d906127b684670de0b6b3a764000063ffffffff61283a16565b905060006135b2601a546127b6670de0b6b3a76400008761283a90919063ffffffff16565b905060006135cb6012548461287490919063ffffffff16565b905060006135e46012548461287490919063ffffffff16565b905061360b6135fe6012548461283a90919063ffffffff16565b859063ffffffff61266e16565b6019556012546136339061362690839063ffffffff61283a16565b849063ffffffff61266e16565b601a55601554613649908363ffffffff613d1716565b60155560165461365f908263ffffffff613d1716565b60168190556015546040517f9f8bc8ab0daf5bceef75ecfd2085d1fcc6548c657ea970d9a23a60610d0737e3926136969291615e4f565b60405180910390a16040516305af902160e31b81526001600160a01b03891690632d7c8108906136ca908990600401615e2c565b600060405180830381600087803b1580156136e457600080fd5b505af11580156136f8573d6000803e3d6000fd5b5050604051636b05e97760e01b81526001600160a01b038a169250636b05e9779150613728908990600401615e2c565b600060405180830381600087803b15801561374257600080fd5b505af1158015613756573d6000803e3d6000fd5b50506040516364a197f360e01b81526001600160a01b038b1692506364a197f39150613788908a908990600401615771565b600060405180830381600087803b1580156137a257600080fd5b505af11580156137b6573d6000803e3d6000fd5b505050505050505050505050565b6012546013819055506000826001600160a01b03166314f6c3be6040518163ffffffff1660e01b815260040160206040518083038186803b15801561380857600080fd5b505afa15801561381c573d6000803e3d6000fd5b505050506040513d601f19601f8201168201806040525081019061384091906155cb565b90506000600560009054906101000a90046001600160a01b03166001600160a01b03166314f6c3be6040518163ffffffff1660e01b815260040160206040518083038186803b15801561389257600080fd5b505afa1580156138a6573d6000803e3d6000fd5b505050506040513d601f19601f820116820180604052508101906138ca91906155cb565b90506138e0816127b6848663ffffffff61266e16565b60148190556013546040517f51bf4c63ec3cba9d03d43238abbdd979dd91bd16d9895c74ceea9118c7baaf60926139179291615e4f565b60405180910390a150505050565b811561399657600b54600954604051631062c15f60e11b81526001600160a01b03928316926320c582be92613963929116908790879060040161578a565b600060405180830381600087803b15801561397d57600080fd5b505af1158015613991573d6000803e3d6000fd5b505050505b8015612227576040516364a197f360e01b81526001600160a01b038516906364a197f3906139ca9086908590600401615771565b600060405180830381600087803b1580156139e457600080fd5b505af1158015611a95573d6000803e3d6000fd5b6000610d13613a12836103e8670de0b6b3a764000061281a565b66b1a2bc2ec50000614226565b613a276151dd565b613a2f61524c565b613a376151dd565b84825260006080830152613a49611b84565b60a0830152613a5661206e565b60c0830152600060208301525b835182602001511015613c445783826020015181518110613a8057fe5b6020908102919091018101516001600160a01b03166060840181905260009081526011909152604090206003015460019060ff166004811115613abf57fe5b14613ac957613c34565b613ad7826060015187612359565b60408301526080820151613bd657670f43fc2c04ee0000826040015110158015613b0057508151155b15613b0a57613c34565b6000613b1f8360c001518460a0015189614016565b9050613b3c8989856060015186604001518760000151868d6146fa565b60808101518451919350613b56919063ffffffff61266e16565b8352608082015160a0840151613b719163ffffffff61266e16565b8360a0018181525050613ba682610100015161170784604001516117078660a001518860c0015161266e90919063ffffffff16565b60c0840152613bb584836149ce565b9350613bca8360c001518460a0015189614ae5565b15608084015250613c34565b81608001518015613bf25750670f43fc2c04ee00008260400151105b15613c3457613c0b888884606001518560000151614b06565b60808101518351919250613c25919063ffffffff61266e16565b8252613c3183826149ce565b92505b6020820180516001019052613a63565b505095945050505050565b613c576151dd565b613c5f61524c565b613c676151dd565b848252600060208301525b835182602001511015613c445783826020015181518110613c8f57fe5b60209081029190910101516001600160a01b031660608301819052613cb49087612359565b60408301819052670f43fc2c04ee00001115613d0757613cde888884606001518560000151614b06565b60808101518351919250613cf8919063ffffffff61266e16565b8252613d0483826149ce565b92505b6020820180516001019052613c72565b6000828201838110156126b05760405162461bcd60e51b8152600401610ef1906158f9565b6001600160a01b038116613d625760405162461bcd60e51b8152600401610ef190615976565b803b80613d815760405162461bcd60e51b8152600401610ef190615c3f565b5050565b601580546001600160a01b038316600090815260176020526040908190209182556016546001909201829055915491517fc3d426bcfc672bd74f6fae61c225e06f556f80dad48af8a4631b295030a7ad3d926130639285926157fb565b60016001600160a01b03821660009081526011602052604090206003015460ff166004811115613e0e57fe5b14610cbe5760405162461bcd60e51b8152600401610ef190615ddd565b6000806000613e39846113c7565b90506000613e4685610df9565b6001600160a01b03861660009081526011602052604081206001015491925090613e76908463ffffffff613d1716565b6001600160a01b03871660009081526011602052604081205491925090613ea3908463ffffffff613d1716565b919550909350505050915091565b60008115613edd57613ed682610eac8568056bc75e2d6310000063ffffffff61283a16565b9050610d13565b50600019610d13565b600080613ef161206e565b90506000613efd611b84565b9050612aaf828286614016565b6000816004811115613f1857fe5b14158015613f3257506001816004811115613f2f57fe5b14155b613f3857fe5b601854613f4481614c31565b6001600160a01b0383166000908152601160205260409020600301805483919060ff19166001836004811115613f7657fe5b02179055506001600160a01b0383166000908152601160209081526040808320600180820185905590849055601790925282208281550155613fb88382614cd7565b600e54604051631484968760e11b81526001600160a01b03909116906329092d0e90613fe890869060040161575d565b600060405180830381600087803b15801561400257600080fd5b505af115801561177b573d6000803e3d6000fd5b6000821561403d57600061403484610eac878663ffffffff61283a16565b91506126b09050565b506000196126b0565b600080614065670de0b6b3a7640000610eac868663ffffffff61283a16565b90508281106126b05760405162461bcd60e51b8152600401610ef190615c74565b6001600160a01b0381166000908152601160205260409020600201546012546140b5908263ffffffff61266e16565b601255506001600160a01b0316600090815260116020526040812060020155565b6040516305af902160e31b81526001600160a01b03841690632d7c810890614102908590600401615e2c565b600060405180830381600087803b15801561411c57600080fd5b505af1158015614130573d6000803e3d6000fd5b5050604051636b05e97760e01b81526001600160a01b0387169250636b05e9779150614160908590600401615e2c565b600060405180830381600087803b15801561417a57600080fd5b505af115801561418e573d6000803e3d6000fd5b505060405163be41205f60e01b81526001600160a01b038616925063be41205f91506139ca908490600401615e2c565b600081848411156141e25760405162461bcd60e51b8152600401610ef1919061585d565b505050900390565b600080601454600014156141ff575081610d13565b60006013541161420b57fe5b6126b0601454610eac6013548661283a90919063ffffffff16565b600081831061423557816126b0565b5090919050565b6000818361425d5760405162461bcd60e51b8152600401610ef1919061585d565b50600083858161426957fe5b0495945050505050565b60006001600160a01b03831615806143045750604051630bb7c8fd60e31b81526001600160a01b03851690635dbe47e8906142b290869060040161575d565b60206040518083038186803b1580156142ca57600080fd5b505afa1580156142de573d6000803e3d6000fd5b505050506040513d601f19601f820116820180604052508101906143029190615597565b155b8061431f5750670f43fc2c04ee000061431d8484612359565b105b1561432c575060006126b0565b60405163765e015960e01b81526000906001600160a01b0386169063765e01599061435b90879060040161575d565b60206040518083038186803b15801561437357600080fd5b505afa158015614387573d6000803e3d6000fd5b505050506040513d601f19601f820116820180604052508101906143ab9190615324565b90506001600160a01b038116158061225a5750670f43fc2c04ee00006143d18285612359565b1095945050505050565b6143e3615229565b6002546001600160a01b0388166000908152601160205260409020546144199188916144149163ffffffff61266e16565b614226565b80825261443a908690610eac90670de0b6b3a764000063ffffffff61283a16565b60208083019190915281516001600160a01b03891660009081526011909252604082205461446d9163ffffffff61266e16565b6020808401516001600160a01b038b1660009081526011909252604082206001015492935090916144a39163ffffffff61266e16565b905060025482141561450e576144b889614086565b6144c3896004613f0a565b6144d18a8a60025484614e78565b886001600160a01b0316600080516020615f3d83398151915260008060006003604051614501949392919061583b565b60405180910390a2614625565b600061451a8284613eb1565b90508481141580614534575060035461453284614fdb565b105b156145485750506001604083015250614628565b8a608001516001600160a01b0316632be212608b838a8a6040518563ffffffff1660e01b815260040161457e94939291906157d0565b600060405180830381600087803b15801561459857600080fd5b505af11580156145ac573d6000803e3d6000fd5b5050506001600160a01b038b166000908152601160205260409020848155600101839055506145da8a612751565b506001600160a01b038a1660008181526011602052604090819020600201549051600080516020615f3d8339815191529161461b918791879160039061583b565b60405180910390a2505b50505b979650505050505050565b6000610dd0603c610eac6010544261266e90919063ffffffff16565b6000631f54050082111561466557631f54050091505b816146795750670de0b6b3a7640000610d13565b670de0b6b3a764000083835b60018111156146f057600281066146ba576146a08283614ff2565b91506146b381600263ffffffff61287416565b90506146eb565b6146c48284614ff2565b92506146d08283614ff2565b91506146e86002610eac83600163ffffffff61266e16565b90505b614685565b610eb88284614ff2565b6147026151dd565b61470a615294565b60185460011061471a5750614628565b6147238761227d565b6040850152602084810191909152840181905290835261474290615025565b60408301819052600254606084015260208301516147659163ffffffff61266e16565b8152670de0b6b3a764000086116148305761478a8989836020015184604001516140d6565b61479387614086565b60006080830181905260a0830152815160c0830152805160e08301526147ba876003613f0a565b815160208301516040516001600160a01b038a1692600080516020615f1d833981519152926147eb92600290615e5d565b60405180910390a2866001600160a01b0316600080516020615f3d83398151915260008060006002604051614823949392919061583b565b60405180910390a26149c2565b670de0b6b3a76400008611801561484e5750670f43fc2c04ee000086105b1561489e576148678989836020015184604001516140d6565b61487087614086565b8151815161487f91908761502c565b60e086015260c085015260a084015260808301526147ba876003613f0a565b670f43fc2c04ee000086101580156148b557508386105b80156148c2575081518510155b156149b1576148db8989836020015184604001516140d6565b846148e257fe5b6148eb87614086565b6148fe8260000151836020015185615098565b915061490b876003613f0a565b6101008201511561498057600a54610100830151604051633f10abab60e01b81526001600160a01b0390921691633f10abab9161494d918b9190600401615771565b600060405180830381600087803b15801561496757600080fd5b505af115801561497b573d6000803e3d6000fd5b505050505b815160a08301516040516001600160a01b038a1692600080516020615f1d833981519152926147eb92600290615e5d565b6149b96151dd565b91506146289050565b50979650505050505050565b6149d66151dd565b604080830151908401516149ef9163ffffffff613d1716565b604082015260608083015190840151614a0d9163ffffffff613d1716565b606082015281516020840151614a289163ffffffff613d1716565b6020808301919091528201518351614a459163ffffffff613d1716565b815260808083015190840151614a609163ffffffff613d1716565b608082015260a08083015190840151614a7e9163ffffffff613d1716565b60a082015260c08083015190840151614a9c9163ffffffff613d1716565b60c082015260e08083015190840151614aba9163ffffffff613d1716565b60e08201526101008083015190840151614ad99163ffffffff613d1716565b61010082015292915050565b600080614af3858585614016565b6714d1120d7b1600001195945050505050565b614b0e6151dd565b614b16615294565b614b1f8461227d565b60408501908152602085810192835286019290925291845290519051614b499188918891906140d6565b614b5284614086565b614b5f8260200151615025565b6040830181905260025460608401526020830151600091614b86919063ffffffff61266e16565b9050614b978360000151828661502c565b60e087015260c086015260a08501526080840152614bb6856003613f0a565b825160208401516040516001600160a01b03881692600080516020615f1d83398151915292614be792600190615e5d565b60405180910390a2846001600160a01b0316600080516020615f3d83398151915260008060006001604051614c1f949392919061583b565b60405180910390a25050949350505050565b600181118015614cbb5750600e546040805163de8fa43160e01b815290516001926001600160a01b03169163de8fa431916004808301926020929190829003018186803b158015614c8157600080fd5b505afa158015614c95573d6000803e3d6000fd5b505050506040513d601f19601f82011682018060405250810190614cb991906155cb565b115b610cbe5760405162461bcd60e51b8152600401610ef1906159ad565b6001600160a01b03821660009081526011602052604081206003015460ff1690816004811115614d0357fe5b14158015614d1d57506001816004811115614d1a57fe5b14155b614d2357fe5b6001600160a01b03831660009081526011602052604081206003015461010090046001600160801b0316908390614d5b82600161266e565b905080836001600160801b03161115614d7057fe5b600060188281548110614d7f57fe5b600091825260209091200154601880546001600160a01b03909216925082916001600160801b038716908110614db157fe5b600091825260208083209190910180546001600160a01b0319166001600160a01b03948516179055918316815260119091526040908190206003018054610100600160881b0319166101006001600160801b03881602179055517f02b04ae5f7be9ca7c103293a2aa15f3c339d15d6eda53b721fef7b0e609c831a90614e3a90839087906157ae565b60405180910390a16018805480614e4d57fe5b600082815260209020810160001990810180546001600160a01b031916905501905550505050505050565b6040808501516009549151632770a7eb60e21b81526001600160a01b0391821692639dc29fac92614eb0929116908690600401615771565b600060405180830381600087803b158015614eca57600080fd5b505af1158015614ede573d6000803e3d6000fd5b505085516040516305af902160e31b81526001600160a01b039091169250632d7c81089150614f11908590600401615e2c565b600060405180830381600087803b158015614f2b57600080fd5b505af1158015614f3f573d6000803e3d6000fd5b505050508360a001516001600160a01b0316633f10abab84836040518363ffffffff1660e01b8152600401614f75929190615771565b600060405180830381600087803b158015614f8f57600080fd5b505af1158015614fa3573d6000803e3d6000fd5b5050855160a08701516040516364a197f360e01b81526001600160a01b0390921693506364a197f392506139ca918590600401615771565b6000610d136002548361266e90919063ffffffff16565b600080615005848463ffffffff61283a16565b9050612aaf670de0b6b3a7640000610eac836706f05b59d3b20000613d17565b60c8900490565b60008080808415615082576150418786614226565b935061505787610eac888763ffffffff61283a16565b9250615069878563ffffffff61266e16565b915061507b868463ffffffff61266e16565b905061508f565b5060009250829150859050845b93509350935093565b6150a06151dd565b8381526020810183905260006150c883610eac87670f43fc2c04ee000063ffffffff61283a16565b90506150d381615025565b604083018190526002546060840152608083018690526150fa90829063ffffffff61266e16565b60a083015261510f848263ffffffff61266e16565b61010083015250600060c0820181905260e08201529392505050565b6040805160e081018252600080825260208201819052918101829052606081018290526080810182905260a0810182905260c081019190915290565b60405180610100016040528060008152602001600081526020016000815260200160008152602001600081526020016000815260200160008152602001600081525090565b6040518060a00160405280600081526020016000815260200160001515815260200160008152602001600081525090565b6040518061012001604052806000815260200160008152602001600081526020016000815260200160008152602001600081526020016000815260200160008152602001600081525090565b604051806060016040528060008152602001600081526020016000151581525090565b6040518060e0016040528060008152602001600081526020016000815260200160006001600160a01b0316815260200160001515815260200160008152602001600081525090565b60405180606001604052806000815260200160008152602001600081525090565b8035610d1381615ef9565b60008083601f8401126152d1578081fd5b5081356001600160401b038111156152e7578182fd5b602083019150836020808302850101111561530157600080fd5b9250929050565b600060208284031215615319578081fd5b81356126b081615ef9565b600060208284031215615335578081fd5b81516126b081615ef9565b60008060008060008060008060008060006101608c8e031215615361578687fd5b8b3561536c81615ef9565b9a5060208c013561537c81615ef9565b995060408c013561538c81615ef9565b985060608c013561539c81615ef9565b975060808c01356153ac81615ef9565b965060a08c01356153bc81615ef9565b955060c08c01356153cc81615ef9565b945060e08c01356153dc81615ef9565b93506101008c01356153ed81615ef9565b92506153fd8d6101208e016152b5565b915061540d8d6101408e016152b5565b90509295989b509295989b9093969950565b600080600060408486031215615433578283fd5b833561543e81615ef9565b925060208401356001600160401b03811115615458578283fd5b615464868287016152c0565b9497909650939450505050565b60008060408385031215615483578182fd5b823561548e81615ef9565b9150602083013561549e81615f0e565b809150509250929050565b600080604083850312156154bb578182fd5b82356154c681615ef9565b946020939093013593505050565b6000806000604084860312156154e8578283fd5b83356001600160401b03808211156154fe578485fd5b81860187601f82011261550f578586fd5b803592508183111561551f578586fd5b602080840261552f828201615ed3565b8581528281019084840183860185018d1015615549578a8bfd5b8a95505b878610156155735761555f8d826152b5565b83526001959095019491840191840161554d565b50985050508701359250508082111561558a578384fd5b50615464868287016152c0565b6000602082840312156155a8578081fd5b81516126b081615f0e565b6000602082840312156155c4578081fd5b5035919050565b6000602082840312156155dc578081fd5b5051919050565b60008060008060008060008060006101008a8c031215615601578485fd5b8935985060208a013561561381615ef9565b975060408a013561562381615ef9565b965060608a013561563381615ef9565b955060808a0135945060a08a0135935060c08a0135925060e08a01356001600160401b03811115615662578283fd5b61566e8c828d016152c0565b8194508093505050509295985092959850929598565b600080600060408486031215615698578081fd5b8335925060208401356001600160401b03811115615458578182fd5b818352602080840193600091908185020181018584845b878110156157425782840389528135601e198836030181126156eb578687fd5b87018035906001600160401b03821115615703578788fd5b813603891315615711578788fd5b818652818782018888013750848101860187905298850198601f01601f1916909301840192908401906001016156cb565b5091979650505050505050565b6004811061575957fe5b9052565b6001600160a01b0391909116815260200190565b6001600160a01b03929092168252602082015260400190565b6001600160a01b039384168152919092166020820152604081019190915260600190565b6001600160a01b039290921682526001600160801b0316602082015260400190565b6001600160a01b03948516815260208101939093529083166040830152909116606082015260800190565b6001600160a01b039390931683526020830191909152604082015260600190565b600060208252612aaf6020830184866156b4565b901515815260200190565b84815260208101849052604081018390526080810161225a606083018461574f565b6000602080835283518082850152825b818110156158895785810183015185820160400152820161586d565b8181111561589a5783604083870101525b50601f01601f1916929092016040019392505050565b60208082526029908201527f54726f76654d616e616765723a20556e61626c6520746f2072656465656d20616040820152681b9e48185b5bdd5b9d60ba1b606082015260800190565b6020808252601b908201527a536166654d6174683a206164646974696f6e206f766572666c6f7760281b604082015260600190565b60208082526028908201527f436f6e74726f6c6c61626c653a2043616c6c6572206973206e6f74206120636f604082015267373a3937b63632b960c11b606082015260800190565b6020808252601e908201527f4163636f756e742063616e6e6f74206265207a65726f20616464726573730000604082015260600190565b6020808252602a908201527f54726f76654d616e616765723a204f6e6c79206f6e652074726f766520696e206040820152697468652073797374656d60b01b606082015260800190565b602080825260409082018190527f54726f76654d616e616765723a20526564656d7074696f6e7320617265206e6f908201527f7420616c6c6f77656420647572696e6720626f6f747374726170207068617365606082015260800190565b60208082526021908201527f536166654d6174683a206d756c7469706c69636174696f6e206f766572666c6f6040820152607760f81b606082015260800190565b6020808252818101527f4f776e61626c653a2063616c6c6572206973206e6f7420746865206f776e6572604082015260600190565b6020808252604f908201527f54726f76654d616e616765723a2052657175657374656420726564656d70746960408201527f6f6e20616d6f756e74206d757374206265203c3d20757365722773205a4b555360608201526e4420746f6b656e2062616c616e636560881b608082015260a00190565b6020808252603b908201527f54726f76654d616e616765723a2043616c6c6572206973206e6f74207468652060408201527a109bdc9c9bddd95c93dc195c985d1a5bdb9cc818dbdb9d1c9858dd602a1b606082015260800190565b60208082526036908201527f54726f76654d616e616765723a2043616c6c646174612061646472657373206160408201527572726179206d757374206e6f7420626520656d70747960501b606082015260800190565b6020808252602e908201527f54726f76654d616e616765723a20416d6f756e74206d7573742062652067726560408201526d61746572207468616e207a65726f60901b606082015260800190565b6020808252818101527f4163636f756e7420636f64652073697a652063616e6e6f74206265207a65726f604082015260600190565b60208082526036908201527f54726f76654d616e616765723a2046656520776f756c642065617420757020616040820152751b1b081c995d1d5c9b99590818dbdb1b185d195c985b60521b606082015260800190565b60208082526030908201527f4d6178206665652070657263656e74616765206d75737420626520626574776560408201526f656e20302e352520616e64203130302560801b606082015260800190565b6020808252602a908201527f54726f76654d616e616765723a2043616e6e6f742072656465656d207768656e604082015269102a21a9101e1026a1a960b11b606082015260800190565b6020808252601d908201527f4665652065786365656465642070726f7669646564206d6178696d756d000000604082015260600190565b60208082526022908201527f54726f76654d616e616765723a206e6f7468696e6720746f206c697175696461604082015261746560f01b606082015260800190565b6020808252602f908201527f54726f76654d616e616765723a2054726f766520646f6573206e6f742065786960408201526e1cdd081bdc881a5cc818db1bdcd959608a1b606082015260800190565b90815260200190565b60008482526040602083015261225a6040830184866156b4565b918252602082015260400190565b8381526020810183905260608101612aaf604083018461574f565b858152602081018590526040810184905260a0810160058410615e9757fe5b60608201939093526001600160801b03919091166080909101529392505050565b93845260208401929092526040830152606082015260800190565b6040518181016001600160401b0381118282101715615ef157600080fd5b604052919050565b6001600160a01b0381168114610cbe57600080fd5b8015158114610cbe57600080fdfeea67486ed7ebe3eea8ab3390efd4a3c8aae48be5bea27df104a8af786c408434c3770d654ed33aeea6bf11ac8ef05d02a6a04ed4686dd2f624d853bbec43cc8ba164736f6c634300060b000a",
  "devdoc": {
    "kind": "dev",
    "methods": {
      "isOwner()": {
        "details": "Returns true if the caller is the current owner."
      },
      "owner()": {
        "details": "Returns the address of the current owner."
      }
    },
    "version": 1
  },
  "userdoc": {
    "kind": "user",
    "methods": {},
    "version": 1
  },
  "storageLayout": {
    "storage": [
      {
        "astId": 4382,
        "contract": "contracts/TroveManager.sol:TroveManager",
        "label": "_owner",
        "offset": 0,
        "slot": "0",
        "type": "t_address"
      },
      {
        "astId": 3137,
        "contract": "contracts/TroveManager.sol:TroveManager",
        "label": "controllers",
        "offset": 0,
        "slot": "1",
        "type": "t_mapping(t_address,t_bool)"
      },
      {
        "astId": 3856,
        "contract": "contracts/TroveManager.sol:TroveManager",
        "label": "ZKUSD_GAS_COMPENSATION",
        "offset": 0,
        "slot": "2",
        "type": "t_uint256"
      },
      {
        "astId": 3859,
        "contract": "contracts/TroveManager.sol:TroveManager",
        "label": "MIN_NET_DEBT",
        "offset": 0,
        "slot": "3",
        "type": "t_uint256"
      },
      {
        "astId": 3872,
        "contract": "contracts/TroveManager.sol:TroveManager",
        "label": "activePool",
        "offset": 0,
        "slot": "4",
        "type": "t_contract(IActivePool)15165"
      },
      {
        "astId": 3874,
        "contract": "contracts/TroveManager.sol:TroveManager",
        "label": "defaultPool",
        "offset": 0,
        "slot": "5",
        "type": "t_contract(IDefaultPool)15481"
      },
      {
        "astId": 3877,
        "contract": "contracts/TroveManager.sol:TroveManager",
        "label": "priceFeed",
        "offset": 0,
        "slot": "6",
        "type": "t_contract(IPriceFeed)15606"
      },
      {
        "astId": 25735,
        "contract": "contracts/TroveManager.sol:TroveManager",
        "label": "borrowerOperationsAddress",
        "offset": 0,
        "slot": "7",
        "type": "t_address"
      },
      {
        "astId": 25738,
        "contract": "contracts/TroveManager.sol:TroveManager",
        "label": "stabilityPool",
        "offset": 0,
        "slot": "8",
        "type": "t_contract(IStabilityPool)16121"
      },
      {
        "astId": 25740,
        "contract": "contracts/TroveManager.sol:TroveManager",
        "label": "gasPoolAddress",
        "offset": 0,
        "slot": "9",
        "type": "t_address"
      },
      {
        "astId": 25742,
        "contract": "contracts/TroveManager.sol:TroveManager",
        "label": "collSurplusPool",
        "offset": 0,
        "slot": "10",
        "type": "t_contract(ICollSurplusPool)15424"
      },
      {
        "astId": 25745,
        "contract": "contracts/TroveManager.sol:TroveManager",
        "label": "zkusdToken",
        "offset": 0,
        "slot": "11",
        "type": "t_contract(IZKUSDToken)16792"
      },
      {
        "astId": 25748,
        "contract": "contracts/TroveManager.sol:TroveManager",
        "label": "zkToken",
        "offset": 0,
        "slot": "12",
        "type": "t_contract(IZKToken)16733"
      },
      {
        "astId": 25751,
        "contract": "contracts/TroveManager.sol:TroveManager",
        "label": "zktStaking",
        "offset": 0,
        "slot": "13",
        "type": "t_contract(IZKTStaking)16695"
      },
      {
        "astId": 25753,
        "contract": "contracts/TroveManager.sol:TroveManager",
        "label": "sortedTroves",
        "offset": 0,
        "slot": "14",
        "type": "t_contract(ISortedTroves)15885"
      },
      {
        "astId": 25783,
        "contract": "contracts/TroveManager.sol:TroveManager",
        "label": "baseRate",
        "offset": 0,
        "slot": "15",
        "type": "t_uint256"
      },
      {
        "astId": 25785,
        "contract": "contracts/TroveManager.sol:TroveManager",
        "label": "lastFeeOperationTime",
        "offset": 0,
        "slot": "16",
        "type": "t_uint256"
      },
      {
        "astId": 25806,
        "contract": "contracts/TroveManager.sol:TroveManager",
        "label": "Troves",
        "offset": 0,
        "slot": "17",
        "type": "t_mapping(t_address,t_struct(Trove)25802_storage)"
      },
      {
        "astId": 25808,
        "contract": "contracts/TroveManager.sol:TroveManager",
        "label": "totalStakes",
        "offset": 0,
        "slot": "18",
        "type": "t_uint256"
      },
      {
        "astId": 25810,
        "contract": "contracts/TroveManager.sol:TroveManager",
        "label": "totalStakesSnapshot",
        "offset": 0,
        "slot": "19",
        "type": "t_uint256"
      },
      {
        "astId": 25812,
        "contract": "contracts/TroveManager.sol:TroveManager",
        "label": "totalCollateralSnapshot",
        "offset": 0,
        "slot": "20",
        "type": "t_uint256"
      },
      {
        "astId": 25814,
        "contract": "contracts/TroveManager.sol:TroveManager",
        "label": "L_ETH",
        "offset": 0,
        "slot": "21",
        "type": "t_uint256"
      },
      {
        "astId": 25816,
        "contract": "contracts/TroveManager.sol:TroveManager",
        "label": "L_ZKUSDDebt",
        "offset": 0,
        "slot": "22",
        "type": "t_uint256"
      },
      {
        "astId": 25820,
        "contract": "contracts/TroveManager.sol:TroveManager",
        "label": "rewardSnapshots",
        "offset": 0,
        "slot": "23",
        "type": "t_mapping(t_address,t_struct(RewardSnapshot)25825_storage)"
      },
      {
        "astId": 25828,
        "contract": "contracts/TroveManager.sol:TroveManager",
        "label": "TroveOwners",
        "offset": 0,
        "slot": "24",
        "type": "t_array(t_address)dyn_storage"
      },
      {
        "astId": 25830,
        "contract": "contracts/TroveManager.sol:TroveManager",
        "label": "lastETHError_Redistribution",
        "offset": 0,
        "slot": "25",
        "type": "t_uint256"
      },
      {
        "astId": 25832,
        "contract": "contracts/TroveManager.sol:TroveManager",
        "label": "lastZKUSDDebtError_Redistribution",
        "offset": 0,
        "slot": "26",
        "type": "t_uint256"
      }
    ],
    "types": {
      "t_address": {
        "encoding": "inplace",
        "label": "address",
        "numberOfBytes": "20"
      },
      "t_array(t_address)dyn_storage": {
        "base": "t_address",
        "encoding": "dynamic_array",
        "label": "address[]",
        "numberOfBytes": "32"
      },
      "t_bool": {
        "encoding": "inplace",
        "label": "bool",
        "numberOfBytes": "1"
      },
      "t_contract(IActivePool)15165": {
        "encoding": "inplace",
        "label": "contract IActivePool",
        "numberOfBytes": "20"
      },
      "t_contract(ICollSurplusPool)15424": {
        "encoding": "inplace",
        "label": "contract ICollSurplusPool",
        "numberOfBytes": "20"
      },
      "t_contract(IDefaultPool)15481": {
        "encoding": "inplace",
        "label": "contract IDefaultPool",
        "numberOfBytes": "20"
      },
      "t_contract(IPriceFeed)15606": {
        "encoding": "inplace",
        "label": "contract IPriceFeed",
        "numberOfBytes": "20"
      },
      "t_contract(ISortedTroves)15885": {
        "encoding": "inplace",
        "label": "contract ISortedTroves",
        "numberOfBytes": "20"
      },
      "t_contract(IStabilityPool)16121": {
        "encoding": "inplace",
        "label": "contract IStabilityPool",
        "numberOfBytes": "20"
      },
      "t_contract(IZKTStaking)16695": {
        "encoding": "inplace",
        "label": "contract IZKTStaking",
        "numberOfBytes": "20"
      },
      "t_contract(IZKToken)16733": {
        "encoding": "inplace",
        "label": "contract IZKToken",
        "numberOfBytes": "20"
      },
      "t_contract(IZKUSDToken)16792": {
        "encoding": "inplace",
        "label": "contract IZKUSDToken",
        "numberOfBytes": "20"
      },
      "t_enum(Status)25791": {
        "encoding": "inplace",
        "label": "enum TroveManager.Status",
        "numberOfBytes": "1"
      },
      "t_mapping(t_address,t_bool)": {
        "encoding": "mapping",
        "key": "t_address",
        "label": "mapping(address => bool)",
        "numberOfBytes": "32",
        "value": "t_bool"
      },
      "t_mapping(t_address,t_struct(RewardSnapshot)25825_storage)": {
        "encoding": "mapping",
        "key": "t_address",
        "label": "mapping(address => struct TroveManager.RewardSnapshot)",
        "numberOfBytes": "32",
        "value": "t_struct(RewardSnapshot)25825_storage"
      },
      "t_mapping(t_address,t_struct(Trove)25802_storage)": {
        "encoding": "mapping",
        "key": "t_address",
        "label": "mapping(address => struct TroveManager.Trove)",
        "numberOfBytes": "32",
        "value": "t_struct(Trove)25802_storage"
      },
      "t_struct(RewardSnapshot)25825_storage": {
        "encoding": "inplace",
        "label": "struct TroveManager.RewardSnapshot",
        "members": [
          {
            "astId": 25822,
            "contract": "contracts/TroveManager.sol:TroveManager",
            "label": "ETH",
            "offset": 0,
            "slot": "0",
            "type": "t_uint256"
          },
          {
            "astId": 25824,
            "contract": "contracts/TroveManager.sol:TroveManager",
            "label": "ZKUSDDebt",
            "offset": 0,
            "slot": "1",
            "type": "t_uint256"
          }
        ],
        "numberOfBytes": "64"
      },
      "t_struct(Trove)25802_storage": {
        "encoding": "inplace",
        "label": "struct TroveManager.Trove",
        "members": [
          {
            "astId": 25793,
            "contract": "contracts/TroveManager.sol:TroveManager",
            "label": "debt",
            "offset": 0,
            "slot": "0",
            "type": "t_uint256"
          },
          {
            "astId": 25795,
            "contract": "contracts/TroveManager.sol:TroveManager",
            "label": "coll",
            "offset": 0,
            "slot": "1",
            "type": "t_uint256"
          },
          {
            "astId": 25797,
            "contract": "contracts/TroveManager.sol:TroveManager",
            "label": "stake",
            "offset": 0,
            "slot": "2",
            "type": "t_uint256"
          },
          {
            "astId": 25799,
            "contract": "contracts/TroveManager.sol:TroveManager",
            "label": "status",
            "offset": 0,
            "slot": "3",
            "type": "t_enum(Status)25791"
          },
          {
            "astId": 25801,
            "contract": "contracts/TroveManager.sol:TroveManager",
            "label": "arrayIndex",
            "offset": 1,
            "slot": "3",
            "type": "t_uint128"
          }
        ],
        "numberOfBytes": "128"
      },
      "t_uint128": {
        "encoding": "inplace",
        "label": "uint128",
        "numberOfBytes": "16"
      },
      "t_uint256": {
        "encoding": "inplace",
        "label": "uint256",
        "numberOfBytes": "32"
      }
    }
  }
}