{
  "address": "0x07194C90814A995Da7f381770B3E7da429a1a06b",
  "abi": [
    {
      "inputs": [
        {
          "internalType": "address",
          "name": "_communityIssuanceAddress",
          "type": "address"
        },
        {
          "internalType": "address",
          "name": "_zktStakingAddress",
          "type": "address"
        },
        {
          "internalType": "address",
          "name": "_lockupFactoryAddress",
          "type": "address"
        },
        {
          "internalType": "address",
          "name": "_bountyAddress",
          "type": "address"
        },
        {
          "internalType": "address",
          "name": "_lpRewardsAddress",
          "type": "address"
        },
        {
          "internalType": "address",
          "name": "_multisigAddress",
          "type": "address"
        }
      ],
      "stateMutability": "nonpayable",
      "type": "constructor"
    },
    {
      "anonymous": false,
      "inputs": [
        {
          "indexed": true,
          "internalType": "address",
          "name": "owner",
          "type": "address"
        },
        {
          "indexed": true,
          "internalType": "address",
          "name": "spender",
          "type": "address"
        },
        {
          "indexed": false,
          "internalType": "uint256",
          "name": "value",
          "type": "uint256"
        }
      ],
      "name": "Approval",
      "type": "event"
    },
    {
      "anonymous": false,
      "inputs": [
        {
          "indexed": false,
          "internalType": "address",
          "name": "_communityIssuanceAddress",
          "type": "address"
        }
      ],
      "name": "CommunityIssuanceAddressSet",
      "type": "event"
    },
    {
      "anonymous": false,
      "inputs": [
        {
          "indexed": false,
          "internalType": "address",
          "name": "_lockupContractFactoryAddress",
          "type": "address"
        }
      ],
      "name": "LockupContractFactoryAddressSet",
      "type": "event"
    },
    {
      "anonymous": false,
      "inputs": [
        {
          "indexed": true,
          "internalType": "address",
          "name": "from",
          "type": "address"
        },
        {
          "indexed": true,
          "internalType": "address",
          "name": "to",
          "type": "address"
        },
        {
          "indexed": false,
          "internalType": "uint256",
          "name": "value",
          "type": "uint256"
        }
      ],
      "name": "Transfer",
      "type": "event"
    },
    {
      "anonymous": false,
      "inputs": [
        {
          "indexed": false,
          "internalType": "address",
          "name": "_zktStakingAddress",
          "type": "address"
        }
      ],
      "name": "ZKTStakingAddressSet",
      "type": "event"
    },
    {
      "inputs": [],
      "name": "ONE_YEAR_IN_SECONDS",
      "outputs": [
        {
          "internalType": "uint256",
          "name": "",
          "type": "uint256"
        }
      ],
      "stateMutability": "view",
      "type": "function"
    },
    {
      "inputs": [
        {
          "internalType": "address",
          "name": "owner",
          "type": "address"
        },
        {
          "internalType": "address",
          "name": "spender",
          "type": "address"
        }
      ],
      "name": "allowance",
      "outputs": [
        {
          "internalType": "uint256",
          "name": "",
          "type": "uint256"
        }
      ],
      "stateMutability": "view",
      "type": "function"
    },
    {
      "inputs": [
        {
          "internalType": "address",
          "name": "spender",
          "type": "address"
        },
        {
          "internalType": "uint256",
          "name": "amount",
          "type": "uint256"
        }
      ],
      "name": "approve",
      "outputs": [
        {
          "internalType": "bool",
          "name": "",
          "type": "bool"
        }
      ],
      "stateMutability": "nonpayable",
      "type": "function"
    },
    {
      "inputs": [
        {
          "internalType": "address",
          "name": "account",
          "type": "address"
        }
      ],
      "name": "balanceOf",
      "outputs": [
        {
          "internalType": "uint256",
          "name": "",
          "type": "uint256"
        }
      ],
      "stateMutability": "view",
      "type": "function"
    },
    {
      "inputs": [],
      "name": "communityIssuanceAddress",
      "outputs": [
        {
          "internalType": "address",
          "name": "",
          "type": "address"
        }
      ],
      "stateMutability": "view",
      "type": "function"
    },
    {
      "inputs": [],
      "name": "decimals",
      "outputs": [
        {
          "internalType": "uint8",
          "name": "",
          "type": "uint8"
        }
      ],
      "stateMutability": "view",
      "type": "function"
    },
    {
      "inputs": [
        {
          "internalType": "address",
          "name": "spender",
          "type": "address"
        },
        {
          "internalType": "uint256",
          "name": "subtractedValue",
          "type": "uint256"
        }
      ],
      "name": "decreaseAllowance",
      "outputs": [
        {
          "internalType": "bool",
          "name": "",
          "type": "bool"
        }
      ],
      "stateMutability": "nonpayable",
      "type": "function"
    },
    {
      "inputs": [],
      "name": "domainSeparator",
      "outputs": [
        {
          "internalType": "bytes32",
          "name": "",
          "type": "bytes32"
        }
      ],
      "stateMutability": "view",
      "type": "function"
    },
    {
      "inputs": [],
      "name": "getDeploymentStartTime",
      "outputs": [
        {
          "internalType": "uint256",
          "name": "",
          "type": "uint256"
        }
      ],
      "stateMutability": "view",
      "type": "function"
    },
    {
      "inputs": [],
      "name": "getLpRewardsEntitlement",
      "outputs": [
        {
          "internalType": "uint256",
          "name": "",
          "type": "uint256"
        }
      ],
      "stateMutability": "view",
      "type": "function"
    },
    {
      "inputs": [
        {
          "internalType": "address",
          "name": "spender",
          "type": "address"
        },
        {
          "internalType": "uint256",
          "name": "addedValue",
          "type": "uint256"
        }
      ],
      "name": "increaseAllowance",
      "outputs": [
        {
          "internalType": "bool",
          "name": "",
          "type": "bool"
        }
      ],
      "stateMutability": "nonpayable",
      "type": "function"
    },
    {
      "inputs": [],
      "name": "lockupContractFactory",
      "outputs": [
        {
          "internalType": "contract ILockupContractFactory",
          "name": "",
          "type": "address"
        }
      ],
      "stateMutability": "view",
      "type": "function"
    },
    {
      "inputs": [],
      "name": "multisigAddress",
      "outputs": [
        {
          "internalType": "address",
          "name": "",
          "type": "address"
        }
      ],
      "stateMutability": "view",
      "type": "function"
    },
    {
      "inputs": [],
      "name": "name",
      "outputs": [
        {
          "internalType": "string",
          "name": "",
          "type": "string"
        }
      ],
      "stateMutability": "view",
      "type": "function"
    },
    {
      "inputs": [
        {
          "internalType": "address",
          "name": "owner",
          "type": "address"
        }
      ],
      "name": "nonces",
      "outputs": [
        {
          "internalType": "uint256",
          "name": "",
          "type": "uint256"
        }
      ],
      "stateMutability": "view",
      "type": "function"
    },
    {
      "inputs": [
        {
          "internalType": "address",
          "name": "owner",
          "type": "address"
        },
        {
          "internalType": "address",
          "name": "spender",
          "type": "address"
        },
        {
          "internalType": "uint256",
          "name": "amount",
          "type": "uint256"
        },
        {
          "internalType": "uint256",
          "name": "deadline",
          "type": "uint256"
        },
        {
          "internalType": "uint8",
          "name": "v",
          "type": "uint8"
        },
        {
          "internalType": "bytes32",
          "name": "r",
          "type": "bytes32"
        },
        {
          "internalType": "bytes32",
          "name": "s",
          "type": "bytes32"
        }
      ],
      "name": "permit",
      "outputs": [],
      "stateMutability": "nonpayable",
      "type": "function"
    },
    {
      "inputs": [],
      "name": "permitTypeHash",
      "outputs": [
        {
          "internalType": "bytes32",
          "name": "",
          "type": "bytes32"
        }
      ],
      "stateMutability": "view",
      "type": "function"
    },
    {
      "inputs": [
        {
          "internalType": "address",
          "name": "_sender",
          "type": "address"
        },
        {
          "internalType": "uint256",
          "name": "_amount",
          "type": "uint256"
        }
      ],
      "name": "sendToZKTStaking",
      "outputs": [],
      "stateMutability": "nonpayable",
      "type": "function"
    },
    {
      "inputs": [],
      "name": "symbol",
      "outputs": [
        {
          "internalType": "string",
          "name": "",
          "type": "string"
        }
      ],
      "stateMutability": "view",
      "type": "function"
    },
    {
      "inputs": [],
      "name": "totalSupply",
      "outputs": [
        {
          "internalType": "uint256",
          "name": "",
          "type": "uint256"
        }
      ],
      "stateMutability": "view",
      "type": "function"
    },
    {
      "inputs": [
        {
          "internalType": "address",
          "name": "recipient",
          "type": "address"
        },
        {
          "internalType": "uint256",
          "name": "amount",
          "type": "uint256"
        }
      ],
      "name": "transfer",
      "outputs": [
        {
          "internalType": "bool",
          "name": "",
          "type": "bool"
        }
      ],
      "stateMutability": "nonpayable",
      "type": "function"
    },
    {
      "inputs": [
        {
          "internalType": "address",
          "name": "sender",
          "type": "address"
        },
        {
          "internalType": "address",
          "name": "recipient",
          "type": "address"
        },
        {
          "internalType": "uint256",
          "name": "amount",
          "type": "uint256"
        }
      ],
      "name": "transferFrom",
      "outputs": [
        {
          "internalType": "bool",
          "name": "",
          "type": "bool"
        }
      ],
      "stateMutability": "nonpayable",
      "type": "function"
    },
    {
      "inputs": [],
      "name": "version",
      "outputs": [
        {
          "internalType": "string",
          "name": "",
          "type": "string"
        }
      ],
      "stateMutability": "view",
      "type": "function"
    },
    {
      "inputs": [],
      "name": "zktStakingAddress",
      "outputs": [
        {
          "internalType": "address",
          "name": "",
          "type": "address"
        }
      ],
      "stateMutability": "view",
      "type": "function"
    }
  ],
  "transactionHash": "0x966af50616c13c743c2407ac03b6b3da76da750043ffae39fe38d7b4e0254f2b",
  "args": [
    "0x70a9e42039B24062d0f31095a33a21d8c6414037",
    "0xc8FB3ee21e3d2812636771bacd7C2ce9a1176ca5",
    "0x7AB6481F0B203253Cd7D94b1231Cb1eED86F0674",
    "0x6418e761e4AA9e3267c9b638211e58101Eb06927",
    "0x4bebE336965d0fB4698f65124Dd3B20f8c083980",
    "0xDDE96A1A058e0216AE940Ac6BDd347F3548E0198"
  ],
  "numDeployments": 1,
  "solcInputHash": "ffe83ff5afde0d06d4b6b8e37e72100d",
  "bytecode": "0x6101c060405269d3c21bcecceda10000006004553480156200002057600080fd5b5060405162001d9038038062001d90833981810160405260c08110156200004657600080fd5b508051602082015160408301516060840151608085015160a09095015193949293919290916200007f856001600160e01b03620002bc16565b62000093846001600160e01b03620002bc16565b6001600160601b0319606082811b821661012052426101005287811b82166101405286811b82166101605285901b166101a05260408051808201825260038152621692d560ea1b602091820152815180830190925260018252603160f81b9101527f7dffafba3121190bb2e00518620aaf688ac6a2eb4c048cb615d4f9a55b971d8160c08190527fc89efdaa54c0f20c7adf612882df0950f5a951637e0307cdcb4c672f298b8bc660e0819052620001536001600160e01b036200037116565b60a0526200018c7f8b73c3c69bb8fe3d512ecc4cf759cc79239f7b179b0ffacaa9a75d522b39400f83836001600160e01b036200037516565b608081815250506000620001b26002600454620003d660201b62000ab51790919060201c565b9050620001c986826001600160e01b036200043d16565b600454600090620001e590602062000ab5620003d6821b17811c565b9050620001fc8a826001600160e01b036200043d16565b60006200023460036200022060048054620003d660201b62000ab51790919060201c565b6200053e60201b62000b151790919060201c565b61018081905290506200025187826001600160e01b036200043d16565b600062000293826200027f856200027f886200027f6064600454620003d660201b62000ab51790919060201c565b6200058860201b62000b541790919060201c565b9050620002aa87826001600160e01b036200043d16565b50505050505050505050505062000731565b6001600160a01b03811662000318576040805162461bcd60e51b815260206004820152601e60248201527f4163636f756e742063616e6e6f74206265207a65726f20616464726573730000604482015290519081900360640190fd5b803b806200036d576040805162461bcd60e51b815260206004820181905260248201527f4163636f756e7420636f64652073697a652063616e6e6f74206265207a65726f604482015290519081900360640190fd5b5050565b4690565b60008383836200038d6001600160e01b036200037116565b6040805160208082019690965280820194909452606084019290925260808301523060a0808401919091528151808403909101815260c090920190528051910120949350505050565b600082620003e75750600062000437565b82820282848281620003f557fe5b0414620004345760405162461bcd60e51b815260040180806020018281038252602181526020018062001d6f6021913960400191505060405180910390fd5b90505b92915050565b6001600160a01b03821662000499576040805162461bcd60e51b815260206004820152601f60248201527f45524332303a206d696e7420746f20746865207a65726f206164647265737300604482015290519081900360640190fd5b620004b581600254620005d260201b62000b961790919060201c565b6002556001600160a01b03821660009081526020818152604090912054620004e891839062000b96620005d2821b17901c565b6001600160a01b0383166000818152602081815260408083209490945583518581529351929391927fddf252ad1be2c89b69c2b068fc378daa952ba7f163c4a11628f55a4df523b3ef9281900390910190a35050565b60006200043483836040518060400160405280601a81526020017f536166654d6174683a206469766973696f6e206279207a65726f0000000000008152506200062d60201b60201c565b60006200043483836040518060400160405280601e81526020017f536166654d6174683a207375627472616374696f6e206f766572666c6f770000815250620006d460201b60201c565b60008282018381101562000434576040805162461bcd60e51b815260206004820152601b60248201527f536166654d6174683a206164646974696f6e206f766572666c6f770000000000604482015290519081900360640190fd5b60008183620006bd5760405162461bcd60e51b81526004018080602001828103825283818151815260200191508051906020019080838360005b838110156200068157818101518382015260200162000667565b50505050905090810190601f168015620006af5780820380516001836020036101000a031916815260200191505b509250505060405180910390fd5b506000838581620006ca57fe5b0495945050505050565b60008184841115620007295760405162461bcd60e51b81526020600482018181528351602484015283519092839260449091019190850190808383600083156200068157818101518382015260200162000667565b505050900390565b60805160a05160c05160e051610100516101205160601c6101405160601c6101605160601c610180516101a05160601c611598620007d760003980610645528061110052508061066952508061073252806109c25280610e6c52806111e65250806109495280610e2f5250806105d05280610d5f52806110da5250806105ac5280610bfb525080610a8a525080610a695250806109ef525080610a1f52506115986000f3fe608060405234801561001057600080fd5b50600436106101385760003560e01c8063811c5b4d116100b3578063811c5b4d1461031c57806395d89b411461013d578063974f559014610324578063a457c2d71461032c578063a9059cbb14610358578063b4bb222d14610384578063d505accf1461038c578063d874ea74146103df578063dd62ed3e146103e7578063e7c8fed414610415578063f00adbf61461041d578063f698da251461044957610138565b806306fdde031461013d578063095ea7b3146101ba57806310ce43bd146101fa57806318160ddd1461021457806323b872dd1461021c578063313ce5671461025257806339509351146102705780633c84b7c21461029c5780635462870d146102a457806354fd4d50146102c857806370a08231146102d05780637ecebe00146102f6575b600080fd5b610145610451565b6040805160208082528351818301528351919283929083019185019080838360005b8381101561017f578181015183820152602001610167565b50505050905090810190601f1680156101ac5780820380516001836020036101000a031916815260200191505b509250505060405180910390f35b6101e6600480360360408110156101d057600080fd5b506001600160a01b03813516906020013561046f565b604080519115158252519081900360200190f35b61020261049b565b60408051918252519081900360200190f35b6102026104bf565b6101e66004803603606081101561023257600080fd5b506001600160a01b038135811691602081013590911690604001356104c5565b61025a610553565b6040805160ff9092168252519081900360200190f35b6101e66004803603604081101561028657600080fd5b506001600160a01b038135169060200135610558565b6102026105aa565b6102ac6105ce565b604080516001600160a01b039092168252519081900360200190f35b6101456105f2565b610202600480360360208110156102e657600080fd5b50356001600160a01b031661060d565b6102026004803603602081101561030c57600080fd5b50356001600160a01b0316610628565b6102ac610643565b610202610667565b6101e66004803603604081101561034257600080fd5b506001600160a01b03813516906020013561068b565b6101e66004803603604081101561036e57600080fd5b506001600160a01b0381351690602001356106f5565b6102ac610730565b6103dd600480360360e08110156103a257600080fd5b506001600160a01b03813581169160208101359091169060408101359060608101359060ff6080820135169060a08101359060c00135610754565b005b6102ac610947565b610202600480360360408110156103fd57600080fd5b506001600160a01b038135811691602001351661096b565b610202610996565b6103dd6004803603604081101561043357600080fd5b506001600160a01b03813516906020013561099e565b6102026109eb565b6040805180820190915260038152621692d560ea1b60208201525b90565b6000610479610bee565b1561048657610486610c2b565b610491338484610c71565b5060015b92915050565b7f6e71edae12b1b97f4d1f60370fef10105fa2faae0126114a169c64845d6126c990565b60025490565b60006104cf610bee565b156104dd576104dd84610d5d565b6104e683610dd1565b6104f1848484610edc565b610549843361054485604051806060016040528060288152602001611425602891396001600160a01b038a166000908152600160209081526040808320338452909152902054919063ffffffff61103816565b610c71565b5060019392505050565b601290565b6000610562610bee565b1561056f5761056f610c2b565b3360008181526001602090815260408083206001600160a01b038816845290915290205461049191908590610544908663ffffffff610b9616565b7f000000000000000000000000000000000000000000000000000000000000000090565b7f000000000000000000000000000000000000000000000000000000000000000081565b6040805180820190915260018152603160f81b602082015290565b6001600160a01b031660009081526020819052604090205490565b6001600160a01b031660009081526003602052604090205490565b7f000000000000000000000000000000000000000000000000000000000000000081565b7f000000000000000000000000000000000000000000000000000000000000000090565b6000610695610bee565b156106a2576106a2610c2b565b610491338461054485604051806060016040528060258152602001611567602591393360009081526001602090815260408083206001600160a01b038d168452909152902054919063ffffffff61103816565b60006106ff6110cf565b801561070e575061070e610bee565b1561071c5761071c836110fe565b61072583610dd1565b610491338484610edc565b7f000000000000000000000000000000000000000000000000000000000000000081565b428410156107a1576040805162461bcd60e51b81526020600482015260156024820152745a4b543a206578706972656420646561646c696e6560581b604482015290519081900360640190fd5b60006107ab6109eb565b6001600160a01b03808a1660008181526003602090815260408083208054600180820190925582517f6e71edae12b1b97f4d1f60370fef10105fa2faae0126114a169c64845d6126c98186015280840196909652958e166060860152608085018d905260a085019590955260c08085018c90528151808603909101815260e08501825280519083012061190160f01b6101008601526101028501969096526101228085019690965280518085039096018652610142840180825286519683019690962095839052610162840180825286905260ff8a166101828501526101a284018990526101c284018890525194955090936101e280840193601f198301929081900390910190855afa1580156108c6573d6000803e3d6000fd5b505050602060405103519050886001600160a01b0316816001600160a01b031614610931576040805162461bcd60e51b81526020600482015260166024820152755a4b543a20696e76616c6964207369676e617475726560501b604482015290519081900360640190fd5b61093c898989610c71565b505050505050505050565b7f000000000000000000000000000000000000000000000000000000000000000081565b6001600160a01b03918216600090815260016020908152604080832093909416825291909152205490565b6301e1338081565b6109a66111db565b6109ae610bee565b156109bc576109bc82610d5d565b6109e7827f000000000000000000000000000000000000000000000000000000000000000083610edc565b5050565b60007f0000000000000000000000000000000000000000000000000000000000000000610a16611242565b1415610a4357507f000000000000000000000000000000000000000000000000000000000000000061046c565b610aae7f8b73c3c69bb8fe3d512ecc4cf759cc79239f7b179b0ffacaa9a75d522b39400f7f00000000000000000000000000000000000000000000000000000000000000007f0000000000000000000000000000000000000000000000000000000000000000611246565b905061046c565b600082610ac457506000610495565b82820282848281610ad157fe5b0414610b0e5760405162461bcd60e51b81526004018080602001828103825260218152602001806114046021913960400191505060405180910390fd5b9392505050565b6000610b0e83836040518060400160405280601a815260200179536166654d6174683a206469766973696f6e206279207a65726f60301b81525061129c565b6000610b0e83836040518060400160405280601e81526020017f536166654d6174683a207375627472616374696f6e206f766572666c6f770000815250611038565b600082820183811015610b0e576040805162461bcd60e51b815260206004820152601b60248201527a536166654d6174683a206164646974696f6e206f766572666c6f7760281b604482015290519081900360640190fd5b60006301e13380610c25427f000000000000000000000000000000000000000000000000000000000000000063ffffffff610b5416565b10905090565b610c336110cf565b15610c6f5760405162461bcd60e51b81526004018080602001828103825260288152602001806114756028913960400191505060405180910390fd5b565b6001600160a01b038316610cb65760405162461bcd60e51b81526004018080602001828103825260248152602001806114c26024913960400191505060405180910390fd5b6001600160a01b038216610cfb5760405162461bcd60e51b815260040180806020018281038252602281526020018061136a6022913960400191505060405180910390fd5b6001600160a01b03808416600081815260016020908152604080832094871680845294825291829020859055815185815291517f8c5be1e5ebec7d5bd14f71427d1e84f3dd0314c0f7b2291e5b200ac8c7c3b9259281900390910190a3505050565b7f00000000000000000000000000000000000000000000000000000000000000006001600160a01b0316816001600160a01b03161415610dce5760405162461bcd60e51b815260040180806020018281038252602881526020018061144d6028913960400191505060405180910390fd5b50565b6001600160a01b03811615801590610df257506001600160a01b0381163014155b610e2d5760405162461bcd60e51b81526004018080602001828103825260528152602001806115156052913960600191505060405180910390fd5b7f00000000000000000000000000000000000000000000000000000000000000006001600160a01b0316816001600160a01b031614158015610ea157507f00000000000000000000000000000000000000000000000000000000000000006001600160a01b0316816001600160a01b031614155b610dce5760405162461bcd60e51b815260040180806020018281038252605281526020018061138c6052913960600191505060405180910390fd5b6001600160a01b038316610f215760405162461bcd60e51b815260040180806020018281038252602581526020018061149d6025913960400191505060405180910390fd5b6001600160a01b038216610f665760405162461bcd60e51b81526004018080602001828103825260238152602001806113476023913960400191505060405180910390fd5b610fa9816040518060600160405280602681526020016113de602691396001600160a01b038616600090815260208190526040902054919063ffffffff61103816565b6001600160a01b038085166000908152602081905260408082209390935590841681522054610fde908263ffffffff610b9616565b6001600160a01b038084166000818152602081815260409182902094909455805185815290519193928716927fddf252ad1be2c89b69c2b068fc378daa952ba7f163c4a11628f55a4df523b3ef92918290030190a3505050565b600081848411156110c75760405162461bcd60e51b81526004018080602001828103825283818151815260200191508051906020019080838360005b8381101561108c578181015183820152602001611074565b50505050905090810190601f1680156110b95780820380516001836020036101000a031916815260200191505b509250505060405180910390fd5b505050900390565b336001600160a01b037f0000000000000000000000000000000000000000000000000000000000000000161490565b7f00000000000000000000000000000000000000000000000000000000000000006001600160a01b031663bb7603f1826040518263ffffffff1660e01b815260040180826001600160a01b03166001600160a01b0316815260200191505060206040518083038186803b15801561117457600080fd5b505afa158015611188573d6000803e3d6000fd5b505050506040513d602081101561119e57600080fd5b5051610dce5760405162461bcd60e51b81526004018080602001828103825260458152602001806113026045913960600191505060405180910390fd5b336001600160a01b037f00000000000000000000000000000000000000000000000000000000000000001614610c6f5760405162461bcd60e51b815260040180806020018281038252602f8152602001806114e6602f913960400191505060405180910390fd5b4690565b6000838383611253611242565b6040805160208082019690965280820194909452606084019290925260808301523060a0808401919091528151808403909101815260c090920190528051910120949350505050565b600081836112eb5760405162461bcd60e51b815260206004820181815283516024840152835190928392604490910191908501908083836000831561108c578181015183820152602001611074565b5060008385816112f757fe5b049594505050505056fe5a4b546f6b656e3a20726563697069656e74206d7573742062652061204c6f636b7570436f6e7472616374207265676973746572656420696e2074686520466163746f727945524332303a207472616e7366657220746f20746865207a65726f206164647265737345524332303a20617070726f766520746f20746865207a65726f20616464726573735a4b543a2043616e6e6f74207472616e7366657220746f6b656e73206469726563746c7920746f2074686520636f6d6d756e6974792069737375616e6365206f72207374616b696e6720636f6e747261637445524332303a207472616e7366657220616d6f756e7420657863656564732062616c616e6365536166654d6174683a206d756c7469706c69636174696f6e206f766572666c6f7745524332303a207472616e7366657220616d6f756e74206578636565647320616c6c6f77616e63655a4b546f6b656e3a2073656e646572206d757374206e6f7420626520746865206d756c74697369675a4b546f6b656e3a2063616c6c6572206d757374206e6f7420626520746865206d756c746973696745524332303a207472616e736665722066726f6d20746865207a65726f206164647265737345524332303a20617070726f76652066726f6d20746865207a65726f20616464726573735a4b546f6b656e3a2063616c6c6572206d75737420626520746865205a4b545374616b696e6720636f6e74726163745a4b543a2043616e6e6f74207472616e7366657220746f6b656e73206469726563746c7920746f20746865205a4b5420746f6b656e20636f6e7472616374206f7220746865207a65726f206164647265737345524332303a2064656372656173656420616c6c6f77616e63652062656c6f77207a65726fa164736f6c634300060b000a536166654d6174683a206d756c7469706c69636174696f6e206f766572666c6f77",
  "devdoc": {
    "kind": "dev",
    "methods": {
      "allowance(address,address)": {
        "details": "Returns the remaining number of tokens that `spender` will be allowed to spend on behalf of `owner` through {transferFrom}. This is zero by default. This value changes when {approve} or {transferFrom} are called."
      },
      "approve(address,uint256)": {
        "details": "Sets `amount` as the allowance of `spender` over the caller's tokens. Returns a boolean value indicating whether the operation succeeded. IMPORTANT: Beware that changing an allowance with this method brings the risk that someone may use both the old and the new allowance by unfortunate transaction ordering. One possible solution to mitigate this race condition is to first reduce the spender's allowance to 0 and set the desired value afterwards: https://github.com/ethereum/EIPs/issues/20#issuecomment-263524729 Emits an {Approval} event."
      },
      "balanceOf(address)": {
        "details": "Returns the amount of tokens owned by `account`."
      },
      "nonces(address)": {
        "details": "Returns the current ERC2612 nonce for `owner`. This value must be included whenever a signature is generated for {permit}. Every successful call to {permit} increases `owner`'s nonce by one. This prevents a signature from being used multiple times. `owner` can limit the time a Permit is valid for by setting `deadline` to a value in the near future. The deadline argument can be set to uint(-1) to create Permits that effectively never expire."
      },
      "permit(address,address,uint256,uint256,uint8,bytes32,bytes32)": {
        "details": "Sets `amount` as the allowance of `spender` over `owner`'s tokens, given `owner`'s signed approval. IMPORTANT: The same issues {IERC20-approve} has related to transaction ordering also apply here. Emits an {Approval} event. Requirements: - `owner` cannot be the zero address. - `spender` cannot be the zero address. - `deadline` must be a timestamp in the future. - `v`, `r` and `s` must be a valid `secp256k1` signature from `owner` over the EIP712-formatted function arguments. - the signature must use ``owner``'s current nonce (see {nonces}). For more information on the signature format, see the https://eips.ethereum.org/EIPS/eip-2612#specification[relevant EIP section]."
      },
      "totalSupply()": {
        "details": "Returns the amount of tokens in existence."
      },
      "transfer(address,uint256)": {
        "details": "Moves `amount` tokens from the caller's account to `recipient`. Returns a boolean value indicating whether the operation succeeded. Emits a {Transfer} event."
      },
      "transferFrom(address,address,uint256)": {
        "details": "Moves `amount` tokens from `sender` to `recipient` using the allowance mechanism. `amount` is then deducted from the caller's allowance. Returns a boolean value indicating whether the operation succeeded. Emits a {Transfer} event."
      }
    },
    "version": 1
  },
  "userdoc": {
    "kind": "user",
    "methods": {},
    "version": 1
  },
  "storageLayout": {
    "storage": [
      {
        "astId": 31871,
        "contract": "contracts/ZKT/ZKToken.sol:ZKToken",
        "label": "_balances",
        "offset": 0,
        "slot": "0",
        "type": "t_mapping(t_address,t_uint256)"
      },
      {
        "astId": 31877,
        "contract": "contracts/ZKT/ZKToken.sol:ZKToken",
        "label": "_allowances",
        "offset": 0,
        "slot": "1",
        "type": "t_mapping(t_address,t_mapping(t_address,t_uint256))"
      },
      {
        "astId": 31879,
        "contract": "contracts/ZKT/ZKToken.sol:ZKToken",
        "label": "_totalSupply",
        "offset": 0,
        "slot": "2",
        "type": "t_uint256"
      },
      {
        "astId": 31897,
        "contract": "contracts/ZKT/ZKToken.sol:ZKToken",
        "label": "_nonces",
        "offset": 0,
        "slot": "3",
        "type": "t_mapping(t_address,t_uint256)"
      },
      {
        "astId": 31903,
        "contract": "contracts/ZKT/ZKToken.sol:ZKToken",
        "label": "_1_MILLION",
        "offset": 0,
        "slot": "4",
        "type": "t_uint256"
      }
    ],
    "types": {
      "t_address": {
        "encoding": "inplace",
        "label": "address",
        "numberOfBytes": "20"
      },
      "t_mapping(t_address,t_mapping(t_address,t_uint256))": {
        "encoding": "mapping",
        "key": "t_address",
        "label": "mapping(address => mapping(address => uint256))",
        "numberOfBytes": "32",
        "value": "t_mapping(t_address,t_uint256)"
      },
      "t_mapping(t_address,t_uint256)": {
        "encoding": "mapping",
        "key": "t_address",
        "label": "mapping(address => uint256)",
        "numberOfBytes": "32",
        "value": "t_uint256"
      },
      "t_uint256": {
        "encoding": "inplace",
        "label": "uint256",
        "numberOfBytes": "32"
      }
    }
  }
}