{
  "address": "0xc8FB3ee21e3d2812636771bacd7C2ce9a1176ca5",
  "abi": [
    {
      "anonymous": false,
      "inputs": [
        {
          "indexed": false,
          "internalType": "address",
          "name": "_activePoolAddress",
          "type": "address"
        }
      ],
      "name": "ActivePoolAddressSet",
      "type": "event"
    },
    {
      "anonymous": false,
      "inputs": [
        {
          "indexed": false,
          "internalType": "address",
          "name": "_borrowerOperationsAddress",
          "type": "address"
        }
      ],
      "name": "BorrowerOperationsAddressSet",
      "type": "event"
    },
    {
      "anonymous": false,
      "inputs": [
        {
          "indexed": false,
          "internalType": "address",
          "name": "_account",
          "type": "address"
        },
        {
          "indexed": false,
          "internalType": "uint256",
          "name": "_amount",
          "type": "uint256"
        }
      ],
      "name": "EtherSent",
      "type": "event"
    },
    {
      "anonymous": false,
      "inputs": [
        {
          "indexed": false,
          "internalType": "uint256",
          "name": "_F_ETH",
          "type": "uint256"
        }
      ],
      "name": "F_ETHUpdated",
      "type": "event"
    },
    {
      "anonymous": false,
      "inputs": [
        {
          "indexed": false,
          "internalType": "uint256",
          "name": "_F_ZKUSD",
          "type": "uint256"
        }
      ],
      "name": "F_ZKUSDUpdated",
      "type": "event"
    },
    {
      "anonymous": false,
      "inputs": [
        {
          "indexed": true,
          "internalType": "address",
          "name": "previousOwner",
          "type": "address"
        },
        {
          "indexed": true,
          "internalType": "address",
          "name": "newOwner",
          "type": "address"
        }
      ],
      "name": "OwnershipTransferred",
      "type": "event"
    },
    {
      "anonymous": false,
      "inputs": [
        {
          "indexed": true,
          "internalType": "address",
          "name": "staker",
          "type": "address"
        },
        {
          "indexed": false,
          "internalType": "uint256",
          "name": "newStake",
          "type": "uint256"
        }
      ],
      "name": "StakeChanged",
      "type": "event"
    },
    {
      "anonymous": false,
      "inputs": [
        {
          "indexed": false,
          "internalType": "address",
          "name": "_staker",
          "type": "address"
        },
        {
          "indexed": false,
          "internalType": "uint256",
          "name": "_F_ETH",
          "type": "uint256"
        },
        {
          "indexed": false,
          "internalType": "uint256",
          "name": "_F_ZKUSD",
          "type": "uint256"
        }
      ],
      "name": "StakerSnapshotsUpdated",
      "type": "event"
    },
    {
      "anonymous": false,
      "inputs": [
        {
          "indexed": true,
          "internalType": "address",
          "name": "staker",
          "type": "address"
        },
        {
          "indexed": false,
          "internalType": "uint256",
          "name": "ZKUSDGain",
          "type": "uint256"
        },
        {
          "indexed": false,
          "internalType": "uint256",
          "name": "ETHGain",
          "type": "uint256"
        }
      ],
      "name": "StakingGainsWithdrawn",
      "type": "event"
    },
    {
      "anonymous": false,
      "inputs": [
        {
          "indexed": false,
          "internalType": "uint256",
          "name": "_totalZKTStaked",
          "type": "uint256"
        }
      ],
      "name": "TotalZKTStakedUpdated",
      "type": "event"
    },
    {
      "anonymous": false,
      "inputs": [
        {
          "indexed": false,
          "internalType": "address",
          "name": "_troveManager",
          "type": "address"
        }
      ],
      "name": "TroveManagerAddressSet",
      "type": "event"
    },
    {
      "anonymous": false,
      "inputs": [
        {
          "indexed": false,
          "internalType": "address",
          "name": "_zkTokenAddress",
          "type": "address"
        }
      ],
      "name": "ZKTokenAddressSet",
      "type": "event"
    },
    {
      "anonymous": false,
      "inputs": [
        {
          "indexed": false,
          "internalType": "address",
          "name": "_zkusdTokenAddress",
          "type": "address"
        }
      ],
      "name": "ZKUSDTokenAddressSet",
      "type": "event"
    },
    {
      "inputs": [],
      "name": "DECIMAL_PRECISION",
      "outputs": [
        {
          "internalType": "uint256",
          "name": "",
          "type": "uint256"
        }
      ],
      "stateMutability": "view",
      "type": "function"
    },
    {
      "inputs": [],
      "name": "F_ETH",
      "outputs": [
        {
          "internalType": "uint256",
          "name": "",
          "type": "uint256"
        }
      ],
      "stateMutability": "view",
      "type": "function"
    },
    {
      "inputs": [],
      "name": "F_ZKUSD",
      "outputs": [
        {
          "internalType": "uint256",
          "name": "",
          "type": "uint256"
        }
      ],
      "stateMutability": "view",
      "type": "function"
    },
    {
      "inputs": [],
      "name": "NAME",
      "outputs": [
        {
          "internalType": "string",
          "name": "",
          "type": "string"
        }
      ],
      "stateMutability": "view",
      "type": "function"
    },
    {
      "inputs": [],
      "name": "activePoolAddress",
      "outputs": [
        {
          "internalType": "address",
          "name": "",
          "type": "address"
        }
      ],
      "stateMutability": "view",
      "type": "function"
    },
    {
      "inputs": [],
      "name": "borrowerOperationsAddress",
      "outputs": [
        {
          "internalType": "address",
          "name": "",
          "type": "address"
        }
      ],
      "stateMutability": "view",
      "type": "function"
    },
    {
      "inputs": [
        {
          "internalType": "address",
          "name": "_user",
          "type": "address"
        }
      ],
      "name": "getPendingETHGain",
      "outputs": [
        {
          "internalType": "uint256",
          "name": "",
          "type": "uint256"
        }
      ],
      "stateMutability": "view",
      "type": "function"
    },
    {
      "inputs": [
        {
          "internalType": "address",
          "name": "_user",
          "type": "address"
        }
      ],
      "name": "getPendingZKUSDGain",
      "outputs": [
        {
          "internalType": "uint256",
          "name": "",
          "type": "uint256"
        }
      ],
      "stateMutability": "view",
      "type": "function"
    },
    {
      "inputs": [
        {
          "internalType": "uint256",
          "name": "_ETHFee",
          "type": "uint256"
        }
      ],
      "name": "increaseF_ETH",
      "outputs": [],
      "stateMutability": "nonpayable",
      "type": "function"
    },
    {
      "inputs": [
        {
          "internalType": "uint256",
          "name": "_ZKUSDFee",
          "type": "uint256"
        }
      ],
      "name": "increaseF_ZKUSD",
      "outputs": [],
      "stateMutability": "nonpayable",
      "type": "function"
    },
    {
      "inputs": [],
      "name": "isOwner",
      "outputs": [
        {
          "internalType": "bool",
          "name": "",
          "type": "bool"
        }
      ],
      "stateMutability": "view",
      "type": "function"
    },
    {
      "inputs": [],
      "name": "owner",
      "outputs": [
        {
          "internalType": "address",
          "name": "",
          "type": "address"
        }
      ],
      "stateMutability": "view",
      "type": "function"
    },
    {
      "inputs": [
        {
          "internalType": "address",
          "name": "_zkTokenAddress",
          "type": "address"
        },
        {
          "internalType": "address",
          "name": "_zkusdTokenAddress",
          "type": "address"
        },
        {
          "internalType": "address",
          "name": "_troveManagerAddress",
          "type": "address"
        },
        {
          "internalType": "address",
          "name": "_borrowerOperationsAddress",
          "type": "address"
        },
        {
          "internalType": "address",
          "name": "_activePoolAddress",
          "type": "address"
        }
      ],
      "name": "setAddresses",
      "outputs": [],
      "stateMutability": "nonpayable",
      "type": "function"
    },
    {
      "inputs": [
        {
          "internalType": "address",
          "name": "",
          "type": "address"
        }
      ],
      "name": "snapshots",
      "outputs": [
        {
          "internalType": "uint256",
          "name": "F_ETH_Snapshot",
          "type": "uint256"
        },
        {
          "internalType": "uint256",
          "name": "F_ZKUSD_Snapshot",
          "type": "uint256"
        }
      ],
      "stateMutability": "view",
      "type": "function"
    },
    {
      "inputs": [
        {
          "internalType": "uint256",
          "name": "_ZKTamount",
          "type": "uint256"
        }
      ],
      "name": "stake",
      "outputs": [],
      "stateMutability": "nonpayable",
      "type": "function"
    },
    {
      "inputs": [
        {
          "internalType": "address",
          "name": "",
          "type": "address"
        }
      ],
      "name": "stakes",
      "outputs": [
        {
          "internalType": "uint256",
          "name": "",
          "type": "uint256"
        }
      ],
      "stateMutability": "view",
      "type": "function"
    },
    {
      "inputs": [],
      "name": "totalZKTStaked",
      "outputs": [
        {
          "internalType": "uint256",
          "name": "",
          "type": "uint256"
        }
      ],
      "stateMutability": "view",
      "type": "function"
    },
    {
      "inputs": [],
      "name": "troveManagerAddress",
      "outputs": [
        {
          "internalType": "address",
          "name": "",
          "type": "address"
        }
      ],
      "stateMutability": "view",
      "type": "function"
    },
    {
      "inputs": [
        {
          "internalType": "uint256",
          "name": "_ZKTamount",
          "type": "uint256"
        }
      ],
      "name": "unstake",
      "outputs": [],
      "stateMutability": "nonpayable",
      "type": "function"
    },
    {
      "inputs": [],
      "name": "zkToken",
      "outputs": [
        {
          "internalType": "contract IZKToken",
          "name": "",
          "type": "address"
        }
      ],
      "stateMutability": "view",
      "type": "function"
    },
    {
      "inputs": [],
      "name": "zkusdToken",
      "outputs": [
        {
          "internalType": "contract IZKUSDToken",
          "name": "",
          "type": "address"
        }
      ],
      "stateMutability": "view",
      "type": "function"
    },
    {
      "stateMutability": "payable",
      "type": "receive"
    }
  ],
  "transactionHash": "0xc907f82d8164435331ffbee8e507a5a07bf6c827d7b583e86b166be63c99a929",
  "args": [],
  "numDeployments": 1,
  "solcInputHash": "ffe83ff5afde0d06d4b6b8e37e72100d",
  "bytecode": "0x608060405234801561001057600080fd5b50600080546001600160a01b0319163390811782556040519091907f8be0079c531659141344cd1fd0a4f28419497f9722a3daafe3b4186f6b6457e0908290a36114748061005f6000396000f3fe60806040526004361061010e5760003560e01c80638da5cb5b1161009b5780638da5cb5b146103145780638f32d59b146103295780639e82964b14610352578063a20baee614610367578063a3f4df7e1461037c578063a694fc3a14610406578063ac0ff4cb14610430578063b08bc72214610445578063b7f8cf9b1461045a578063b9bbe00f1461046f578063d711d88d146104845761011d565b806316934fc4146101225780631e3e2a1a146101675780632e17de781461019157806331e8179e146101bb57806334b3081f146101e557806335a3f707146102315780635a4d28bb146102625780635dd68acd146102775780637d8c87aa146102cc5780638b9345ad146102e15761011d565b3661011d5761011b6104b7565b005b600080fd5b34801561012e57600080fd5b506101556004803603602081101561014557600080fd5b50356001600160a01b0316610502565b60408051918252519081900360200190f35b34801561017357600080fd5b5061011b6004803603602081101561018a57600080fd5b5035610514565b34801561019d57600080fd5b5061011b600480360360208110156101b457600080fd5b50356105a3565b3480156101c757600080fd5b5061011b600480360360208110156101de57600080fd5b50356107e7565b3480156101f157600080fd5b506102186004803603602081101561020857600080fd5b50356001600160a01b031661086a565b6040805192835260208301919091528051918290030190f35b34801561023d57600080fd5b50610246610883565b604080516001600160a01b039092168252519081900360200190f35b34801561026e57600080fd5b50610246610892565b34801561028357600080fd5b5061011b600480360360a081101561029a57600080fd5b506001600160a01b038135811691602081013582169160408201358116916060810135821691608090910135166108a1565b3480156102d857600080fd5b50610246610aa5565b3480156102ed57600080fd5b506101556004803603602081101561030457600080fd5b50356001600160a01b0316610ab4565b34801561032057600080fd5b50610246610ac5565b34801561033557600080fd5b5061033e610ad4565b604080519115158252519081900360200190f35b34801561035e57600080fd5b50610155610ae5565b34801561037357600080fd5b50610155610aeb565b34801561038857600080fd5b50610391610af7565b6040805160208082528351818301528351919283929083019185019080838360005b838110156103cb5781810151838201526020016103b3565b50505050905090810190601f1680156103f85780820380516001836020036101000a031916815260200191505b509250505060405180910390f35b34801561041257600080fd5b5061011b6004803603602081101561042957600080fd5b5035610b1d565b34801561043c57600080fd5b50610155610d41565b34801561045157600080fd5b50610246610d47565b34801561046657600080fd5b50610246610d56565b34801561047b57600080fd5b50610155610d65565b34801561049057600080fd5b50610155600480360360208110156104a757600080fd5b50356001600160a01b0316610d6b565b600a546001600160a01b031633146105005760405162461bcd60e51b81526004018080602001828103825260248152602001806113826024913960400191505060405180910390fd5b565b60016020526000908152604090205481565b61051c610d76565b60025460009015610555576002546105529061054684670de0b6b3a764000063ffffffff610dd516565b9063ffffffff610e3516565b90505b600354610568908263ffffffff610e7416565b600381905560408051918252517f4c56a0cf74da9899410b818edf6758c8af9b7b3070da97d2dcb6a5b1bf96317e9181900360200190a15050565b336000908152600160205260409020546105bc81610ecc565b60006105c733610f0e565b905060006105d433610f7b565b90506105df33610fbe565b831561071d5760006105f18585611030565b90506000610605858363ffffffff61104616565b33600090815260016020526040902081905560025490915061062d908363ffffffff61104616565b600281905560408051918252517ff26829b154fc12fc2b0f08fdf27197a71ea6988e92d2ea854232ad51bb4f2bf79181900360200190a16006546040805163a9059cbb60e01b81523360048201526024810185905290516001600160a01b039092169163a9059cbb916044808201926020929091908290030181600087803b1580156106b857600080fd5b505af11580156106cc573d6000803e3d6000fd5b505050506040513d60208110156106e257600080fd5b505060408051828152905133917f39df0e5286a3ef2f42a0bf52f32cfe2c58e5b0405f47fe512f2c2439e4cfe204919081900360200190a250505b6040805182815260208101849052815133927ff744d34ca1cb25acfa4180df5f09a67306107110a9f4b6ed99bb3be259738215928290030190a26007546040805163a9059cbb60e01b81523360048201526024810184905290516001600160a01b039092169163a9059cbb916044808201926020929091908290030181600087803b1580156107ab57600080fd5b505af11580156107bf573d6000803e3d6000fd5b505050506040513d60208110156107d557600080fd5b506107e1905082611088565b50505050565b6107ef61114e565b6002546000901561081c576002546108199061054684670de0b6b3a764000063ffffffff610dd516565b90505b60045461082f908263ffffffff610e7416565b600481905560408051918252517feeec1f97075595b7ecda7ab1b13078c6dd153c8a72fbf0b2808062bea2fa07449181900360200190a15050565b6005602052600090815260409020805460019091015482565b6007546001600160a01b031681565b6008546001600160a01b031681565b6108a9610ad4565b6108fa576040805162461bcd60e51b815260206004820181905260248201527f4f776e61626c653a2063616c6c6572206973206e6f7420746865206f776e6572604482015290519081900360640190fd5b61090385611197565b61090c84611197565b61091583611197565b61091e82611197565b61092781611197565b600680546001600160a01b038088166001600160a01b03199283168117909355600780548883169084161790556008805487831690841617905560098054868316908416179055600a80549185169190921617905560408051918252517f4738bd2fa051c658ff5fb2e55ea0ec02521ca2c563327a88ebe9f2a8ab15c3169181900360200190a1604080516001600160a01b038616815290517f4738bd2fa051c658ff5fb2e55ea0ec02521ca2c563327a88ebe9f2a8ab15c3169181900360200190a1604080516001600160a01b038516815290517f41097dcc1f7cbd663d822443d7972f05b04f71918b30fe9fc59dd6e42e2280609181900360200190a1604080516001600160a01b038416815290517f5962f8af633c4df1ab230096f773a514ee5adf7785c621ecdcdb764cb7f6e3919181900360200190a1604080516001600160a01b038316815290517f8f6a6e7d20a3233e0a79883272259ffbd7a243734e397bc2b4642c79d7fa8a6d9181900360200190a15050505050565b6006546001600160a01b031681565b6000610abf82610f0e565b92915050565b6000546001600160a01b031690565b6000546001600160a01b0316331490565b60045481565b670de0b6b3a764000081565b6040518060400160405280600a8152602001695a4b545374616b696e6760b01b81525081565b610b2681611246565b3360009081526001602052604081205490808215610b5557610b4733610f0e565b9150610b5233610f7b565b90505b610b5e33610fbe565b6000610b70848663ffffffff610e7416565b336000908152600160205260409020819055600254909150610b98908663ffffffff610e7416565b600281905560408051918252517ff26829b154fc12fc2b0f08fdf27197a71ea6988e92d2ea854232ad51bb4f2bf79181900360200190a1600654604080516378056dfb60e11b81523360048201526024810188905290516001600160a01b039092169163f00adbf69160448082019260009290919082900301818387803b158015610c2257600080fd5b505af1158015610c36573d6000803e3d6000fd5b50506040805184815290513393507f39df0e5286a3ef2f42a0bf52f32cfe2c58e5b0405f47fe512f2c2439e4cfe20492509081900360200190a26040805183815260208101859052815133927ff744d34ca1cb25acfa4180df5f09a67306107110a9f4b6ed99bb3be259738215928290030190a28315610d3a576007546040805163a9059cbb60e01b81523360048201526024810185905290516001600160a01b039092169163a9059cbb916044808201926020929091908290030181600087803b158015610d0457600080fd5b505af1158015610d18573d6000803e3d6000fd5b505050506040513d6020811015610d2e57600080fd5b50610d3a905083611088565b5050505050565b60025481565b600a546001600160a01b031681565b6009546001600160a01b031681565b60035481565b6000610abf82610f7b565b6008546001600160a01b03163314610500576040805162461bcd60e51b815260206004820181905260248201527f5a4b545374616b696e673a2063616c6c6572206973206e6f742054726f76654d604482015290519081900360640190fd5b600082610de457506000610abf565b82820282848281610df157fe5b0414610e2e5760405162461bcd60e51b81526004018080602001828103825260218152602001806113a66021913960400191505060405180910390fd5b9392505050565b6000610e2e83836040518060400160405280601a815260200179536166654d6174683a206469766973696f6e206279207a65726f60301b815250611285565b600082820183811015610e2e576040805162461bcd60e51b815260206004820152601b60248201527a536166654d6174683a206164646974696f6e206f766572666c6f7760281b604482015290519081900360640190fd5b60008111610f0b5760405162461bcd60e51b815260040180806020018281038252602b81526020018061140f602b913960400191505060405180910390fd5b50565b6001600160a01b0381166000908152600560205260408120546003548290610f7390670de0b6b3a76400009061054690610f4e908663ffffffff61104616565b6001600160a01b0388166000908152600160205260409020549063ffffffff610dd516565b949350505050565b6001600160a01b0381166000908152600560205260408120600101546004548290610f7390670de0b6b3a76400009061054690610f4e908663ffffffff61104616565b600380546001600160a01b038316600081815260056020908152604091829020938455600454600190940184905593548151928352938201939093528083019190915290517f6b5cf27595af4428271524e0a5abd2b63f6fee1a61e31970490f5a10e257a1cd9181900360600190a150565b600081831061103f5781610e2e565b5090919050565b6000610e2e83836040518060400160405280601e81526020017f536166654d6174683a207375627472616374696f6e206f766572666c6f770000815250611327565b604080513381526020810183905281517f6109e2559dfa766aaec7118351d48a523f0a4157f49c8d68749c8ac41318ad12929181900390910190a1604051600090339083908381818185875af1925050503d8060008114611105576040519150601f19603f3d011682016040523d82523d6000602084013e61110a565b606091505b505090508061114a5760405162461bcd60e51b815260040180806020018281038252602e81526020018061143a602e913960400191505060405180910390fd5b5050565b6009546001600160a01b031633146105005760405162461bcd60e51b81526004018080602001828103825260258152602001806113ea6025913960400191505060405180910390fd5b6001600160a01b0381166111f2576040805162461bcd60e51b815260206004820152601e60248201527f4163636f756e742063616e6e6f74206265207a65726f20616464726573730000604482015290519081900360640190fd5b803b8061114a576040805162461bcd60e51b815260206004820181905260248201527f4163636f756e7420636f64652073697a652063616e6e6f74206265207a65726f604482015290519081900360640190fd5b60008111610f0b5760405162461bcd60e51b81526004018080602001828103825260238152602001806113c76023913960400191505060405180910390fd5b600081836113115760405162461bcd60e51b81526004018080602001828103825283818151815260200191508051906020019080838360005b838110156112d65781810151838201526020016112be565b50505050905090810190601f1680156113035780820380516001836020036101000a031916815260200191505b509250505060405180910390fd5b50600083858161131d57fe5b0495945050505050565b600081848411156113795760405162461bcd60e51b81526020600482018181528351602484015283519092839260449091019190850190808383600083156112d65781810151838201526020016112be565b50505090039056fe5a4b545374616b696e673a2063616c6c6572206973206e6f7420416374697665506f6f6c536166654d6174683a206d756c7469706c69636174696f6e206f766572666c6f775a4b545374616b696e673a20416d6f756e74206d757374206265206e6f6e2d7a65726f5a4b545374616b696e673a2063616c6c6572206973206e6f7420426f72726f7765724f70735a4b545374616b696e673a2055736572206d75737420686176652061206e6f6e2d7a65726f207374616b655a4b545374616b696e673a204661696c656420746f2073656e6420616363756d756c61746564204554484761696ea164736f6c634300060b000a",
  "devdoc": {
    "kind": "dev",
    "methods": {
      "isOwner()": {
        "details": "Returns true if the caller is the current owner."
      },
      "owner()": {
        "details": "Returns the address of the current owner."
      }
    },
    "version": 1
  },
  "userdoc": {
    "kind": "user",
    "methods": {},
    "version": 1
  },
  "storageLayout": {
    "storage": [
      {
        "astId": 4382,
        "contract": "contracts/ZKT/ZKTStaking.sol:ZKTStaking",
        "label": "_owner",
        "offset": 0,
        "slot": "0",
        "type": "t_address"
      },
      {
        "astId": 31165,
        "contract": "contracts/ZKT/ZKTStaking.sol:ZKTStaking",
        "label": "stakes",
        "offset": 0,
        "slot": "1",
        "type": "t_mapping(t_address,t_uint256)"
      },
      {
        "astId": 31167,
        "contract": "contracts/ZKT/ZKTStaking.sol:ZKTStaking",
        "label": "totalZKTStaked",
        "offset": 0,
        "slot": "2",
        "type": "t_uint256"
      },
      {
        "astId": 31169,
        "contract": "contracts/ZKT/ZKTStaking.sol:ZKTStaking",
        "label": "F_ETH",
        "offset": 0,
        "slot": "3",
        "type": "t_uint256"
      },
      {
        "astId": 31171,
        "contract": "contracts/ZKT/ZKTStaking.sol:ZKTStaking",
        "label": "F_ZKUSD",
        "offset": 0,
        "slot": "4",
        "type": "t_uint256"
      },
      {
        "astId": 31175,
        "contract": "contracts/ZKT/ZKTStaking.sol:ZKTStaking",
        "label": "snapshots",
        "offset": 0,
        "slot": "5",
        "type": "t_mapping(t_address,t_struct(Snapshot)31180_storage)"
      },
      {
        "astId": 31182,
        "contract": "contracts/ZKT/ZKTStaking.sol:ZKTStaking",
        "label": "zkToken",
        "offset": 0,
        "slot": "6",
        "type": "t_contract(IZKToken)16733"
      },
      {
        "astId": 31184,
        "contract": "contracts/ZKT/ZKTStaking.sol:ZKTStaking",
        "label": "zkusdToken",
        "offset": 0,
        "slot": "7",
        "type": "t_contract(IZKUSDToken)16792"
      },
      {
        "astId": 31186,
        "contract": "contracts/ZKT/ZKTStaking.sol:ZKTStaking",
        "label": "troveManagerAddress",
        "offset": 0,
        "slot": "8",
        "type": "t_address"
      },
      {
        "astId": 31188,
        "contract": "contracts/ZKT/ZKTStaking.sol:ZKTStaking",
        "label": "borrowerOperationsAddress",
        "offset": 0,
        "slot": "9",
        "type": "t_address"
      },
      {
        "astId": 31190,
        "contract": "contracts/ZKT/ZKTStaking.sol:ZKTStaking",
        "label": "activePoolAddress",
        "offset": 0,
        "slot": "10",
        "type": "t_address"
      }
    ],
    "types": {
      "t_address": {
        "encoding": "inplace",
        "label": "address",
        "numberOfBytes": "20"
      },
      "t_contract(IZKToken)16733": {
        "encoding": "inplace",
        "label": "contract IZKToken",
        "numberOfBytes": "20"
      },
      "t_contract(IZKUSDToken)16792": {
        "encoding": "inplace",
        "label": "contract IZKUSDToken",
        "numberOfBytes": "20"
      },
      "t_mapping(t_address,t_struct(Snapshot)31180_storage)": {
        "encoding": "mapping",
        "key": "t_address",
        "label": "mapping(address => struct ZKTStaking.Snapshot)",
        "numberOfBytes": "32",
        "value": "t_struct(Snapshot)31180_storage"
      },
      "t_mapping(t_address,t_uint256)": {
        "encoding": "mapping",
        "key": "t_address",
        "label": "mapping(address => uint256)",
        "numberOfBytes": "32",
        "value": "t_uint256"
      },
      "t_struct(Snapshot)31180_storage": {
        "encoding": "inplace",
        "label": "struct ZKTStaking.Snapshot",
        "members": [
          {
            "astId": 31177,
            "contract": "contracts/ZKT/ZKTStaking.sol:ZKTStaking",
            "label": "F_ETH_Snapshot",
            "offset": 0,
            "slot": "0",
            "type": "t_uint256"
          },
          {
            "astId": 31179,
            "contract": "contracts/ZKT/ZKTStaking.sol:ZKTStaking",
            "label": "F_ZKUSD_Snapshot",
            "offset": 0,
            "slot": "1",
            "type": "t_uint256"
          }
        ],
        "numberOfBytes": "64"
      },
      "t_uint256": {
        "encoding": "inplace",
        "label": "uint256",
        "numberOfBytes": "32"
      }
    }
  }
}