{
  "address": "0x3cDEF3c187B271D8c2D71091d3a6506bC929f8B9",
  "abi": [
    {
      "inputs": [
        {
          "internalType": "address",
          "name": "_troveManagerAddress",
          "type": "address"
        },
        {
          "internalType": "address",
          "name": "_stabilityPoolAddress",
          "type": "address"
        },
        {
          "internalType": "address",
          "name": "_borrowerOperationsAddress",
          "type": "address"
        }
      ],
      "stateMutability": "nonpayable",
      "type": "constructor"
    },
    {
      "anonymous": false,
      "inputs": [
        {
          "indexed": true,
          "internalType": "address",
          "name": "owner",
          "type": "address"
        },
        {
          "indexed": true,
          "internalType": "address",
          "name": "spender",
          "type": "address"
        },
        {
          "indexed": false,
          "internalType": "uint256",
          "name": "value",
          "type": "uint256"
        }
      ],
      "name": "Approval",
      "type": "event"
    },
    {
      "anonymous": false,
      "inputs": [
        {
          "indexed": false,
          "internalType": "address",
          "name": "_newBorrowerOperationsAddress",
          "type": "address"
        }
      ],
      "name": "BorrowerOperationsAddressChanged",
      "type": "event"
    },
    {
      "anonymous": false,
      "inputs": [
        {
          "indexed": true,
          "internalType": "address",
          "name": "previousOwner",
          "type": "address"
        },
        {
          "indexed": true,
          "internalType": "address",
          "name": "newOwner",
          "type": "address"
        }
      ],
      "name": "OwnershipTransferred",
      "type": "event"
    },
    {
      "anonymous": false,
      "inputs": [
        {
          "indexed": false,
          "internalType": "address",
          "name": "_newStabilityPoolAddress",
          "type": "address"
        }
      ],
      "name": "StabilityPoolAddressChanged",
      "type": "event"
    },
    {
      "anonymous": false,
      "inputs": [
        {
          "indexed": true,
          "internalType": "address",
          "name": "from",
          "type": "address"
        },
        {
          "indexed": true,
          "internalType": "address",
          "name": "to",
          "type": "address"
        },
        {
          "indexed": false,
          "internalType": "uint256",
          "name": "value",
          "type": "uint256"
        }
      ],
      "name": "Transfer",
      "type": "event"
    },
    {
      "anonymous": false,
      "inputs": [
        {
          "indexed": false,
          "internalType": "address",
          "name": "_troveManagerAddress",
          "type": "address"
        }
      ],
      "name": "TroveManagerAddressChanged",
      "type": "event"
    },
    {
      "anonymous": false,
      "inputs": [
        {
          "indexed": false,
          "internalType": "address",
          "name": "_user",
          "type": "address"
        },
        {
          "indexed": false,
          "internalType": "uint256",
          "name": "_amount",
          "type": "uint256"
        }
      ],
      "name": "ZKUSDTokenBalanceUpdated",
      "type": "event"
    },
    {
      "inputs": [
        {
          "internalType": "address",
          "name": "owner",
          "type": "address"
        },
        {
          "internalType": "address",
          "name": "spender",
          "type": "address"
        }
      ],
      "name": "allowance",
      "outputs": [
        {
          "internalType": "uint256",
          "name": "",
          "type": "uint256"
        }
      ],
      "stateMutability": "view",
      "type": "function"
    },
    {
      "inputs": [
        {
          "internalType": "address",
          "name": "spender",
          "type": "address"
        },
        {
          "internalType": "uint256",
          "name": "amount",
          "type": "uint256"
        }
      ],
      "name": "approve",
      "outputs": [
        {
          "internalType": "bool",
          "name": "",
          "type": "bool"
        }
      ],
      "stateMutability": "nonpayable",
      "type": "function"
    },
    {
      "inputs": [
        {
          "internalType": "address",
          "name": "account",
          "type": "address"
        }
      ],
      "name": "balanceOf",
      "outputs": [
        {
          "internalType": "uint256",
          "name": "",
          "type": "uint256"
        }
      ],
      "stateMutability": "view",
      "type": "function"
    },
    {
      "inputs": [],
      "name": "borrowerOperationsAddress",
      "outputs": [
        {
          "internalType": "address",
          "name": "",
          "type": "address"
        }
      ],
      "stateMutability": "view",
      "type": "function"
    },
    {
      "inputs": [
        {
          "internalType": "address",
          "name": "_account",
          "type": "address"
        },
        {
          "internalType": "uint256",
          "name": "_amount",
          "type": "uint256"
        }
      ],
      "name": "burn",
      "outputs": [],
      "stateMutability": "nonpayable",
      "type": "function"
    },
    {
      "inputs": [],
      "name": "decimals",
      "outputs": [
        {
          "internalType": "uint8",
          "name": "",
          "type": "uint8"
        }
      ],
      "stateMutability": "view",
      "type": "function"
    },
    {
      "inputs": [
        {
          "internalType": "address",
          "name": "spender",
          "type": "address"
        },
        {
          "internalType": "uint256",
          "name": "subtractedValue",
          "type": "uint256"
        }
      ],
      "name": "decreaseAllowance",
      "outputs": [
        {
          "internalType": "bool",
          "name": "",
          "type": "bool"
        }
      ],
      "stateMutability": "nonpayable",
      "type": "function"
    },
    {
      "inputs": [],
      "name": "domainSeparator",
      "outputs": [
        {
          "internalType": "bytes32",
          "name": "",
          "type": "bytes32"
        }
      ],
      "stateMutability": "view",
      "type": "function"
    },
    {
      "inputs": [
        {
          "internalType": "address",
          "name": "spender",
          "type": "address"
        },
        {
          "internalType": "uint256",
          "name": "addedValue",
          "type": "uint256"
        }
      ],
      "name": "increaseAllowance",
      "outputs": [
        {
          "internalType": "bool",
          "name": "",
          "type": "bool"
        }
      ],
      "stateMutability": "nonpayable",
      "type": "function"
    },
    {
      "inputs": [],
      "name": "isOwner",
      "outputs": [
        {
          "internalType": "bool",
          "name": "",
          "type": "bool"
        }
      ],
      "stateMutability": "view",
      "type": "function"
    },
    {
      "inputs": [
        {
          "internalType": "address",
          "name": "_account",
          "type": "address"
        },
        {
          "internalType": "uint256",
          "name": "_amount",
          "type": "uint256"
        }
      ],
      "name": "mint",
      "outputs": [],
      "stateMutability": "nonpayable",
      "type": "function"
    },
    {
      "inputs": [],
      "name": "name",
      "outputs": [
        {
          "internalType": "string",
          "name": "",
          "type": "string"
        }
      ],
      "stateMutability": "view",
      "type": "function"
    },
    {
      "inputs": [
        {
          "internalType": "address",
          "name": "owner",
          "type": "address"
        }
      ],
      "name": "nonces",
      "outputs": [
        {
          "internalType": "uint256",
          "name": "",
          "type": "uint256"
        }
      ],
      "stateMutability": "view",
      "type": "function"
    },
    {
      "inputs": [],
      "name": "owner",
      "outputs": [
        {
          "internalType": "address",
          "name": "",
          "type": "address"
        }
      ],
      "stateMutability": "view",
      "type": "function"
    },
    {
      "inputs": [
        {
          "internalType": "address",
          "name": "owner",
          "type": "address"
        },
        {
          "internalType": "address",
          "name": "spender",
          "type": "address"
        },
        {
          "internalType": "uint256",
          "name": "amount",
          "type": "uint256"
        },
        {
          "internalType": "uint256",
          "name": "deadline",
          "type": "uint256"
        },
        {
          "internalType": "uint8",
          "name": "v",
          "type": "uint8"
        },
        {
          "internalType": "bytes32",
          "name": "r",
          "type": "bytes32"
        },
        {
          "internalType": "bytes32",
          "name": "s",
          "type": "bytes32"
        }
      ],
      "name": "permit",
      "outputs": [],
      "stateMutability": "nonpayable",
      "type": "function"
    },
    {
      "inputs": [],
      "name": "permitTypeHash",
      "outputs": [
        {
          "internalType": "bytes32",
          "name": "",
          "type": "bytes32"
        }
      ],
      "stateMutability": "view",
      "type": "function"
    },
    {
      "inputs": [
        {
          "internalType": "address",
          "name": "_poolAddress",
          "type": "address"
        },
        {
          "internalType": "address",
          "name": "_receiver",
          "type": "address"
        },
        {
          "internalType": "uint256",
          "name": "_amount",
          "type": "uint256"
        }
      ],
      "name": "returnFromPool",
      "outputs": [],
      "stateMutability": "nonpayable",
      "type": "function"
    },
    {
      "inputs": [
        {
          "internalType": "address",
          "name": "_sender",
          "type": "address"
        },
        {
          "internalType": "address",
          "name": "_poolAddress",
          "type": "address"
        },
        {
          "internalType": "uint256",
          "name": "_amount",
          "type": "uint256"
        }
      ],
      "name": "sendToPool",
      "outputs": [],
      "stateMutability": "nonpayable",
      "type": "function"
    },
    {
      "inputs": [
        {
          "internalType": "address",
          "name": "_troveManagerAddress",
          "type": "address"
        },
        {
          "internalType": "address",
          "name": "_stabilityPoolAddress",
          "type": "address"
        },
        {
          "internalType": "address",
          "name": "_borrowerOperationsAddress",
          "type": "address"
        }
      ],
      "name": "setAddresses",
      "outputs": [],
      "stateMutability": "nonpayable",
      "type": "function"
    },
    {
      "inputs": [],
      "name": "stabilityPoolAddress",
      "outputs": [
        {
          "internalType": "address",
          "name": "",
          "type": "address"
        }
      ],
      "stateMutability": "view",
      "type": "function"
    },
    {
      "inputs": [],
      "name": "symbol",
      "outputs": [
        {
          "internalType": "string",
          "name": "",
          "type": "string"
        }
      ],
      "stateMutability": "view",
      "type": "function"
    },
    {
      "inputs": [],
      "name": "totalSupply",
      "outputs": [
        {
          "internalType": "uint256",
          "name": "",
          "type": "uint256"
        }
      ],
      "stateMutability": "view",
      "type": "function"
    },
    {
      "inputs": [
        {
          "internalType": "address",
          "name": "recipient",
          "type": "address"
        },
        {
          "internalType": "uint256",
          "name": "amount",
          "type": "uint256"
        }
      ],
      "name": "transfer",
      "outputs": [
        {
          "internalType": "bool",
          "name": "",
          "type": "bool"
        }
      ],
      "stateMutability": "nonpayable",
      "type": "function"
    },
    {
      "inputs": [
        {
          "internalType": "address",
          "name": "sender",
          "type": "address"
        },
        {
          "internalType": "address",
          "name": "recipient",
          "type": "address"
        },
        {
          "internalType": "uint256",
          "name": "amount",
          "type": "uint256"
        }
      ],
      "name": "transferFrom",
      "outputs": [
        {
          "internalType": "bool",
          "name": "",
          "type": "bool"
        }
      ],
      "stateMutability": "nonpayable",
      "type": "function"
    },
    {
      "inputs": [],
      "name": "troveManagerAddress",
      "outputs": [
        {
          "internalType": "address",
          "name": "",
          "type": "address"
        }
      ],
      "stateMutability": "view",
      "type": "function"
    },
    {
      "inputs": [],
      "name": "version",
      "outputs": [
        {
          "internalType": "string",
          "name": "",
          "type": "string"
        }
      ],
      "stateMutability": "view",
      "type": "function"
    }
  ],
  "transactionHash": "0xfec0a3dc9b6861be93a842d38142b8a1d4d9f739eeda095c9d14233f214fd9be",
  "args": [
    "0xE06F4754e94E2b6A462E616Ca3Ec78c6f4674A61",
    "0xC2543Bf7E50769753220172f7a1Ed75F9A8618Ca",
    "0xA2569C5660F878968307fe677886a533599c0DF3"
  ],
  "numDeployments": 1,
  "solcInputHash": "ffe83ff5afde0d06d4b6b8e37e72100d",
  "bytecode": "0x6101006040523480156200001257600080fd5b506040516200197e3803806200197e833981810160405260608110156200003857600080fd5b5080516020820151604092830151600080546001600160a01b0319163390811782559451939492939192917f8be0079c531659141344cd1fd0a4f28419497f9722a3daafe3b4186f6b6457e0908290a3604080518082018252601081526f2d25aaa9a21029ba30b13632b1b7b4b760811b602091820152815180830190925260018252603160f81b9101527fcda63b3283a11198b97f4fb82fc4321a60da89111db0d703824f5f2a56b3bbf360c08190527fc89efdaa54c0f20c7adf612882df0950f5a951637e0307cdcb4c672f298b8bc660e0819052620001226001600160e01b036200029816565b60a0526200015b7f8b73c3c69bb8fe3d512ecc4cf759cc79239f7b179b0ffacaa9a75d522b39400f83836001600160e01b036200029c16565b60805262000172856001600160e01b03620002fd16565b62000186846001600160e01b03620002fd16565b6200019a836001600160e01b03620002fd16565b600580546001600160a01b0387166001600160a01b0319909116811790915560408051918252517f143219c9e69b09e07e095fcc889b43d8f46ca892bba65f08dc3a0050869a56789181900360200190a1600680546001600160a01b0386166001600160a01b0319909116811790915560408051918252517f82966d27eea39b038ee0fa30cd16532bb24f6e65d31cb58fb227aa5766cdcc7f9181900360200190a1600780546001600160a01b0385166001600160a01b0319909116811790915560408051918252517f3ca631ffcd2a9b5d9ae18543fc82f58eb4ca33af9e6ab01b7a8e95331e6ed9859181900360200190a15050505050620003b2565b4690565b6000838383620002b46001600160e01b036200029816565b6040805160208082019690965280820194909452606084019290925260808301523060a0808401919091528151808403909101815260c090920190528051910120949350505050565b6001600160a01b03811662000359576040805162461bcd60e51b815260206004820152601e60248201527f4163636f756e742063616e6e6f74206265207a65726f20616464726573730000604482015290519081900360640190fd5b803b80620003ae576040805162461bcd60e51b815260206004820181905260248201527f4163636f756e7420636f64652073697a652063616e6e6f74206265207a65726f604482015290519081900360640190fd5b5050565b60805160a05160c05160e051611596620003e860003980610bf0525080610bcf525080610b55525080610b8552506115966000f3fe608060405234801561001057600080fd5b506004361061014e5760003560e01c806370a08231116100be57806370a08231146103825780637ecebe00146103a85780638da5cb5b146103ce5780638f32d59b146103d657806395d89b41146103de5780639dc29fac146103e6578063a457c2d714610412578063a9059cbb1461043e578063b7f8cf9b1461046a578063bb997bac14610472578063d505accf146104a8578063dd62ed3e146104f9578063f698da25146105275761014e565b806306fdde0314610153578063095ea7b3146101d05780630b622ab21461021057806310ce43bd1461023457806318160ddd1461024e57806320c582be1461025657806323b872dd1461028e578063313ce567146102c4578063363bf964146102e2578063395093511461031a57806340c10f191461034657806354fd4d50146103725780635a4d28bb1461037a575b600080fd5b61015b61052f565b6040805160208082528351818301528351919283929083019185019080838360005b8381101561019557818101518382015260200161017d565b50505050905090810190601f1680156101c25780820380516001836020036101000a031916815260200191505b509250505060405180910390f35b6101fc600480360360408110156101e657600080fd5b506001600160a01b03813516906020013561055a565b604080519115158252519081900360200190f35b610218610570565b604080516001600160a01b039092168252519081900360200190f35b61023c61057f565b60408051918252519081900360200190f35b61023c6105a3565b61028c6004803603606081101561026c57600080fd5b506001600160a01b038135811691602081013590911690604001356105a9565b005b6101fc600480360360608110156102a457600080fd5b506001600160a01b038135811691602081013590911690604001356105c1565b6102cc610639565b6040805160ff9092168252519081900360200190f35b61028c600480360360608110156102f857600080fd5b506001600160a01b03813581169160208101358216916040909101351661063e565b6101fc6004803603604081101561033057600080fd5b506001600160a01b0381351690602001356107aa565b61028c6004803603604081101561035c57600080fd5b506001600160a01b0381351690602001356107e6565b61015b6107fc565b610218610817565b61023c6004803603602081101561039857600080fd5b50356001600160a01b0316610826565b61023c600480360360208110156103be57600080fd5b50356001600160a01b0316610841565b61021861085c565b6101fc61086b565b61015b61087c565b61028c600480360360408110156103fc57600080fd5b506001600160a01b03813516906020013561089b565b6101fc6004803603604081101561042857600080fd5b506001600160a01b0381351690602001356108ad565b6101fc6004803603604081101561045457600080fd5b506001600160a01b038135169060200135610902565b610218610918565b61028c6004803603606081101561048857600080fd5b506001600160a01b03813581169160208101359091169060400135610927565b61028c600480360360e08110156104be57600080fd5b506001600160a01b03813581169160208101359091169060408101359060608101359060ff6080820135169060a08101359060c0013561092f565b61023c6004803603604081101561050f57600080fd5b506001600160a01b0381358116916020013516610b26565b61023c610b51565b60408051808201909152601081526f2d25aaa9a21029ba30b13632b1b7b4b760811b60208201525b90565b6000610567338484610c1b565b50600192915050565b6006546001600160a01b031681565b7f6e71edae12b1b97f4d1f60370fef10105fa2faae0126114a169c64845d6126c990565b60015490565b6105b1610c9d565b6105bc838383610cfd565b505050565b60006105cc83610ddf565b6105d7848484610cfd565b61062f843361062a8560405180606001604052806028815260200161151d602891396001600160a01b038a166000908152600460209081526040808320338452909152902054919063ffffffff610ebf16565b610c1b565b5060019392505050565b601290565b61064661086b565b610697576040805162461bcd60e51b815260206004820181905260248201527f4f776e61626c653a2063616c6c6572206973206e6f7420746865206f776e6572604482015290519081900360640190fd5b6106a083610f56565b6106a982610f56565b6106b281610f56565b600580546001600160a01b0385166001600160a01b0319909116811790915560408051918252517f143219c9e69b09e07e095fcc889b43d8f46ca892bba65f08dc3a0050869a56789181900360200190a1600680546001600160a01b0384166001600160a01b0319909116811790915560408051918252517f82966d27eea39b038ee0fa30cd16532bb24f6e65d31cb58fb227aa5766cdcc7f9181900360200190a1600780546001600160a01b0383166001600160a01b0319909116811790915560408051918252517f3ca631ffcd2a9b5d9ae18543fc82f58eb4ca33af9e6ab01b7a8e95331e6ed9859181900360200190a1505050565b3360008181526004602090815260408083206001600160a01b0387168452909152812054909161056791859061062a908663ffffffff61100516565b6107ee611064565b6107f882826110ad565b5050565b6040805180820190915260018152603160f81b602082015290565b6005546001600160a01b031681565b6001600160a01b031660009081526003602052604090205490565b6001600160a01b031660009081526002602052604090205490565b6000546001600160a01b031690565b6000546001600160a01b0316331490565b6040805180820190915260058152641692d554d160da1b602082015290565b6108a3611142565b6107f882826111b5565b6000610567338461062a85604051806060016040528060258152602001611565602591393360009081526004602090815260408083206001600160a01b038d168452909152902054919063ffffffff610ebf16565b600061090d83610ddf565b610567338484610cfd565b6007546001600160a01b031681565b6105b161126a565b4284101561097e576040805162461bcd60e51b81526020600482015260176024820152765a4b5553443a206578706972656420646561646c696e6560481b604482015290519081900360640190fd5b6000610988610b51565b6001600160a01b03808a1660008181526002602090815260408083208054600180820190925582517f6e71edae12b1b97f4d1f60370fef10105fa2faae0126114a169c64845d6126c98186015280840196909652958e166060860152608085018d905260a085019590955260c08085018c90528151808603909101815260e08501825280519083012061190160f01b6101008601526101028501969096526101228085019690965280518085039096018652610142840180825286519683019690962095839052610162840180825286905260ff8a166101828501526101a284018990526101c284018890525194955090936101e280840193601f198301929081900390910190855afa158015610aa3573d6000803e3d6000fd5b505050602060405103519050886001600160a01b0316816001600160a01b031614610b10576040805162461bcd60e51b81526020600482015260186024820152775a4b5553443a20696e76616c6964207369676e617475726560401b604482015290519081900360640190fd5b610b1b898989610c1b565b505050505050505050565b6001600160a01b03918216600090815260046020908152604080832093909416825291909152205490565b60007f0000000000000000000000000000000000000000000000000000000000000000610b7c6112b3565b1415610ba957507f0000000000000000000000000000000000000000000000000000000000000000610557565b610c147f8b73c3c69bb8fe3d512ecc4cf759cc79239f7b179b0ffacaa9a75d522b39400f7f00000000000000000000000000000000000000000000000000000000000000007f00000000000000000000000000000000000000000000000000000000000000006112b7565b9050610557565b6001600160a01b038316610c2b57fe5b6001600160a01b038216610c3b57fe5b6001600160a01b03808416600081815260046020908152604080832094871680845294825291829020859055815185815291517f8c5be1e5ebec7d5bd14f71427d1e84f3dd0314c0f7b2291e5b200ac8c7c3b9259281900390910190a3505050565b6005546001600160a01b0316331480610cc057506006546001600160a01b031633145b610cfb5760405162461bcd60e51b81526004018080602001828103825260378152602001806114906037913960400191505060405180910390fd5b565b6001600160a01b038316610d0d57fe5b6001600160a01b038216610d1d57fe5b610d6081604051806060016040528060268152602001611398602691396001600160a01b038616600090815260036020526040902054919063ffffffff610ebf16565b6001600160a01b038085166000908152600360205260408082209390935590841681522054610d95908263ffffffff61100516565b6001600160a01b03808416600081815260036020908152604091829020949094558051858152905191939287169260008051602061154583398151915292918290030190a3505050565b6001600160a01b03811615801590610e0057506001600160a01b0381163014155b610e3b5760405162461bcd60e51b81526004018080602001828103825260568152602001806114c76056913960600191505060405180910390fd5b6006546001600160a01b03828116911614801590610e6757506005546001600160a01b03828116911614155b8015610e8157506007546001600160a01b03828116911614155b610ebc5760405162461bcd60e51b81526004018080602001828103825260588152602001806113be6058913960600191505060405180910390fd5b50565b60008184841115610f4e5760405162461bcd60e51b81526004018080602001828103825283818151815260200191508051906020019080838360005b83811015610f13578181015183820152602001610efb565b50505050905090810190601f168015610f405780820380516001836020036101000a031916815260200191505b509250505060405180910390fd5b505050900390565b6001600160a01b038116610fb1576040805162461bcd60e51b815260206004820152601e60248201527f4163636f756e742063616e6e6f74206265207a65726f20616464726573730000604482015290519081900360640190fd5b803b806107f8576040805162461bcd60e51b815260206004820181905260248201527f4163636f756e7420636f64652073697a652063616e6e6f74206265207a65726f604482015290519081900360640190fd5b60008282018381101561105d576040805162461bcd60e51b815260206004820152601b60248201527a536166654d6174683a206164646974696f6e206f766572666c6f7760281b604482015290519081900360640190fd5b9392505050565b6007546001600160a01b03163314610cfb5760405162461bcd60e51b815260040180806020018281038252602c815260200180611416602c913960400191505060405180910390fd5b6001600160a01b0382166110bd57fe5b6001546110d0908263ffffffff61100516565b6001556001600160a01b0382166000908152600360205260409020546110fc908263ffffffff61100516565b6001600160a01b03831660008181526003602090815260408083209490945583518581529351929391926000805160206115458339815191529281900390910190a35050565b6007546001600160a01b031633148061116557506005546001600160a01b031633145b8061117a57506006546001600160a01b031633145b610cfb5760405162461bcd60e51b815260040180806020018281038252604e815260200180611442604e913960600191505060405180910390fd5b6001600160a01b0382166111c557fe5b61120881604051806060016040528060228152602001611350602291396001600160a01b038516600090815260036020526040902054919063ffffffff610ebf16565b6001600160a01b038316600090815260036020526040902055600154611234908263ffffffff61130d16565b6001556040805182815290516000916001600160a01b038516916000805160206115458339815191529181900360200190a35050565b6006546001600160a01b03163314610cfb5760405162461bcd60e51b81526004018080602001828103825260268152602001806113726026913960400191505060405180910390fd5b4690565b60008383836112c46112b3565b6040805160208082019690965280820194909452606084019290925260808301523060a0808401919091528151808403909101815260c090920190528051910120949350505050565b600061105d83836040518060400160405280601e81526020017f536166654d6174683a207375627472616374696f6e206f766572666c6f770000815250610ebf56fe45524332303a206275726e20616d6f756e7420657863656564732062616c616e63655a4b5553443a2043616c6c6572206973206e6f74207468652053746162696c697479506f6f6c45524332303a207472616e7366657220616d6f756e7420657863656564732062616c616e63655a4b5553443a2043616e6e6f74207472616e7366657220746f6b656e73206469726563746c7920746f207468652053746162696c697479506f6f6c2c2054726f76654d616e61676572206f7220426f72726f7765724f70735a4b555344546f6b656e3a2043616c6c6572206973206e6f7420426f72726f7765724f7065726174696f6e735a4b5553443a2043616c6c6572206973206e65697468657220426f72726f7765724f7065726174696f6e73206e6f722054726f76654d616e61676572206e6f722053746162696c697479506f6f6c5a4b5553443a2043616c6c6572206973206e6569746865722054726f76654d616e61676572206e6f722053746162696c697479506f6f6c5a4b5553443a2043616e6e6f74207472616e7366657220746f6b656e73206469726563746c7920746f20746865205a4b55534420746f6b656e20636f6e7472616374206f7220746865207a65726f206164647265737345524332303a207472616e7366657220616d6f756e74206578636565647320616c6c6f77616e6365ddf252ad1be2c89b69c2b068fc378daa952ba7f163c4a11628f55a4df523b3ef45524332303a2064656372656173656420616c6c6f77616e63652062656c6f77207a65726fa164736f6c634300060b000a",
  "devdoc": {
    "kind": "dev",
    "methods": {
      "allowance(address,address)": {
        "details": "Returns the remaining number of tokens that `spender` will be allowed to spend on behalf of `owner` through {transferFrom}. This is zero by default. This value changes when {approve} or {transferFrom} are called."
      },
      "approve(address,uint256)": {
        "details": "Sets `amount` as the allowance of `spender` over the caller's tokens. Returns a boolean value indicating whether the operation succeeded. IMPORTANT: Beware that changing an allowance with this method brings the risk that someone may use both the old and the new allowance by unfortunate transaction ordering. One possible solution to mitigate this race condition is to first reduce the spender's allowance to 0 and set the desired value afterwards: https://github.com/ethereum/EIPs/issues/20#issuecomment-263524729 Emits an {Approval} event."
      },
      "balanceOf(address)": {
        "details": "Returns the amount of tokens owned by `account`."
      },
      "isOwner()": {
        "details": "Returns true if the caller is the current owner."
      },
      "nonces(address)": {
        "details": "Returns the current ERC2612 nonce for `owner`. This value must be included whenever a signature is generated for {permit}. Every successful call to {permit} increases `owner`'s nonce by one. This prevents a signature from being used multiple times. `owner` can limit the time a Permit is valid for by setting `deadline` to a value in the near future. The deadline argument can be set to uint(-1) to create Permits that effectively never expire."
      },
      "owner()": {
        "details": "Returns the address of the current owner."
      },
      "permit(address,address,uint256,uint256,uint8,bytes32,bytes32)": {
        "details": "Sets `amount` as the allowance of `spender` over `owner`'s tokens, given `owner`'s signed approval. IMPORTANT: The same issues {IERC20-approve} has related to transaction ordering also apply here. Emits an {Approval} event. Requirements: - `owner` cannot be the zero address. - `spender` cannot be the zero address. - `deadline` must be a timestamp in the future. - `v`, `r` and `s` must be a valid `secp256k1` signature from `owner` over the EIP712-formatted function arguments. - the signature must use ``owner``'s current nonce (see {nonces}). For more information on the signature format, see the https://eips.ethereum.org/EIPS/eip-2612#specification[relevant EIP section]."
      },
      "totalSupply()": {
        "details": "Returns the amount of tokens in existence."
      },
      "transfer(address,uint256)": {
        "details": "Moves `amount` tokens from the caller's account to `recipient`. Returns a boolean value indicating whether the operation succeeded. Emits a {Transfer} event."
      },
      "transferFrom(address,address,uint256)": {
        "details": "Moves `amount` tokens from `sender` to `recipient` using the allowance mechanism. `amount` is then deducted from the caller's allowance. Returns a boolean value indicating whether the operation succeeded. Emits a {Transfer} event."
      }
    },
    "version": 1
  },
  "userdoc": {
    "kind": "user",
    "methods": {},
    "version": 1
  },
  "storageLayout": {
    "storage": [
      {
        "astId": 4382,
        "contract": "contracts/ZKUSDToken.sol:ZKUSDToken",
        "label": "_owner",
        "offset": 0,
        "slot": "0",
        "type": "t_address"
      },
      {
        "astId": 32807,
        "contract": "contracts/ZKUSDToken.sol:ZKUSDToken",
        "label": "_totalSupply",
        "offset": 0,
        "slot": "1",
        "type": "t_uint256"
      },
      {
        "astId": 32837,
        "contract": "contracts/ZKUSDToken.sol:ZKUSDToken",
        "label": "_nonces",
        "offset": 0,
        "slot": "2",
        "type": "t_mapping(t_address,t_uint256)"
      },
      {
        "astId": 32841,
        "contract": "contracts/ZKUSDToken.sol:ZKUSDToken",
        "label": "_balances",
        "offset": 0,
        "slot": "3",
        "type": "t_mapping(t_address,t_uint256)"
      },
      {
        "astId": 32847,
        "contract": "contracts/ZKUSDToken.sol:ZKUSDToken",
        "label": "_allowances",
        "offset": 0,
        "slot": "4",
        "type": "t_mapping(t_address,t_mapping(t_address,t_uint256))"
      },
      {
        "astId": 32849,
        "contract": "contracts/ZKUSDToken.sol:ZKUSDToken",
        "label": "troveManagerAddress",
        "offset": 0,
        "slot": "5",
        "type": "t_address"
      },
      {
        "astId": 32851,
        "contract": "contracts/ZKUSDToken.sol:ZKUSDToken",
        "label": "stabilityPoolAddress",
        "offset": 0,
        "slot": "6",
        "type": "t_address"
      },
      {
        "astId": 32853,
        "contract": "contracts/ZKUSDToken.sol:ZKUSDToken",
        "label": "borrowerOperationsAddress",
        "offset": 0,
        "slot": "7",
        "type": "t_address"
      }
    ],
    "types": {
      "t_address": {
        "encoding": "inplace",
        "label": "address",
        "numberOfBytes": "20"
      },
      "t_mapping(t_address,t_mapping(t_address,t_uint256))": {
        "encoding": "mapping",
        "key": "t_address",
        "label": "mapping(address => mapping(address => uint256))",
        "numberOfBytes": "32",
        "value": "t_mapping(t_address,t_uint256)"
      },
      "t_mapping(t_address,t_uint256)": {
        "encoding": "mapping",
        "key": "t_address",
        "label": "mapping(address => uint256)",
        "numberOfBytes": "32",
        "value": "t_uint256"
      },
      "t_uint256": {
        "encoding": "inplace",
        "label": "uint256",
        "numberOfBytes": "32"
      }
    }
  }
}